:020000040001F9
:10B0000000800020A5B20100C3B20100C5B201005A
:10B010000000000000000000000000000000000030
:10B02000000000000000000000000000C7B20100A6
:10B030000000000000000000C9B20100CBB2010016
:10B04000CDB20100CDB20100CDB20100CDB2010000
:10B05000CDB2010000000000CDB20100CDB2010070
:10B06000CDB20100CDB20100CDB20100CDB20100E0
:10B07000CDB20100CDB20100CDB20100CDB20100D0
:10B08000CDB20100CDB20100CDB20100CDB20100C0
:10B09000CDB20100CDB20100CDB20100CDB20100B0
:10B0A000CDB20100CDB201000000000000000000A0
:10B0B0000000000000000000000000000000000090
:10B0C00000F002F800F0B5F80CA030C808382418D9
:10B0D0002D18A246671EAB4654465D46AC4201D1D0
:10B0E00000F0A7F87E460F3E0FCCB646012633424D
:10B0F00000D0FB1AA246AB4633431847F4F30000D6
:10B1000014F400000023002400250026103A01D387
:10B1100078C1FBD8520700D330C100D50B6070470F
:10B1200010B56E2902D101F0EEFE10BD702902D1DA
:10B1300000F0C1FA10BD662902D10EF01FFD10BD4E
:10B14000652902D10EF01AFD10BD672902D10EF05B
:10B1500015FD10BD612902D10EF018FD10BD036868
:10B160001B0A01D380231943692902D100F02EFA6A
:10B1700010BD642902D100F029FA10BD752902D151
:10B1800000F024FA10BD6F2902D102F0E3F910BDDE
:10B19000782902D100F07CFA10BDE92902D102F031
:10B1A0007FF910BDE42902D102F07AF910BDF5292A
:10B1B00002D102F075F910BDEF2902D102F0D6F9E3
:10B1C00010BDF82902D100F071FA10BD0368DB0947
:10B1D00001D380231943632902D102F0E3F810BDA3
:10B1E000732902D102F0E6F810BDE32902D103F081
:10B1F00064F810BDF32902D103F067F810BD0020F8
:10B2000010BD1FB50098019901F0DFFD02F03EFE70
:10B210000400002000210EF051FA401C6060002064
:10B2200000210EF035FAE06002F0E8FC00F068FE64
:10B230001FBD09F007FF114603B409F017FF03BC57
:10B24000FFF7DFFF03F026FD0AF0DCFF401E00BF22
:10B2500000BF00BF00BF00BF00BF00BF00BF00BFF6
:10B2600000BF00BF00BFF1D17047000070B50546B8
:10B270000C46164602E00FCC0FC5103E102EFAD237
:10B28000082E02D303CC03C5083E042E07D301CCFD
:10B2900001C5361F03E021782970641C6D1C761EE1
:10B2A000F9D270BD03210A4802680A4302600948C6
:10B2B00002680A43026008488047084880470848F7
:10B2C0000047FEE7FEE7FEE7FEE7FEE7FEE70000D9
:10B2D000240500405405004005EF0100317F0200C5
:10B2E000C1B00100004870478841002070B5064693
:10B2F00001F04EFD056830460B30C408E400B4424E
:10B3000001D8002070BD68682A46002818D001685E
:10B31000A14211D30B46214608318B4208D3436822
:10B3200001194B6003681B1B0B605160046001E056
:10B3300041685160001D70BD024640680028E6D19A
:10B340002146284601F02CFD0028DCD170BD70B5E7
:10B350000446051F01F01CFD0068002C1AD044684B
:10B3600001E020466468002C01D0AC42F9D30168AA
:10B370000A18AA4204D12A6805468918016000E02B
:10B38000456028684119A14205D16168696021685A
:10B390004018286070BD6C6070BDFEB50546104653
:10B3A0000C46184373D0AE468C460020AD1A0146B9
:10B3B0009C4167D36646002701243D46B61A9D414D
:10B3C00002D313463A462124654676462F04360CAE
:10B3D0003E432D0CB61A9D4104D3150C1B042B4380
:10B3E00012041034654676462F06360A3E432D0A6F
:10B3F000B61A9D4104D3150E1B022B4312020834CA
:10B40000654676462F0736093E432D09B61A9D41FB
:10B4100004D3150F1B012B431201241D65467646EC
:10B42000AF07B6083E43AD08B61A9D4104D3950F49
:10B430009B002B439200A41C65467646EF077608D6
:10B440003E436D08B61A9D411AD392185B41641CA5
:10B4500016E00018764665464941B71A9D410191AC
:10B46000009009D36046B11A98418E4684460098F0
:10B4700001990025401C6941DD0752082A435B08F9
:10B48000641EE6D57246634603B0F0BDFFE70020B8
:10B490000146C046C0462A462346F5E77CB51D4610
:10B4A00016460C00009001D00019401E084B7B444A
:10B4B0002A4669460190304601F049FF002C0546B6
:10B4C00003D06946002001F055FF28467CBD0000EE
:10B4D000CD1E000010B50B460146184601F06EFF68
:10B4E00010BD00000FB4054910B503AA029801F081
:10B4F00065FF10BC08BC04B018470000E041002004
:10B500000FB41CB5084B06AA7B4469460090059809
:10B5100001F01DFF04460020694601F02BFF204684
:10B520001CBC08BC04B01847691E000070B5044676
:10B5300085690068C10601D5302600E02026C007D5
:10B5400007D070BD62683046A1689047206A401CF1
:10B5500020626D1EF6D570BD70B504468569007811
:10B56000C00707D170BD6268A16820209047206A9B
:10B57000401C20626D1EF6D570BD70B50C460546A8
:10B58000012A05D02878800600D5EA69002302E068
:10B59000012305E05B1C934202D2E05C0028F9D154
:10B5A000A869E618C01AA861286AC0182862284647
:10B5B000FFF7BCFF04E06A682078A968641C904724
:10B5C000B442F8D32846FFF7C7FF70BDF7B5002592
:10B5D00075291068009914A611D001F02AFC0028E2
:10B5E00002DA404211A608E0009909688A0701D5ED
:10B5F0000FA602E0490704D50EA6012501E001F0DF
:10B6000021FC009F0024243704E002F0A5FB303128
:10B610003955641C0028F8D12B4632462146009843
:10B6200001F019FCFEBD0000000000002D0000002C
:10B630002B00000020000000F8B50F460188090526
:10B6400002D5224C7C4402E0204C7C440E3405465A
:10B650000021243508E016071209360FA65D6E5446
:10B660001E0732431B09491C16461E43F3D12246CE
:10B6700004780023240705D5702F06D0002901D0B7
:10B680000223113201F0E7FBF8BD01231032F9E784
:10B6900070B504460D462146106801F0D3FB002327
:10B6A000024629462046FFF7C7FF70BDD21DD308CA
:10B6B000DB000CCBC0E730B40368202412682343BE
:10B6C00003600823C36130BC0023B5E770E70000C6
:10B6D000F3B50446002081B020622046E168884727
:10B6E000002872D0252802D06268A168ABE0594FCB
:10B6F00000267F442046E16888472028054608DB6D
:10B70000312D06D2781920380078002801D0064360
:10B71000F0E7B00701D5042086430020E06107462A
:10B72000A0612A2D0AD0284609F090FC002827D0D5
:10B73000B8000019303D0090856119E00298BA0008
:10B74000121902C8916102902046E1688847012FD2
:10B75000054617D1E06900281FDA202086431CE047
:10B7600000980A218069484300994019303888615F
:10B770002046E1688847054609F068FC0028EFD1BB
:10B78000012F0AD02E2D08D12046E16888470546B2
:10B79000202006437F1C022FC3DBA069002803DAA8
:10B7A0004042A06101200643F00701D010208643EB
:10B7B0006C2D0BD0682D09D04C2D3CD06A2D38D083
:10B7C000742D38D07A2D36D016E040E0E1682F464F
:10B7D00020468847B842054609D16C2F29D0012060
:10B7E0008002E168064320468847054604E06C2F46
:10B7F0001DD0FF2001300643002D28D028464138B7
:10B80000192803D80120C0020643203520462660AF
:10B810002946029A1646FFF783FC002810D001281B
:10B820000BD0F61DF008C0000830029055E740200C
:10B83000E1E78020D5E70020D3E7361D02964CE7EC
:10B8400062682846A1689047206A401C44E7206A45
:10B85000FEBD0000EAE6000070B50446C06881073E
:10B8600013D0800601D5A56A04E0A169606840187C
:10B870002169451A204602F079F900220646294638
:10B88000204602F0A3F8304670BD002070BD70B5B0
:10B89000002802D0FFF7E0FF70BD0025074C6E1EA8
:10B8A00008E02046FFF7D8FF002800D03546206D7D
:10B8B00044086400002CF4D1284670BD8C4100205F
:10B8C00070B50D46044604E029460AF0AEFC401C63
:10B8D00004D02078641C0028F6D170BD0020C0433D
:10B8E00070BD10B50AF093FC10BD10B50AF09DFCB8
:10B8F00010BD0000F7B516460C46104600F07CF867
:10B900002078611C61280AD0722802D0772839D1AA
:10B9100002E00125002404E00225042401E02D4D6D
:10B9200008240222032301270878491C2B2806D06B
:10B93000622807D02039C87F742807D008E01D434B
:10B940001443F1E7042005433C43EDE71020044392
:10B950000098214609F0F8FB411C13D00021316109
:10B9600071600121F5604902F1617061200704D521
:10B9700030460222002102F029F8306D384330654C
:10B980003046FEBD0020FEBDF8B50D460646124C01
:10B99000206DC10704D0410804D044086400F7E7D3
:10B9A000224610E05420FFF7A1FC070010D07908D0
:10B9B000206D490001221143084354212065384677
:10B9C00000F058F93A4629463046FFF793FFF8BD94
:10B9D0000020F8BD028000008C41002010B5002935
:10B9E00002D0FF22013201E00122920201235B0218
:10B9F00002F066F810BD0000FEB504464669006915
:10BA00000F4F0190E56800200090A80707D020465E
:10BA100002F0ACF8304609F02DFB002801DA384678
:10BA2000FEBD280502D50198FFF791FC4C21204668
:10BA300000F020F9206D4008400020650098FEBD10
:10BA4000FFFFFFFF0EB5044615460E4612A002F09A
:10BA5000FBFF204602F0F8FF15A002F0F5FF30468C
:10BA600002F0F2FF14A002F0EFFF6C460020E0723B
:10BA70000A20A0720A3407E00A21284600F05AF989
:10BA800030310546641E2170002DF5DC204602F0A1
:10BA9000DBFF02F051F900002A2A2A206173736546
:10BAA0007274696F6E206661696C65643A2000008B
:10BAB0002C2066696C6520002C206C696E65200066
:10BAC00030B5441C03E00178401C00290DD08107EB
:10BAD000F9D10B4BDD0104C8D11A91432940FAD0AA
:10BAE000001B0A0603D0C01E30BD001B30BD0A0477
:10BAF00001D0801E30BD0902FCD0401E30BD0000C8
:10BB0000010101010346F0B50B439B072DD1244DE4
:10BB1000EF01042A29D308C810C95E1B9E43121FD7
:10BB20003E4017D0D8B2E1B2401A3106014310D1DD
:10BB300098B2A1B2401A310401430AD1180221027D
:10BB4000000A090A401A3102014302D1180E210EDF
:10BB5000401AF0BDA342DCD018BA21BA884201D9FC
:10BB60000120F0BD0020C043F0BD002A01D100201B
:10BB7000F0BD03780C78401C491C002B0DD0A3426B
:10BB80000BD1521E09D003780C78401C491C002BA5
:10BB900003D0A34201D1521EEBD1181BF0BD00000F
:10BBA00001010101F8B5042A2CD3830712D00B78C8
:10BBB000491C0370401C521E83070BD00B78491C94
:10BBC0000370401C521E830704D00B78491C03707D
:10BBD000401C521E8B079B0F05D0C91ADF00202383
:10BBE000DE1B08C90AE0FFF741FBF8BD1D4608C986
:10BBF000FD401C46B4402C4310C0121F042AF5D24D
:10BC0000F308C91A521EF0D40B78491C0370401C6B
:10BC1000521EEAD40B78491C0370401C012AE4D45C
:10BC200009780170F8BDD2B210B513029A18130446
:10BC30009A1800F00EF810BD01E004C0091F042995
:10BC4000FBD28B0701D50280801CC90700D002708F
:10BC5000704700290BD0C30702D00270401C491E58
:10BC6000022904D3830702D50280801C891EE3E7E2
:10BC70000022EEE70022DFE782078B079A4237D1E6
:10BC800070B5920F0AD0032402780B78401C491C2F
:10BC9000002A2BD09A4229D12042F5D11D4EF40121
:10BCA00004C808C9951B9543254010D19A4207D175
:10BCB00004C808C9951B9543254008D19A42EFD086
:10BCC00012BA1BBA01209A4200D2404270BD12BA89
:10BCD0001BBA2DBA18241000E0401900E140401AA8
:10BCE00005D12E00E64002D1083CF4D1D01A70BD37
:10BCF00002780B78401C491C002A09D09A4207D1CF
:10BD000002780B78401C491C002A01D09A42EFD0DF
:10BD1000D01A704701010101002203098B4273D33D
:10BD2000030A8B4258D3030B8B423CD3030C8B4248
:10BD300021D312E003460B437FD4002243088B42F9
:10BD400074D303098B425FD3030A8B4244D3030BA2
:10BD50008B4228D3030C8B420DD3FF22090212BA67
:10BD6000030C8B4202D31212090265D0030B8B42E3
:10BD700019D300E0090AC30B8B4201D3CB03C01ACD
:10BD80005241830B8B4201D38B03C01A5241430BA8
:10BD90008B4201D34B03C01A5241030B8B4201D398
:10BDA0000B03C01A5241C30A8B4201D3CB02C01A03
:10BDB0005241830A8B4201D38B02C01A5241430A7B
:10BDC0008B4201D34B02C01A5241030A8B4201D36A
:10BDD0000B02C01A5241CDD2C3098B4201D3CB0111
:10BDE000C01A524183098B4201D38B01C01A5241C0
:10BDF00043098B4201D34B01C01A524103098B42C4
:10BE000001D30B01C01A5241C3088B4201D3CB00AE
:10BE1000C01A524183088B4201D38B00C01A524191
:10BE200043088B4201D34B00C01A5241411A00D241
:10BE300001465241104670475DE0CA0F00D04942AA
:10BE4000031000D34042534000229C4603098B421A
:10BE50002DD3030A8B4212D3FC22890112BA030AA2
:10BE60008B420CD3890192118B4208D38901921124
:10BE70008B4204D389013AD0921100E08909C309A9
:10BE80008B4201D3CB01C01A524183098B4201D3AB
:10BE90008B01C01A524143098B4201D34B01C01A96
:10BEA000524103098B4201D30B01C01A5241C3080E
:10BEB0008B4201D3CB00C01A524183088B4201D37D
:10BEC0008B00C01A5241D9D243088B4201D34B0098
:10BED000C01A5241411A00D20146634652415B10DA
:10BEE000104601D34042002B00D5494270476346BB
:10BEF0005B1000D3404201B50020C046C04602BDE1
:10BF000070B5064C7C44064D7D4403E02068001962
:10BF10008047241DAC42F9D170BD000034E7000019
:10BF200088E70000F8B517460E460546002B07D0F7
:10BF3000104658434419E41B2046B047A542FAD1A5
:10BF400028460838F8BD00000246C80FC0078143E4
:10BF50004B0030B54B405B009B0D20D01923DB0616
:10BF6000C91801231B05994220DB0324A4070425DB
:10BF70001346AB400BD3002B04D1EB0613409B00C0
:10BF8000E34204D401246407002312195941FF231A
:10BF90001B0599420BD2C9000143500F09E0CB02A7
:10BFA00004D501430803024305D0054830BDFF21F5
:10BFB000C905084330BD084607210905884330BD3F
:10BFC0000000C07FF0B50C46871A9C410D46861ACA
:10BFD0009D4103D2C01BA141D21963410D0D1F0D1C
:10BFE000C94EEC1BAE435CD07F057F0D0026002FB1
:10BFF00051D02D05AC46A943DD020123ED0A1B05F6
:10C000001D4320231B1B24D41746E74038187141D9
:10C010002F46E740CC199D402818314661410C0D50
:10C0200027D161449A4013D50023401C5941520046
:10C030000ED14008400001224B005205D34207D3E5
:10C0400005204007C14201D5B04900E0B049304663
:10C05000F0BD6B00002A00D001229A181F23203C5B
:10C060001B1B01D5002302E0E540281871410C0D8F
:10C07000D7D0012424050919C407CD074008490871
:10C08000E40F28436144002CD5D00024401C6141BA
:10C090009A40D0D1CDE76A05520DD9D1C90FC90751
:10C0A000D5E79C4D4E00002801D0012400E000247B
:10C0B00034195F00002A01D0012600E00026BE19D5
:10C0C000954FAC420CD8AE420AD8B44206D00125F6
:10C0D0006D05EC42BCD010461946F0BD9942FCD02B
:10C0E00000203946F0BDF0B51FB40C460F46811A4A
:10C0F0009F412546861A9D4106D20125ED076F40D6
:10C10000401ABC4152187B41210D1E0D8D1BAC46BF
:10C110007D4D8D437ED075056D0D7CD00D05AE46F1
:10C12000AC431B031B0B794D52429D4120236646B5
:10C130009B1B14D31746F740381800260090744113
:10C1400060462F460741E41900989D402818664133
:10C1500016D4714671189A4025D5012320E0931812
:10C160002A466A415200002B00D0521C1E23203E5A
:10C170009B1B002B61DD3541EE1728186641E8D581
:10C18000001876415B1C9A4000D3401C4B05F31805
:10C190001524E34010D3002B52D071467118D30FF1
:10C1A000C01802D3491C05B0F0BD0123DB079A4239
:10C1B000F9D140084000F6E701225205B21801D13A
:10C1C000002853D00123CC0ADB029943891E002AA0
:10C1D00008D1020C03D0020C0004103902E0024620
:10C1E000002020390023550B05D112020823550BDE
:10C1F00001D152010D23550C01D112011B1DD50C8B
:10C2000001D192009B1C150D01D152005B1C202511
:10C21000EE1A01E02CE022E00546F5401543984077
:10C22000CA1AE10769181305C918002ABBDA0320E6
:10C2300040070818C10FC9070FE071466118B2E73F
:10C24000F10740080843711071444A000CD00123E3
:10C250005B059A42A7D2C90FC9070020A3E7490589
:10C26000490D26D1002001E00028F4D100219AE7F1
:10C27000284D6600002801D0012100E0002171183E
:10C280005F00002A01D0012600E00026BE19224FDF
:10C29000A94210D8AE420ED8B14208D001256D0592
:10C2A000E94206D01946A802414010467BE79C426D
:10C2B00001D0214677E70020394674E710B50C46D7
:10C2C0005C4005D50124E4076340FFF70CFF10BD77
:10C2D000FFF778FE10BD30B40C465C4004D5012455
:10C2E000E407634030BC6DE630BCFCE670B5012469
:10C2F000E40761400D465D4002D4FFF763FE70BD68
:10C300006340FFF7F0FE70BDFF0700000000F0FF84
:10C310000000F07F0000E0FF0000F87FF0B5F94D6D
:10C320000C091E092C402E402F468BB0A7437DD010
:10C33000B543FCD0002E7AD0002CFCD00D465D40D9
:10C34000ED0F2543AC1BFF25AD0464190894C5020D
:10C35000440DC9022143500DDC0204430120C007F3
:10C3600001430443D2020191200C110C00958C462C
:10C37000010423468B430A9161460904E24D8A4336
:10C380000991010A7D4449198039097805464D43D0
:10C3900001266D18F605751B6943C90C640B891CD1
:10C3A0004C436418B5012C1B250C2E04B4434C439C
:10C3B0004D43210C691889090591009DE90701D0B9
:10C3C0000121C90704912C4601996708CD072F4325
:10C3D0004C08059DE10B4D432D0C294666467543DF
:10C3E00002950D4645432E46029D7D1BB4410095A6
:10C3F0000D465D4301942C0C2F040D465543AE466B
:10C400002D0C3D43029503947546049C2D04641B3A
:10C41000049406D2029C039D641C0026754103957A
:10C42000029401AC70CC009F7D1B01E03EE162E113
:10C43000B44109040095079101940599A40861434A
:10C44000090C0C464443650BE7040C4666467443EE
:10C45000A646640B3C43039502947446049DE40491
:10C460002C1B049406D2029C039D641C002675417B
:10C470000395029401AC70CC009F7D1BB4410194E4
:10C480000C465C430095650FE7000C465443A646F6
:10C49000640F3C43039502947446049DE4002C1BF6
:10C4A000049406D2029C039D641C002675410395EA
:10C4B000029401AC70CC009F7D1BB441AE09AF0665
:10C4C000049DC900AD092F43049DA406AD06049543
:10C4D000079D344369180791059DE10B4D432D0CD1
:10C4E00029466646754302950D4645432E46029DF4
:10C4F0007D1BB44100950D465D4301942C0C2F0427
:10C500000D465543AE462D0C3D43029503947546AA
:10C51000049C2D04641B049406D2029C039D641C9D
:10C52000002675410395029401AC70CC009F7D1BE1
:10C53000B44101948C050694079C890A6118009502
:10C540000791019C0599A4086143090C0D464543D8
:10C55000680BEF040D46644665436C0B3C43049F37
:10C56000ED047D1BAC4602D20025641C6841009E90
:10C57000019D371B85410846584301950C46460FDF
:10C58000C5005443600F28436546E4002C1B02D2CB
:10C590000025401C6E41019D3F1AB5412846BD094A
:10C5A000800628438446A009BF064E020699A406C9
:10C5B00076180743079D002068410A9907901943A0
:10C5C0000020099B00906046FF1913434041E20F91
:10C5D00064003A43A4460446D71A8C41A04203D9CA
:10C5E0000120009020463A46C70F94184041624609
:10C5F000D20F2243644664000494009CBE4664004B
:10C60000D71AA446044602978C417746002F01D1E1
:10C61000A04204D96046401C8446029A2046C40FBA
:10C62000A64694184041049A0546D20F2243644618
:10C630006400D31A8D417146002901D1A84202D964
:10C6400028461A46641C10430122002800D01643D5
:10C6500061020020079B891904465C410223002CDB
:10C6600002DB491813466441089DCE0A2D145D195A
:10C670004B056705E10A2C050D1908993E43C907CA
:10C680006940002B08D0934006D30022761C51410C
:10C69000002B01D1760876001C4A002D43DB1542A1
:10C6A00041D0AA433FD030460BB0F0BD06180D462E
:10C6B0004D41174C7642AC411AD395181C465C414B
:10C6C000134A6D42A24113D3012252054C00D442B9
:10C6D0000AD15C00D4420BD04B4002D592021143E8
:10C6E000E2E749004908DFE75940C90FC90718E0E8
:10C6F00000200849D8E7054801420DD10342F7D090
:10C70000F2E700000000FF0769DA00000000F07F98
:10C710000000E0FF0000F87F114859400143C012BB
:10C7200041400020C0E70123089A9B069A4205DC9D
:10C73000032252078918C90FC907B5E70522520716
:10C740008918074A1143D2125140ADE770B515461A
:10C750001C4602460B4628462146FFF7DFFD70BD0A
:10C76000FFFFFF7F30B50346CA02400D1043164D50
:10C77000164C0A1502D02043002A06DBAA1A002A0A
:10C7800012DDD040FF2A0BDC30BD5205520D01D125
:10C7900040004008AA1A07D4D0404042FF2A01DDD9
:10C7A000002030BD0028FCDD4A00002B01D0012014
:10C7B00000E00020101801225205D042F0D8C8171E
:10C7C000C043604030BD00001E0400000000008037
:10C7D0000346CA02400D10B510430A1504D00124C7
:10C7E000E4072043002A05DB0A4CA21A04D4D040F7
:10C7F000FF2A00DD002010BD4A00002B01D00120DF
:10C8000000E00020101801225205D042F2D8C817CB
:10C81000C04310BD1E0400001F22030C02D10F22D2
:10C82000000402D0030E03D004E00020014670474C
:10C830000002083A030F01D10001121F830F01D13A
:10C840008000921E002801DB4000521E1205511884
:10C850004205C012411810467047C10FC90700D0E9
:10C860004042012292071143D6E701218907D3E70D
:10C87000F0B58B4C0F09254689B0BD437BD01D090F
:10C880002646AE43FAD00E465E402740F60F3E43A2
:10C89000254071D024012142FBD0FF24AD19A4040E
:10C8A0002D1B039501252D05DB02DB0AC9022B4355
:10C8B000C90A29431E010901040F130F0501214371
:10C8C0001701880B820391432D098C46A90B1E4347
:10C8D0008A039543B30B9A0396433F09BA0B94031B
:10C8E000A74302962E467E430497B6464E19D719A3
:10C8F0000C460196544305977E43371B7646BF1B73
:10C900003601B646BE0B361900967646BC0437197A
:10C91000009C01D3641C00946400002F01D0012608
:10C920003443029E049F754366467E430496760018
:10C9300034196E0034190094029C019E1C19664340
:10C94000751BAE46069465464519059C05956C43D6
:10C95000594375460891691A0191049E0146514355
:10C96000A41B0491611A009C0791E10605D061099E
:10C970000122114302E072E06EE06109089D002788
:10C980002C0A2D066918049D7C412A0A2D06691877
:10C99000019D6241AC0DAD026D185441079A910D95
:10C9A000920255196141029A644658435443069BCA
:10C9B000059A5A43121A131B9A0E9B015B187A416F
:10C9C000010B0005C3185141220A200644195A419F
:10C9D0009A4200D2491C01204002814203D3152310
:10C9E0000226F64302E014230326F6432020C51A4C
:10C9F000A9401746AF40DA400A4320460399D84081
:10CA00000914731819055118039A3843D207514075
:10CA1000AC4009D00122944006D30022401C514171
:10CA2000002C01D1400840001E4A934212D301223B
:10CA300003989206904207DB0520400709181A4820
:10CA40000143C012414004E0032040070818C10F11
:10CA5000C907002009B0F0BD0020F107FAE705186A
:10CA60000C464C4111486D42A04115D394181A460A
:10CA70005A410E48644290410ED301204A004005BD
:10CA8000824209D35A00824206D35940C90F084A4C
:10CA9000C90700201143DDE700200649DAE700005E
:10CAA0000000FF07FE070000FFFFFF7F0000E0FF20
:10CAB0000000F07F0000F87F0121C9050123411823
:10CAC00042001B06D3185B0E0AD0C1100722D20603
:10CAD000891840075242D14201D552008918704747
:10CAE000090208D50146002A03D0C10FC90700205A
:10CAF000704710467047420202D00020024970473A
:10CB0000072109050143F4E70000F87FF0B5FF2590
:10CB10002D04C609C209FF2704462E400137CB0960
:10CB20003E4348402A402B400746002A6BD0002B4A
:10CB300069D0AA4267D0AB4265D0002800DA3246FD
:10CB40000125ED0529432C4309022002090AD21AC6
:10CB50004B0C7F24E31A434C000A7C44E35C7D24A5
:10CB60002404121914145B00A218884201D3521C29
:10CB700000E0400049420C465C4324115C43DB0169
:10CB80006415E318040A5C43C502200D0C464443B7
:10CB90006419250A5D432303EC0C0D46654300032D
:10CBA0000019EB184C42A34201D35B18401CD4057A
:10CBB0002018002B07D05B00C91804D3401C0029A3
:10CBC00001D1400840003F2189048A4209D3002A4C
:10CBD00008DC1106090F04D0032149074018C00FD3
:10CBE000C007F0BD01224100120689187F225206BB
:10CBF0009142F6D205214907C84201D59010F0BDF7
:10CC0000FF20C005F0BD002F00DA32461648AA42C8
:10CC100007D2AB4205D21902090E17D0F80FC00790
:10CC2000F0BDFF2563002D06AB42F9D84900A942AB
:10CC3000F6D8AB4201D1A942F2D0A94201D10021DC
:10CC400001E061004908D0050843F0BD1102090E5A
:10CC5000FBD0FF200243D005F0BD0A460146104636
:10CC600054E7000013D300000000C07F10B5014658
:10CC70009E240002CA15A307002A02D01843002AE6
:10CC800004DBA21A002A0CDDD04010BD1206120EE1
:10CC900001D140004008A21A03D4D04040420028ED
:10CCA000F3DDFF2248001206904201D9002010BD9A
:10CCB000C817C043584010BD0102C21504D001235B
:10CCC000DB071943002A0ADB9E239A1A02D408467E
:10CCD000D0407047FF2241001206914201D9002046
:10CCE0007047C017C043704710B50202C11504D089
:10CCF0000123DB071A43002914DBBE235B1A0CD483
:10CD00001146D9401C46203C02D41046E04010BDDC
:10CD10002020C31A1046984010BDFF224100120681
:10CD2000914202D90020014610BDC017C043C1176F
:10CD300010BD1F22030C02D10F2200041CD0030ED1
:10CD400001D10002083A030F01D10001121F830F25
:10CD500001D18000921E002801DB4000521ED20546
:10CD60005118021251181922904004D3491C00286E
:10CD700001D14908490008467047C10FC90700D0D2
:10CD80004042012292071143D3E701218907D0E7EE
:10CD900000487047884200207047704770477047CE
:10CDA00038B504460A460020694601F063FE0028B3
:10CDB00005D002462046009901F06CF8012038BDEC
:10CDC00010B5012001F022FE10BDF8B501F046FEBD
:10CDD000054600200C461020C0460646A819A04271
:10CDE0000DD932466946002001F044FE070001D10A
:10CDF00001F00CFE0098A04200D00546C419FFF7D0
:10CE0000C7FFF61D07460560F008C0004619284612
:10CE100000F008F8B44204D031463868A21B01F093
:10CE200039F8F8BD00210160416080607047102032
:10CE3000704709684A0501D540B27047C905FCD55D
:10CE400000B2704709684A0501D5C0B27047C905EC
:10CE5000FCD580B27047FFB504460D4681B0243042
:10CE600000902168880604D51022E0699143216072
:10CE700000E00120A84201DD471B00E000270498E4
:10CE8000A1697A191018081AA0612078C00602D486
:10CE90002046FEF74BFB002608E003986268A16875
:10CEA000805D9047206A401C761C20620498864270
:10CEB000F3DB2078C0060AD52046FEF737FB06E0F4
:10CEC0006268A16830209047206A401C2062384682
:10CED0007F1E0028F4DC07E000986268A168405DCE
:10CEE0009047206A401C206228466D1E0028F3DC13
:10CEF0002046FEF731FB2078000602D5022005B05F
:10CF0000F0BD0120FBE711680268006A530501D5F6
:10CF1000087009E0D30501D5088005E0130602D5A5
:10CF2000C21705C100E00860012070477047FFB5D7
:10CF30000C461E468FB003CA089009914F007D0D24
:10CF400000D16D1E002108460020C0460321099A29
:10CF500089050840002A03DA82008018400808404A
:10CF6000800D01280A9002DD0020C0430A90089835
:10CF700007430DD0F048F149281848430714189882
:10CF800000281DD07542291E1DDD0A9842421BE073
:10CF90001898012802D00020302104E00020F2433C
:10CFA00005E02154401CB042FBDB30460022189BB8
:10CFB000002121540F998B600A60486013B0F0BDC6
:10CFC000BD1B6D1CDFE70A9A002900DA69420BA835
:10CFD00001F080F90BAB07CB03AB07C308990998A5
:10CFE00001F0E4F96B4607C30146D5480918002D46
:10CFF00000910BDDD24903980A9A49424018002358
:10D0000003A90390684601F041FC08E003990A9ADD
:10D010000023081803A90390684601F0E1FB6B4662
:10D0200007C30004000C03D00020C043410800E007
:10D030001046189A002A03D00022009215461EE0DE
:10D04000751E05D400F040FF303262556D1EF9D5D3
:10D0500001220843079602D000227F1C04E02078BA
:10D06000302801D100227F1E002A069787D01EE0BB
:10D07000112D07DA00F028FF303262556D1C024690
:10D080000A43F5D1084303D00098002819D00EE0D8
:10D090000021681E05E0235C625C63542254401E3C
:10D0A000491C8142F7DBA81B401E07950690079A92
:10D0B00018990020A0540F98079B069A81600CC015
:10D0C0007CE711260020189059E7D21DF0B50D46D7
:10D0D0000446D10893B0C90003C90C900D9107F024
:10D0E00071FC02460D98C00F01D02D2007E020688A
:10D0F000810701D52B2002E04007C00F4001032A21
:10D100000F9001D0072A05DB03462946204601F08F
:10D1100085F80EE12078800601D5E76900E0062752
:10D120002846652D04D0662814D0672D69D12DE0DE
:10D130000020112F009001DB112300E07B1C0CAAC2
:10D1400003A910A8FFF7F3FE1199002610987D1C83
:10D150000E9142E001203B460CAAC0070B90012033
:10D16000009003A910A8FFF7E2FE119D12981099F4
:10D17000002600280E9501D1781C0D18781B02D4CA
:10D1800046427D1C761EE81B00903AE0012F00DA33
:10D1900001270020112F009001DD112300E03B4604
:10D1A0000CAA03A910A8FFF7C2FE11993D461098DA
:10D1B00000260E91217809070BD40E99A94200DAB6
:10D1C0000D4603A9012D04DD4A19203AD27F302AE9
:10D1D00006D0B84201DA011D04DA012100910FE006
:10D1E0006D1EEFE7002802DC86192D1A03E0411CB2
:10D1F000A94200DD0D46801B401C00900120C007A5
:10D200000B902078000705D40098A84202DB00208C
:10D21000C043009069460020C8720B98012102AFFC
:10D220000337C907884225D0022010902B20119087
:10D230000B9800280BDA40420B902D20119006E04D
:10D240000B9800F089FD30317F1E0B9039701099DA
:10D25000481E00291090F3DC0B980028F0D111989B
:10D260007F1E38702088000501D5452000E065202C
:10D270007F1E387001A8C01BC01D0B900F9800289E
:10D2800000D0012041190098C01709180B98081800
:10D29000A169081A401EA0612078C00602D4204669
:10D2A000FEF744F90F98002805D06268A1689047FE
:10D2B000206A401C20622078C00625D52046FEF753
:10D2C00035F921E0002E07DB0E98B04204DD03A8FB
:10D2D0006268805DA16802E06268A16830209047C2
:10D2E000206A761C401C20620098401E0028009096
:10D2F0000AD100F0CBFDC06862680168405CA1689B
:10D300009047206A401C206228466D1E0028D9DC08
:10D3100007E062683878A1687F1C9047206A401C4B
:10D3200020620B99481E00290B90F2DC2046FEF784
:10D3300013F9032042E6000001FCFFFF104D00003E
:10D34000E1DFFFFF01694A1C02610878704700B500
:10D350008FB0029100210591054901937944039111
:10D36000114604906846FEF7B3F90FB000BD000007
:10D37000E5FFFFFF0A681070521C0A6070470CC975
:10D3800008399A4202D2531C0B601070704710B5D6
:10D390004369002B02D0C046C04601E0FEF7EDF81D
:10D3A000012010BD1278014624310A7000224A7013
:10D3B0000122ECE711680022D243E8E7084B70B580
:10D3C0000D467B44FFF7C3FF0446284600F0D8F81B
:10D3D000002802D00020C04370BD204670BD000070
:10D3E000658E0000F7B50446154686B02B48784494
:10D3F000002703C83E460090019111E007986A4655
:10D400007100415A02A801F0CFFA411C07D02178DF
:10D41000890603D5E269391891420ED83F18761C67
:10D420002078800602D5E069B84206DDAE42E5DB31
:10D4300007987100405A0028E0D1A069C01BA06184
:10D440002046FEF773F8154878445A3803C8009010
:10D450000020019116E041006A460798415A02A84F
:10D4600001F0A2FA0590401C0AD0002505E0626890
:10D4700002A8A168405D90476D1C05988542F6D3CF
:10D480000498401CB0420490E5DB206AC019206279
:10D490002046FEF761F809B0F0BD0000C2CA0000E6
:10D4A000F7B5D21D0025D20815A6D200F52905CA68
:10D4B00011D0002A05DA00214042914111A60A4606
:10D4C00008E0009909688B0701D50FA602E049071B
:10D4D00001D50EA601251146009F0024243704E043
:10D4E00000F0F2FC30323A55641C02460A43F7D190
:10D4F0002B46324621460098FFF7ADFCFEBD0000EA
:10D50000000000002D0000002B00000020000000A3
:10D5100070B504460021243408E05507D2086D0F89
:10D52000303565545D072A43DB08491C15461D4309
:10D53000F3D10468002310A2250708D5A40601D45E
:10D54000002904D0C46901230CA2641EC461FFF742
:10D5500082FC70BD10B5044621461068FFF772FCCE
:10D56000002302462046FFF7D3FF10BDD21DD1088D
:10D57000C9000CC9CCE7000000000000300000002A
:10D58000C06880210840704770B50D4601461446BA
:10D59000D36850692A4607F0E3FE002808DA411CE8
:10D5A00008D0E16801224000920311434008E16085
:10D5B000281A70BD204600F0A9FA0020C04370BDB3
:10D5C000C168402211439201914300220260C16070
:10D5D0004905890F01D08260704702694168891A44
:10D5E000C269891A81607047FEB504460121C0688E
:10D5F0008905774B0843E060010310D599108843F3
:10D60000E060810606D4E26A61688A4200D80A4670
:10D61000511A21601843E06020346079FEBD9843C0
:10D62000E060800602D5204600F0C6FA6949E0684D
:10D630000140012903D0204600F068FABFE02168CC
:10D64000002600290BDAC94321600121A6600903E5
:10D650000843E0606068411C61600078FEBD5E497F
:10D6600008420DD005212660090388434021084364
:10D67000E06021696068401AE169401AA0609EE09C
:10D680002169002915D1C00313D4E069FDF72EFEEE
:10D690000028206118D0E0680121C9020843E06039
:10D6A0008105890F03D1FF2101310843E060206922
:10D6B000606060690090E068C1061BD5C0030FD5AB
:10D6C000204600F053FA15E0204603212430206163
:10D6D0000120E061E0680902884301218902E4E752
:10D6E00021696068401AA1694118009807F072FE2C
:10D6F0000028A0DBE068C0032AD56168E06A8842A0
:10D7000000D808462169451AE069471B1BD0A0696B
:10D710000190204600F02AFA01984119A061009872
:10D7200007F058FE002886DBE06801214904084321
:10D73000E060000202D5A0694019A061E16920699A
:10D74000C91B45180DE0204600F010FAE769F5E71F
:10D7500025696168A069E769491BE5624018656051
:10D76000A061E06810218843E0604005800F02D08E
:10D77000204601F0FDF8E0680121A6600903084396
:10D78000E060000205D52069E06260600120C043CE
:10D79000FEBD224639462846FFF7F6FE411C0ED054
:10D7A00029180028E1620DD0401E2060681C6060CE
:10D7B000E068012149040843E0602878FEBD0020AC
:10D7C000C043FEBD65602046FFF7FAFEF7E70000A4
:10D7D000000020008120000040400000F8B5054610
:10D7E0000C46C8680521C9048843012189050843FE
:10D7F000E060800602D5204600F0DEF97149E0685D
:10D800000140022903D0204600F080F9BCE0052148
:10D81000012249030140D20391420FD1C00306D532
:10D820006168E06A884200D80846606006E02069C6
:10D83000E0626060606907F041FCA061A1680022BD
:10D84000EEB200290EDAE06883050BD4C943A1606B
:10D850000921226049030843E0606068411C61605F
:10D860000670ACE0E068012149030843E060002055
:10D8700020602069002831D1606907F045FC01254E
:10D8800027462437ED02002816D0A0898005800F96
:10D8900008D0E069FDF72AFD0028206102D0E06889
:10D8A000284318E001202761E061E06803210902B4
:10D8B0008843012189020DE0E069FDF717FD00288A
:10D8C0002061EFD0E0682843E0608105890F03D133
:10D8D000FF2101310843E06020696060E2683A4F4F
:10D8E0002569D0051FD56168E06A884200D80846DE
:10D8F000411B05D02246284600F012F9002843D1EA
:10D90000E068010204D5E56200206560A06053E094
:10D91000691CE1626160E169491E3843A160E06011
:10D9200030462E70F8BD100201D53A4009E060681B
:10D93000411C61600670E06838430A2EE06006D042
:10D940000022E16A6068814203D90B4602E00122AD
:10D95000F7E70346A7895B1B7F0504D4E7699F426D
:10D9600001DD002A1ED0814200D801460F1A002096
:10D97000E5626560002BA06009DD22461946284655
:10D9800000F0CEF8002802D00020C043F8BD002FE0
:10D9900008D0A069E5626560C01BA061E068102145
:10D9A0000843E060E068000209D56168A069E562AB
:10D9B000491B40186560A0610120C043F8BD304696
:10D9C000F8BD00008210000000000100F8B5044618
:10D9D00016460D464769007B800730D0384607F071
:10D9E00093FB00282BD132461026002A25D0012A8D
:10D9F00002D0022A23D104E0204600F097FF451907
:10DA00001BE0384607F05AFBE16831430028E1602B
:10DA100004DA204600F07AF80120F8BDC9030BD5DE
:10DA20006268E16A914200D81146A26989182269A8
:10DA3000891A814200DD08462D18002D01DA0220E6
:10DA4000F8BDE16A6068E268814206D29103E06253
:10DA500003D5012149048A433243A669AE4211DC51
:10DA6000E16A814201D90B4600E003469F19236910
:10DA7000FF1AAF4206DD814201D90F4600E007469A
:10DA80009F4206D1202002430020A060A5622060B2
:10DA90000DE0AD1BE669AE1B8142A66000D90846C9
:10DAA000C01A281A20605819606020208243034859
:10DAB00002400020E26040342072F8BDBFCFD7FFA3
:10DAC00070B5C468A50713D0650211D4D51FF93D00
:10DAD0000AD0FF3D6D1E07D0FF3DFF3D022D07D14F
:10DAE00001462431012305E0074E5D1EB54201D3F6
:10DAF000012070BD0161C36141600F2109028C43A7
:10DB00001443C460002070BDFFFFFF00C168802285
:10DB1000114392039143C16000218160016070470D
:10DB2000F7B514460E463348D5685769054209D003
:10DB30003846A16907F04EFC002811DB2D48C04390
:10DB40000540E5602B4632463846009907F068FCF0
:10DB50004200A1695208B21A89180028A16104D0B4
:10DB60002046FFF7D3FF0020C043FEBD70B504463A
:10DB70000569C06A6168884200D80846E1680522E4
:10DB8000D2049143E160C90314D5A84209D02246CA
:10DB9000411B2846FFF7C4FF002802D00020C043E5
:10DBA00070BDE56200206560A060E06801210904A5
:10DBB0008843E060002070BD10B50446C068202195
:10DBC0008843E060A16AA06988420ED02046FFF732
:10DBD000CDFFE06803210903884310210843E0607A
:10DBE000A06AA0612069E06260600349E0680840C3
:10DBF000E06010BD10000200BFBFFFFF10B543483A
:10DC00005421FEF737F842485421FEF733F84148D3
:10DC10005421FEF72FF840483C493D4B404A0160F3
:10DC20003E4803603B4810605A1C0A65411C196558
:10DC3000012101653C48354A3AA17844FDF75AFE76
:10DC4000002804D1384878440C3800F0D9FE384810
:10DC50002F4A36A17844FDF74DFE002804D1344800
:10DC600078440C3800F0CCFE32482A4A2FA1784480
:10DC7000FDF740FE002804D12E4878440C3800F00F
:10DC8000BFFE40232148DC0000212246FFF718FF99
:10DC9000002804D0244878445C3800F0B1FE1C48C9
:10DCA000224640230021FFF70BFF002804D0204824
:10DCB00078445C3800F0A4FE164822461023002168
:10DCC000FFF7FEFE002804D01A4878445C3800F0C4
:10DCD00097FE10BD0F4870B5006D44080B486400F6
:10DCE000FDF78AFE0A48FDF787FE0A48FDF784FE25
:10DCF00009E0206D450820466D00FDF77DFE2046B9
:10DD0000FDF725FB2C46002CF3D170BD8C41002083
:10DD1000E041002034420020D8320020DC320020D4
:10DD2000E0320020720000000AC00000770000000E
:10DD3000F7BF0000E5BF000010B5002000F05AFE5C
:10DD4000C046C046012000F09BF810BD10B500F0A1
:10DD500063FE00F049FE10BD01468008081A020962
:10DD60001018020A1018020C1018C00882001218AD
:10DD70005200891A01E0401C0A390A29FBD2704777
:10DD8000F8B5224C4E00069DA6420AD8A64201D103
:10DD9000002806D15E00A64203D8A6420AD1002A76
:10DDA00008D00D24240425422CD02946002000F060
:10DDB0007DFEF8BD0C461C430CD4994202D0EFF313
:10DDC0000080F8BD904202D0EFF30080F8BDEFF381
:10DDD0000080F8BD09242407E5008B4206D0EFF34C
:10DDE0000080A043591A06D2284304E0101A05D334
:10DDF000EFF30080A04380F30088F8BDEFF30080CC
:10DE0000A043F1E7009500F069FEF8BD0000E0FFD7
:10DE100010B5FF231B0644009C421DD84C009C42B9
:10DE20001AD80346124A0B4307D4401A02D3EFF321
:10DE3000008010BDEFF3008010BD081A06D2EFF38A
:10DE4000008001219043C907084302E0EFF30080FE
:10DE5000904380F3008810BD0D231B041A4204D0A8
:10DE60001146002000F022FE10BD00F041FE10BD62
:10DE70000000009008B5694608700320ABBE08BDDD
:10DE800001491820ABBEFEE726000200004870479B
:10DE90008C42002010B50346406801E0034640680C
:10DEA000002801D08842F9D31868C3188B4206D0E5
:10DEB000CB1CD808C000001D411A521A0146081D8B
:10DEC0000A60FDF744FA10BD0B4670B5024689079B
:10DED0008008084319469D08141AA9412509080716
:10DEE000054308092C194841250A01060D43010A7A
:10DEF0002C194141200C0D0428430D0C00194D41F3
:10DF0000002140194D41C00869070843E908840F02
:10DF10008D002543840024184D4124196D41121BA6
:10DF2000AB4107E00925ED432C1152196341002450
:10DF3000401C61411C460A250026551BB441F1D204
:10DF400070BD0000D21DF0B504460D46D0088DB05E
:10DF5000C000466807683146384606F033FD024681
:10DF6000F00F01D02D2307E02068810701D52B2376
:10DF700002E04007C00F43016846002B037001D048
:10DF8000012000E00020032A0A9001D0072A04DBC8
:10DF90002946204600F042F92DE12078800601D480
:10DFA0000D2500E0E5697000400D0D2D01904BDA64
:10DFB000300D00210B9008460020C0460321890542
:10DFC0000840002E05DA82008018C20F1018401099
:10DFD00008408015012801DD0020C043A90000236E
:10DFE000182906D39C460A460123183A1B07D3403A
:10DFF00003E001221205CA4094460C31202902D3C5
:10E000003A46203900E032468A40002802DD002AE4
:10E0100006D119E0002817D10121C9078A4213D37C
:10E02000194663467F185E41002806D10120C007CB
:10E03000824202D1084687439E430B98310D8142AC
:10E0400002D00198401C01902088000502D571493A
:10E05000794402E06F49794419396B460A983022B5
:10E060001A540A980A7C401C1A54401C0A900198C1
:10E07000002801DC302000E031201872019A0120D4
:10E08000002A02D0644BD21804E072003A4302D056
:10E09000614A521C0192002D02DC2278120703D53E
:10E0A0006A462E20507202200022864694460CE0DA
:10E0B00032033601120F6D1E8B5C02AA13546246A6
:10E0C000521C401C9446052A01DA002DF0DC002287
:10E0D00002AE08E03B0F3F01CB5C521C6D1E335477
:10E0E000401C082A01DA002DF4DC23689A0601D5C9
:10E0F00011E0401E704504DD3218203AD27F302AEC
:10E10000F7D0002807DD3218203AD27F2E2A02D11C
:10E110001A0700D4401E002D03DD3E223254401C5D
:10E120006D1E497C31540199401C002906DA2D21CD
:10E13000471C315401984042019003E02B21471CB9
:10E14000315401987D21C900884206DBFDF7F2FDBC
:10E150003030F0557F1C019101E0642808DB019804
:10E160006421FDF7E7FD3030F0557F1C019101E09F
:10E170000A2806DB01980A21FDF7DCFD3030F05556
:10E180007F1C01980A21FDF7D5FD3031F1550A9821
:10E19000A1697F1C7A191018081AA0612078C0069E
:10E1A00002D42046FDF7C2F9216A6E460A98081883
:10E1B000206204E062683078A168761C90470A9873
:10E1C000401E0A90401CF5D12078C00602D520469A
:10E1D000FDF7ACF902AE09E03078761C3E280DD090
:10E1E0006268A1689047206A401C20627F1EF3D2BB
:10E1F0002046FDF7B1F90DB00320F0BD206A4019AB
:10E20000206203E06268A168302090476D1EEDD364
:10E21000F8E700007BBE000001FCFFFFF8B51F46D9
:10E22000044601230068DB02032601461840072A42
:10E2300005DB002801D017A506E017A504E000289B
:10E2400001D016A500E016A5102081432160A06929
:10E25000C01E002FA06101D0401EA0612046FDF726
:10E2600065F9002F09D038466268A1689047206A96
:10E27000401C2062C01C206206E0206AFAE7626847
:10E280002878A1686D1C9047761EF8D22046FDF7CD
:10E2900063F9F8BD4E414E006E616E00494E460076
:10E2A000696E660010B54369002B02D0C046C046B7
:10E2B00001E0FFF797F8012010BD128801462431D4
:10E2C00082840022C2840122ECE711680022D2433A
:10E2D000E8E70000F7B516468AB0334878446C4644
:10E2E00003467C33C06F5A689B680DC42E4878443F
:10E2F000763003AC0DC80DC43720C0010818372193
:10E300001B30FDF717FD05460C46803D1B3C02D532
:10E310006442012000E000200027099010E0E0079F
:10E320000CD00C2020497843794432464C394118AE
:10E330006846012300F054FA6B4607C364107F1C43
:10E34000002CECD1184F7F442E3F16E0E80712D086
:10E350002001C0190EC80691089307920068F04288
:10E3600001D1981908903246012306A903A800F0AC
:10E3700037FA03AB07C36D10641C002DE6D1099872
:10E38000002806D032466946012303A800F07EFA31
:10E3900005E001233246694603A800F021FA0A9BF2
:10E3A00007C30DB0F0BD000004BC000003464000F0
:10E3B0000A4610B5400D0BD00121C9070F24A40255
:10E3C00000191C0364082143540D2143D20207E0C5
:10E3D00000210120F2E7D40F490021435200401EE2
:10E3E0000029F8DADB0FDB07184310BDFFB50D4637
:10E3F000144685B04868516806F0BDFA0091019056
:10E40000A868A16806F0B7FA02910390A86861684D
:10E4100006F0B1FA029A12188242029201D2012049
:10E4200000E00020019A0B18D2180028019202D0B7
:10E430008A4202D903E08A4201D2012000E0002092
:10E440000099081800906868A16806F094FA029A8A
:10E4500012188242029201D2012000E00020019AAB
:10E460000B18D2180028019202D08A4202D903E088
:10E470008A4201D2012000E0002000990818009093
:10E480002868216840004900400849084018FA49B6
:10E49000471814E001994000C90F08430090019803
:10E4A00002994000C90F0843019002980399400067
:10E4B000C90F08430290039840007F1E0390009804
:10E4C0000028E7DA0898002801D0EC4E00E000268A
:10E4D000B74201DA012000E00020002804902AD091
:10E4E000F71BF806C00E15D0029B2021091A039ACB
:10E4F0008B401A430392029A019BC2408B401A43FD
:10E500000292019A009BC2408B4000991A430192EB
:10E51000C14000917B110DD06F460320C11A03D575
:10E5200000218200B95003E08A008100BA587A5075
:10E53000401EF3D5374603980299002800D00120E9
:10E54000014308980291002808460CD0002800D00A
:10E5500001200199019A490508430121D20AC90203
:10E56000D202019200E001210E9B0122D207012B71
:10E5700002D0002B03D013E0002807D120E0904206
:10E5800004D890420CD1019B0B4209D0019B591831
:10E59000019105D10099491C009101D17F1C009285
:10E5A00000280DD0102108460020C04604980028FD
:10E5B00006D00F98002803D0082108460020C04646
:10E5C00028682168019B009A4840C10F0598C90737
:10E5D00039430EC009B0F0BDFFB587B0099A08985D
:10E5E00008995368926840688968964600220393A8
:10E5F00017469446089A12685300099A5B081268F5
:10E60000520052089A1A9E4BD4180A9A002A01D036
:10E61000352200E040220692002201231546049292
:10E62000DB07059324E0002D05D175460346039EC4
:10E630004D1BB34109D375466646039B491B049D98
:10E640009841059B7519AC465F4163463B4308D032
:10E65000059B049EDD0776082E435B080496059310
:10E6600001E0521E641EC50FED0749184041521CBF
:10E67000069B9A42D7DB002D04D17546039A6B1A8C
:10E68000824101D203200CE0039A0B466B404240CA
:10E69000134303D0014303D0012002E0022000E035
:10E6A0000020614601910021009702910A990029FA
:10E6B00005D0614640020143704B019102E08007A2
:10E6C000002302909C4201DA012000E000200700B4
:10E6D0003AD01A1BD006C00E15D0029D2021019CF5
:10E6E000091AC5408C402543029C8C4000D001246F
:10E6F0002543019C0295009DC4408D4000992C4308
:10E700000194C140009154111DD06D460221002298
:10E7100002290CD10320001B07E0002804DB86003F
:10E72000AE59002E00D00122401C0328F5DB081B47
:10E7300002D588002A5004E08000285810438A003F
:10E74000A850491EE3D51C460A98002802980CD010
:10E75000002800D001200199019A490508430121B0
:10E76000D20AC902D202019200E00121109B0122CB
:10E77000D207012B02D0002B03D013E0002807D1D1
:10E780001FE0904204D890420CD1019B0B4209D06B
:10E79000019B5918019105D10099491C009101D1A3
:10E7A000641C009200280CD0102108460020C046AE
:10E7B000002F06D01198002803D008210846002019
:10E7C000C04608980999019A009B0068096848406A
:10E7D000C10F0798C907214382600AC00BB0F0BD82
:10E7E00000B585B0019300920A460146002302A8B5
:10E7F000FFF7FCFD02A807C805B000BDFFB50A463B
:10E800001F4685B00799019301230091014602A894
:10E81000FFF7ECFD02990398049ECA0F4900D20746
:10E8200000920F22490892028C1A0021002800DB76
:10E830000C46450013486D08844214D3079A002AF9
:10E8400004DA441E0026104DF64302E004460D464D
:10E850000E46102108460020C046002F03D0042198
:10E8600008460020C0462005E90A084300990843ED
:10E870006905F20A1143ADE602C0FFFF013C00004A
:10E88000FF3F0000FF070000FFFFFF7F00B585B0DE
:10E89000019300920A460146002302A8FFF79CFE5E
:10E8A00002A807C8A8E7FFB50A461F4685B0079922
:10E8B000019301230091014602A8FFF78DFE029902
:10E8C0000398049ECA0F4900D20700920F224908FC
:10E8D00092028C1A0021002800DB0C4645001148EA
:10E8E0006D08844214D3079A002A04DA441E0026D5
:10E8F0000D4DF64302E004460D460E461021084633
:10E900000020C046002F03D0042108460020C04646
:10E910002005E90A0843009908436905F20A1143F2
:10E9200058E60000FF070000FFFFFF7F10B501461B
:10E93000C268900703D0900607D5886A0AE0FCF702
:10E94000D1FC01210160881E10BD8B694868C01888
:10E950000B69C01A40310B7A002B02D0497A401A59
:10E9600010BD1103FCD50028FADD401E10BD0000CB
:10E9700070B505460A4C0B4E0EE0206DC00708D05E
:10E98000AC4206D03146E068814302D12046FCF714
:10E9900063FF206D44086400002CEED170BD0000C0
:10E9A0008C4100200202000070B516460C46054658
:10E9B00000F0A8F80368FF200230C05C012807D0EF
:10E9C000FF2C0ED8185D00280BD001202C7070BDD4
:10E9D000FF333246214608331868C3182846984743
:10E9E00070BD0020C04370BD10B5002801D0FFF7F6
:10E9F00047FA10BD10B500F0A7F8FFF7F5FF10BDFE
:10EA000010B500F0B9F8FFF7EFFF10BD10B500F03A
:10EA1000CDF8FFF7E9FF10BD10B5002102A000F00E
:10EA200079F8012010BD00005349475056464E3A30
:10EA30002050757265207669727475616C20666EFF
:10EA40002063616C6C65640010B50349FCF738FF06
:10EA50000148FCF71CFF10BD34420020012269462A
:10EA6000114B120382188A421A6001D8114670476E
:10EA70001960704770B50C4C6D460126360323684B
:10EA8000AD1B9A18AA420ED8AD1A9019EE0F75193F
:10EA90006D10AA18904200D91046C01D0B60C20824
:10EAA000D200D01A226070BDE4320020C80212D514
:10EAB0004803400F002804D0C803C0430121884008
:10EAC0007047EFF3008000010009032109070843A4
:10EAD00080F30088704700207047000010B50020C8
:10EAE0000249029A00F08AF810BD00000000F87F89
:10EAF00010B5024800F082F810BD00000000C07F91
:10EB00007047000010B5FFF7C1F9001D10BD00BF30
:10EB1000ADAB000070B505460C460A2000E06D1C48
:10EB2000FFF7A8F9002D06D028780028F7D102E0D9
:10EB3000641CFFF79FF9002C02D020780028F7D141
:10EB40000A20FFF797F970BD10B5002102A0FFF76A
:10EB5000E1FF012010BD0000534947414252543AA1
:10EB60002041626E6F726D616C207465726D696EAA
:10EB70006174696F6E00000010B5014602A0FFF7D6
:10EB8000C9FF012010BD000053494752545245446B
:10EB90003A2052656469726563743A2063616E2736
:10EBA00074206F70656E3A200000000010B50128D7
:10EBB00005D0002103A0FFF7ADFF012010BD09A182
:10EBC000F8E7000053494752544D454D3A204F75E0
:10EBD00074206F662068656170206D656D6F727955
:10EBE000000000003A2048656170206D656D6F720D
:10EBF0007920636F727275707465640010B50C468D
:10EC00001107090F092904D00A290AD008290CD1B3
:10EC100004E011460820FFF749FF06E0510606D53B
:10EC200001E0510601D50120C007214610BDD106E3
:10EC300007D501010909CC084907000E0006044365
:10EC400009E0410F20024907000A0143200E000697
:10EC50001D22D14101430846E7E730B58C18027800
:10EC6000401C13071B0F01D10378401C120906D169
:10EC70000278401C03E00578401C0D70491C5B1EA7
:10EC8000F9D101E00B70491C521EFBD1A142E6D321
:10EC9000002030BD10B508F0FBFB08F04FF910BDA7
:10ECA0000021016041608160C1607047F0B5224879
:10ECB000224D0246C3680024214F0121126883B00F
:10ECC000002B1BD02C603C60BD68447C6600641C3B
:10ECD0009D53E4B24474057CAC4220D28368002288
:10ECE0005B68002B18D00122836018687860396057
:10ECF000002A01D01348016003B0F0BD2C60124D12
:10ED00000123AB603C606C462170BB68A3808174BA
:10ED10006846904703B0F0BD43688360E5E70A4C5E
:10ED2000A16000266C462670019325818174684697
:10ED3000904703B0F0BD0000203700200071004074
:10ED4000007500400070004000730040F0B50024E2
:10ED5000FF2183B001314A4E4A4D012320460094E1
:10ED60004A191768012F05D177681F4202D0002782
:10ED70001C431760091D5B00401C89B20428EFD3B7
:10ED800041480168012906D1002101604007044380
:10ED90003E48006900903E4E200712D00127002512
:10EDA00027420AD03B48AA00111808690969C00423
:10EDB000C00E8903B258890F90477F006D1C042D47
:10EDC000EED3002C59DA0020451E029000200446A4
:10EDD00001902F4B1A194032117C8806800E4EB2DA
:10EDE000761C3AD0012282402A4236D01F183026A3
:10EDF000BE578909B6009E59002E02D0032902D0C1
:10EE000004E0032929D1029B13430293224B87007C
:10EE1000FB189C461B68009F9B039B0F3A4202D045
:10EE2000022B02D019E0032B17D1032912D1022B98
:10EE300021D002239E466246136803273F04BB434A
:10EE40001360176873461B041F431760019A521C16
:10EE5000D2B20192002E00D0B047641C082CB8D367
:10EE60000198002809D0094800690099884204D017
:10EE70000090029DAAE70323DCE703B0F0BD000089
:10EE800000630040006000407C61004000050050CD
:10EE9000343700200065004000070050024A80001F
:10EEA0008018016470470000F82E002010B50C4C4B
:10EEB0006068002813D10B484168002905D0002163
:10EEC000416009484168491C41602068002801D020
:10EED0000AF04EFBA068002801D008F01BF810BD16
:10EEE00040110140001101409030002001480068AD
:10EEF000004700001C300020014800680047000067
:10EF00002430002030B43148314B018C0122C9B289
:10EF1000012917D1848C240714D1048D2406250FD0
:10EF200003D1858D2D062D0F0FD0240F012C03D179
:10EF3000858D2D062D0F08D0032C03D1848D24063A
:10EF4000240F02D0012907D012E0224C5C6001247A
:10EF5000214DE403AC6102E0848C240708D1048DC8
:10EF60002406240F042C03D1848D2406240F02D000
:10EF7000012903D01FE019498A6002E0818C09074A
:10EF800019D1018D0906090F0A2903D1848D2406A0
:10EF9000240F05D00D290ED1808D0006000F0AD157
:10EFA0000F480168012904D00E4901600168012958
:10EFB000FCD1C02141619A610B480021416081056B
:10EFC0008A6041680029FCD030BC7047C00F00F057
:10EFD00000050040DFFF07C0006C00400006004055
:10EFE00000EC06407593000000010040F8B50E4D9E
:10EFF00003200426002400022F18A0000121090488
:10F00000A140FF3041302A58002A08D07A680A42CD
:10F0100005D000212950054A516812689047641CA8
:10F02000E4B2B442E9D3F8BD00900040903700202C
:10F03000F8B50F4D03200427002400020D4E2818B8
:10F040000090A00001210904A140FF3041302A585E
:10F05000002A08D0009A52680A4204D000212950A0
:10F06000326871689047641CE4B2BC42E9D3F8BDD1
:10F0700000A000409C370020F8B54D4840684D4C3A
:10F0800040072746264640372036002500283CDA30
:10F0900049488168002938D0317900292FD085600E
:10F0A00046488069A26A216BC0B25054337E002268
:10F0B000FF2B0AD0834208D10123206D5B03184344
:10F0C0002065E06C800400D50122491C2163E06AC0
:10F0D000814205D3FF21206D01310843206501E005
:10F0E000002A12D0387D800702D43149042088607C
:10F0F0003571606B002808D06563804705E0A26821
:10F10000002A02D0002160689047294B5868000609
:10F1100028D52949C869002824D0707E00281BD032
:10F12000226C606C904207D2CD61E16B234A095C8E
:10F13000D161401C606415E0387DC00701D180209A
:10F1400098607576206D042108432065A06C002826
:10F1500008D0A564804705E0A268002A02D00121FA
:10F16000606890471448416A002920D045621448DD
:10F1700001680160626BC8B2002A18D0216D0223B9
:10F1800019432165830703D50123DB021943216558
:10F19000410704D50123216D9B0219432165C00756
:10F1A00004D00121206D4902084320659047F8BD35
:10F1B00000230040183800200021004000250040B6
:10F1C0008024004010B50446002C04D005A1074857
:10F1D000FCF796F903E006A10448FCF791F903480F
:10F1E00010BD00006D616E75000000005C310020F4
:10F1F0006175746F0000000010B5044605212348B6
:10F20000FCF738FD102C24D008DC012C0DD0022C8A
:10F2100010D0042C13D0082C2FD115E0202C1DD099
:10F22000402C20D0802C28D122E019A11748FCF7CF
:10F2300067F927E017A11548FCF762F922E016A14B
:10F240001248FCF75DF91DE014A11048FCF758F9CD
:10F2500018E013A10D48FCF753F913E011A10B4876
:10F26000FCF74EF90EE010A10848FCF749F909E057
:10F270000EA10648FCF744F904E00EA10348FCF790
:10F280003FF900BF00BF014810BD00005C31002005
:10F290004E6F0000506972004D77000044617900A4
:10F2A000536E780048796200566F6C005465737431
:10F2B00000000000734572720000000070B5044643
:10F2C0000D4600BF00202056401C002804D12022FB
:10F2D0000BA11BA007F0F4FF00BF002D07D00020FA
:10F2E0002056012181401C4A916000BF07E00020A8
:10F2F000205601218140184AD16000BF00BF70BD77
:10F300006D6265642F5441524745545F4E524635F5
:10F31000315F444B2F5441524745545F4E4F524446
:10F3200049432F5441524745545F4E5246352F674B
:10F3300070696F5F6F626A6563742E680000000019
:10F340006F626A2D3E70696E20213D202850696EE3
:10F350004E616D65294E43000005005070B50146B1
:10F36000002000231F240A4605E01678521C351899
:10F37000E8B25D1CEBB2E51AF7D170BD70B500259F
:10F38000354801F0A9FE354908600846006834494F
:10F390000968441A304801F09FFE3149086031483D
:10F3A00084420CD33048844209D801202F49C870C8
:10F3B0002F484860202088600020C8604AE02B4821
:10F3C000C078002840D0294881688068401E274ABC
:10F3D0009060002938D0E120C00084420AD325483B
:10F3E000844207D81046C068012108431146C8600E
:10F3F00001250DE0AF208000844209D31E488442DD
:10F4000006D81A48C068400840001849C86001255D
:10F41000002D12D015488068002808D1012013491A
:10F4200048700020C870C8708860486012E00F48BB
:10F43000C06840000D49C8600CE000200B49C8704E
:10F4400088708860486005E000200849C8708870AE
:10F450008860486070BD0000183A0020F03000203D
:10F46000EC300020E632000006360000C8300020F4
:10F47000EE020000280A0000DC05000010B50420A0
:10F480000249087002A0FCF72DF810BD9931002048
:10F490000A0D2D2D2D2D2D2D2D2D2D2D53657474F3
:10F4A000696E672054696D656F75742C20706C658A
:10F4B0006173652074727920616761696E0A0D005D
:10F4C000F0B5059C55000D439E003543260235439B
:10F4D000069E360435430526360707273F02F619F0
:10F4E0008700F551F0BD000070B504460D46214679
:10F4F000084804F0E7FF0646314607A0FBF7F2FF95
:10F500002946044804F0DEFF0646314606A0FBF714
:10F51000E9FF70BD70310020203F3F3F20546869F3
:10F52000732025733A20000066726F6D207768653E
:10F5300072652025732C204E6F20416374696F6EB5
:10F540000A0D000070B504460D462146084804F037
:10F55000B9FF0646314607A0FBF7C4FF2946044819
:10F5600004F0B0FF0646314606A0FBF7BBFF70BDB6
:10F5700098310020203F3F3F205468697320257355
:10F580003A20000066726F6D2077686572652025ED
:10F59000732C204E6F20416374696F6E0A0D00005A
:10F5A00070B504460D462146084804F08BFF064618
:10F5B000314607A0FBF796FF2946044804F082FF76
:10F5C0000646314606A0FBF78DFF70BD0C320020C9
:10F5D000203F3F3F20546869732025733A20000084
:10F5E00066726F6D2077686572652025732C204EDA
:10F5F0006F20416374696F6E0A0D000002210B4A8F
:10F60000516000BF0A4909680029FBD0074988609A
:10F6100000BF074909680029FBD00021034A516057
:10F6200000BF034909680029FBD0704700E501408D
:10F6300000E4014000BF0D4A1278002AFBD10122EC
:10F640000B4B5A6000BF0B4A1268002AFBD00160C6
:10F6500000BF084A1268002AFBD00022044B5A60FF
:10F6600000BF044A1268002AFBD07047A530002072
:10F6700000E5014000E4014001218140014A916020
:10F680007047000000050050014603480069C8406B
:10F69000C007C00F70470000000500507CB505464C
:10F6A0000C46002000902346024601460190284661
:10F6B000FFF706FF7CBD000001218140014AD160B7
:10F6C000704700000005005000200C490860012030
:10F6D0008107086000BF094800680028FBD00220AD
:10F6E000074988610020054948600120810788603A
:10F6F00000BF024840680028FBD07047000100406E
:10F70000000500407CB505460C46002C09D10020C0
:10F71000009003460246014601902846FFF7D0FEBE
:10F7200003E00120A840014988617CBD000500502C
:10F7300004480068401C0349086001200249087021
:10F7400070470000C02F0020BC2F002030B58DB0C6
:10F7500004463C212046FCF7DFFA02913C2120467A
:10F76000FCF7DAFA05463C21FCF7D6FA0391E121D1
:10F7700009012046FCF7D0FA05461821FCF7CCFA1F
:10F78000049107492046FCF7C7FA059002980090BB
:10F7900004A0039B049A0599FBF7A4FE0DB030BDAD
:10F7A000805101003A3A2025643A25643A25643AAA
:10F7B00025640A0D0000000001200149087070470F
:10F7C000BD2F0020F8B505460C461A4821460268B0
:10F7D000194804F01FFF00282BD0684602F0A2F958
:10F7E0002078144A12681178CA0F52185210520029
:10F7F0008A1AC30F1B185B105B00C31A9A4211D1FF
:10F80000207AFDF7C2FA07460C49FDF77FF9064654
:10F8100031460B48006803F039FC217A09A0FBF758
:10F8200061FE05E003480068017A0FA0FBF75AFE6D
:10F8300000BFF8BDF8310020EC3100200000C842C4
:10F84000083200204D61746368696E672C20707205
:10F850006F63416C745375623A204C6576656C2019
:10F860003D2025640A0D00004E6F74204D617463C5
:10F8700068696E672C2070726F63416C7453756297
:10F880003A204C6576656C203D2025640A0D000009
:10F8900070B505460C4600260E48214602680E4803
:10F8A00004F0B8FE002813D00CA0FBF71BFE09489B
:10F8B0000068017A0EA0FBF715FE2146284600F0ED
:10F8C0008DF86E21E173617810A0FBF70BFE012625
:10F8D000304670BDF8310020EC310020526574755F
:10F8E000726E20537461747573207462640A0D0023
:10F8F00070726F635374617475733A204C657665EA
:10F900006C203D2025640A0D0000000052785478D8
:10F91000203D2025640A0D00F8B506460C466846D1
:10F9200004F008FB0027E57B28466438030005F057
:10F930003AF80B0708090A0F14181C1D22272D007E
:10F9400029E028E027E02146304600F081F822E057
:10F950002146304600F054F81DE010A0FBF7C2FD30
:10F9600019E012A0FBF7BEFD15E014E02146304679
:10F9700000F0A4F80FE021463046FFF723FF0AE02D
:10F9800021463046FFF784FF074604E029460FA0D2
:10F99000FBF7A8FD00BF00BF3846F8BD6564735093
:10F9A000696E67207462640A0D000000656473501C
:10F9B000686F746F2072657475726E2050686F7412
:10F9C0006F2056616C75650A0D0000004368656321
:10F9D0006B20436D642025640A0D000070B5064657
:10F9E0000C462022054801682046FCF7DBF8254636
:10F9F0001235402068706520A07370BDF83100207A
:10FA000070B505460C46084821460268074804F0D0
:10FA100001FE002806D0002005490870217A05A0C3
:10FA2000FBF760FD70BD0000F8310020EC310020D4
:10FA3000983B002070726F634E6577536574537501
:10FA4000623A204C6576656C203D2025640A0D00E5
:10FA5000F8B507460C460D48214602680C4804F0EC
:10FA6000D9FD002810D0207AFDF78FF90646094904
:10FA7000FDF74CF8054629460748006803F006FBE9
:10FA8000217A06A0FBF72EFDF8BD0000F83100201A
:10FA9000EC3100200000C8420832002070726F6311
:10FAA000436F6E74726F6C5375623A204C65766565
:10FAB0006C203D2025640A0D0000000038B5054685
:10FAC0000C460D48214602680C4804F0A3FD0028AE
:10FAD00011D0684602F026F80822A11D06480068E9
:10FAE000801DFCF75FF8684601F0DEFE217A04A075
:10FAF000FBF7F8FC00BF38BDF8310020EC310020E6
:10FB000070726F634E6577466163745365745375A5
:10FB1000623A204C6576656C203D2025640A0D0014
:10FB20000FB410B504460F490398086008460068F2
:10FB300001F0BCFF0C490860084600680B490860EA
:10FB40000B49049808600B49059808600A49069813
:10FB500008600A4907980860204610BC08BC04B039
:10FB600018470000F0310020F4310020F831002067
:10FB7000FC31002000320020043200200832002036
:10FB8000F8B506460C460027A57B6CA0FBF7AAFC3F
:10FB9000082D23D006DC2B0004F005FF06131419F2
:10FBA0001D1E1FC70E2D34D006DC0A2D1AD00B2DBA
:10FBB00019D00D2D76D117E0642D2BD0652DF9D1FC
:10FBC00071E0B7E02146304600F0B8F9B2E05FA03E
:10FBD000FBF788FCAEE0ADE0ACE0ABE060A0FBF78B
:10FBE00081FCA7E0A6E0A5E063480168634804F053
:10FBF000ADFD002808D062A0FBF774FC012221466D
:10FC0000304600F069FAF8BD2146304600F0F4F9BC
:10FC100090E08FE058480168584804F097FD0028AC
:10FC200012D02146554804F0C6FA002806D02020FC
:10FC300060702146304600F033F904E021464E481A
:10FC40000068FFF7ADFCDEE74B4801684B4804F065
:10FC5000AAFA002814D02146484804F095FA002852
:10FC600009D04DA0FBF73EFC0220607021463046D3
:10FC700000F006F904E021463F480068FFF790FCD9
:10FC800021464F480068FFF747FE002809D04D483D
:10FC900009F0D6FC4CA0FBF725FC2146304600F0CD
:10FCA000EFF847E041E061784DA0FBF71BFC3248DC
:10FCB0000168324804F04AFD002819D0617848A054
:10FCC000FBF710FC21462D4804F06DFA002809D0FE
:10FCD000202060702146304600F0D2F847A0FBF7A4
:10FCE00001FC04E0214624480068FFF759FC8AE73C
:10FCF00021480168214804F056FA002814D0214612
:10FD00001E4804F023FD002809D146A0FBF7EAFBBA
:10FD1000022060702146304600F0B2F804E021462F
:10FD200015480068FFF73CFC04E029464AA0FBF7B1
:10FD3000D9FB00BF00BF00BF65E700007378313218
:10FD400037365461736B202D2D3E2000456E6420A4
:10FD50006F662065645265706561740A0D0000006D
:10FD6000456E64206F662065645365617263683F09
:10FD70003F3F0A0D00000000183200200C32002026
:10FD80007472616E736665724D737447774279342D
:10FD90003835202D2D3E000054783A2066726F6D64
:10FDA000204D73742C2073656E6420537846726105
:10FDB0006D6520746F205278202D3E2000000000D9
:10FDC000303200200AD7233C4E6F77207265616481
:10FDD0007920666F722072657475726E0A0D00006C
:10FDE0004E6F77207374617274206564436C69652B
:10FDF0006E7441636B2025640A0D000047773A203A
:10FE000066726F6D2074782C2073656E6420537851
:10FE10004672616D6520746F204D7374202D3E20F5
:10FE20000A0D000054783A2066726F6D2052782CCB
:10FE3000205352782C205270742C2073656E6420ED
:10FE400053784672616D6520746F204D7374202D58
:10FE50003E200A0D00000000436865636B20436D7F
:10FE6000642025640A0D000070B50646034800684A
:10FE700002F064F804466568284670BD243200200C
:10FE80007CB505460C46009420206946087103485D
:10FE9000019A0099006802F067F87CBD24320020C6
:10FEA00030B58BB005460C46124821460268124810
:10FEB00004F028F9002808D00E4801680E4804F024
:10FEC00063F9002801D00BB030BD234601AA06A972
:10FED000094804F083F801AA06A908A0FBF702FB71
:10FEE0000EA0FBF7FFFA21462846FFF7C9FF00BF27
:10FEF000E9E70000183200200C32002073657276AA
:10FF00006572202D2D2D3E20676174657761792CF7
:10FF10002025732C202573202D3E200046726F6D06
:10FF20002047772073656E6453784672616D652053
:10FF30002D3E20656E640A0D00000000F3B581B00F
:10FF40001DA0FBF7CFFA21480168214804F0FEFB11
:10FF5000002800D0FEBD1D4801681D4804F01CF9B2
:10FF6000002800D0F6E71948006880897D21C90083
:10FF7000484318494860154909688879FCF775FCB9
:10FF800004460022144BFCF7C9F90646FBF7DCFFD8
:10FF90001049C8600299019800F076F80D49C868C8
:10FFA000FCF78AFD04460B460A48224641680BA02E
:10FFB000FBF798FA00BFCDE770726F6353656E73FD
:10FFC0006F72436D64202D2D3E20000018320020FA
:10FFD0000C320020983B0020000059402044546916
:10FFE0006D653A2025642C2070776D3A2025302EDF
:10FFF00033660A0D00000000FEB507460C4602A855
:020000040002F8
:1000000004F0B1FB13A0FBF76DFA4020164908700D
:10001000217A164800680172207AFCF726FC054612
:100020000022134BFCF77AF901910090FBF78CFF4B
:100030001049C8602146384600F026F80D49C868C6
:10004000FCF73AFD05462A460B460BA0FBF74AFA99
:10005000FEBD000070726F63566F6C756D65436D09
:1000600064202D2D3E0000003D310020183200207C
:1000700000005940983B002070776D203D202530CE
:100080002E33660A0D00000070B504460D460A487E
:1000900001680A4804F097F800280CD02946074860
:1000A00004F091F8002806D105A0FBF71BFA2946B9
:1000B0002046FFF7E5FE70BD183200200C3200200C
:1000C000726573656E642062792072657065617413
:1000D0006572202D2D3E200070B58AB006460C4674
:1000E0001546194821460268184804F00BF8002804
:1000F00008D015480168154804F046F8002801D0DA
:100100000AB070BD23466A4605A9104803F066FF91
:10011000012D0BD16A4605A90DA0FBF7E3F90122D9
:1001200021461348006801F057FE0AE06A4605A917
:1001300010A0FBF7D7F9022221460D48006801F014
:100140004BFE00BFDCE70000183200200C3200201C
:10015000736572766572202D2D2D3E206761746562
:100160007761792C2025732C2025730A0D0000005F
:10017000203200206761746577617920202D2D2D54
:100180003E207365727665722C2025732C202573B2
:100190000A0D000010B5034688889488A04201D15A
:1001A000012010BD0020FCE70FB470B504460A9D85
:1001B0000F49059808600846006801F077FC0D4972
:1001C0000860084600680C4908600C4906980860F9
:1001D0000B49079808600B49089808600A49099874
:1001E00008600A480560204670BC08BC04B0184787
:1001F0001032002014320020183200201C3200205F
:1002000020320020283200202C3200203032002002
:10021000F0B587B007460C4605A801F083FC05A899
:1002200001F044FC0490012C24D136480188006878
:10023000401C344A10608805800D002834D13248B3
:1002400001F0A4FE0190FCF710FB054600222F4BA5
:10025000FCF764F803910290FBF776FE2C490862E4
:10026000086AFCF729FC05462A460B4629A0FBF73D
:1002700039F919E02D4801F001FA254908622C49A5
:1002800008680968491C2A4B1960C821FBF744FD1E
:10029000002909D11E49086AFCF70EFC05462A46CA
:1002A0000B4624A0FBF71EF91948016A384600F0F6
:1002B0004BF8174A1169D06909F0CCFB0AD201202A
:1002C000134948700A46D168906809F0FBFA104952
:1002D00008610FE00E4A1169D06909F039FB09D8AD
:1002E00000200B4948700A46D168906809F0DEFB8F
:1002F000074908610120064908700846007807B0E0
:10030000F0BD000090320020843200200000F04058
:10031000E03F00204469676974616C2050686F7425
:100320006F203D2025660D0A00000000D43F00200C
:1003300094320020416E616C6F672050686F746F5B
:10034000203D2025660D0A0070B506460C461A4869
:1003500000887D21C90088420CDA214617480068D0
:1003600009F0B0FA1549086013480088401C12498A
:10037000088012E01248C1691048006809F096FB35
:100380000E49086021460D48006809F09BFA0B49A8
:1003900008607D20C0000849088007480088FCF7F5
:1003A000F4FC0546294605480068FCF7AFFB044904
:1003B000C8610846C06970BD883200208C320020B8
:1003C000E03F00200022074B1A703F221206DA613C
:1003D0005A619A611A62044ADA601A4611619160A0
:1003E00070470000E03F00206F12833A0021014A6D
:1003F00011707047E03F0020014601484078704787
:10040000E03F00207047000010B50446084800781F
:10041000002809D00748C068002805D000200549F9
:10042000C860204600F060F80348007810BD000066
:100430009B300020001100409A3000201FB5044678
:10044000044801A90EC90EC00C380EC8204600F0A1
:1004500025F91FBD703800200021074A11610121D4
:10046000064A116100BF044909690029FBD0012136
:10047000034A117070470000001100400010004056
:100480009B3000200021014A1170704799300020F4
:1004900001460148704700009C38002010B5044612
:1004A0002046FFF7D9FF0021204600F033F900BFB6
:1004B0000848C0680028FBD000200649C860012019
:1004C000054908702046FFF7C7FF0121204600F0CC
:1004D00021F910BD00110040983000200021014A90
:1004E000117070479A30002070B5044600250C4802
:1004F000006801280BD10B488588202201460A4854
:10050000FBF750FB01200949087009490870204693
:10051000FFF7A2FF0121204600F0FCF8284670BD3D
:10052000001400409C3800207C38002099300020C6
:100530009A30002001460148704700007C380020B6
:1005400070B505460C46094821460EC90EC0FFF796
:10055000BBF806480EC8284600F0A0F8044809F089
:100560006FF80121284600F0D5F870BD70380020E2
:100570006F12033BFEB505460E4601A803F0DAFCF8
:10058000684604F0F0F800271E201E49086020226B
:1005900031461D48FBF706FB1B48018A0183008A90
:1005A000401C81B218484183042201461831684634
:1005B00004F086F8014614488183FEF7CFFE124905
:1005C000C87712488778807803280FD000240AE083
:1005D0000E498C7008460EC8284600F05FF8284681
:1005E000FFF75CFF641C032CF2DB02E02846FFF7F8
:1005F00055FF064887701422002101A803F03CFC37
:10060000FEBD0000A0300020BC3800207038002063
:1006100010B5044608480078002809D00748C0688B
:10062000002805D000200549C8602046FFF75CFF80
:100630000348007810BD00009B30002000110040EE
:1006400099300020F8B505460E46684604F08BF850
:100650000027202231460F48FBF7A4FA0E4887787E
:10066000807803280FD000240AE00B498C700846DC
:100670000EC8284600F012F82846FFF70FFF641C4A
:10068000032CF2DB02E02846FFF708FF02488770E0
:10069000F8BD0000BC380020703800201FB50446AB
:1006A0006846007A1749C86068464079002802D039
:1006B000492088601CE068468079032807D14621DC
:1006C0000398FBF729FB491C0E48816010E01721B5
:1006D0000398FBF721FB68468079172250430818DE
:1006E000401C084988606846817907A0FAF7FAFE3D
:1006F0006846C07903490861039988B208F070F927
:100700001FBD000000150040486F703D25640A0DB4
:100710000000000001290ED10122134B1A70134A68
:10072000134B5A600022134B1A600122124B5A607D
:1007300000221A600CE000220B4B1A700F4A0C4B7F
:100740005A6000220B4B1A600B4B5A6001221A6050
:1007500000BF084A1268002AFBD00022054BDA606D
:100760000122054B9A6070479B3000209C38002086
:10077000001500400011004000100040BC3800206F
:1007800070B5044600200D4908700D4908700D4DE4
:100790000D4E00BF05E0002131702970761C6D1CE4
:1007A000401C2028F7D30120084908700848206021
:1007B00008A0FAF797FE204670BD0000993000208F
:1007C000983000209C380020BC3800209B3000204E
:1007D000AAAAAAAA4E65772052660A0D0000000058
:1007E0000146014840787047C83000200021014A86
:1007F00051707047C8300020F8B507460848C468F3
:100800002004060EE5B2F043C6B2AE4201D128463E
:10081000F8BD0348C16803A0FAF764FE00BFF7E71C
:10082000C83000204572726F722052637520446197
:1008300074613D25780A0D0070B506460C4600250A
:100840006B2C08D0AB2C0BD0EB2C0ED109A0FAF7F7
:1008500049FE01250BE00BA0FAF744FE022506E055
:100860000CA0FAF73FFE042501E0042500BF00BFFD
:10087000284670BD4D7920526F6C652069732052F7
:10088000780D0A004D7920526F6C652069732054F1
:10089000780D0A004D7920526F6C652069732053E2
:1008A00052780D0A000000007FB5044601200B4974
:1008B00048700BA0FAF716FE0B4800F0F7FB0B4947
:1008C000684608F035FF05462946094800F009FA50
:1008D000684608F058FF204604B070BDC8300020BC
:1008E0005263750A0D000000183A00207DF30100E4
:1008F000383A002070B504460D4600202070294685
:10090000204605F085FE204670BD70B504460D46B4
:1009100000BF29462046FEF7D1FC00BF204670BD2F
:1009200070B50446006801220369002120469847FB
:1009300005000DD420680222036900212046984753
:10094000064620680022036929462046984730461B
:1009500070BD0020704710B54C3008F041FA10BD52
:1009600010B50C464C3008F047FB204610BD09017D
:10097000081880210958002902D0096874300847F6
:10098000704770B505464C3008F0FAFA3F2104462E
:100990000902AB6C08400026002B08D0002806D0C6
:1009A00001262A463C3201461B6810469847FC2027
:1009B0002146AA6B0140002A06D0002904D028460F
:1009C00012682C30904701E0002E01D008F06AFB3D
:1009D00070BD70B5044600680D4601682046884722
:1009E000204629464C3008F0D9F99420055120685A
:1009F00041682046884770BD7047704770B504460F
:100A0000006801682046884720464C3008F00AFB01
:100A100005462068416820468847284670BD00008A
:100A2000FFB585B03849394A01601D46D4689368DE
:100A300000228360C460364B0361364B4361C26160
:100A40008061024608320262334A4262BFF36F8F0E
:100A5000BFF34F8F0146002620310E724E72C662E0
:100A6000066346638663C663066446648664C6643A
:100A7000066546658665C665066646668666C6661A
:100A80000667022310222549743003F0B3FF0446A1
:100A9000743C0C30049045610025280106190020A3
:100AA0006F4674360090019002900390BE420ED0C3
:100AB000F068002802D0816830468847039839469C
:100AC000002802D04268304690470398F0600399AE
