:020000040001F9
:10B0000000800020A1B20100BFB20100C1B2010066
:10B010000000000000000000000000000000000030
:10B02000000000000000000000000000C3B20100AA
:10B030000000000000000000C5B20100C7B201001E
:10B04000C9B20100C9B20100C9B20100C9B2010010
:10B05000C9B2010000000000C9B20100C9B201007C
:10B06000C9B20100C9B20100C9B20100C9B20100F0
:10B07000C9B20100C9B20100C9B20100C9B20100E0
:10B08000C9B20100C9B20100C9B20100C9B20100D0
:10B09000C9B20100C9B20100C9B20100C9B20100C0
:10B0A000C9B20100C9B201000000000000000000A8
:10B0B0000000000000000000000000000000000090
:10B0C00000F002F800F0C3F80CA030C808382418CB
:10B0D0002D18A246671EAB4654465D46AC4201D1D0
:10B0E00000F0B5F87E460F3E0FCCB646012633423F
:10B0F00000D0FB1AA246AB4633431847B06D0000A0
:10B10000D06D0000103A02D378C878C1FAD852073F
:10B1100001D330C830C101D504680C60704700000D
:10B120000023002400250026103A01D378C1FBD863
:10B13000520700D330C100D50B60704710B56E299F
:10B1400002D100F0DEFF10BD702902D100F043FAF9
:10B1500010BD662902D106F009FC10BD652902D197
:10B1600006F004FC10BD672902D106F0FFFB10BDFC
:10B17000612902D106F002FC10BD03681B0A01D34D
:10B1800080231943692902D100F0B0F910BD642968
:10B1900002D100F0ABF910BD752902D100F0A6F97B
:10B1A00010BD6F2902D101F0B1F810BD782902D18C
:10B1B00000F0FEF910BDE92902D101F04DF810BDF3
:10B1C000E42902D101F048F810BDF52902D101F0BF
:10B1D00043F810BDEF2902D101F0A4F810BDF82901
:10B1E00002D100F0F3F910BD0368DB0901D380231D
:10B1F0001943632902D101F0BEFE10BD732902D1AB
:10B2000001F0C1FE10BDE32902D101F0CBFE10BD5B
:10B21000F32902D101F0CEFE10BD002010BD1FB5F4
:10B220000098019900F07FFE02F00EF80400002063
:10B23000002106F0BDFA401C60600020002106F0ED
:10B24000A1FAE06001F0DCFE00F0E2FD1FBD03F0BA
:10B2500041FF114603B403F051FF03BCFFF7DFFFCA
:10B2600002F0E0FB04F0E6FA70B505460C4616461F
:10B2700002E00FCC0FC5103E102EFAD2082E02D3DA
:10B2800003CC03C5083E042E07D301CC01C5361FED
:10B2900003E021782970641C6D1C761EF9D270BD04
:10B2A00003210A4802680A430260094802680A4307
:10B2B0000260084880470848804708480047FEE782
:10B2C000FEE7FEE7FEE7FEE7FEE70000240500409C
:10B2D00054050040DDDB010041060200C1B0010061
:10B2E000004870479836002070B5064600F0FEFD15
:10B2F000056830460B30C408E400B44201D8002091
:10B3000070BD68682A46002818D00168A14211D390
:10B310000B46214608318B4208D3436801194B6024
:10B3200003681B1B0B605160046001E041685160C1
:10B33000001D70BD024640680028E6D1214628461F
:10B3400000F0DCFD0028DCD170BD70B50446051F9F
:10B3500000F0CCFD0068002C1AD0446801E02046C3
:10B360006468002C01D0AC42F9D301680A18AA42E3
:10B3700004D12A6805468918016000E04560286804
:10B380004119A14205D161686960216840182860AF
:10B3900070BD6C6070BDFEB5054610460C46184386
:10B3A00073D0AE468C460020AD1A01469C4167D34F
:10B3B0006646002701243D46B61A9D4102D3134636
:10B3C0003A462124654676462F04360C3E432D0C22
:10B3D000B61A9D4104D3150C1B042B4312041034E0
:10B3E000654676462F06360A3E432D0AB61A9D411B
:10B3F00004D3150E1B022B43120208346546764611
:10B400002F0736093E432D09B61A9D4104D3150F67
:10B410001B012B431201241D65467646AF07B60873
:10B420003E43AD08B61A9D4104D3950F9B002B43B4
:10B430009200A41C65467646EF0776083E436D08E9
:10B44000B61A9D411AD392185B41641C16E000188D
:10B45000764665464941B71A9D410191009009D34E
:10B460006046B11A98418E4684460098019900259D
:10B47000401C6941DD0752082A435B08641EE6D57B
:10B480007246634603B0F0BDFFE700200146C046A8
:10B49000C0462A462346F5E77CB51D4616460C00F5
:10B4A000009001D00019401E084B7B442A46694693
:10B4B0000190304600F03DFE002C054603D0694661
:10B4C000002000F049FE28467CBD0000B50C0000BD
:10B4D0000FB4054910B503AA029800F04BFE10BC4A
:10B4E00008BC04B018470000F4360020F7B500256A
:10B4F00075291068009914A611D000F06FFD00287E
:10B5000002DA404211A608E0009909688A0701D5CD
:10B510000FA602E0490704D50EA6012501E000F0C0
:10B5200066FD009F0024243704E001F029F9303142
:10B530003955641C0028F8D12B4632462146009824
:10B5400000F087FDFEBD0000000000002D0000009F
:10B550002B00000020000000F8B50F460188090507
:10B5600002D5224C7C4402E0204C7C440E3405463B
:10B570000021243508E016071209360FA65D6E5427
:10B580001E0732431B09491C16461E43F3D12246AF
:10B5900004780023240705D5702F06D0002901D098
:10B5A0000223113200F055FDF8BD01231032F9E7F6
:10B5B00070B504460D462146106800F018FD0023C2
:10B5C000024629462046FFF7C7FF70BDD21DD308AB
:10B5D000DB000CCBC0E730B403682024126823439F
:10B5E00003600823C36130BC0023B5E73065000069
:10B5F000F3B50446002081B020622046E168884708
:10B60000002872D0252802D06268A168ABE0594FAB
:10B6100000267F442046E16888472028054608DB4D
:10B62000312D06D2781920380078002801D0064341
:10B63000F0E7B00701D5042086430020E06107460B
:10B64000A0612A2D0AD0284603F048FD002827D003
:10B65000B8000019303D0090856119E00298BA00E9
:10B66000121902C8916102902046E1688847012FB3
:10B67000054617D1E06900281FDA202086431CE028
:10B6800000980A2180694843009940193038886140
:10B690002046E1688847054603F020FD0028EFD1E9
:10B6A000012F0AD02E2D08D12046E1688847054693
:10B6B000202006437F1C022FC3DBA069002803DA89
:10B6C0004042A06101200643F00701D010208643CC
:10B6D0006C2D0BD0682D09D04C2D3CD06A2D38D064
:10B6E000742D38D07A2D36D016E040E0E1682F4630
:10B6F00020468847B842054609D16C2F29D0012041
:10B700008002E168064320468847054604E06C2F26
:10B710001DD0FF2001300643002D28D02846413897
:10B72000192803D80120C002064320352046266090
:10B730002946029A1646FFF701FD002810D001287D
:10B740000BD0F61DF008C0000830029055E74020ED
:10B75000E1E78020D5E70020D3E7361D02964CE7CD
:10B7600062682846A1689047206A401C44E7206A26
:10B77000FEBD0000AA64000070B50446C0688107E1
:10B7800013D0800601D5A56A04E0A169606840185D
:10B790002169451A204600F09BFF002206462946F3
:10B7A000204600F0C5FE304670BD002070BD70B56B
:10B7B000002802D0FFF7E0FF70BD0025074C6E1E89
:10B7C00008E02046FFF7D8FF002800D03546206D5E
:10B7D00044086400002CF4D1284670BDA036002037
:10B7E00070B50D46044604E0294604F028F8401CD4
:10B7F00004D02078641C0028F6D170BD0020C0431E
:10B8000070BD0000F7B516460C46104600F07CF8F7
:10B810002078611C61280AD0722802D0772839D19B
:10B8200002E00125002404E00225042401E02D4D5E
:10B8300008240222032301270878491C2B2806D05C
:10B84000622807D02039C87F742807D008E01D433C
:10B850001443F1E7042005433C43EDE71020044383
:10B860000098214603F0B8FC411C13D0002131613F
:10B8700071600121F5604902F1617061200704D512
:10B8800030460222002100F053FE306D384330650F
:10B890003046FEBD0020FEBDF8B50D460646124CF2
:10B8A000206DC10704D0410804D044086400F7E7C4
:10B8B000224610E05420FFF717FD070010D079084A
:10B8C000206D490001221143084354212065384668
:10B8D00000F058F93A4629463046FFF793FFF8BD85
:10B8E0000020F8BD02800000A036002010B500291D
:10B8F00002D0FF22013201E00122920201235B0209
:10B9000000F090FE10BD0000FEB5044646690069D7
:10B910000F4F0190E56800200090A80707D020464F
:10B9200000F0D6FE304603F0EDFB002801DA384681
:10B93000FEBD280502D50198FFF707FD4C212046E2
:10B9400000F020F9206D4008400020650098FEBD01
:10B95000FFFFFFFF0EB5044615460E4612A001F08C
:10B9600037FC204601F034FC15A001F031FC3046D4
:10B9700001F02EFC14A001F02BFC6C460020E072BC
:10B980000A20A0720A3407E00A21284600F05AF97A
:10B9900030310546641E2170002DF5DC204601F093
:10B9A00017FC00F0DDFE00002A2A2A20617373656F
:10B9B0007274696F6E206661696C65643A2000007C
:10B9C0002C2066696C6520002C206C696E65200057
:10B9D00030B5441C03E00178401C00290DD08107DC
:10B9E000F9D10B4BDD0104C8D11A91432940FAD09B
:10B9F000001B0A0603D0C01E30BD001B30BD0A0468
:10BA000001D0801E30BD0902FCD0401E30BD0000B8
:10BA1000010101010346F0B50B439B072DD1244DD5
:10BA2000EF01042A29D308C810C95E1B9E43121FC8
:10BA30003E4017D0D8B2E1B2401A3106014310D1CE
:10BA400098B2A1B2401A310401430AD1180221026E
:10BA5000000A090A401A3102014302D1180E210ED0
:10BA6000401AF0BDA342DCD018BA21BA884201D9ED
:10BA70000120F0BD0020C043F0BD002A01D100200C
:10BA8000F0BD03780C78401C491C002B0DD0A3425C
:10BA90000BD1521E09D003780C78401C491C002B96
:10BAA00003D0A34201D1521EEBD1181BF0BD000000
:10BAB00001010101F8B5042A2CD3830712D00B78B9
:10BAC000491C0370401C521E83070BD00B78491C85
:10BAD0000370401C521E830704D00B78491C03706E
:10BAE000401C521E8B079B0F05D0C91ADF00202374
:10BAF000DE1B08C90AE0FFF7B7FBF8BD1D4608C901
:10BB0000FD401C46B4402C4310C0121F042AF5D23D
:10BB1000F308C91A521EF0D40B78491C0370401C5C
:10BB2000521EEAD40B78491C0370401C012AE4D44D
:10BB300009780170F8BDD2B210B513029A18130437
:10BB40009A1800F00EF810BD01E004C0091F042986
:10BB5000FBD28B0701D50280801CC90700D0027080
:10BB6000704700290BD0C30702D00270401C491E49
:10BB7000022904D3830702D50280801C891EE3E7D3
:10BB80000022EEE70022DFE782078B079A4237D1D7
:10BB900070B5920F0AD0032402780B78401C491C20
:10BBA000002A2BD09A4229D12042F5D11D4EF40112
:10BBB00004C808C9951B9543254010D19A4207D166
:10BBC00004C808C9951B9543254008D19A42EFD077
:10BBD00012BA1BBA01209A4200D2404270BD12BA7A
:10BBE0001BBA2DBA18241000E0401900E140401A99
:10BBF00005D12E00E64002D1083CF4D1D01A70BD28
:10BC000002780B78401C491C002A09D09A4207D1BF
:10BC100002780B78401C491C002A01D09A42EFD0D0
:10BC2000D01A704701010101002203098B4273D32E
:10BC3000030A8B4258D3030B8B423CD3030C8B4239
:10BC400021D312E003460B437FD4002243088B42EA
:10BC500074D303098B425FD3030A8B4244D3030B93
:10BC60008B4228D3030C8B420DD3FF22090212BA58
:10BC7000030C8B4202D31212090265D0030B8B42D4
:10BC800019D300E0090AC30B8B4201D3CB03C01ABE
:10BC90005241830B8B4201D38B03C01A5241430B99
:10BCA0008B4201D34B03C01A5241030B8B4201D389
:10BCB0000B03C01A5241C30A8B4201D3CB02C01AF4
:10BCC0005241830A8B4201D38B02C01A5241430A6C
:10BCD0008B4201D34B02C01A5241030A8B4201D35B
:10BCE0000B02C01A5241CDD2C3098B4201D3CB0102
:10BCF000C01A524183098B4201D38B01C01A5241B1
:10BD000043098B4201D34B01C01A524103098B42B4
:10BD100001D30B01C01A5241C3088B4201D3CB009F
:10BD2000C01A524183088B4201D38B00C01A524182
:10BD300043088B4201D34B00C01A5241411A00D232
:10BD400001465241104670475DE0CA0F00D049429B
:10BD5000031000D34042534000229C4603098B420B
:10BD60002DD3030A8B4212D3FC22890112BA030A93
:10BD70008B420CD3890192118B4208D38901921115
:10BD80008B4204D389013AD0921100E08909C3099A
:10BD90008B4201D3CB01C01A524183098B4201D39C
:10BDA0008B01C01A524143098B4201D34B01C01A87
:10BDB000524103098B4201D30B01C01A5241C308FF
:10BDC0008B4201D3CB00C01A524183088B4201D36E
:10BDD0008B00C01A5241D9D243088B4201D34B0089
:10BDE000C01A5241411A00D20146634652415B10CB
:10BDF000104601D34042002B00D5494270476346AC
:10BE00005B1000D3404201B50020C046C04602BDD1
:10BE100070B5064C7C44064D7D4403E02068001953
:10BE20008047241DAC42F9D170BD0000E0610000E4
:10BE3000E0610000F8B517460E460546002B07D016
:10BE4000104658434419E41B2046B047A542FAD196
:10BE500028460838F8BD10B501469E240002CA15D0
:10BE6000A307002A02D01843002A04DBA21A002AE2
:10BE70000CDDD04010BD1206120E01D1400040086A
:10BE8000A21A03D4D04040420028F3DDFF2248002C
:10BE90001206904201D9002010BDC817C043584077
:10BEA00010BD10B50202C11504D00123DB071A43EF
:10BEB000002914DBBE235B1A0CD41146D9401C4662
:10BEC000203C02D41046E04010BD2020C31A10468A
:10BED000984010BDFF2241001206914202D9002075
:10BEE000014610BDC017C043C11710BD00487047C0
:10BEF0009C360020704770477047704738B504463D
:10BF00000A460020694601F079F9002805D002466A
:10BF10002046009900F054FC012038BD10B50120E6
:10BF200001F038F910BDF8B501F05CF905460020C4
:10BF30000C461020C0460646A819A0420DD932462C
:10BF40006946002001F05AF9070001D101F022F9F9
:10BF50000098A04200D00546C419FFF7C7FFF61DA0
:10BF600007460560F008C0004619284600F008F8AA
:10BF7000B44204D031463868A21B00F021FCF8BD61
:10BF8000002101604160806070471020704770B5EB
:10BF9000044685690068C10601D5302600E02026E8
:10BFA000C00707D070BD62683046A1689047206A1C
:10BFB000401C20626D1EF6D570BD70B504468569C3
:10BFC0000078C00707D170BD6268A1682020904743
:10BFD000206A401C20626D1EF6D570BD09684A05B6
:10BFE00001D540B27047C905FCD500B27047096859
:10BFF0004A0501D5C0B27047C905FCD580B270476B
:10C0000070B50C460546012A05D02878800600D573
:10C01000EA69002302E0012305E05B1C934202D29F
:10C02000E05C0028F9D1A869E618C01AA861286A5E
:10C03000C01828622846FFF7AAFF04E06A68207843
:10C04000A968641C9047B442F8D32846FFF7B5FFAF
:10C0500070BDFFB504460D4681B0243000902168C4
:10C06000880604D51022E0699143216000E0012098
:10C07000A84201DD471B00E000270498A1697A1956
:10C080001018081AA0612078C00602D42046FFF7D5
:10C090007EFF002608E003986268A168805D9047F3
:10C0A000206A401C761C206204988642F3DB2078CC
:10C0B000C0060AD52046FFF76AFF06E06268A1685D
:10C0C00030209047206A401C206238467F1E00289E
:10C0D000F4DC07E000986268A168405D9047206A40
:10C0E000401C206228466D1E0028F3DC2046FFF726
:10C0F00064FF2078000602D5022005B0F0BD0120C3
:10C10000FBE711680268006A530501D5087009E071
:10C11000D30501D5088005E0130602D5C21705C175
:10C1200000E008600120704701694A1C026108783C
:10C13000704700B58FB00291002105910549019328
:10C1400079440391114604906846FFF751FA0FB005
:10C1500000BD0000E5FFFFFF0A681070521C0A6076
:10C1600070470CC908399A4202D2531C0B601070F8
:10C1700070470000084B70B50D467B44FFF7D9FFB0
:10C180000446284600F0D8F8002802D00020C0431A
:10C1900070BD204670BD0000C1360000F7B50446F2
:10C1A000154686B02B487844002703C83E460090C9
:10C1B000019111E007986A467100415A02A800F007
:10C1C000BDFF411C07D02178890603D5E2693918E3
:10C1D00091420ED83F18761C2078800602D5E0697F
:10C1E000B84206DDAE42E5DB07987100405A0028F0
:10C1F000E0D1A069C01BA0612046FFF7C8FE15482A
:10C2000078445A3803C800900020019116E041009C
:10C210006A460798415A02A800F090FF0590401C1A
:10C220000AD0002505E0626802A8A168405D904739
:10C230006D1C05988542F6D30498401CB0420490CA
:10C24000E5DB206AC01920622046FFF7B6FE09B080
:10C25000F0BD00002A590000F7B5D21D0025D20814
:10C2600015A6D200F52905CA11D0002A05DA002149
:10C270004042914111A60A4608E0009909688B07DF
:10C2800001D50FA602E0490701D50EA601251146EA
:10C29000009F0024243704E000F0ACFA30323A5515
:10C2A000641C02460A43F7D12B46324621460098C9
:10C2B000FFF7CFFEFEBD0000000000002D000000D3
:10C2C0002B0000002000000070B50446002124343B
:10C2D00008E05507D2086D0F303565545D072A43D5
:10C2E000DB08491C15461D43F3D10468002310A246
:10C2F000250708D5A40601D4002904D0C469012368
:10C300000CA2641EC461FFF7A4FE70BD10B5044604
:10C3100021461068FFF76BFE002302462046FFF718
:10C32000D3FF10BDD21DD108C9000CC9CCE7000055
:10C330000000000030000000C06880210840704705
:10C34000F8B505460C46C8680521C9048843012193
:10C3500089050843E060800602D5204600F0DEF93A
:10C360007149E0680140022903D0204600F080F9BD
:10C37000BCE00521012249030140D20391420FD1C3
:10C38000C00306D56168E06A884200D8084660604C
:10C3900006E02069E0626060606902F0D7FEA0619B
:10C3A000A1680022EEB200290EDAE06883050BD402
:10C3B000C943A1600921226049030843E060606825
:10C3C000411C61600670ACE0E0680121490308434C
:10C3D000E060002020602069002831D1606902F00F
:10C3E000DBFE012527462437ED02002816D0A08960
:10C3F0008005800F08D0E069FEF776FF00282061F5
:10C4000002D0E068284318E001202761E061E0687D
:10C41000032109028843012189020DE0E069FEF74A
:10C4200063FF00282061EFD0E0682843E0608105C9
:10C43000890F03D1FF2101310843E060206960606A
:10C44000E2683A4F2569D0051FD56168E06A8842E5
:10C4500000D80846411B05D02246284600F012F9B4
:10C46000002843D1E068010204D5E5620020656040
:10C47000A06053E0691CE1626160E169491E3843D4
:10C48000A160E06030462E70F8BD100201D53A4040
:10C4900009E06068411C61600670E06838430A2E5C
:10C4A000E06006D00022E16A6068814203D90B4651
:10C4B00002E00122F7E70346A7895B1B7F0504D44E
:10C4C000E7699F4201DD002A1ED0814200D8014663
:10C4D0000F1A0020E5626560002BA06009DD22468E
:10C4E0001946284600F0CEF8002802D00020C043AC
:10C4F000F8BD002F08D0A069E5626560C01BA0618F
:10C50000E06810210843E060E068000209D5616836
:10C51000A069E562491B40186560A0610120C04325
:10C52000F8BD3046F8BD0000821000000000010098
:10C53000F8B5044616460D464769007B800730D0A3
:10C54000384602F029FE00282BD132461026002A58
:10C5500025D0012A02D0022A23D104E0204600F08F
:10C560002DFD45191BE0384602F0F0FDE16831432E
:10C570000028E16004DA204600F07AF80120F8BDD6
:10C58000C9030BD56268E16A914200D81146A269DD
:10C5900089182269891A814200DD08462D18002D6C
:10C5A00001DA0220F8BDE16A6068E268814206D2E1
:10C5B0009103E06203D5012149048A433243A6690D
:10C5C000AE4211DCE16A814201D90B4600E003462C
:10C5D0009F192369FF1AAF4206DD814201D90F4638
:10C5E00000E007469F4206D1202002430020A060C1
:10C5F000A56220600DE0AD1BE669AE1B8142A6601E
:10C6000000D90846C01A281A2060581960602020F6
:10C610008243034802400020E26040342072F8BDAB
:10C62000BFCFD7FF70B5C468A50713D0650211D47A
:10C63000D51FF93D0AD0FF3D6D1E07D0FF3DFF3DE0
:10C64000022D07D101462431012305E0074E5D1E6E
:10C65000B54201D3012070BD0161C36141600F216A
:10C6600009028C431443C460002070BDFFFFFF002B
:10C67000C1688022114392039143C160002181600F
:10C6800001607047F7B514460E463348D5685769C0
:10C69000054209D03846A16902F0AAFE002811DB44
:10C6A0002D48C0430540E5602B4632463846009988
:10C6B00002F0C4FE4200A1695208B21A891800288B
:10C6C000A16104D02046FFF7D3FF0020C043FEBD88
:10C6D00070B504460569C06A6168884200D808469A
:10C6E000E1680522D2049143E160C90314D5A84250
:10C6F00009D02246411B2846FFF7C4FF002802D07C
:10C700000020C04370BDE56200206560A060E06865
:10C71000012109048843E060002070BD10B5044683
:10C72000C06820218843E060A16AA06988420ED0D9
:10C730002046FFF7CDFFE06803210903884310215D
:10C740000843E060A06AA0612069E062606003497C
:10C75000E0680840E06010BD10000200BFBFFFFFAE
:10C7600010B5002000F010FDC046C046012000F0CA
:10C7700021F810BD10B500F013FD00F0FFFC10BD56
:10C7800001468008081A02091018020A1018020C43
:10C790001018C008820012185200891A01E0401CCB
:10C7A0000A390A29FBD2704708B569460870032088
:10C7B000ABBE08BD01491820ABBEFEE72600020053
:10C7C00010B50346406801E003464068002801D0E8
:10C7D0008842F9D31868C3188B4206D0CB1CD808FE
:10C7E000C000001D411A521A0146081D0A60FEF7DA
:10C7F000ACFD10BD0B4670B50246890780080843A2
:10C8000019469D08141AA941250908070543080976
:10C810002C194841250A01060D43010A2C194141F2
:10C82000200C0D0428430D0C00194D410021401926
:10C830004D41C00869070843E908840F8D0025436E
:10C84000840024184D4124196D41121BAB4107E0AF
:10C850000925ED432C11521963410024401C61410C
:10C860001C460A250026551BB441F1D270BD0000BC
:10C870007047FFB50C461E468FB003CA0890099159
:10C880004F007D0D00D16D1E002108460020C046DE
:10C890000321099A89050840002A03DA82008018DA
:10C8A00040080840800D01280A9002DD0020C043A6
:10C8B0000A90089807430DD0F048F14928184843DA
:10C8C0000714189800281DD07542291E1DDD0A98EE
:10C8D00042421BE01898012802D00020302104E0D9
:10C8E0000020F24305E02154401CB042FBDB3046FF
:10C8F0000022189B002121540F998B600A60486028
:10C9000013B0F0BDBD1B6D1CDFE70A9A002900DAE9
:10C9100069420BA800F0E0FC0BAB07CB03AB07C3ED
:10C920000899099800F044FD6B4607C30146D548B5
:10C930000918002D00910BDDD24903980A9A49424B
:10C940004018002303A90390684600F0A1FF08E007
:10C9500003990A9A0023081803A90390684600F077
:10C9600041FF6B4607C30004000C03D00020C04306
:10C97000410800E01046189A002A03D000220092D5
:10C9800015461EE0751E05D4FFF734FF30326255A0
:10C990006D1EF9D501220843079602D000227F1CA4
:10C9A00004E02078302801D100227F1E002A06975B
:10C9B00087D01EE0112D07DAFFF71CFF30326255D9
:10C9C0006D1C02460A43F5D1084303D000980028A5
:10C9D00019D00EE00021681E05E0235C625C635400
:10C9E0002254401E491C8142F7DBA81B401E0795BC
:10C9F0000690079A18990020A0540F98079B069A52
:10CA000081600CC07CE711260020189059E7D21DE8
:10CA1000F0B50D460446D10893B0C90003C90C9087
:10CA20000D9102F0E1FA02460D98C00F01D02D20C1
:10CA300007E02068810701D52B2002E04007C00FE6
:10CA40004001032A0F9001D0072A05DB034629463F
:10CA5000204600F0FDFB0EE12078800601D5E76955
:10CA600000E006272846652D04D0662814D0672DDF
:10CA700069D12DE00020112F009001DB112300E08F
:10CA80007B1C0CAA03A910A8FFF7F3FE119900263E
:10CA900010987D1C0E9142E001203B460CAAC00775
:10CAA0000B900120009003A910A8FFF7E2FE119D52
:10CAB00012981099002600280E9501D1781C0D18A7
:10CAC000781B02D446427D1C761EE81B00903AE09B
:10CAD000012F00DA01270020112F009001DD112322
:10CAE00000E03B460CAA03A910A8FFF7C2FE11996B
:10CAF0003D46109800260E91217809070BD40E9917
:10CB0000A94200DA0D4603A9012D04DD4A19203A95
:10CB1000D27F302A06D0B84201DA011D04DA0121A1
:10CB200000910FE06D1EEFE7002802DC86192D1A38
:10CB300003E0411CA94200DD0D46801B401C009013
:10CB40000120C0070B902078000705D40098A84268
:10CB500002DB0020C043009069460020C8720B9899
:10CB6000012102AF0337C907884225D00220109067
:10CB70002B2011900B9800280BDA40420B902D20AF
:10CB8000119006E00B98FFF7FBFD30317F1E0B90F4
:10CB900039701099481E00291090F3DC0B9800287A
:10CBA000F0D111987F1E38702088000501D54520EE
:10CBB00000E065207F1E387001A8C01BC01D0B90CF
:10CBC0000F98002800D0012041190098C0170918BB
:10CBD0000B980818A169081A401EA0612078C006A9
:10CBE00002D42046FFF7D3F90F98002805D06268D9
:10CBF000A1689047206A401C20622078C00625D595
:10CC00002046FFF7C4F921E0002E07DB0E98B04262
:10CC100004DD03A86268805DA16802E06268A16823
:10CC200030209047206A761C401C20620098401EED
:10CC3000002800900AD100F007FBC0686268016814
:10CC4000405CA1689047206A401C206228466D1E07
:10CC50000028D9DC07E062683878A1687F1C90471B
:10CC6000206A401C20620B99481E00290B90F2DCC0
:10CC70002046FFF7A2F9032042E6000001FCFFFF77
:10CC8000104D0000E1DFFFFFD21DF0B504460D4658
:10CC9000D0088DB0C000466807683146384602F0BB
:10CCA000A3F90246F00F01D02D2307E02068810789
:10CCB00001D52B2302E04007C00F43016846002B3B
:10CCC000037001D0012000E00020032A0A9001D067
:10CCD000072A04DB2946204600F0BAFA2DE1207825
:10CCE000800601D40D2500E0E5697000400D0D2D92
:10CCF00001904BDA300D00210B9008460020C04611
:10CD0000032189050840002E05DA82008018C20F31
:10CD10001018401008408015012801DD0020C04394
:10CD2000A9000023182906D39C460A460123183A75
:10CD30001B07D34003E001221205CA4094460C3180
:10CD4000202902D33A46203900E032468A400028A2
:10CD500002DD002A06D119E0002817D10121C907F8
:10CD60008A4213D3194663467F185E41002806D1D4
:10CD70000120C007824202D1084687439E430B9898
:10CD8000310D814202D00198401C0190208800059D
:10CD900002D57149794402E06F49794419396B46EB
:10CDA0000A9830221A540A980A7C401C1A54401CD3
:10CDB0000A900198002801DC302000E03120187230
:10CDC000019A0120002A02D0644BD21804E07200BC
:10CDD0003A4302D0614A521C0192002D02DC2278B3
:10CDE000120703D56A462E20507202200022864682
:10CDF00094460CE032033601120F6D1E8B5C02AAC2
:10CE000013546246521C401C9446052A01DA002D38
:10CE1000F0DC002202AE08E03B0F3F01CB5C521C6D
:10CE20006D1E3354401C082A01DA002DF4DC2368FF
:10CE30009A0601D511E0401E704504DD3218203AF3
:10CE4000D27F302AF7D0002807DD3218203AD27F6F
:10CE50002E2A02D11A0700D4401E002D03DD3E22E7
:10CE60003254401C6D1E497C31540199401C0029EC
:10CE700006DA2D21471C315401984042019003E00D
:10CE80002B21471C315401987D21C900884206DBC3
:10CE9000FEF7D8FE3030F0557F1C019101E0642888
:10CEA00008DB01986421FEF7CDFE3030F0557F1C81
:10CEB000019101E00A2806DB01980A21FEF7C2FE73
:10CEC0003030F0557F1C01980A21FEF7BBFE30314F
:10CED000F1550A98A1697F1C7A191018081AA061E7
:10CEE0002078C00602D42046FFF751F8216A6E462A
:10CEF0000A980818206204E062683078A168761CFD
:10CF000090470A98401E0A90401CF5D12078C00630
:10CF100002D52046FFF73BF802AE09E03078761CD8
:10CF20003E280DD06268A1689047206A401C2062AC
:10CF30007F1EF3D22046FFF740F80DB00320F0BD6E
:10CF4000206A4019206203E06268A168302090479F
:10CF50006D1EEDD3F8E70000574D000001FCFFFF08
:10CF600010B54369002B02D0C046C04601E0FFF770
:10CF700047F8012010BD1278014624310A700022C2
:10CF80004A700122ECE711680022D243E8E710B5AD
:10CF90004369002B02D0C046C04601E0FFF7FEF80F
:10CFA000012010BD12880146243182840022C284EF
:10CFB0000122ECE711680022D243E8E710B50146F0
:10CFC000C268900703D0900607D5886A0AE0FEF78A
:10CFD00087F901210160881E10BD8B694868C0185F
:10CFE0000B69C01A40310B7A002B02D0497A401AE3
:10CFF00010BD1103FCD50028FADD401E10BD000055
:10D0000010B543485421FEF7BDFD42485421FEF7B8
:10D01000B9FD41485421FEF7B5FD40483C493D4B20
:10D02000404A01603E4803603B4810605A1C0A6554
:10D03000411C1965012101653C48354A3AA17844F3
:10D04000FEF7E0FB002804D1384878440C3800F0A3
:10D05000A1FC38482F4A36A17844FEF7D3FB0028BC
:10D0600004D1344878440C3800F094FC32482A4A01
:10D070002FA17844FEF7C6FB002804D12E4878443F
:10D080000C3800F087FC40232148DC0000212246B8
:10D09000FFF7C8FA002804D0244878445C3800F030
:10D0A00079FC1C48224640230021FFF7BBFA0028E8
:10D0B00004D0204878445C3800F06CFC16482246C6
:10D0C00010230021FFF7AEFA002804D01A48784454
:10D0D0005C3800F05FFC10BD0F4870B5006D44086F
:10D0E0000B486400FEF710FC0A48FEF70DFC0A48E6
:10D0F000FEF70AFC09E0206D450820466D00FEF7AA
:10D1000003FC2046FEF721F92C46002CF3D170BD1C
:10D11000A0360020F436002048370020543000208C
:10D12000583000205C300020720000005E49000092
:10D13000770000004B4900003949000070B51646E1
:10D140000C46054600F078F80368FF200230C05C0A
:10D15000012807D0FF2C0ED8185D00280BD0012025
:10D160002C7070BDFF333246214608331868C3184F
:10D170002846984770BD0020C04370BD10B50028F8
:10D1800001D0FFF717FB10BD10B500F0EBFBFFF768
:10D19000F5FF10BD10B500F003FCFFF7EFFF10BD69
:10D1A00010B5002102A000F0C3FB012010BD00005B
:10D1B0005349475056464E3A20507572652076695D
:10D1C000727475616C20666E2063616C6C656400BE
:10D1D00010B50349FEF704FB0148FEF7E8FA10BD5D
:10D1E0004837002001226946114B120382188A42F7
:10D1F0001A6001D8114670471960704770B50C4C21
:10D200006D46012636032368AD1B9A18AA420ED834
:10D21000AD1A9019EE0F75196D10AA18904200D929
:10D220001046C01D0B60C208D200D01A226070BD2B
:10D23000603000207047000010B500F005F8001DB8
:10D2400010BD00BF6D450000004870479C370020AE
:10D25000F8B51F46044601230068DB020326014699
:10D260001840072A05DB002801D017A506E017A5FE
:10D2700004E0002801D016A500E016A51020814387
:10D280002160A069C01E002FA06101D0401EA061D6
:10D290002046FEF77CFE002F09D038466268A16860
:10D2A0009047206A401C2062C01C206206E0206A71
:10D2B000FAE762682878A1686D1C9047761EF8D25C
:10D2C0002046FEF77AFEF8BD4E414E006E616E00BC
:10D2D000494E4600696E6600F7B516468AB0334877
:10D2E00078446C4603467C33C06F5A689B680DC413
:10D2F0002E487844763003AC0DC80DC43720C001E9
:10D30000081837211B30FEF79DFC05460C46803D72
:10D310001B3C02D56442012000E000200027099058
:10D3200010E0E0070CD00C202049784379443246C5
:10D330004C3941186846012300F054FA6B4607C384
:10D3400064107F1C002CECD1184F7F442E3F16E058
:10D35000E80712D02001C0190EC806910893079261
:10D360000068F04201D1981908903246012306A9BD
:10D3700003A800F037FA03AB07C36D10641C002D3F
:10D38000E6D10998002806D032466946012303A851
:10D3900000F07EFA05E001233246694603A800F05A
:10D3A00021FA0A9B07C30DB0F0BD00002048000021
:10D3B000034640000A4610B5400D0BD00121C907B5
:10D3C0000F24A40200191C0364082143540D2143B7
:10D3D000D20207E000210120F2E7D40F49002143E7
:10D3E0005200401E0029F8DADB0FDB07184310BD9E
:10D3F000FFB50D46144685B04868516801F0DCFD64
:10D4000000910190A868A16801F0D6FD02910390F7
:10D41000A868616801F0D0FD029A12188242029257
:10D4200001D2012000E00020019A0B18D218002838
:10D43000019202D08A4202D903E08A4201D201203D
:10D4400000E000200099081800906868A16801F0C9
:10D45000B3FD029A12188242029201D2012000E02A
:10D460000020019A0B18D2180028019202D08A429B
:10D4700002D903E08A4201D2012000E00020009995
:10D4800008180090286821684000490040084908B1
:10D490004018FA49471814E001994000C90F0843A1
:10D4A0000090019802994000C90F0843019002982A
:10D4B00003994000C90F08430290039840007F1E63
:10D4C000039000980028E7DA0898002801D0EC4E75
:10D4D00000E00026B74201DA012000E00020002829
:10D4E00004902AD0F71BF806C00E15D0029B20210D
:10D4F000091A039A8B401A430392029A019BC24075
:10D500008B401A430292019A009BC2408B400099C3
:10D510001A430192C14000917B110DD06F46032048
:10D52000C11A03D500218200B95003E08A008100AE
:10D53000BA587A50401EF3D537460398029900280E
:10D5400000D00120014308980291002808460CD021
:10D55000002800D001200199019A490508430121C2
:10D56000D20AC902D202019200E001210E9B0122DF
:10D57000D207012B02D0002B03D013E0002807D1E3
:10D5800020E0904204D890420CD1019B0B4209D07C
:10D59000019B5918019105D10099491C009101D1B5
:10D5A0007F1C009200280DD0102108460020C046A4
:10D5B0000498002806D00F98002803D008210846B8
:10D5C0000020C04628682168019B009A4840C10F8E
:10D5D0000598C90739430EC009B0F0BDFFB587B043
:10D5E000099A08980899536892684068896896462D
:10D5F0000022039317469446089A12685300099A2A
:10D600005B081268520052089A1A9E4BD4180A9A64
:10D61000002A01D0352200E0402206920022012398
:10D6200015460492DB07059324E0002D05D17546CD
:10D630000346039E4D1BB34109D375466646039BC3
:10D64000491B049D9841059B7519AC465F41634693
:10D650003B4308D0059B049EDD0776082E435B08FC
:10D660000496059301E0521E641EC50FED0749188C
:10D670004041521C069B9A42D7DB002D04D17546CF
:10D68000039A6B1A824101D203200CE0039A0B46E5
:10D690006B404240134303D0014303D0012002E01A
:10D6A000022000E0002061460191002100970291D4
:10D6B0000A99002905D0614640020143704B01914F
:10D6C00002E08007002302909C4201DA012000E082
:10D6D000002007003AD01A1BD006C00E15D0029DBC
:10D6E0002021019C091AC5408C402543029C8C4096
:10D6F00000D001242543019C0295009DC4408D402B
:10D7000000992C430194C140009154111DD06D46E5
:10D710000221002202290CD10320001B07E000286F
:10D7200004DB8600AE59002E00D00122401C0328E5
:10D73000F5DB081B02D588002A5004E08000285839
:10D7400010438A00A850491EE3D51C460A980028B9
:10D7500002980CD0002800D001200199019A4905B7
:10D7600008430121D20AC902D202019200E001213C
:10D77000109B0122D207012B02D0002B03D013E013
:10D78000002807D11FE0904204D890420CD1019BA1
:10D790000B4209D0019B5918019105D10099491CF0
:10D7A000009101D1641C009200280CD01021084681
:10D7B0000020C046002F06D01198002803D0082171
:10D7C00008460020C04608980999019A009B006805
:10D7D00009684840C10F0798C907214382600AC001
:10D7E0000BB0F0BD00B585B0019300920A4601462A
:10D7F000002302A8FFF7FCFD02A807C805B000BD82
:10D80000FFB50A461F4685B0079901930123009191
:10D81000014602A8FFF7ECFD02990398049ECA0F87
:10D820004900D20700920F22490892028C1A002167
:10D83000002800DB0C46450013486D08844214D3D1
:10D84000079A002A04DA441E0026104DF64302E02F
:10D8500004460D460E46102108460020C046002F03
:10D8600003D0042108460020C0462005E90A0843E9
:10D87000009908436905F20A1143ADE602C0FFFFB3
:10D88000013C0000FF3F0000FF070000FFFFFF7F9B
:10D8900000B585B0019300920A460146002302A814
:10D8A000FFF79CFE02A807C8A8E7FFB50A461F4677
:10D8B00085B00799019301230091014602A8FFF763
:10D8C0008DFE02990398049ECA0F4900D207009268
:10D8D0000F22490892028C1A0021002800DB0C4616
:10D8E000450011486D08844214D3079A002A04DACF
:10D8F000441E00260D4DF64302E004460D460E463A
:10D90000102108460020C046002F03D004210846FD
:10D910000020C0462005E90A08430099084369052C
:10D92000F20A114358E60000FF070000FFFFFF7FE7
:10D9300070B505460C460A2000E06D1CFEF734FF6A
:10D94000002D06D028780028F7D102E0641CFEF7ED
:10D950002BFF002C02D020780028F7D10A20FEF7F8
:10D9600023FF70BD10B5002102A0FFF7E1FF0120E9
:10D9700010BD0000534947414252543A2041626E63
:10D980006F726D616C207465726D696E6174696F20
:10D990006E00000010B500F02BF8FFF7EFFB10BD94
:10D9A00010B5012805D0002103A0FFF7C1FF012019
:10D9B00010BD09A1F8E7000053494752544D454DA9
:10D9C0003A204F7574206F662068656170206D6520
:10D9D0006D6F7279000000003A2048656170206D1B
:10D9E000656D6F727920636F727275707465640013
:10D9F00010B5014602A0FFF79BFF012010BD0000FB
:10DA000053494752545245443A20526564697265FD
:10DA100063743A2063616E2774206F70656E3A20DC
:10DA20000000000010B502F023FC02F033FA10BD34
:10DA30000021016041608160C1607047F0B5002441
:10DA4000FF2183B001314A4E4A4D01232046009404
:10DA50004A191768012F05D177681F4202D00027A5
:10DA60001C431760091D5B00401C89B20428EFD3DA
:10DA700041480168012906D10021016040070443A3
:10DA80003E48006900903E4E200712D00127002535
:10DA900027420AD03B48AA00111808690969C00446
:10DAA000C00E8903B258890F90477F006D1C042D6A
:10DAB000EED3002C59DA0020451E029000200446C7
:10DAC00001902F4B1A194032117C8806800E4EB2FD
:10DAD000761C3AD0012282402A4236D01F183026C6
:10DAE000BE578909B6009E59002E02D0032902D0E4
:10DAF00004E0032929D1029B13430293224B8700A0
:10DB0000FB189C461B68009F9B039B0F3A4202D068
:10DB1000022B02D019E0032B17D1032912D1022BBB
:10DB200021D002239E466246136803273F04BB436D
:10DB30001360176873461B041F431760019A521C39
:10DB4000D2B20192002E00D0B047641C082CB8D38A
:10DB50000198002809D0094800690099884204D03A
:10DB60000090029DAAE70323DCE703B0F0BD0000AC
:10DB700000630040006000407C61004000050050F0
:10DB8000B03400200065004000070050024A8000C9
:10DB90008018016470470000F82E002010B50C4C6E
:10DBA0006068002813D10B484168002905D0002186
:10DBB000416009484168491C41602068002801D043
:10DBC00003F050FDA068002801D002F04FF910BD0D
:10DBD00040110140001101402030002030B4314894
:10DBE000314B018C0122C9B2012917D1848C240741
:10DBF00014D1048D2406250F03D1858D2D062D0FFC
:10DC00000FD0240F012C03D1858D2D062D0F08D0A8
:10DC1000032C03D1848D2406240F02D0012907D0C0
:10DC200012E0224C5C600124214DE403AC6102E06F
:10DC3000848C240708D1048D2406240F042C03D1DE
:10DC4000848D2406240F02D0012903D01FE0194936
:10DC50008A6002E0818C090719D1018D0906090F3C
:10DC60000A2903D1848D2406240F05D00D290ED155
:10DC7000808D0006000F0AD10F480168012904D0E9
:10DC80000E49016001680129FCD1C02141619A61FE
:10DC90000B480021416081058A6041680029FCD061
:10DCA00030BC7047C00F00F000050040DFFF07C028
:10DCB000006C00400006004000EC06407593000038
:10DCC00000010040F8B54D4840684D4C40072746DC
:10DCD000264640372036002500283CDA494881682E
:10DCE000002938D0317900292FD0856046488069D5
:10DCF000A26A216BC0B25054337E0022FF2B0AD09F
:10DD0000834208D10123206D5B0318432065E06C3A
:10DD1000800400D50122491C2163E06A814205D3B9
:10DD2000FF21206D01310843206501E0002A12D057
:10DD3000387D800702D43149042088603571606BDA
:10DD4000002808D06563804705E0A268002A02D059
:10DD5000002160689047294B5868000628D529495A
:10DD6000C869002824D0707E00281BD0226C606C0B
:10DD7000904207D2CD61E16B234A095CD161401C1E
:10DD8000606415E0387DC00701D180209860757609
:10DD9000206D042108432065A06C002808D0A564EC
:10DDA000804705E0A268002A02D001216068904700
:10DDB0001448416A002920D0456214480168016076
:10DDC000626BC8B2002A18D0216D02231943216565
:10DDD000830703D50123DB0219432165410704D5DD
:10DDE0000123216D9B0219432165C00704D0012145
:10DDF000206D4902084320659047F8BD002300408C
:10DE000034350020002100400025004080240040DF
:10DE100070B504460D4600BF00202056401C002867
:10DE200004D120220BA11BA002F03AF900BF002D63
:10DE300007D000202056012181401C4A916000BF7C
:10DE400007E00020205601218140184AD16000BF20
:10DE500000BF70BD6D6265642F5441524745545FE9
:10DE60004E524635315F444B2F5441524745545F23
:10DE70004E4F524449432F5441524745545F4E52EE
:10DE800046352F6770696F5F6F626A6563742E68CD
:10DE9000000000006F626A2D3E70696E20213D20F7
:10DEA0002850696E4E616D65294E43000005005093
:10DEB00070B50146002000231F240A4605E01678AD
:10DEC000521C3518E8B25D1CEBB2E51AF7D170BDF3
:10DED00002210B4A516000BF0A4909680029FBD0A2
:10DEE0000749886000BF074909680029FBD0002165
:10DEF000034A516000BF034909680029FBD07047FD
:10DF000000E5014000E4014000BF0D4A1278002AFC
:10DF1000FBD101220B4B5A6000BF0B4A1268002A4A
:10DF2000FBD0016000BF084A1268002AFBD0002223
:10DF3000044B5A6000BF044A1268002AFBD07047A5
:10DF40002830002000E5014000E4014000200C4999
:10DF5000086001208107086000BF094800680028A8
:10DF6000FBD0022007498861002005494860012054
:10DF70008107886000BF024840680028FBD07047D6
:10DF80000001004000050040012001490870704771
:10DF9000BA2F00200021074A11610121064A1161B0
:10DFA00000BF044909690029FBD00121034A11700F
:10DFB0007047000000110040001000402E3000208B
:10DFC0000021014A117070472D30002010B5044621
:10DFD0002046FFF7DFFF0021204600F009F900BFCF
:10DFE0000C48C0680028FBD000200A49C860012006
:10DFF00009490870094882780948816809A0FDF735
:10E0000067FA2046FFF7C6FF0121204600F0F0F82E
:10E0100010BD0000001100402C30002018360020F8
:10E020000015004043683D25642C20486F703D2555
:10E03000640A0D0030B5044600250948006801282F
:10E0400004D1084885880120074908702046FFF759
:10E05000A1FF0121204600F0CBF8284630BD00008A
:10E0600000140040243600202D30002070B50546F5
:10E070000C46094821460EC90EC0FFF767FF064847
:10E080000EC8284600F078F8044803F053FB01213D
:10E09000284600F0ADF870BD183600206F12033B23
:10E0A000F8B505460E46684600F07EFF1E488168BA
:10E0B0001EA0FDF70DFA00271E202049086020222F
:10E0C00031461F48FDF7F6FC1D48018A0183008A8E
:10E0D000401C81B21A484183042201461831684627
:10E0E00000F01CFF014616488183FFF7E1FE14494A
:10E0F000C8770D488778807803280FD000240AE07D
:10E1000009498C7008460EC8284600F035F82846A4
:10E11000FFF75CFF641C032CF2DB02E02846FFF7EC
:10E1200055FF01488770F8BD1836002073656E648E
:10E130005266204368203D25640A0D0030300020DF
:10E140004436002010B5044608480078002809D05D
:10E150000748C068002805D000200549C86020464F
:10E16000FFF768FF0348007810BD00002E30002044
:10E17000001100402D3000201FB504466846007A8B
:10E180001749C86068464079002802D04920886055
:10E190001CE068468079032807D146210398FDF7E3
:10E1A00043FD491C0E48816010E017210398FDF7DC
:10E1B0003BFD68468079172250430818401C0849E7
:10E1C00088606846817907A0FDF782F96846C079C2
:10E1D00003490861039988B202F070FD1FBD000079
:10E1E00000150040486F703D25640A0D00000000D6
:10E1F00001290ED10122134B1A70134A134B5A6096
:10E200000022134B1A600122124B5A6000221A603E
:10E210000CE000220B4B1A700F4A0C4B5A60002284
:10E220000B4B1A600B4B5A6001221A6000BF084A60
:10E230001268002AFBD00022054BDA600122054B50
:10E240009A6070472E3000202436002000150040D0
:10E2500000110040001000404436002070B5044614
:10E2600000200D4908700D4908700D4D0D4E00BF7E
:10E2700005E0002131702970761C6D1C401C20289F
:10E28000F7D30120084908700848206008A0FDF76E
:10E290001FF9204670BD00002D3000202C300020DA
:10E2A00024360020443600202E300020AAAAAAAA34
:10E2B0004E65772052660A0D0000000070B50446D6
:10E2C00000680122036900212046984705000DD40B
:10E2D00020680222036900212046984706462068EC
:10E2E00000220369294620469847304670BD002029
:10E2F000704710B50C464C3002F0D8FF204610BDD8
:10E300000901081880210958002902D009687430D1
:10E310000847704770B505464C3002F08BFF3F212F
:10E3200004460902AB6C08400026002B08D00028E8
:10E3300006D001262A463C3201461B681046984703
:10E34000FC202146AA6B0140002A06D0002904D0F7
:10E35000284612682C30904701E0002E01D002F0D0
:10E36000EBFF70BD70B5044600680D46016820469D
:10E370008847204629464C3002F07EFE9420055105
:10E38000206841682046884770BD7047704700008C
:10E39000FFB585B03849394A01601D46D468936895
:10E3A00000228360C460364B0361364B4361C26117
:10E3B0008061024608320262334A4262BFF36F8FC5
:10E3C000BFF34F8F0146002620310E724E72C66297
:10E3D000066346638663C663066446648664C664F1
:10E3E000066546658665C665066646668666C666D1
:10E3F0000667022310222549743000F00DFE044602
:10E40000743C0C3004904561002528010619002059
:10E410006F4674360090019002900390BE420ED079
:10E42000F068002802D08168304688470398394652
:10E43000002802D04268304690470398F060039964
:10E440006846002901D0896888476D1C022DDCD3FD
:10E4500020464C300546079A069902F02FFE049894
:10E460004169284602F008FE22460949284602F082
:10E47000DBFE204609B0F0BDEC1B0200481A02008A
:10E4800001A00FC8184700008F18020031DA010000
:10E4900001E30100F0B504468BB046482060002639
:10E4A00020464C300990002104A805910491069162
:10E4B000079100902068F7B201682046884701F074
:10E4C0002BF90798002820D039010D1980204059D8
:10E4D000002801D102F000FF0098743585420ED06B
:10E4E000E9682846002901D089688847079800997B
:10E4F000002802D04268284690470798E860012229
:10E500003946099802F0A0FE2BE039010D19802050
:10E510004059002801D002F00FFF002168467435F1
:10E520000391009101910291089085420ED0E96813
:10E530002846002901D0896888470398089900284F
:10E5400002D04268284690470398E86003996846DD
:10E55000002901D08968884700223946099802F0CD
:10E5600073FE01F01BF92068416820468847079830
:10E5700004AA002802D0816810468847761C022E23
:10E5800091DB2046022310220B497430FDF752FC28
:10E59000A06C3C34002802D0816820468847103C9B
:10E5A000E068002802D081682046884720462C3841
:10E5B0000BB0F0BDEC1B02007B18020038B50090D8
:10E5C000014684690831204602F0F2FE38BD016838
:10E5D0008968084710B5014682690831104602F083
:10E5E00085FF10BD10B50446074820600020A060DC
:10E5F000E0602061606101F01DFA0449A06102F051
:10E6000091FF204610BD0000041C0200CFE5010070
:10E6100010B504460448206021460831A06902F084
:10E6200065FF204610BD0000041C020030B583B019
:10E6300004463A226846027044702004020E68467E
:10E6400082702002020E6846C270220E0271FDF72F
:10E6500023F9050009D02068C169204688470028B1
:10E6600003D028460021FDF741F9284603B030BD0C
:10E67000F8B5174D04462868002801D1281D2860E8
:10E680000146281D0090814204D05B2211491248A6
:10E6900001F006FD0021114A2F6810230E46880064
:10E6A0001558A54200D11650491C5B1EF7D10848E9
:10E6B000002F01D0016801E0011D01600098814236
:10E6C00004D05B220349044801F0EAFCF8BD0000D5
:10E6D000EC2F0020401D02002C1D02007034002091
:10E6E00010B50021FDF702F910BD7047704700001A
:10E6F00010B51C46029BFFF74BFE2146983000F0F8
:10E700004DF80549983801600146044A8031CA61D4
:10E71000034A8A6110BD0000181C0200941C02000C
:10E72000381C020010B5074901600146064A8031D5
:10E73000CA61064A98308A6100F068F89838FFF795
:10E74000A9FE10BD181C0200941C0200381C020017
:10E750007047002070470020704700207047F8B5D0
:10E76000054600680E460C468F18C16C284688473F
:10E77000BC4209D028682178426C2846641C904726
:10E78000401C01D0BC42F5D12868016D284688475D
:10E79000A01BF8BD002070477047000010B50F4A5D
:10E7A00004C0002200F024F9041F0D4820600D4829
:10E7B0006060002060610CA1204600F0DBF8606121
:10E7C000000002D0FFF78CFF05E0FCF789FD01682F
:10E7D00006A001F019F8204610BD0000A01B0200A1
:10E7E000A41C0200001D0200772B00005374726508
:10E7F000616D206F626A206661696C7572652C209C
:10E800006572726E6F3D25640D0A000010B50446F6
:10E8100005482060054860606069FDF775F8201DB7
:10E8200000F006F9001F10BDA41C0200001D02002C
:10E8300070B515461E46044600F06EFF2046FFF7F1
:10E84000C9FE66622562A06902F02FFE226A636A31
:10E8500082184B412046FFF7B1FE00F09FFF70BDCC
:10E8600010B50446C3688268016A406A5218434181
:10E870002046FFF7A3FE616B002903D020460968FC
:10E880002830884710BDF0B51FB482B005460F464A
:10E8900000F042FF00BF686B002801D0012000E0BB
:10E8A0000020002805D13820405D002801D002F06A
:10E8B00013FD2C4628340197019FBC420BD0204603
:10E8C00002F0DBFF00BF00BF261E04D030460199D6
:10E8D00002F0C4FF064600BF2846059B049AFFF7D6
:10E8E000A7FF00F05BFF07B0F0BD000070B584B07B
:10E8F0001F490446016000F00FFF2046FFF76AFE43
:10E90000606B002805D03820005D002801D002F09F
:10E9100013FD00206D462834009001900290039072
:10E92000AC4210D0E1682046002901D089688847B0
:10E93000260008D003982946002802D042682046C5
:10E9400090470398F06003996846002901D08968D0
:10E95000884700F023FFE068002802D08168204645
:10E96000884720462838FFF753FE04B070BD0000EA
:10E97000101D020010B5FFF759FE10BD007B704757
:10E9800070B506460D46164802F028FF1548046883
:10E99000002C20D0A06800281AD02A463146FDF766
:10E9A00039F8002814D1A068FDF712F8A8420FD159
:10E9B0000B480168002901D1011D0160001D814241
:10E9C00004D05B220849094801F06AFB204670BD6B
:10E9D0006468002CDED1024802F000FF002070BD08
:10E9E0004C30002048300020401D02002C1D020049
:10E9F00070B50446002666600A48A16020600D4696
:10EA00002273094802F0EAFE002D04D0074801688D
:10EA10006160046000E06660034802F0DFFE2046AB
:10EA200070BD0000241D02004C3000204830002042
:10EA300010B5044611482060114802F0CFFEA068CE
:10EA400000280FD00F490868A04202D16068086012
:10EA500008E04168A14203D008464968A142FBD1C1
:10EA600061684160064802F0B9FE207B002802D1AF
:10EA7000201FFFF7FDFD204610BD0000241D0200F1
:10EA80004C3000204830002010B504464068002873
:10EA900003D0FFF773FF012801D0002010BD60688C
:10EAA0000028FBD0001F10BD10B5044640680028A8
:10EAB00003D0FFF763FF002801D0002010BD60687D
:10EAC0000028FBD0001F10BD4068002800D00120A6
:10EAD000704710B54068002804D0FFF74FFF0028AA
:10EAE00001D0002010BD012010BD0068704710B596
:10EAF000044600202060606008782F280FD14878F5
:10EB000000280CD04B1C00211A46236010782F28B7
:10EB100007D0002807D0521C491C2260F6E7204687
:10EB200010BD501C20601846FFF72AFF6060204689
:10EB300010BD0000FEB50120009000070769406984
:10EB4000401E0190019878430446124D002002E0D7
:10EB500002CC02C5401C2328FAD30198784304460E
:10EB60000C4D00260DE028682168884206D0314609
:10EB700009A02268FCF7ACFC002000902D1D241D8C
:10EB8000761C232EEFD30098002802D104A0FCF7B6
:10EB90009FFCFEBD8C35002025642C25640A0D00E9
:10EBA00052656164204661696C210A0D0000000015
:10EBB00030B58BB00546284600F0C6F80446002064
:10EBC00003E000212170641C401C8C28F9D303ACA5
:10EBD000002003E000212170641C401C2028F9D390
:10EBE0002D21684601820A210173C07B02218843DE
:10EBF000811C6846C173407B41084900491C684636
:10EC00004173807B41084900491C68468173062195
:10EC10008174002103A8C17101720A21818120221F
:10EC200003A91C48FCF720FB00211A482030417042
:10EC300001210170FE218170174816498863174829
:10EC4000C863002048640021124881646C4600209B
:10EC500003E000212170641C401C0C28F9D3002122
:10EC6000684641700170032181700221C170042146
:10EC700001710021C180008A0290064869460EC9D0
:10EC800024300EC0064802F055FD284600F00AF870
:10EC90000BB030BD8C350020AA55AA5518AB00002A
:10ECA000CDCCCC3DFEB5012000900007076940693E
:10ECB000401E01900198784305462846FFF708F961
:10ECC000164C002605E002CC28462D1DFFF71CF946
:10ECD000761C232EF7D30198784305460F4C002667
:10ECE0000DE028682168884206D031460CA02268D1
:10ECF000FCF7EEFB002000902D1D241D761C232E1A
:10ED0000EFD30098002803D007A0FCF7E1FB02E056
:10ED100009A0FCF7DDFB0098FEBD00008C3500204B
:10ED200025642C25640A0D0057466C617368204FDA
:10ED30006B210A0D0000000057726974652046615E
:10ED4000696C210A0D00000001460148704700006F
:10ED50008C35002070B504462046FFF7EBFE2046B8
:10ED6000FFF7F2FF8588294607A0FCF7B1FB0948A9
:10ED7000806B0949884204D02046FFF719FF002024
:10ED800070BD0120FCE700004769643D25640A0D61
:10ED9000000000008C350020AA55AA5570470000DD
:10EDA00070B50446044800680546243529462046C7
:10EDB000FFF75CF970BD00003C30002070B50546DF
:10EDC0000C4618A0FCF784FBA18823A0FCF780FB6D
:10EDD000217824A0FCF77CFB617825A0FCF778FB68
:10EDE000A17826A0FCF774FBA17927A0FCF770FBA3
:10EDF000E17928A0FCF76CFB217A29A0FCF768FBDD
:10EE0000617A2AA0FCF764FBA17A2BA0FCF760FBD7
:10EE1000E17A2CA0FCF75CFBA1892DA0FCF758FB44
:10EE200070BD00000A0D2D2D2D2D2D2D2D2D2D2DDC
:10EE30002D2D2D204E6577204672616D652046612F
:10EE400063746F72202D2D2D2D2D2D2D2D2D2D2DFB
:10EE50002D2D2D0A0D0000004769643D25640A0D23
:10EE6000000000005069643D25640A0D00000000A8
:10EE7000527854783D25640A0D00000053656E7386
:10EE80006F723D25640A0D00486967683D25640A74
:10EE90000D0000004C6F773D25640A0D0000000056
:10EEA0004C6576656C3D25640A0D000054797065EB
:10EEB0003D25640A0D000000526174653D25640A19
:10EEC0000D0000005374617475733D25640A0D00D4
:10EED0004454696D653D25640A0D000070B5054612
:10EEE0000C462846FFF7BAF9054609480460006851
:10EEF000FFF72AFF074908600846006806490860CE
:10EF0000084601682846FFF759FF284670BD0000F3
:10EF1000383000203C30002040300020F7B581B070
:10EF20000B46002100241F480090002B02D1002036
:10EF300004B0F0BD14E0CD134804010C1878204152
:10EF4000C007C00F0143641C072C05DD00245B1CB7
:10EF50000398401E80B20390002D01D000984140DC
:10EF600003980028E7DC002207E0CD134804010CD9
:10EF7000002D01D000984140521C102AF5DB0027DB
:10EF80000122D203012608E010460840002802D0E2
:10EF90003846304387B252107600002AF4D1384602
:10EFA000C6E70000058000007047704710B598382C
:10EFB000FFF79FF910BD7047F8B5040C8BB22646D9
:10EFC00082B25E43104658430D0C370C36040021C4
:10EFD0008019164679416E43370C3604801926464F
:10EFE00079416E438919F8BD4900CA0202431000F5
:10EFF00000D004204A0D01D001221043044A490DDB
:10F00000914201D102210843012800D10520704717
:10F01000FF07000001207047FFB581B01C4617466E
:10F020000E0007D0019D02E02846B047ED192046AA
:10F03000641EF9D2019805B0F0BD10B50020FDF7AF
:10F0400099FB10BDF8B51B4C1525002626703246DD
:10F050002946204600F0E0FD00BF4B20C001002300
:10F060000822062100901448FFF742FB0446134A89
:10F070001349FFF7CFFF1348FFF790FE124C2046CD
:10F08000FFF7B0FA0446204600BF04460F48206050
:10F0900000212046283002F0C5FB0446283C01210F
:10F0A0003820015500BF2546044A09492846FFF784
:10F0B000B1FFF8BDB82F00207830002000B001006B
:10F0C00025E70100B92F002030310020101D02007B
:10F0D000EDE8010010B500F009F810BD30380A283D
:10F0E00001D20120704700207047000002486A46A4
:10F0F000C008C00070470000B737002010B501F00D
:10F10000B8F810BD032801DA0020704770B58100FF
:10F110000D48002209188039486F551E4A6700289B
:10F120000AD001684969884704000BD5FCF7D8F874
:10F1300061420160284670BDFCF7D2F809210160E8
:10F14000284670BD002070BD7034002070B50025C9
:10F15000ED43032805DAFCF7C3F8052101602846D2
:10F1600070BD0C49800040188038406F00280AD0DC
:10F170000168896A88470400F2D5FCF7B1F861425A
:10F180000160284670BDFCF7ABF8092101602846F4
:10F1900070BD000070340020032801DA01207047A0
:10F1A0000C49800010B540188038406F00280AD004
:10F1B0000168C9698847040004D5FCF791F86142E9
:10F1C0000160002010BDFCF78BF8092101600020D0
:10F1D00010BD000070340020F3B589B07B49099858
:10F1E000FCF7D2FC4B257A4CED01002810D0794970
:10F1F0000998FCF7C9FC002819D077490998FCF751
:10F20000C3FC002822D0754C206800282DD02EE0A9
:10F210002068002808D10B220921714801F04EFF17
:10F2200029466F4801F028FF00200BB0F0BD206890
:10F23000002808D10B220921694801F03FFF294627
:10F24000674801F019FF01200BB0F0BD20680028CD
:10F2500008D10B220921624801F030FF294660489D
:10F2600001F00AFF02200BB0F0BD201D2060261D1A
:10F27000B04204D05B225B495B4800F011FF21687B
:10F2800000245A4D671EA0002858002803D0641C93
:10F29000102CF8D301E0102C13D3FCF721F818211F
:10F2A00001604E480168002901D1011D0160B14291
:10F2B00004D05B224B494C4800F0F2FE38460BB0BC
:10F2C000F0BD0020C043A700E8514448002901D107
:10F2D000011D01600068B04204D05B2241494248F0
:10F2E00000F0DEFE002000900998099900783A2885
:10F2F00011D004A8FFF7FBFB04A8FFF7E5FB0028EB
:10F3000029D004A8FFF7E5FB002804A81AD0FFF7CE
:10F31000CBFB009056E04A78000A000210438A783E
:10F32000FF231B02120298431A401043CA781B02A3
:10F33000120498431A40104309790002000A090692
:10F340000843E6E7FFF7A0FB060004D00A99880708
:10F350000AD5022011E0FBF7C3FF13210160002052
:10F36000E851401E0BB0F0BD480701D5012004E074
:10F37000080701D5092000E000200A07920F02D0FB
:10F38000012252021043490702D501218902084394
:10F39000029004A8FFF7A9FB02463068694680681E
:10F3A000029B844630466646B047002809D0044692
:10F3B000FBF796FF614201600020E851401E0BB050
:10F3C000F0BD0098E851E01C0BB0F0BDA0190200A0
:10F3D000FC2F0020A7190200AF190200EC2F00201B
:10F3E0000C350020401D02002C1D0200703400204E
:10F3F00070B50022551E032805DAFBF771FF1D21A9
:10F400000160284670BD0C4B8000C0188038406FEA
:10F4100000280AD003681B6998470400F2D5FBF75F
:10F420005FFF61420160284670BDFBF759FF09216B
:10F430000160284670BD00007034002070B515468C
:10F440000E46032819DA1A480068002809D10B2251
:10F450000921184801F032FE4B21C901154801F07D
:10F460000BFE0024002D06D9315D124801F01EFF6D
:10F47000641CAC42F8D32C4610E00F4980004018C1
:10F480008038406F00280BD00168CB683146984720
:10F49000040003D5FBF724FF61420160281B70BD07
:10F4A000FBF71EFF092101600020C04370BD000072
:10F4B000FC2F00200C3500207034002070B504466D
:10F4C000200E01F063FF0506200C01F05FFF000431
:10F4D0000543200A01F05AFF00020543204601F0CF
:10F4E00055FF284370BD0000F8B50C4E0C4C656804
:10F4F0000C484068616809060F1800F00DF9706843
:10F50000002804D0002070606068401C606000F03B
:10F5100045F96068A842EAD13846F8BD00110140BB
:10F520002030002000150140F8B5124F124C6668DB
:10F5300012484068616809060D1800F0EDF8786817
:10F54000002804D0002078606068401C606000F0F3
:10F5500025F96068B042EAD128460949FFF72CFD39
:10F5600001239B030022C01851414A04C00B1043E1
:10F57000C90BF8BD001101402030002000150140EA
:10F5800040420F0070B5114C207800281CD1104962
:10F590001120FEF7FBFA104900200E4D88600F493C
:10F5A0000860486088600E4948600F480D49416016
:10F5B000022141640721090481641120032100F024
:10F5C00059FE01202860207070BD0000203000200E
:10F5D0009DDB010000100140001501404011014079
:10F5E000001101400200050000130140F7B5364E3E
:10F5F000364D374C82B06768706861680906081834
:10F60000009000F089F86868002804D00020686045
:10F610006068401C606000F0C1F86068B842EAD1E0
:10F620002C4F00983946FFF7C7FC01239B030022AB
:10F63000C01851414A04C30B1343029AC90B00205E
:10F64000121848410299994202D20121121C4841E4
:10F65000C103530C1943D0031F4B0022C018514162
:10F660003A460023FBF797FE074600F055F8666818
:10F6700015484068616809060D1800F04DF81348F8
:10F680004168002904D0002141606068401C60602E
:10F6900000F084F86068B042E9D1AD1C781B002806
:10F6A00000DC2F4603990D4A89008A18380205218B
:10F6B000000A09025118086409490498486400F0D6
:10F6C0006DF805B0F0BD00000015014000110140CB
:10F6D0002030002040420F003F420F000010014048
:10F6E0000013014070B50D46044600F015F820885F
:10F6F000401B85B2258000F051F8284670BD70B5DA
:10F700000D46044600F008F82088401985B225808F
:10F7100000F044F8284670BD16484168002903D01F
:10F720004168491C4160704770B5EFF3108172B6B3
:10F73000114A556801240F4B002D03D01C7000297D
:10F740000AD00AE054600D4C26680D4D2E4016601C
:10F75000256000221A70F2E762B64168002904D0E1
:10F760002822084908A0FCF7F5F84168491C4160C7
:10F7700070BD0000F42F00201430002080E100E074
:10F78000FC06FFBC501E02005F656E7472795F63F9
:10F790006F756E74203D3D203000000010B511489B
:10F7A0004168002918D04168491E4160416800291C
:10F7B00011D10D4900784A68002A0CD000280AD1DE
:10F7C000EFF3108072B60A68084B1A6000224A6094
:10F7D000002800D162B610BD2E22054905A0FCF715
:10F7E000B9F80000F42F00201430002000E100E000
:10F7F000501E02005F656E7472795F636F756E7480
:10F80000203E2030000000000FB410B508480178F9
:10F81000002908D10121017003A9029800F000FD20
:10F82000012000F007F810BC08BC04B01847000025
:10F8300046300020002801D000F05CFCFEE710B547
:10F840008A68002A02DCFCF77BFD10BD521E8A602C
:10F850004A68C0B2531C4B60107010BDF8B5264DFD
:10F860002F78FB070DD000280DD0244C84420AD8F5
:10F87000234C844207D9002907D08B0507D00620E6
:10F88000F8BD0120F8BD0220F8BD0320F8BD0368D3
:10F890008B4204D8930244685B18A34201D9052027
:10F8A000F8BD002A1DD0174B5E6D042E1BD01C6DB9
:10F8B000A419042C00D30024761C5E65142674431E
:10F8C000E31800245C609C60DC601C61186002200E
:10F8D00089011871090C198179079A81890F04D05F
:10F8E00007E00420F8BD0720F8BD07432F7001F0A2
:10F8F0008FF90020F8BD0000D42F002064300020D4
:10F90000743000207832002010B5084600F0A6FEC2
:10F9100010BD0000F8B5274C2778FC0711D000284F
:10F9200011D0254D85420ED8244D85420BD9002A91
:10F930000BD0002909D014460C43A40707D0062099
:10F94000F8BD0120F8BD0220F8BD0320F8BD046811
:10F950008C4204D89D0044686D18AC4201D2052049
:10F96000F8BD002B1BD0164C666D042E19D0256DEA
:10F97000AD19042D00D30025761C66651426754349
:10F980002C19002565602561206001252571A26084
:10F99000E160084879072382890F04D008E0042039
:10F9A000F8BD0720F8BD02210F43077001F030F9C0
:10F9B0000020F8BDD42F00206430002074300020D7
:10F9C0007832002010B5174C6088211D01F0F2FA42
:10F9D000154900280DD00868898862688900411897
:10F9E0005088C01C83B2032020701048FFF792FF9C
:10F9F00010BD608802010E4810188289002A09D0C3
:10FA00000520207002208880096801220748FFF73E
:10FA100025FF10BD416801220448FFF71FFF0421A4
:10FA2000217010BD68320020CC2F002064300020EF
:10FA30004832002000487047901A0200F8B5294962
:10FA40000446085D0122C3071546A540264E002B3B
:10FA500001D1830641D583070021002B01DA8306FB
:10FA60002FD56F46F970B97003233B70870614D504
:10FA7000684643701D4A6946204600F081FCB06824
:10FA8000054226D01748005DC10901D1400620D5A6
:10FA90000121204600F022FC1BE0C006800F012857
:10FAA0000CD00328684607D041704078104A800087
:10FAB000A100891808600CE04370F6E768464270C0
:10FAC000F3E740070091C00F69464870204600F0F8
:10FAD0002BFD306805433560F8BD3068A8433060C1
:10FAE000F8BD00004C330020D82F00205DFD010040
:10FAF0000007005070B50446002020560E46401CFA
:10FB000004D1B722114912A000F0CAFA164A20788F
:10FB1000012112688140154D114209D0295C8A07E4
:10FB200004D5890602D400F063FD01E000F08EFCEC
:10FB300000202056FD22295C1140F207920F11434C
:10FB400029542078FFF77AFF70BD0000941D020051
:10FB50006F626A2D3E70696E20213D202850696ECB
:10FB60004E616D65294E4300D82F00204C33002094
:10FB700010B504460170481C13D01F2904D353222A
:10FB8000084909A000F08CFA0F490620FDF7FEFF96
:10FB900000F09AFC002161560C480123425C1A4394
:10FBA000425410BD941D02002875696E7433325F93
:10FBB000742970696E203C204750494F5F50494E70
:10FBC0005F434F554E5400003DDA01004C33002096
:10FBD00070B504460D460026FFF7CAFF6D1C14D011
:10FBE000A057401C04D120220849094800F058FAC7
:10FBF0002078012181400748C16001212046FFF79C
:10FC000079FF3146204600F03BF870BDE81D020048
:10FC100064FC010000050050F8B504460F460026BC
:10FC20001546FFF7A5FF791C19D0A057401C04D139
:10FC300020220B490BA000F033FA01200F49227853
:10FC4000002D02D09040886001E09040C860012102
:10FC50002046FFF74FFF3146204600F011F8F8BD6F
:10FC6000E81D02006F626A2D3E70696E20213D2002
:10FC70002850696E4E616D65294E430000050050A5
:10FC800070B50446002020560E46401C04D1AC221C
:10FC9000114912A000F004FA164A207801211268D6
:10FCA0008140154D114209D0295C8A0704D5890687
:10FCB00002D400F09DFC01E000F0C8FB00202056BB
:10FCC000E722295C1140B207D20E11432954207853
:10FCD000FFF7B4FE70BD0000941D02006F626A2D34
:10FCE0003E70696E20213D202850696E4E616D6521
:10FCF000294E4300D82F00204C33002010B5044675
:10FD000000202056401C04D166220B490BA000F0B5
:10FD1000C7F9002161560F48405C82070E4806D59E
:10FD2000806801228A40104000D0012010BD006987
:10FD3000C840C007C00F10BD941D02006F626A2D3D
:10FD40003E70696E20213D202850696E4E616D65C0
:10FD5000294E43004C33002000050050114930B4B7
:10FD60008200511809688903890F032913D00221E1
:10FD70000D4B01249D6884402C4211D00B4C01296D
:10FD80000BD002290CD1205C400609D508488058C8
:10FD90005A6830BC10470121EAE7205CC009F5D160
:10FDA00030BC704700070050D82F00204C33002093
:10FDB000D0320020F0B4164C4B1C01D0022800D1E8
:10FDC0002146144B551C996101D0012800D12246CF
:10FDD0004E1C0024104D5A61002E07D001260F4FF3
:10FDE0008E40BE6003268F007F193E60561C02D0F5
:10FDF000960075192C60002800D0012018775B7FD1
:10FE000003430748C36681600261F0BC704700008D
:10FE1000FFFFFFFF343500200007005000050050B1
:10FE200000250040014900208860704740110140D2
:10FE300001200249800488647047000000130140DB
:10FE400010B5FFF751FB801C00020449000A08644A
:10FE5000012003498004486410BD000008150140DA
:10FE60000013014010B5FFF78DFB10BD10B502481F
:10FE700001F0CCFA10BD0000701A020010B5FFF7B7
:10FE800053FB10BD10B5012292040221FFF7AEFB17
:10FE900010BD000090B0E12149024248FEF762FA2D
:10FEA00041A0FBF715FB4AA0FBF712FB54A0FBF7A0
:10FEB0000FFB594801F03EFC5848FEF74BFF5748EE
:10FEC000FEF742FF0A900A9DA98855A0FBF700FBA8
:10FED000524909A8FFF702F809A8FEF761FF544C40
:10FEE00054490BA801F09EFC7F26F6050890524964
:10FEF000304601F0E3FC0090FBF7D3FF0391029042
:10FF000004A8089901F0AAFC019001462046039B31
:10FF1000029AFEF7B8FC04A801F0AFFC00BF0BA8E2
:10FF200001F0ABFC00273BE009A8FEF70BF9002825
:10FF300005D009A8FEF744F840A0FBF7C9FA4548E8
:10FF4000007800282CD0002042490870424E3446E8
:10FF500000BF2046FFF7D2FE00BF002801D10120DC
:10FF600000E000200890089C21463046FDF750FF35
:10FF700000BF00BF7F1C68788007C00F00280BD02F
:10FF8000394636A0FBF7A4FA39A0FBF7A1FA2946B7
:10FF900009A8FEF785F803E039463CA0FBF798FA7C
:10FFA000C2E70000783000200A0D4E6F77204E65C2
:10FFB00077206E7266353238333220323031372E48
:10FFC00031322E31382031323A35300A0D000000FE
:10FFD0000D0A53746172743A20556172742054652D
:10FFE000737420627920486F6E6720323031372E6B
:10FFF00031322E31332030333A33300D0A000000D5
:020000040002F8
:100000004D792073797374656D206973206E726603
:1000100035323833320A0D006F12833AB92F00207F
:100020004D7920476964203D25640A0D00000000D9
:100030003031002089DF0100002474492D2D2D2D41
:100040002D2D2D2D2D5266205265636569766564D0
:100050000A0D0000BA2F0020B82F002054686973E1
:100060002069732054783A2025640A0D00000000AE
:1000700054782053656E64205266204672616D6527
:1000800020746F205278200A0D00000054686973B4
:100090002069732052783A2025640A0D0000000080
:1000A00070B514460D460646FFF736FB23462A4632
:1000B000314603A000F088F800F01CF870BD000085
:1000C0006D626564206173736572746174696F6ECB
:1000D000206661696C65643A2025732C2066696C22
:1000E000653A2025732C206C696E65202564200AF2
:1000F0000000000082B015216846FFF769FD012469
:10010000294EFF2791370025694600200856401CDC
:1001100004D12022254926A0FFF7C2FF69460978AD
:1001200020468840B060962001F01AFB6946002006
:100130000856401C04D120221C491DA0FFF7B0FF27
:100140006846007821468140F160962001F008FB66
:100150006D1C042DD8DB0025694600200856401C84
:1001600004D12022114912A0FFF79AFF69460978AD
:1001700020468840B060384601F0F2FA6946002017
:100180000856401C04D12022084909A0FFF788FF27
:100190006846007821468140F160384601F0E0FA77
:1001A0006D1C042DD8DBAEE700050050E81D0200F1
:1001B0006F626A2D3E70696E20213D202850696E65
:1001C0004E616D65294E43000FB470B5A0B025ACEB
:1001D000249DFFF7A1FA23462A4680216846FBF7B3
:1001E0005BF9051E11DD0C480068002804D10B22C4
:1001F00009210A4800F062FF00246E46315D07487D
:1002000001F054F8641CAC42F8DBFFF7C7FA20B0E9
:1002100070BC08BC04B01847FC2F00200C3500202F
:1002200070B5A0B00C460546FFF776FA23462A467D
:1002300080216846FBF730F9051E11DD0A48006889
:10024000002804D10B220921084800F037FF0024C0
:100250006E46315D054801F029F8641CAC42F8DBBC
:10026000FFF79CFA20B070BDFC2F00200C35002059
:10027000704770478207D30EFF229A408907090E04
:1002800010B49940002808DB8408104BA400E4183F
:10029000236893430B4323600AE003071B0F083BCB
:1002A0009C080B4BA400E318DC6994430C43DC610D
:1002B000C206D20E01219140002801DB054A1160DF
:1002C000002801DB0448016010BC704700E400E036
:1002D00000ED00E080E200E000E100E0F0B4224C3C
:1002E000102325182035EB5601228C46042B1EDBEB
:1002F00019194031097B8909032902D0012905D048
:1003000006E01A4909698240114201D1022100E048
:100310000321820016481018026803231B049A4325
:100320000260026809040A430260F0BC70470021C1
:10033000042BFAD29E00F01D0E4FF930F6193769E2
:1003400080B2174337610C4E801901606046002867
:10035000EBD010202856800020580028E5D0074810
:100360009A404260F0BC7047B03400200005005055
:10037000000700500065004000600040006300403E
:10038000F8B52E4C302523185D570026EB175B1C63
:1003900001D008264FE0CF789446002F02D00023EA
:1003A000042201E004230C22934243D29D006559AC
:1003B0006D1C03D05B1C9342F8D33BE000975FB207
:1003C0002218E64620321774BC4672469F00E2515E
:1003D000009F002F02D1E218403210736246531C76
:1003E00028D0174F8D788300DB19002D03D01D68AE
:1003F0000227BD4301E04D78AD001D60CB78002B96
:1004000010D00B780F49920051180A690E4C224007
:100410000A61C006C00C9A07920B10430A69104388
:10042000086108E0A01840300978027B89010A437E
:10043000027300E004263046F8BD0000B03400200E
:100440000007005000650040FFE0FCFFF0B41A4ACE
:100450001A4C13182033102180005956001901241A
:10046000174D042907DB016803242404A14301601C
:10047000016801600AE0042908D28E007619376904
:100480007F087F0037618C400E498C6010215956DF
:10049000042903D20024890049190C61022101605A
:1004A000187CC91E84001151042802D31018403052
:1004B00001731974F0BC7047B0340020000700507D
:1004C000006500400063004070B5134D287E002891
:1004D00001D0082070BD0024E443224620210F48AB
:1004E000FBF729FB0E49002082008C50042802D320
:1004F0000A1840321473401CC0B20C28F4D30321F4
:100500000620FFF7B7FE01200649C007486001201A
:100510002876002070BD0000F0340020E034002078
:10052000B034002000630040F0B52C4E1023321888
:100530002032D35600255B1C01D0082549E08B787A
:10054000002B37D001220024944622460427930032
:10055000F3585B1C03D0521CBA42F8D328E01F4E5C
:1005600057B236182036E6463774BC461B4E970005
:10057000F4517746002F03D13446A218403210734D
:100580006246531C14D09600154A0C78B2184B786A
:100590001669144F3E4016611669C706FF0CA40782
:1005A000A40BDB07DB0A3E431C432643166104E031
:1005B00004250EE00123DB4313744B7801218140B5
:1005C000094A012B07D0D160084A03218000801816
:1005D00001602846F0BD9160F6E70000B0340020CD
:1005E00000650040FFE0ECFF0005005000070050F0
:1005F00070B4104910230A182032D3560024E44363
:100600000026042B0DD2DBB29D004C51042B02D3EB
:10061000C91840310C7310215156074B8900C91875
:100620000E611474054A022180008018016070BCBC
:1006300070470000B0340020006500400007005003
:1006400010B50449C0220448FAF70EFE024813DF31
:1006500010BD000000B00100F82E0020F0B5F849F0
:100660001C22096FF74F5143F54AF74E8D182A782F
:100670000024396885B0072A72D213007B441B79A5
:10068000DB189F446D035D5DF1F1F000EF4A002837
:10069000127804D0ED485108490001705EE02879D5
:1006A000002806D001280CD0022824D0032840D1ED
:1006B00028E00223E64AE748FFF72CF901212971D7
:1006C00035E000200101715C02290AD0401C80B293
:1006D0000228F7D302210A43DC485108490001707F
:1006E00005E20701B81941680223DB4AD948FFF740
:1006F00011F9F4551BE00122D648FFF7AFF80221AB
:10070000B98013E00223D44AD248FFF703F9D34952
:100710003B6849880A01CC4951184E683E604B60DD
:10072000BB880B810221B980C7498C542C710028E9
:100730007ED0C64801784908490001700E20D8E1F2
:10074000698A09018E1900280BD0E8883289C11CFA
:10075000511831817189081AC01E70810120C8E1C9
:10076000EDE031897068890040180090297CBC4810
:10077000072977D20A007A441279921897440C60BC
:100780001C2F037786004460A969016001A9B44861
:1007900000F080FB00280BD02F4601232A1DAD4816
:1007A0000099FFF7B7F802213974002802D057E00A
:1007B0000A209EE1204694E100992A462F46012313
:1007C0000C32A4480831FFF7A5F8B97D002901D003
:1007D000032100E0012139740028EBD040E00098AB
:1007E0002F468446002000909E48436C002B0BD07F
:1007F000006C9C49C2005118401C00914107490FF0
:1008000098485B1E016443640098614683880268CF
:10081000B88A800041188F48FFF77CF80099BA8A9F
:1008200089885118B982B97D491E0906090E00E070
:100830002AE0B97501D1012139740028BAD00FE03E
:1008400000992A462F46012308328248091DFFF7E6
:1008500061F83978032908D006213974002813D0AB
:100860000E2016E014E06CE01DE00521F5E741687C
:1008700001237D4A7748FFF74DF8002800D00E206D
:1008800006212974002804D105B0F0BD774800E0A6
:100890000F20E9883389CA1C9A1832817289511A4B
:1008A000C91E71811DE1002800D057E72879002872
:1008B00004D0012825D0022841D118E102940394E4
:1008C000E8680190694601A800F0E4FA002814D015
:1008D000029801238288EA8001882981624A5D4862
:1008E0000299FFF717F8002800D00E206A461288F8
:1008F000012112019219917300E00A2002222A714B
:10090000EFE05B4B6A460021A81D00F033FA002897
:1009100005D04E498C60CC600A287DD0E1E00123EF
:10092000514A4C480199FEF7F5FF002800D00E20EF
:100930004F4A01219288120192199173ECE70F201E
:10094000D7E00028B1D14548444A007B52680028CE
:10095000424801D0047341E03A4B00789B88082854
:100960009C463BD203007B441B79DB189F44033633
:100970003618202F2F3339480189491C01814480C2
:100980003178002908D000218172317C002905D0FE
:100990000021C17201211CE00121F5E70121F8E7E6
:1009A00050882E4BC01C6044B8800220187015E09F
:1009B0002A4840880001801943683B6041606146D5
:1009C00001810220B88025480621017006E02348F5
:1009D0000721017002E02149012008701F480178B9
:1009E0000829ACD20B007B441B79DB189F4403041D
:1009F00024424D036872A2E7827A811C002A06D045
:100A00008472B289002A02D1B27B012A09D0C27A4B
:100A1000002A0BD0C47200E069E0B28B002A02D039
:100A200004E00C8008E0B27F012A03D00470448007
:100A300044605CE001200880FEF7C4FF51E0000044
:100A400088310020CC2F002048320020BC2F00200D
:100A500090190200643000209819020068320020CA
:100A600070310020003200208C1902001D1D000092
:100A7000C42F0020B9883868890041185088C01CEC
:100A800083B25A48FEF746FF2BE0594840880001E0
:100A90008019818900290AD055480521017002205A
:100AA000B880012251483968FEF7D8FE19E0416844
:100AB00001224E48FEF7D2FE4D4904220A7010E092
:100AC000408802230001801941684A4A4748FEF7DE
