:020000040001F9
:10B000000080002085B20100A3B20100A5B20100BA
:10B010000000000000000000000000000000000030
:10B02000000000000000000000000000A7B20100C6
:10B030000000000000000000A9B20100ABB2010056
:10B04000ADB20100ADB20100ADB20100ADB2010080
:10B05000ADB2010000000000ADB20100ADB20100D0
:10B06000ADB20100ADB20100ADB20100ADB2010060
:10B07000ADB20100ADB20100ADB20100ADB2010050
:10B08000ADB20100ADB20100ADB20100ADB2010040
:10B09000ADB20100ADB20100ADB20100ADB2010030
:10B0A000ADB20100ADB201000000000000000000E0
:10B0B0000000000000000000000000000000000090
:10B0C00000F002F800F0B5F80CA030C808382418D9
:10B0D0002D18A246671EAB4654465D46AC4201D1D0
:10B0E00000F0A7F87E460F3E0FCCB646012633424D
:10B0F00000D0FB1AA246AB4633431847400201007A
:10B10000600201000023002400250026103A01D32C
:10B1100078C1FBD8520700D330C100D50B6070470F
:10B1200010B56E2902D101F03AFF10BD702902D18D
:10B1300000F0B1FA10BD662902D10FF079FA10BD06
:10B14000652902D10FF074FA10BD672902D10FF002
:10B150006FFA10BD612902D10FF072FA10BD0368B9
:10B160001B0A01D380231943692902D100F01EFA7A
:10B1700010BD642902D100F019FA10BD752902D161
:10B1800000F014FA10BD6F2902D102F02FFA10BDA1
:10B19000782902D100F06CFA10BDE92902D102F041
:10B1A000CBF910BDE42902D102F0C6F910BDF52992
:10B1B00002D102F0C1F910BDEF2902D102F022FA4A
:10B1C00010BDF82902D100F061FA10BD0368DB0957
:10B1D00001D380231943632902D102F02FF910BD56
:10B1E000732902D102F032F910BDE32902D103F034
:10B1F00068F810BDF32902D103F06BF810BD0020F0
:10B2000010BD1FB50098019901F02BFE02F042FE1F
:10B210000400002000210EF03FFF401C6060002071
:10B2200000210EF023FFE06002F034FD00F07EFE0E
:10B230001FBD0AF08DFA114603B40AF09DFA03BC53
:10B24000FFF7DFFF03F02EFD0BF07EFB70B5054628
:10B250000C46164602E00FCC0FC5103E102EFAD257
:10B26000082E02D303CC03C5083E042E07D301CC1D
:10B2700001C5361F03E021782970641C6D1C761E01
:10B28000F9D270BD03210A4802680A4302600948E6
:10B2900002680A4302600848804708488047084817
:10B2A0000047FEE7FEE7FEE7FEE7FEE7FEE70000F9
:10B2B000240500405405004009EF010069860200A2
:10B2C000C1B0010000487047503D002070B50646EF
:10B2D00001F0AAFD056830460B30C408E400B44212
:10B2E00001D8002070BD68682A46002818D001687F
:10B2F000A14211D30B46214608318B4208D3436843
:10B3000001194B6003681B1B0B605160046001E076
:10B3100041685160001D70BD024640680028E6D1BA
:10B320002146284601F088FD0028DCD170BD70B5AB
:10B330000446051F01F078FD0068002C1AD044680F
:10B3400001E020466468002C01D0AC42F9D30168CA
:10B350000A18AA4204D12A6805468918016000E04B
:10B36000456028684119A14205D16168696021687A
:10B370004018286070BD6C6070BDFEB50546104673
:10B380000C46184373D0AE468C460020AD1A0146D9
:10B390009C4167D36646002701243D46B61A9D416D
:10B3A00002D313463A462124654676462F04360CCE
:10B3B0003E432D0CB61A9D4104D3150C1B042B43A0
:10B3C00012041034654676462F06360A3E432D0A8F
:10B3D000B61A9D4104D3150E1B022B4312020834EA
:10B3E000654676462F0736093E432D09B61A9D411C
:10B3F00004D3150F1B012B431201241D654676460D
:10B40000AF07B6083E43AD08B61A9D4104D3950F69
:10B410009B002B439200A41C65467646EF077608F6
:10B420003E436D08B61A9D411AD392185B41641CC5
:10B4300016E00018764665464941B71A9D410191CC
:10B44000009009D36046B11A98418E468446009810
:10B4500001990025401C6941DD0752082A435B0819
:10B46000641EE6D57246634603B0F0BDFFE70020D8
:10B470000146C046C0462A462346F5E77CB51D4630
:10B4800016460C00009001D00019401E084B7B446A
:10B490002A4669460190304601F0A5FF002C05467A
:10B4A00003D06946002001F0B1FF28467CBD0000B2
:10B4B000851F000010B50B460146184601F0CAFF73
:10B4C00010BD00000FB4054910B503AA029801F0A1
:10B4D000C1FF10BC08BC04B018470000A83D002004
:10B4E0000FB41CB5084B06AA7B446946009005982A
:10B4F00001F079FF04460020694601F087FF2046ED
:10B500001CBC08BC04B01847211F000070B50446DD
:10B5100085690068C10601D5302600E02026C007F5
:10B5200007D070BD62683046A1689047206A401C11
:10B5300020626D1EF6D570BD70B504468569007831
:10B54000C00707D170BD6268A16820209047206ABB
:10B55000401C20626D1EF6D570BD70B50C460546C8
:10B56000012A05D02878800600D5EA69002302E088
:10B57000012305E05B1C934202D2E05C0028F9D174
:10B58000A869E618C01AA861286AC0182862284667
:10B59000FFF7BCFF04E06A682078A968641C904744
:10B5A000B442F8D32846FFF7C7FF70BDF7B50025B2
:10B5B00075291068009914A611D001F086FC0028A6
:10B5C00002DA404211A608E0009909688A0701D50D
:10B5D0000FA602E0490704D50EA6012501E001F0FF
:10B5E0007DFC009F0024243704E002F001FC303190
:10B5F0003955641C0028F8D12B4632462146009864
:10B6000001F075FCFEBD0000000000002D000000F0
:10B610002B00000020000000F8B50F460188090546
:10B6200002D5224C7C4402E0204C7C440E3405467A
:10B630000021243508E016071209360FA65D6E5466
:10B640001E0732431B09491C16461E43F3D12246EE
:10B6500004780023240705D5702F06D0002901D0D7
:10B660000223113201F043FCF8BD01231032F9E747
:10B6700070B504460D462146106801F02FFC0023EA
:10B68000024629462046FFF7C7FF70BDD21DD308EA
:10B69000DB000CCBC0E730B40368202412682343DE
:10B6A00003600823C36130BC0023B5E788F30000C2
:10B6B000F3B50446002081B020622046E168884747
:10B6C000002872D0252802D06268A168ABE0594FEB
:10B6D00000267F442046E16888472028054608DB8D
:10B6E000312D06D2781920380078002801D0064381
:10B6F000F0E7B00701D5042086430020E06107464B
:10B70000A0612A2D0AD028460AF026F8002827D062
:10B71000B8000019303D0090856119E00298BA0028
:10B72000121902C8916102902046E1688847012FF2
:10B73000054617D1E06900281FDA202086431CE067
:10B7400000980A218069484300994019303888617F
:10B750002046E1688847054609F0FEFF0028EFD142
:10B76000012F0AD02E2D08D12046E16888470546D2
:10B77000202006437F1C022FC3DBA069002803DAC8
:10B780004042A06101200643F00701D0102086430B
:10B790006C2D0BD0682D09D04C2D3CD06A2D38D0A3
:10B7A000742D38D07A2D36D016E040E0E1682F466F
:10B7B00020468847B842054609D16C2F29D0012080
:10B7C0008002E168064320468847054604E06C2F66
:10B7D0001DD0FF2001300643002D28D028464138D7
:10B7E000192803D80120C0020643203520462660D0
:10B7F0002946029A1646FFF793FC002810D001282C
:10B800000BD0F61DF008C0000830029055E740202C
:10B81000E1E78020D5E70020D3E7361D02964CE70C
:10B8200062682846A1689047206A401C44E7206A65
:10B83000FEBD000002F3000070B50446C068810739
:10B8400013D0800601D5A56A04E0A169606840189C
:10B850002169451A204602F0D5F9002206462946FC
:10B86000204602F0FFF8304670BD002070BD70B574
:10B87000002802D0FFF7E0FF70BD0025074C6E1EC8
:10B8800008E02046FFF7D8FF002800D03546206D9D
:10B8900044086400002CF4D1284670BD543D0020BB
:10B8A00070B50D46044604E029460BF060F8401CD4
:10B8B00004D02078641C0028F6D170BD0020C0435D
:10B8C00070BD10B50BF045F810BD10B50BF04FF87A
:10B8D00010BD0000F7B516460C46104600F07CF887
:10B8E0002078611C61280AD0722802D0772839D1CB
:10B8F00002E00125002404E00225042401E02D4D8E
:10B9000008240222032301270878491C2B2806D08B
:10B91000622807D02039C87F742807D008E01D436B
:10B920001443F1E7042005433C43EDE710200443B2
:10B930000098214609F08EFF411C13D0002131618F
:10B9400071600121F5604902F1617061200704D541
:10B9500030460222002102F085F8306D3843306510
:10B960003046FEBD0020FEBDF8B50D460646124C21
:10B97000206DC10704D0410804D044086400F7E7F3
:10B98000224610E05420FFF7A1FC070010D07908F0
:10B99000206D490001221143084354212065384697
:10B9A00000F07EF93A4629463046FFF793FFF8BD8E
:10B9B0000020F8BD02800000543D002010B5002991
:10B9C00002D0FF22013201E00122920201235B0238
:10B9D00002F0C2F810BD0000FEB5044646690069D9
:10B9E0000F4F0190E56800200090A80707D020467F
:10B9F00002F008F9304609F0C3FE002801DA3846A3
:10BA0000FEBD280502D50198FFF791FC4C21204688
:10BA100000F046F9206D4008400020650098FEBD0A
:10BA2000FFFFFFFF0EB5044615460E4612A003F0B9
:10BA30000FF8204603F00CF815A003F009F8304683
:10BA400003F006F814A003F003F86C460020E0723F
:10BA50000A20A0720A3407E00A21284600F080F983
:10BA600030310546641E2170002DF5DC204602F0C1
:10BA7000EFFF02F0ADF900002A2A2A2061737365F6
:10BA80007274696F6E206661696C65643A200000AB
:10BA90002C2066696C6520002C206C696E65200086
:10BAA000034670B502460B439B070FD10E4CE601CF
:10BAB00000E008C208C91D1B9D433542F9D0D9B228
:10BAC0001170521C00290DD01B0AF8E70B78491C95
:10BAD0001370521C002B05D00B78491C1370521C9C
:10BAE000002BF3D170BD00000101010130B5441CF1
:10BAF00003E00178401C00290DD08107F9D10B4BE0
:10BB0000DD0104C8D11A91432940FAD0001B0A066E
:10BB100003D0C01E30BD001B30BD0A0401D0801E02
:10BB200030BD0902FCD0401E30BD00000101010102
:10BB30000346F0B50B439B072DD1244DEF01042A9A
:10BB400029D308C810C95E1B9E43121F3E4017D060
:10BB5000D8B2E1B2401A3106014310D198B2A1B275
:10BB6000401A310401430AD118022102000A090ACD
:10BB7000401A3102014302D1180E210E401AF0BDC5
:10BB8000A342DCD018BA21BA884201D90120F0BD05
:10BB90000020C043F0BD002A01D10020F0BD037891
:10BBA0000C78401C491C002B0DD0A3420BD1521E17
:10BBB00009D003780C78401C491C002B03D0A34209
:10BBC00001D1521EEBD1181BF0BD00000101010193
:10BBD000F8B5042A2CD3830712D00B78491C0370C4
:10BBE000401C521E83070BD00B78491C0370401C6D
:10BBF000521E830704D00B78491C0370401C521E50
:10BC00008B079B0F05D0C91ADF002023DE1B08C954
:10BC10000AE0FFF71BFBF8BD1D4608C9FD401C46A6
:10BC2000B4402C4310C0121F042AF5D2F308C91ADD
:10BC3000521EF0D40B78491C0370401C521EEAD4EB
:10BC40000B78491C0370401C012AE4D40978017068
:10BC5000F8BDD2B210B513029A1813049A1800F066
:10BC60000EF810BD01E004C0091F0429FBD28B07A8
:10BC700001D50280801CC90700D0027070470029DE
:10BC80000BD0C30702D00270401C491E022904D306
:10BC9000830702D50280801C891EE3E70022EEE7BD
:10BCA0000022DFE782078B079A4237D170B5920FE7
:10BCB0000AD0032402780B78401C491C002A2BD0A0
:10BCC0009A4229D12042F5D11D4EF40104C808C979
:10BCD000951B9543254010D19A4207D104C808C945
:10BCE000951B9543254008D19A42EFD012BA1BBA52
:10BCF00001209A4200D2404270BD12BA1BBA2DBA3E
:10BD000018241000E0401900E140401A05D12E002F
:10BD1000E64002D1083CF4D1D01A70BD02780B780D
:10BD2000401C491C002A09D09A4207D102780B789E
:10BD3000401C491C002A01D09A42EFD0D01A70470B
:10BD400001010101002203098B4273D3030A8B42D4
:10BD500058D3030B8B423CD3030C8B4221D312E00C
:10BD600003460B437FD4002243088B4274D303095C
:10BD70008B425FD3030A8B4244D3030B8B4228D3FD
:10BD8000030C8B420DD3FF22090212BA030C8B4223
:10BD900002D31212090265D0030B8B4219D300E0C3
:10BDA000090AC30B8B4201D3CB03C01A5241830B48
:10BDB0008B4201D38B03C01A5241430B8B4201D3F8
:10BDC0004B03C01A5241030B8B4201D30B03C01A21
:10BDD0005241C30A8B4201D3CB02C01A5241830A9B
:10BDE0008B4201D38B02C01A5241430A8B4201D3CA
:10BDF0004B02C01A5241030A8B4201D30B02C01AF4
:10BE00005241CDD2C3098B4201D3CB01C01A52415A
:10BE100083098B4201D38B01C01A524143098B42E3
:10BE200001D34B01C01A524103098B4201D30B01CC
:10BE3000C01A5241C3088B4201D3CB00C01A5241F1
:10BE400083088B4201D38B00C01A524143088B42B6
:10BE500001D34B00C01A5241411A00D2014652414F
:10BE6000104670475DE0CA0F00D04942031000D36E
:10BE70004042534000229C4603098B422DD3030AC3
:10BE80008B4212D3FC22890112BA030A8B420CD3D3
:10BE9000890192118B4208D3890192118B4204D3FC
:10BEA00089013AD0921100E08909C3098B4201D37C
:10BEB000CB01C01A524183098B4201D38B01C01AB6
:10BEC000524143098B4201D34B01C01A524103092D
:10BED0008B4201D30B01C01A5241C3088B4201D3DC
:10BEE000CB00C01A524183088B4201D38B00C01A89
:10BEF0005241D9D243088B4201D34B00C01A524160
:10BF0000411A00D20146634652415B10104601D3EC
:10BF10004042002B00D54942704763465B1000D376
:10BF2000404201B50020C046C04602BD70B5064C77
:10BF30007C44064D7D4403E0206800198047241DA1
:10BF4000AC42F9D170BD000054F5000074F500005A
:10BF5000F8B517460E460546002B07D01046584345
:10BF60004419E41B2046B047A542FAD128460838B8
:10BF7000F8BD00000246C80FC00781434B0030B532
:10BF80004B405B009B0D20D01923DB06C918012311
:10BF90001B05994220DB0324A40704251346AB406C
:10BFA0000BD3002B04D1EB0613409B00E34204D4D7
:10BFB00001246407002312195941FF231B059942EC
:10BFC0000BD2C9000143500F09E0CB0204D5014355
:10BFD0000803024305D0054830BDFF21C9050843C9
:10BFE00030BD084607210905884330BD0000C07FE9
:10BFF000F0B50C46871A9C410D46861A9D4103D226
:10C00000C01BA141D21963410D0D1F0DC94EEC1B80
:10C01000AE435CD07F057F0D0026002F51D02D054B
:10C02000AC46A943DD020123ED0A1B051D43202375
:10C030001B1B24D41746E740381871412F46E740B0
:10C04000CC199D402818314661410C0D27D161441F
:10C050009A4013D50023401C594152000ED140088C
:10C06000400001224B005205D34207D30520400770
:10C07000C14201D5B04900E0B0493046F0BD6B0087
:10C08000002A00D001229A181F23203C1B1B01D537
:10C09000002302E0E540281871410C0DD7D001249F
:10C0A00024050919C407CD0740084908E40F2843AF
:10C0B0006144002CD5D00024401C61419A40D0D16D
:10C0C000CDE76A05520DD9D1C90FC907D5E79C4DF7
:10C0D0004E00002801D0012400E0002434195F0044
:10C0E000002A01D0012600E00026BE19954FAC427F
:10C0F0000CD8AE420AD8B44206D001256D05EC42F8
:10C10000BCD010461946F0BD9942FCD000203946FB
:10C11000F0BDF0B51FB40C460F46811A9F4125466D
:10C12000861A9D4106D20125ED076F40401ABC4199
:10C1300052187B41210D1E0D8D1BAC467D4D8D434C
:10C140007ED075056D0D7CD00D05AE46AC431B034E
:10C150001B0B794D52429D41202366469B1B14D3F5
:10C160001746F740381800260090744160462F4665
:10C170000741E41900989D402818664116D471467D
:10C1800071189A4025D5012320E093182A466A4168
:10C190005200002B00D0521C1E23203E9B1B002B64
:10C1A00061DD3541EE1728186641E8D50018764163
:10C1B0005B1C9A4000D3401C4B05F3181524E34048
:10C1C00010D3002B52D071467118D30FC01802D370
:10C1D000491C05B0F0BD0123DB079A42F9D14008A4
:10C1E0004000F6E701225205B21801D1002853D0D1
:10C1F0000123CC0ADB029943891E002A08D1020CD4
:10C2000003D0020C0004103902E00246002020395D
:10C210000023550B05D112020823550B01D1520101
:10C220000D23550C01D112011B1DD50C01D192001B
:10C230009B1C150D01D152005B1C2025EE1A01E05C
:10C240002CE022E00546F54015439840CA1AE10764
:10C2500069181305C918002ABBDA0320400708181B
:10C26000C10FC9070FE071466118B2E7F107400836
:10C270000843711071444A000CD001235B059A42B7
:10C28000A7D2C90FC9070020A3E74905490D26D148
:10C29000002001E00028F4D100219AE7284D660033
:10C2A000002801D0012100E0002171185F00002A60
:10C2B00001D0012600E00026BE19224FA94210D865
:10C2C000AE420ED8B14208D001256D05E94206D034
:10C2D0001946A802414010467BE79C4201D0214606
:10C2E00077E70020394674E710B50C465C4005D569
:10C2F0000124E4076340FFF70CFF10BDFFF778FE51
:10C3000010BD30B40C465C4004D50124E407634002
:10C3100030BC6DE630BCFCE670B50124E40761403A
:10C320000D465D4002D4FFF763FE70BD6340FFF72A
:10C33000F0FE70BDFF0700000000F0FF0000F07F7E
:10C340000000E0FF0000F87FF0B5F94D0C091E0970
:10C350002C402E402F468BB0A7437DD0B543FCD058
:10C36000002E7AD0002CFCD00D465D40ED0F254309
:10C37000AC1BFF25AD0464190894C502440DC90225
:10C380002143500DDC0204430120C0070143044354
:10C39000D2020191200C110C00958C460104234619
:10C3A0008B430A9161460904E24D8A430991010ACF
:10C3B0007D4449198039097805464D4301266D1899
:10C3C000F605751B6943C90C640B891C4C43641842
:10C3D000B5012C1B250C2E04B4434C434D43210CBA
:10C3E000691889090591009DE90701D00121C90754
:10C3F00004912C4601996708CD072F434C08059DF1
:10C40000E10B4D432D0C29466646754302950D46BA
:10C4100045432E46029D7D1BB44100950D465D436C
:10C4200001942C0C2F040D465543AE462D0C3D4374
:10C43000029503947546049C2D04641B049406D253
:10C44000029C039D641C002675410395029401AC77
:10C4500070CC009F7D1B01E03EE162E1B441090424
:10C460000095079101940599A4086143090C0C46B5
:10C470004443650BE7040C4666467443A646640BCA
:10C480003C43039502947446049DE4042C1B0494DD
:10C4900006D2029C039D641C0026754103950294FC
:10C4A00001AC70CC009F7D1BB44101940C465C43F1
:10C4B0000095650FE7000C465443A646640F3C43C5
:10C4C000039502947446049DE4002C1B049406D248
:10C4D000029C039D641C002675410395029401ACE7
:10C4E00070CC009F7D1BB441AE09AF06049DC9000E
:10C4F000AD092F43049DA406AD060495079D344362
:10C5000069180791059DE10B4D432D0C29466646A0
:10C51000754302950D4645432E46029D7D1BB44151
:10C5200000950D465D4301942C0C2F040D46554398
:10C53000AE462D0C3D43029503947546049C2D0494
:10C54000641B049406D2029C039D641C0026754162
:10C550000395029401AC70CC009F7D1BB441019403
:10C560008C050694079C890A611800950791019C27
:10C570000599A4086143090C0D464543680BEF0477
:10C580000D46644665436C0B3C43049FED047D1BE4
:10C59000AC4602D20025641C6841009E019D371BF9
:10C5A00085410846584301950C46460FC500544343
:10C5B000600F28436546E4002C1B02D20025401C76
:10C5C0006E41019D3F1AB5412846BD0980062843AA
:10C5D0008446A009BF064E020699A40676180743B2
:10C5E000079D002068410A99079019430020099B84
:10C5F00000906046FF1913434041E20F64003A4344
:10C60000A4460446D71A8C41A04203D901200090C9
:10C6100020463A46C70F941840416246D20F224343
:10C62000644664000494009CBE466400D71AA44685
:10C63000044602978C417746002F01D1A04204D9CD
:10C640006046401C8446029A2046C40FA6469418B1
:10C650004041049A0546D20F224364466400D31A2F
:10C660008D417146002901D1A84202D928461A46B7
:10C67000641C10430122002800D0164361020020F0
:10C68000079B891904465C410223002C02DB4918F0
:10C6900013466441089DCE0A2D145D194B056705AC
:10C6A000E10A2C050D1908993E43C9076940002B82
:10C6B00008D0934006D30022761C5141002B01D1B3
:10C6C000760876001C4A002D43DB154241D0AA4370
:10C6D0003FD030460BB0F0BD06180D464D41174C0B
:10C6E0007642AC411AD395181C465C41134A6D4200
:10C6F000A24113D3012252054C00D4420AD15C005E
:10C70000D4420BD04B4002D592021143E2E74900DC
:10C710004908DFE75940C90FC90718E00020084958
:10C72000D8E7054801420DD10342F7D0F2E70000F7
:10C730000000FF0735E600000000F07F0000E0FF8A
:10C740000000F87F114859400143C01241400020C9
:10C75000C0E70123089A9B069A4205DC0322520790
:10C760008918C90FC907B5E7052252078918074A72
:10C770001143D2125140ADE770B515461C46024632
:10C780000B4628462146FFF7DFFD70BDFFFFFF7F08
:10C7900030B50346CA02400D1043164D164C0A151B
:10C7A00002D02043002A06DBAA1A002A12DDD0405C
:10C7B000FF2A0BDC30BD5205520D01D1400040086C
:10C7C000AA1A07D4D0404042FF2A01DD002030BD24
:10C7D0000028FCDD4A00002B01D0012000E00020F1
:10C7E000101801225205D042F0D8C817C04360404B
:10C7F00030BD00001E040000000000800346CA0295
:10C80000400D10B510430A1504D00124E40720435D
:10C81000002A05DB0A4CA21A04D4D040FF2A00DD0E
:10C82000002010BD4A00002B01D0012000E00020B4
:10C83000101801225205D042F2D8C817C04310BDCB
:10C840001E04000030B5420DCB0205461343C4025E
:10C85000081504D00122D207134300281FDB134A16
:10C86000121A11D4502A00D350221946D14015462D
:10C87000203D02D41846E84003E02020851A1846DF
:10C88000A840D440204330BD4A00002D01D00120F3
:10C8900000E00020101801225205D04202D90020E9
:10C8A000014630BDC917C843C94330BD3E0400002E
:10C8B0001F22030C02D10F22000402D0030E03D06A
:10C8C00004E00020014670470002083A030F01D13E
:10C8D0000001121F830F01D18000921E002801DB8E
:10C8E0004000521E120551184205C0124118104650
:10C8F0007047C10FC90700D040420122920711437F
:10C90000D6E701218907D3E7F0B58B4C0F092546FF
:10C9100089B0BD437BD01D092646AE43FAD00E46F2
:10C920005E402740F60F3E43254071D0240121424E
:10C93000FBD0FF24AD19A4042D1B039501252D0563
:10C94000DB02DB0AC9022B43C90A29431E01090184
:10C95000040F130F050121431701880B8203914334
:10C960002D098C46A90B1E438A039543B30B9A03EA
:10C9700096433F09BA0B9403A74302962E467E4383
:10C980000497B6464E19D7190C460196544305979D
:10C990007E43371B7646BF1B3601B646BE0B3619A3
:10C9A00000967646BC043719009C01D3641C0094A1
:10C9B0006400002F01D001263443029E049F75437A
:10C9C00066467E430496760034196E00341900944E
:10C9D000029C019E1C196643751BAE460694654673
:10C9E0004519059C05956C43594375460891691A8C
:10C9F0000191049E01465143A41B0491611A009CBD
:10CA00000791E10605D061090122114302E072E0BD
:10CA10006EE06109089D00272C0A2D066918049D07
:10CA20007C412A0A2D066918019D6241AC0DAD02B8
:10CA30006D185441079A910D920255196141029A5D
:10CA4000644658435443069B059A5A43121A131BD3
:10CA50009A0E9B015B187A41010B0005C3185141E6
:10CA6000220A200644195A419A4200D2491C012048
:10CA70004002814203D315230226F64302E0142329
:10CA80000326F6432020C51AA9401746AF40DA40D6
:10CA90000A4320460399D840091473181905511800
:10CAA000039A3843D2075140AC4009D00122944048
:10CAB00006D30022401C5141002C01D14008400007
:10CAC0001E4A934212D3012203989206904207DB3A
:10CAD0000520400709181A480143C012414004E0EC
:10CAE000032040070818C10FC907002009B0F0BD96
:10CAF0000020F107FAE705180C464C4111486D4239
:10CB0000A04115D394181A465A410E4864429041E8
:10CB10000ED301204A004005824209D35A008242C6
:10CB200006D35940C90F084AC90700201143DDE761
:10CB300000200649DAE700000000FF07FE070000BA
:10CB4000FFFFFF7F0000E0FF0000F07F0000F87FA4
:10CB50000121C9050123411842001B06D3185B0EB1
:10CB60000AD0C1100722D206891840075242D1428A
:10CB700001D5520089187047090208D50146002ADC
:10CB800003D0C10FC907002070471046704742020A
:10CB900002D0002002497047072109050143F4E74C
:10CBA0000000F87FF0B5FF252D04C609C209FF2754
:10CBB00004462E400137CB093E4348402A402B40D3
:10CBC0000746002A6BD0002B69D0AA4267D0AB423F
:10CBD00065D0002800DA32460125ED0529432C43B3
:10CBE00009022002090AD21A4B0C7F24E31A434C93
:10CBF000000A7C44E35C7D242404121914145B00B5
:10CC0000A218884201D3521C00E0400049420C4661
:10CC10005C4324115C43DB016415E318040A5C43A4
:10CC2000C502200D0C4644436419250A5D432303C5
:10CC3000EC0C0D46654300030019EB184C42A3426F
:10CC400001D35B18401CD4052018002B07D05B00D3
:10CC5000C91804D3401C002901D1400840003F21DD
:10CC600089048A4209D3002A08DC1106090F04D07E
:10CC7000032149074018C00FC007F0BD0122410041
:10CC8000120689187F2252069142F6D205214907E1
:10CC9000C84201D59010F0BDFF20C005F0BD002FA7
:10CCA00000DA32461648AA4207D2AB4205D2190230
:10CCB000090E17D0F80FC007F0BDFF2563002D0641
:10CCC000AB42F9D84900A942F6D8AB4201D1A942FA
:10CCD000F2D0A94201D1002101E061004908D0054C
:10CCE0000843F0BD1102090EFBD0FF200243D0051E
:10CCF000F0BD0A460146104654E7000073DE00000E
:10CD00000000C07F10B501469E240002CA15A3078B
:10CD1000002A02D01843002A04DBA21A002A0CDDE4
:10CD2000D04010BD1206120E01D140004008A21AD8
:10CD300003D4D04040420028F3DDFF224800120611
:10CD4000904201D9002010BDC817C043584010BD03
:10CD50000102C21504D00123DB071943002A0ADBB4
:10CD60009E239A1A02D40846D0407047FF22410001
:10CD70001206914201D900207047C017C043704786
:10CD800010B50202C11504D00123DB071A430029A4
:10CD900014DBBE235B1A0CD41146D9401C46203C40
:10CDA00002D41046E04010BD2020C31A104698401F
:10CDB00010BDFF2241001206914202D90020014617
:10CDC00010BDC017C043C11710BD1F22030C02D1F4
:10CDD0000F2200041CD0030E01D10002083A030FF9
:10CDE00001D10001121F830F01D18000921E002883
:10CDF00001DB4000521ED2055118021251181922AF
:10CE0000904004D3491C002801D149084900084634
:10CE10007047C10FC90700D0404201229207114359
:10CE2000D3E701218907D0E700487047503E002032
:10CE3000704770477047704738B504460A4600206F
:10CE4000694601F01BFE002805D0024620460099E5
:10CE500001F024F8012038BD10B5012001F0DAFD01
:10CE600010BDF8B501F0FEFD054600200C4610206F
:10CE7000C0460646A819A0420DD932466946002090
:10CE800001F0FCFD070001D101F0C4FD0098A042B3
:10CE900000D00546C419FFF7C7FFF61D0746056019
:10CEA000F008C0004619284600F008F8B44204D043
:10CEB00031463868A21B00F0F1FFF8BD0021016087
:10CEC0004160806070471020704709684A0501D5AD
:10CED00040B27047C905FCD500B2704709684A05E1
:10CEE00001D5C0B27047C905FCD580B27047FFB507
:10CEF00004460D4681B0243000902168880604D590
:10CF00001022E0699143216000E00120A84201DD88
:10CF1000471B00E000270498A1697A191018081A25
:10CF2000A0612078C00602D42046FEF7EFFA002662
:10CF300008E003986268A168805D9047206A401C01
:10CF4000761C206204988642F3DB2078C0060AD55E
:10CF50002046FEF7DBFA06E06268A16830209047C1
:10CF6000206A401C206238467F1E0028F4DC07E05F
:10CF700000986268A168405D9047206A401C20626A
:10CF800028466D1E0028F3DC2046FEF7D5FA2078EF
:10CF9000000602D5022005B0F0BD0120FBE71168B4
:10CFA0000268006A530501D5087009E0D30501D570
:10CFB000088005E0130602D5C21705C100E008602D
:10CFC000012070477047FFB50C461E468FB003CA5C
:10CFD000089009914F007D0D00D16D1E002108467B
:10CFE0000020C0460321099A89050840002A03DA77
:10CFF0008200801840080840800D01280A9002DD58
:10D000000020C0430A90089807430DD0F048F1492A
:10D01000281848430714189800281DD07542291E67
:10D020001DDD0A9842421BE01898012802D000201A
:10D03000302104E00020F24305E02154401CB042BE
:10D04000FBDB30460022189B002121540F998B6096
:10D050000A60486013B0F0BDBD1B6D1CDFE70A9A83
:10D06000002900DA69420BA801F038F90BAB07CBB5
:10D0700003AB07C30899099801F09CF96B4607C3F5
:10D080000146D5480918002D00910BDDD2490398BF
:10D090000A9A49424018002303A90390684601F008
:10D0A000F9FB08E003990A9A0023081803A90390E2
:10D0B000684601F099FB6B4607C30004000C03D0DF
:10D0C0000020C043410800E01046189A002A03D00F
:10D0D0000022009215461EE0751E05D400F0F8FEF1
:10D0E000303262556D1EF9D501220843079602D0F1
:10D0F00000227F1C04E02078302801D100227F1E0E
:10D10000002A069787D01EE0112D07DA00F0E0FE16
:10D11000303262556D1C02460A43F5D1084303D0F4
:10D120000098002819D00EE00021681E05E0235C5D
:10D13000625C63542254401E491C8142F7DBA81BE9
:10D14000401E07950690079A18990020A0540F9842
:10D15000079B069A81600CC07CE71126002018907E
:10D1600059E7D21DF0B50D460446D10893B0C90069
:10D1700003C90C900D9108F0D7F902460D98C00F25
:10D1800001D02D2007E02068810701D52B2002E087
:10D190004007C00F4001032A0F9001D0072A05DB8A
:10D1A00003462946204601F03DF80EE1207880062E
:10D1B00001D5E76900E006272846652D04D06628DA
:10D1C00014D0672D69D12DE00020112F009001DBD4
:10D1D000112300E07B1C0CAA03A910A8FFF7F3FEA3
:10D1E0001199002610987D1C0E9142E001203B46CB
:10D1F0000CAAC0070B900120009003A910A8FFF70C
:10D20000E2FE119D12981099002600280E9501D17A
:10D21000781C0D18781B02D446427D1C761EE81B34
:10D2200000903AE0012F00DA01270020112F009032
:10D2300001DD112300E03B460CAA03A910A8FFF76B
:10D24000C2FE11993D46109800260E9121780907DB
:10D250000BD40E99A94200DA0D4603A9012D04DD75
:10D260004A19203AD27F302A06D0B84201DA011D8D
:10D2700004DA012100910FE06D1EEFE7002802DCC7
:10D2800086192D1A03E0411CA94200DD0D46801BC2
:10D29000401C00900120C0070B902078000705D4A7
:10D2A0000098A84202DB0020C0430090694600209D
:10D2B000C8720B98012102AF0337C907884225D0F5
:10D2C000022010902B2011900B9800280BDA40427E
:10D2D0000B902D20119006E00B9800F089FD303165
:10D2E0007F1E0B9039701099481E00291090F3DCB6
:10D2F0000B980028F0D111987F1E38702088000507
:10D3000001D5452000E065207F1E387001A8C01BB4
:10D31000C01D0B900F98002800D0012041190098E3
:10D32000C01709180B980818A169081A401EA061B7
:10D330002078C00602D42046FEF7E8F80F980028AF
:10D3400005D06268A1689047206A401C206220785E
:10D35000C00625D52046FEF7D9F821E0002E07DBD0
:10D360000E98B04204DD03A86268805DA16802E007
:10D370006268A16830209047206A761C401C2062B9
:10D380000098401E002800900AD100F083FDC0687C
:10D3900062680168405CA1689047206A401C206276
:10D3A00028466D1E0028D9DC07E062683878A1683D
:10D3B0007F1C9047206A401C20620B99481E002960
:10D3C0000B90F2DC2046FEF7B7F8032042E600009F
:10D3D00001FCFFFF104D0000E1DFFFFF01694A1C67
:10D3E00002610878704700B58FB002910021059165
:10D3F0000549019379440391114604906846FEF76C
:10D4000057F90FB000BD0000E5FFFFFF0A6810707C
:10D41000521C0A6070470CC908399A4202D2531C48
:10D420000B601070704710B54369002B02D0C046E6
:10D43000C04601E0FEF791F8012010BD12780146C8
:10D4400024310A7000224A700122ECE711680022A0
:10D45000D243E8E7084B70B50D467B44FFF7C3FFA6
:10D460000446284600F0D8F8002802D00020C04327
:10D4700070BD204670BD000011950000F7B5044650
:10D48000154686B02B487844002703C83E460090D6
:10D49000019111E007986A467100415A02A801F013
:10D4A00087FA411C07D02178890603D5E26939182B
:10D4B00091420ED83F18761C2078800602D5E0698C
:10D4C000B84206DDAE42E5DB07987100405A0028FD
:10D4D000E0D1A069C01BA0612046FEF717F81548EF
:10D4E00078445A3803C800900020019116E04100AA
:10D4F0006A460798415A02A801F05AFA0590401C62
:10D500000AD0002505E0626802A8A168405D904746
:10D510006D1C05988542F6D30498401CB0420490D7
:10D52000E5DB206AC01920622046FEF705F809B045
:10D53000F0BD000022D60000F7B5D21D0025D208AC
:10D5400015A6D200F52905CA11D0002A05DA002156
:10D550004042914111A60A4608E0009909688B07EC
:10D5600001D50FA602E0490701D50EA601251146F7
:10D57000009F0024243704E000F0AAFC30323A5522
:10D58000641C02460A43F7D12B46324621460098D6
:10D59000FFF7ADFCFEBD0000000000002D00000004
:10D5A0002B0000002000000070B504460021243448
:10D5B00008E05507D2086D0F303565545D072A43E2
:10D5C000DB08491C15461D43F3D10468002310A253
:10D5D000250708D5A40601D4002904D0C469012375
:10D5E0000CA2641EC461FFF782FC70BD10B5044636
:10D5F00021461068FFF772FC002302462046FFF721
:10D60000D3FF10BDD21DD108C9000CC9CCE7000062
:10D610000000000030000000C06880210840704712
:10D6200070B50D4601461446D36850692A4608F085
:10D630001DFA002808DA411C08D0E16801224000E8
:10D64000920311434008E160281A70BD204600F0A3
:10D65000A9FA0020C04370BDC16840221143920165
:10D66000914300220260C1604905890F01D08260A8
:10D67000704702694168891AC269891A81607047D6
:10D68000FEB504460121C0688905774B0843E06078
:10D69000010310D599108843E060810606D4E26A40
:10D6A00061688A4200D80A46511A21601843E06036
:10D6B00020346079FEBD9843E060800602D52046A4
:10D6C00000F0C6FA6949E0680140012903D020460C
:10D6D00000F068FABFE02168002600290BDAC94390
:10D6E00021600121A66009030843E0606068411CD5
:10D6F00061600078FEBD5E4908420DD005212660BC
:10D700000903884340210843E06021696068401AAA
:10D71000E169401AA0609EE02169002915D1C0038B
:10D7200013D4E069FDF7D2FD0028206118D0E0682D
:10D730000121C9020843E0608105890F03D1FF215F
:10D7400001310843E0602069606060690090E06832
:10D75000C1061BD5C0030FD5204600F053FA15E0D3
:10D7600020460321243020610120E061E0680902A5
:10D77000884301218902E4E721696068401AA169B0
:10D780004118009808F0ACF90028A0DBE068C0035D
:10D790002AD56168E06A884200D808462169451A9E
:10D7A000E069471B1BD0A0690190204600F02AFACF
:10D7B00001984119A061009808F092F9002886DBD1
:10D7C000E068012149040843E060000202D5A06935
:10D7D0004019A061E1692069C91B45180DE0204688
:10D7E00000F010FAE769F5E725696168A069E76963
:10D7F000491BE56240186560A061E068102188431C
:10D80000E0604005800F02D0204601F0B5F8E068E6
:10D810000121A66009030843E060000205D52069E4
:10D82000E06260600120C043FEBD224639462846C2
:10D83000FFF7F6FE411C0ED029180028E1620DD03A
:10D84000401E2060681C6060E068012149040843B4
:10D85000E0602878FEBD0020C043FEBD6560204624
:10D86000FFF7FAFEF7E7000000002000812000002B
:10D8700040400000F8B505460C46C8680521C904BB
:10D880008843012189050843E060800602D52046CF
:10D8900000F0DEF97149E0680140022903D020461A
:10D8A00000F080F9BCE00521012249030140D203C8
:10D8B00091420FD1C00306D56168E06A884200D862
:10D8C0000846606006E02069E0626060606907F019
:10D8D0007BFFA061A1680022EEB200290EDAE068A9
:10D8E00083050BD4C943A160092122604903084381
:10D8F000E0606068411C61600670ACE0E068012196
:10D9000049030843E060002020602069002831D1ED
:10D91000606907F07FFF012527462437ED020028C4
:10D9200016D0A0898005800F08D0E069FDF7CEFCF5
:10D930000028206102D0E068284318E00120276118
:10D94000E061E068032109028843012189020DE0BA
:10D95000E069FDF7BBFC00282061EFD0E0682843B8
:10D96000E0608105890F03D1FF2101310843E060A8
:10D9700020696060E2683A4F2569D0051FD561686B
:10D98000E06A884200D80846411B05D02246284656
:10D9900000F012F9002843D1E068010204D5E562E5
:10D9A00000206560A06053E0691CE1626160E1698C
:10D9B000491E3843A160E06030462E70F8BD100269
:10D9C00001D53A4009E06068411C61600670E0687A
:10D9D00038430A2EE06006D00022E16A6068814286
:10D9E00003D90B4602E00122F7E70346A7895B1B38
:10D9F0007F0504D4E7699F4201DD002A1ED08142E1
:10DA000000D801460F1A0020E5626560002BA06077
:10DA100009DD22461946284600F0CEF8002802D03B
:10DA20000020C043F8BD002F08D0A069E562656002
:10DA3000C01BA061E06810210843E060E0680002BC
:10DA400009D56168A069E562491B40186560A0615D
:10DA50000120C043F8BD3046F8BD00008210000030
:10DA600000000100F8B5044616460D464769007BE4
:10DA7000800730D0384607F0CDFE00282BD1324643
:10DA80001026002A25D0012A02D0022A23D104E040
:10DA9000204600F04FFF45191BE0384607F094FE82
:10DAA000E16831430028E16004DA204600F07AF8AA
:10DAB0000120F8BDC9030BD56268E16A914200D824
:10DAC0001146A26989182269891A814200DD084637
:10DAD0002D18002D01DA0220F8BDE16A6068E268C5
:10DAE000814206D29103E06203D5012149048A43B1
:10DAF0003243A669AE4211DCE16A814201D90B468C
:10DB000000E003469F192369FF1AAF4206DD8142F8
:10DB100001D90F4600E007469F4206D1202002436C
:10DB20000020A060A56220600DE0AD1BE669AE1B81
:10DB30008142A66000D90846C01A281A20605819E8
:10DB4000606020208243034802400020E2604034AD
:10DB50002072F8BDBFCFD7FF70B5C468A50713D03A
:10DB6000650211D4D51FF93D0AD0FF3D6D1E07D0C7
:10DB7000FF3DFF3D022D07D101462431012305E081
:10DB8000074E5D1EB54201D3012070BD0161C36126
:10DB900041600F2109028C431443C460002070BD12
:10DBA000FFFFFF00C1688022114392039143C160CF
:10DBB0000021816001607047F7B514460E46334876
:10DBC000D5685769054209D03846A16907F088FF32
:10DBD000002811DB2D48C0430540E5602B46324646
:10DBE0003846009907F0A2FF4200A1695208B21A14
:10DBF00089180028A16104D02046FFF7D3FF002038
:10DC0000C043FEBD70B504460569C06A61688842BC
:10DC100000D80846E1680522D2049143E160C903B7
:10DC200014D5A84209D02246411B2846FFF7C4FF5D
:10DC3000002802D00020C04370BDE562002065606E
:10DC4000A060E068012109048843E060002070BD05
:10DC500010B50446C06820218843E060A16AA0692D
:10DC600088420ED02046FFF7CDFFE068032109036C
:10DC7000884310210843E060A06AA0612069E06247
:10DC800060600349E0680840E06010BD10000200D9
:10DC9000BFBFFFFF10B543485421FEF701F84248CB
:10DCA0005421FDF7FDFF41485421FDF7F9FF40489D
:10DCB0003C493D4B404A01603E4803603B48106090
:10DCC0005A1C0A65411C1965012101653C48354A09
:10DCD0003AA17844FDF7FEFD002804D13848784485
:10DCE0000C3800F091FE38482F4A36A17844FDF7F1
:10DCF000F1FD002804D1344878440C3800F084FE4B
:10DD000032482A4A2FA17844FDF7E4FD002804D1C7
:10DD10002E4878440C3800F077FE40232148DC0080
:10DD200000212246FFF718FF002804D02448784439
:10DD30005C3800F069FE1C48224640230021FFF7B2
:10DD40000BFF002804D0204878445C3800F05CFECB
:10DD50001648224610230021FFF7FEFE002804D0BB
:10DD60001A4878445C3800F04FFE10BD0F4870B57B
:10DD7000006D44080B486400FDF72EFE0A48FDF7CD
:10DD80002BFE0A48FDF728FE09E0206D45082046D5
:10DD90006D00FDF721FE2046FDF7C9FA2C46002C48
:10DDA000F3D170BD543D0020A83D0020FC3D002073
:10DDB0000C320020103200201432002072000000CB
:10DDC00006CA000077000000F3C90000E1C90000A6
:10DDD00010B5002000F012FEC046C046012000F041
:10DDE00053F810BD10B500F01BFE00F001FE10BD91
:10DDF00001468008081A02091018020A1018020CBD
:10DE00001018C008820012185200891A01E0401C44
:10DE10000A390A29FBD2704710B5FF231B064400BC
:10DE20009C421DD84C009C421AD80346124A0B4310
:10DE300007D4401A02D3EFF3008010BDEFF3008047
:10DE400010BD081A06D2EFF3008001219043C907E4
:10DE5000084302E0EFF30080904380F3008810BD98
:10DE60000D231B041A4204D01146002000F022FEAC
:10DE700010BD00F037FE10BD0000009008B56946E7
:10DE800008700320ABBE08BD01491820ABBEFEE7F9
:10DE90002600020000487047543E002010B503469B
:10DEA000406801E003464068002801D08842F9D369
:10DEB0001868C3188B4206D0CB1CD808C000001DC0
:10DEC000411A521A0146081D0A60FDF730FA10BDCA
:10DED0000B4670B5024689078008084319469D081D
:10DEE000141AA94125090807054308092C194841B6
:10DEF000250A01060D43010A2C194141200C0D048D
:10DF000028430D0C00194D41002140194D41C00816
:10DF100069070843E908840F8D002543840024180D
:10DF20004D4124196D41121BAB4107E00925ED431A
:10DF30002C11521963410024401C61411C460A25E2
:10DF40000026551BB441F1D270BD0000D21DF0B5C2
:10DF500004460D46D0088DB0C000466807683146BB
:10DF6000384607F0E1FA0246F00F01D02D2307E012
:10DF70002068810701D52B2302E04007C00F430131
:10DF80006846002B037001D0012000E00020032A26
:10DF90000A9001D0072A04DB2946204600F042F906
:10DFA0002DE12078800601D40D2500E0E5697000A0
:10DFB000400D0D2D01904BDA300D00210B900846DD
:10DFC0000020C046032189050840002E05DA8200A2
:10DFD0008018C20F1018401008408015012801DD7C
:10DFE0000020C043A9000023182906D39C460A46F6
:10DFF0000123183A1B07D34003E001221205CA404F
:10E0000094460C31202902D33A46203900E03246AA
:10E010008A40002802DD002A06D119E0002817D125
:10E020000121C9078A4213D3194663467F185E410E
:10E03000002806D10120C007824202D1084687434A
:10E040009E430B98310D814202D00198401C0190F3
:10E050002088000502D57149794402E06F4979446E
:10E0600019396B460A9830221A540A980A7C401CC7
:10E070001A54401C0A900198002801DC302000E06E
:10E0800031201872019A0120002A02D0644BD21864
:10E0900004E072003A4302D0614A521C0192002D02
:10E0A00002DC2278120703D56A462E205072022025
:10E0B0000022864694460CE032033601120F6D1E94
:10E0C0008B5C02AA13546246521C401C9446052ADB
:10E0D00001DA002DF0DC002202AE08E03B0F3F0128
:10E0E000CB5C521C6D1E3354401C082A01DA002DF3
:10E0F000F4DC23689A0601D511E0401E704504DD6A
:10E100003218203AD27F302AF7D0002807DD3218A3
:10E11000203AD27F2E2A02D11A0700D4401E002DA9
:10E1200003DD3E223254401C6D1E497C315401995E
:10E13000401C002906DA2D21471C31540198404229
:10E14000019003E02B21471C315401987D21C90027
:10E15000884206DBFDF704FE3030F0557F1C01914C
:10E1600001E0642808DB01986421FDF7F9FD3030F7
:10E17000F0557F1C019101E00A2806DB01980A2175
:10E18000FDF7EEFD3030F0557F1C01980A21FDF7B8
:10E19000E7FD3031F1550A98A1697F1C7A191018F2
:10E1A000081AA0612078C00602D42046FDF7AEF917
:10E1B000216A6E460A980818206204E06268307886
:10E1C000A168761C90470A98401E0A90401CF5D121
:10E1D0002078C00602D52046FDF798F902AE09E086
:10E1E0003078761C3E280DD06268A1689047206A7E
:10E1F000401C20627F1EF3D22046FDF79DF90DB032
:10E200000320F0BD206A4019206203E06268A16823
:10E21000302090476D1EEDD3F8E700006BCA000078
:10E2200001FCFFFFF8B51F46044601230068DB022E
:10E23000032601461840072A05DB002801D017A550
:10E2400006E017A504E0002801D016A500E016A5F9
:10E25000102081432160A069C01E002FA06101D061
:10E26000401EA0612046FDF751F9002F09D0384625
:10E270006268A1689047206A401C2062C01C20622E
:10E2800006E0206AFAE762682878A1686D1C90476A
:10E29000761EF8D22046FDF74FF9F8BD4E414E00EC
:10E2A0006E616E00494E4600696E660010B54369A6
:10E2B000002B02D0C046C04601E0FFF7DFF8012086
:10E2C00010BD12880146243182840022C2840122BA
:10E2D000ECE711680022D243E8E70000F7B51646E4
:10E2E0008AB0334878446C4603467C33C06F5A6822
:10E2F0009B680DC42E487844763003AC0DC80DC41D
:10E300003720C001081837211B30FDF729FD0546CD
:10E310000C46803D1B3C02D56442012000E00020F9
:10E320000027099010E0E0070CD00C20204978432A
:10E33000794432464C3941186846012300F054FABA
:10E340006B4607C364107F1C002CECD1184F7F4430
:10E350002E3F16E0E80712D02001C0190EC8069122
:10E36000089307920068F04201D19819089032464C
:10E37000012306A903A800F037FA03AB07C36D1009
:10E38000641C002DE6D10998002806D03246694663
:10E39000012303A800F07EFA05E001233246694616
:10E3A00003A800F021FA0A9B07C30DB0F0BD0000DE
:10E3B000F4C70000034640000A4610B5400D0BD0DC
:10E3C0000121C9070F24A40200191C03640821437A
:10E3D000540D2143D20207E000210120F2E7D40FBF
:10E3E000490021435200401E0029F8DADB0FDB0709
:10E3F000184310BDFFB50D46144685B048685168F6
:10E4000007F06CF800910190A868A16807F066F821
:10E4100002910390A868616807F060F8029A1218E8
:10E420008242029201D2012000E00020019A0B18E2
:10E43000D2180028019202D08A4202D903E08A420F
:10E4400001D2012000E000200099081800906868BF
:10E45000A16807F043F8029A12188242029201D290
:10E46000012000E00020019A0B18D2180028019228
:10E4700002D08A4202D903E08A4201D2012000E0A0
:10E480000020009908180090286821684000490081
:10E49000400849084018FA49471814E0019940001B
:10E4A000C90F08430090019802994000C90F084322
:10E4B0000190029803994000C90F08430290039805
:10E4C00040007F1E039000980028E7DA0898002893
:10E4D00001D0EC4E00E00026B74201DA012000E056
:10E4E0000020002804902AD0F71BF806C00E15D093
:10E4F000029B2021091A039A8B401A430392029A25
:10E50000019BC2408B401A430292019A009BC24079
:10E510008B4000991A430192C14000917B110DD0AC
:10E520006F460320C11A03D500218200B95003E0D1
:10E530008A008100BA587A50401EF3D537460398B6
:10E540000299002800D00120014308980291002878
:10E5500008460CD0002800D001200199019A4905F5
:10E5600008430121D20AC902D202019200E001212E
:10E570000E9B0122D207012B02D0002B03D013E007
:10E58000002807D120E0904204D890420CD1019B92
:10E590000B4209D0019B5918019105D10099491CE2
:10E5A000009101D17F1C009200280DD01021084657
:10E5B0000020C0460498002806D00F98002803D0F9
:10E5C000082108460020C04628682168019B009A5F
:10E5D0004840C10F0598C90739430EC009B0F0BDC6
:10E5E000FFB587B0099A08980899536892684068FF
:10E5F000896896460022039317469446089A126843
:10E600005300099A5B081268520052089A1A9E4BEE
:10E61000D4180A9A002A01D0352200E0402206923E
:10E620000022012315460492DB07059324E0002D08
:10E6300005D175460346039E4D1BB34109D375466C
:10E640006646039B491B049D9841059B7519AC4682
:10E650005F4163463B4308D0059B049EDD07760877
:10E660002E435B080496059301E0521E641EC50FFD
:10E67000ED0749184041521C069B9A42D7DB002DFA
:10E6800004D17546039A6B1A824101D203200CE033
:10E69000039A0B466B404240134303D0014303D01F
:10E6A000012002E0022000E00020614601910021EB
:10E6B000009702910A99002905D061464002014362
:10E6C000704B019102E08007002302909C4201DA26
:10E6D000012000E0002007003AD01A1BD006C00E2F
:10E6E00015D0029D2021019C091AC5408C4025436C
:10E6F000029C8C4000D001242543019C0295009D82
:10E70000C4408D4000992C430194C14000915411A4
:10E710001DD06D460221002202290CD10320001BCE
:10E7200007E0002804DB8600AE59002E00D001224D
:10E73000401C0328F5DB081B02D588002A5004E0A2
:10E740008000285810438A00A850491EE3D51C4673
:10E750000A98002802980CD0002800D001200199C6
:10E76000019A490508430121D20AC902D202019245
:10E7700000E00121109B0122D207012B02D0002BC7
:10E7800003D013E0002807D11FE0904204D8904244
:10E790000CD1019B0B4209D0019B5918019105D165
:10E7A0000099491C009101D1641C009200280CD0F2
:10E7B000102108460020C046002F06D011980028DE
:10E7C00003D0082108460020C04608980999019AFC
:10E7D000009B006809684840C10F0798C90721439A
:10E7E00082600AC00BB0F0BD00B585B00193009205
:10E7F0000A460146002302A8FFF7FCFD02A807C84D
:10E8000005B000BDFFB50A461F4685B007990193C4
:10E8100001230091014602A8FFF7ECFD029903983D
:10E82000049ECA0F4900D20700920F2249089202A3
:10E830008C1A0021002800DB0C46450013486D08A7
:10E84000844214D3079A002A04DA441E0026104D8D
:10E85000F64302E004460D460E461021084600200D
:10E86000C046002F03D0042108460020C0462005E2
:10E87000E90A0843009908436905F20A1143ADE625
:10E8800002C0FFFF013C0000FF3F0000FF07000047
:10E89000FFFFFF7F00B585B0019300920A46014655
:10E8A000002302A8FFF79CFE02A807C8A8E7FFB54F
:10E8B0000A461F4685B0079901930123009101463E
:10E8C00002A8FFF78DFE02990398049ECA0F490023
:10E8D000D20700920F22490892028C1A00210028C8
:10E8E00000DB0C46450011486D08844214D3079A9A
:10E8F000002A04DA441E00260D4DF64302E00446C9
:10E900000D460E46102108460020C046002F03D0B9
:10E91000042108460020C0462005E90A0843009962
:10E9200008436905F20A114358E60000FF0700009A
:10E93000FFFFFF7F10B50146C268900703D0900625
:10E9400007D5886A0AE0FCF7BDFC01210160881E3A
:10E9500010BD8B694868C0180B69C01A40310B7A2A
:10E96000002B02D0497A401A10BD1103FCD50028B3
:10E97000FADD401E10BD000070B505460A4C0B4E76
:10E980000EE0206DC00708D0AC4206D03146E068EA
:10E99000814302D12046FCF74FFF206D44086400FC
:10E9A000002CEED170BD0000543D0020020200009A
:10E9B00070B516460C46054600F09EF80368FF2029
:10E9C0000230C05C012807D0FF2C0ED8185D00284B
:10E9D0000BD001202C7070BDFF3332462146083326
:10E9E0001868C3182846984770BD0020C04370BD02
:10E9F00010B5002801D0FFF747FA10BD10B500F0A0
:10EA00009DF8FFF7F5FF10BD10B500F0AFF8FFF768
:10EA1000EFFF10BD10B500F0C3F8FFF7E9FF10BD20
:10EA200010B5002102A000F06FF8012010BD000019
:10EA30005349475056464E3A2050757265207669C4
:10EA4000727475616C20666E2063616C6C65640025
:10EA500010B50349FCF724FF0148FCF708FF10BD7F
:10EA6000FC3D002001226946114B120382188A42A4
:10EA70001A6001D8114670471960704770B50C4C88
:10EA80006D46012636032368AD1B9A18AA420ED89C
:10EA9000AD1A9019EE0F75196D10AA18904200D991
:10EAA0001046C01D0B60C208D200D01A226070BD93
:10EAB00018320020C80212D54803400F002804D0A5
:10EAC000C803C043012188407047EFF30080000174
:10EAD000000903210907084380F3008870470020DC
:10EAE0007047000010B5024800F082F810BD000029
:10EAF0000000C07F7047000010B5FFF7CBF9001D84
:10EB000010BD00BF95B5000070B505460C460A2043
:10EB100000E06D1CFFF7B2F9002D06D02878002820
:10EB2000F7D102E0641CFFF7A9F9002C02D020788D
:10EB30000028F7D10A20FFF7A1F970BD10B5002118
:10EB400002A0FFF7E1FF012010BD0000534947413B
:10EB50004252543A2041626E6F726D616C2074654E
:10EB6000726D696E6174696F6E00000010B50146C8
:10EB700002A0FFF7C9FF012010BD00005349475212
:10EB8000545245443A2052656469726563743A2070
:10EB900063616E2774206F70656E3A20000000007C
:10EBA00010B5012805D0002103A0FFF7ADFF01201B
:10EBB00010BD09A1F8E7000053494752544D454D97
:10EBC0003A204F7574206F662068656170206D650E
:10EBD0006D6F7279000000003A2048656170206D09
:10EBE000656D6F727920636F727275707465640001
:10EBF00010B50C461107090F092904D00A290AD0BB
:10EC000008290CD104E011460820FFF753FF06E065
:10EC1000510606D501E0510601D50120C007214665
:10EC200010BDD10607D501010909CC084907000E1E
:10EC30000006044309E0410F20024907000A01438E
:10EC4000200E00061D22D14101430846E7E770B5BA
:10EC50008C180578401C6B075B0F01D10378401CB2
:10EC60002A1106D10278401C03E00678401C0E7081
:10EC7000491C5B1EF9D12B0705D40023521E0DD46D
:10EC80000B70491CFAE70378401CCB1A921C03E076
:10EC90001D780D70491C5B1C521EF9D5A142D8D3BA
:10ECA000002070BD10B508F007FD08F0CFFA10BDC8
:10ECB0000021016041608160C1607047F0B5224869
:10ECC000224D0246C3680024214F0121126883B0FF
:10ECD000002B1BD02C603C60BD68447C6600641C2B
:10ECE0009D53E4B24474057CAC4220D28368002278
:10ECF0005B68002B18D00122836018687860396047
:10ED0000002A01D01348016003B0F0BD2C60124D01
:10ED10000123AB603C606C462170BB68A3808174AA
:10ED20006846904703B0F0BD43688360E5E70A4C4E
:10ED3000A16000266C462670019325818174684687
:10ED4000904703B0F0BD0000A836002000710040DD
:10ED5000007500400070004000730040F0B50024D2
:10ED6000FF2183B001314A4E4A4D012320460094D1
:10ED70004A191768012F05D177681F4202D0002772
:10ED80001C431760091D5B00401C89B20428EFD3A7
:10ED900041480168012906D1002101604007044370
:10EDA0003E48006900903E4E200712D00127002502
:10EDB00027420AD03B48AA00111808690969C00413
:10EDC000C00E8903B258890F90477F006D1C042D37
:10EDD000EED3002C59DA0020451E02900020044694
:10EDE00001902F4B1A194032117C8806800E4EB2CA
:10EDF000761C3AD0012282402A4236D01F18302693
:10EE0000BE578909B6009E59002E02D0032902D0B0
:10EE100004E0032929D1029B13430293224B87006C
:10EE2000FB189C461B68009F9B039B0F3A4202D035
:10EE3000022B02D019E0032B17D1032912D1022B88
:10EE400021D002239E466246136803273F04BB433A
:10EE50001360176873461B041F431760019A521C06
:10EE6000D2B20192002E00D0B047641C082CB8D357
:10EE70000198002809D0094800690099884204D007
:10EE80000090029DAAE70323DCE703B0F0BD000079
:10EE900000630040006000407C61004000050050BD
:10EEA000BC3600200065004000070050024A800088
:10EEB0008018016470470000F82E002010B50C4C3B
:10EEC0006068002813D10B484168002905D0002153
:10EED000416009484168491C41602068002801D010
:10EEE0000BF034F8A068002801D008F09BF910BDA1
:10EEF0004011014000110140A83000200148006885
:10EF0000004700002C30002030B43148314B018CD8
:10EF10000122C9B2012917D1848C240714D1048D90
:10EF20002406250F03D1858D2D062D0F0FD0240F1C
:10EF3000012C03D1858D2D062D0F08D0032C03D174
:10EF4000848D2406240F02D0012907D012E0224C20
:10EF50005C600124214DE403AC6102E0848C240751
:10EF600008D1048D2406240F042C03D1848D24069B
:10EF7000240F02D0012903D01FE019498A6002E062
:10EF8000818C090719D1018D0906090F0A2903D1BE
:10EF9000848D2406240F05D00D290ED1808D000606
:10EFA000000F0AD10F480168012904D00E49016001
:10EFB00001680129FCD1C02141619A610B480021FF
:10EFC000416081058A6041680029FCD030BC7047EF
:10EFD000C00F00F000050040DFFF07C0006C0040DC
:10EFE0000006004000EC0640759300000001004060
:10EFF000F8B50E4D03200426002400022F18A000AF
:10F0000001210904A140FF3041302A58002A08D0CC
:10F010007A680A4205D000212950054A51681268D1
:10F020009047641CE4B2B442E9D3F8BD00900040BC
:10F0300050370020F8B50F4D0320042700240002AC
:10F040000D4E28180090A00001210904A140FF30B6
:10F0500041302A58002A08D0009A52680A4204D047
:10F0600000212950326871689047641CE4B2BC42A8
:10F07000E9D3F8BD00A000405C370020F8B54D484A
:10F0800040684D4C4007274626464037203600252D
:10F0900000283CDA49488168002938D031790029B4
:10F0A0002FD0856046488069A26A216BC0B2505457
:10F0B000337E0022FF2B0AD0834208D10123206D2A
:10F0C0005B0318432065E06C800400D50122491CD5
:10F0D0002163E06A814205D3FF21206D013108439D
:10F0E000206501E0002A12D0387D800702D4314922
:10F0F000042088603571606B002808D06563804704
:10F1000005E0A268002A02D0002160689047294BE0
:10F110005868000628D52949C869002824D0707E7F
:10F1200000281BD0226C606C904207D2CD61E16B4D
:10F13000234A095CD161401C606415E0387DC0073A
:10F1400001D1802098607576206D042108432065E8
:10F15000A06C002808D0A564804705E0A268002ABA
:10F1600002D00121606890471448416A002920D0EC
:10F170004562144801680160626BC8B2002A18D069
:10F18000216D022319432165830703D50123DB0287
:10F1900019432165410704D50123216D9B021943C1
:10F1A0002165C00704D00121206D49020843206574
:10F1B0009047F8BD00230040D837002000210040D0
:10F1C000002500408024004070B505460C46002C08
:10F1D00004D005A12846FCF783F903E004A12846E2
:10F1E000FCF77EF9284670BD6D616E750000000069
:10F1F0006175746F0000000070B505460C4605216E
:10F200002846FCF74BFD102C24D008DC012C0DD037
:10F21000022C10D0042C13D0082C2FD115E0202C58
:10F220001DD0402C20D0802C28D122E017A12846C8
:10F23000FCF756F927E016A12846FCF751F922E021
:10F2400014A12846FCF74CF91DE013A12846FCF751
:10F2500047F918E011A12846FCF742F913E010A184
:10F260002846FCF73DF90EE00EA12846FCF738F9D8
:10F2700009E00DA12846FCF733F904E021460CA073
:10F28000FCF720F900BF00BF284670BD4E6F00009C
:10F29000506972004D77000044617900536E780028
:10F2A00048796200566F6C0054657374000000006A
:10F2B0004572726F722076616C75652025640A0D47
:10F2C0000000000070B504460D4600BF0020205627
:10F2D000401C002804D120220BA11BA008F004F937
:10F2E00000BF002D07D000202056012181401C4A7C
:10F2F000916000BF07E00020205601218140184A9C
:10F30000D16000BF00BF70BD6D6265642F54415273
:10F310004745545F4E524635315F444B2F5441525E
:10F320004745545F4E4F524449432F54415247453D
:10F33000545F4E5246352F6770696F5F6F626A6522
:10F3400063742E68000000006F626A2D3E70696E63
:10F3500020213D202850696E4E616D65294E430085
:10F360000005005070B504460D4600BF0020205631
:10F37000401C002804D120220BA11BA008F0B4F8E7
:10F3800000BF002D07D000202056012181401C4ADB
:10F39000916000BF07E00020205601218140184AFB
:10F3A000D16000BF00BF70BD6D6265642F544152D3
:10F3B0004745545F4E524635315F444B2F544152BE
:10F3C0004745545F4E4F524449432F54415247459D
:10F3D000545F4E5246352F6770696F5F6F626A6582
:10F3E00063742E68000000006F626A2D3E70696EC3
:10F3F00020213D202850696E4E616D65294E4300E5
:10F4000000050050012685E100251DE0C248405D51
:10F41000002818D00020C04948552946BFA0FCF755
:10F4200051F8032D0FD100270BE0C048C05D002824
:10F4300006D00020BD49C8553946BDA0FCF742F8AA
:10F440007F1C042FF1DB6D1C072DDFDBBC4800782F
:10F45000030006F05BF807F6F505F7F3D5F2F500C3
:10F46000012E76D1B7480088002841DD0422B64934
:10F47000B648FCF75DFB00283BD1B54801F09CF98C
:10F48000002801D1012000E0002005462946B048AF
:10F4900001F087F9AFA000BFB3A0FCF713F8002577
:10F4A00006E0AA48425D2946B0A0FCF70BF86D1CA7
:10F4B000A44800888542F4DBABA0FCF703F8AD4913
:10F4C000A248FCF7EDFA042404E0201F9F490855E8
:10F4D000601CC4B29B4800888442F6DB7D20C000DB
:10F4E0000AF0B2FD974802789849A34803F022FC3D
:10F4F00082E004229F499548FCF71AFB00283DD181
:10F500009EA000BF924801F057F9002801D10120C8
:10F5100000E00020054629468D4801F042F900260A
:10F5200091A0FBF7CFFF002506E08848425D294601
:10F530008EA0FBF7C7FF6D1C824800888542F4DB74
:10F5400089A0FBF7BFFF80498048FCF7A9FA042493
:10F5500005E019E0201F7D490855601CC4B27948B8
:10F5600000888442F6DB7D20C0000AF06DFD7548FE
:10F5700002787649804803F0DDFB3DE001268449AE
:10F580007D4803F0EBF837E06E480088002833DD53
:10F59000042278496D48FCF7CBFA002827D16C4843
:10F5A00001F00AF9002801D1012000E00020054601
:10F5B0002946674801F0F5F876A000BF6249634824
:10F5C000FCF76EFA042404E0201F60490855601C13
:10F5D000C4B25C4800888442F6DB0A200AF034FD9D
:10F5E000584802785949644803F0A4FB04E0012616
:10F5F0006749614803F0B2F800205149087088E07B
:10F60000534801F0D9F8002801D1012000E0002082
:10F61000054629464E4801F0C4F8012E02D162A0E9
:10F6200000BF02E063A000BF00BF5949524803F089
:10F6300095F80020424908706BE05DE025E001E0AC
:10F6400063E061E0012E18D14A494048FCF728FAEE
:10F65000042404E0201F3D490855601CC4B2394809
:10F6600000888442F6DB0A200AF0EEFC3548027876
:10F670003649414803F05EFB03E045493E4803F04C
:10F680006DF800202E49087043E0012E18D1394949
:10F690002E48FCF705FA042404E0201F2B490855E6
:10F6A000601CC4B2274800888442F6DB0A200AF0B6
:10F6B000CBFC2448027825492F4803F03BFB17E098
:10F6C00021492248FCF7ECF9042404E0201F1F49DB
:10F6D0000855601CC4B21B4800888442F6DB0A202F
:10F6E0000AF0B2FC174802781849234803F022FBBD
:10F6F0000020134908700CE025491F4803F02EF83C
:10F7000000200F49087004E003E000200C49087055
:10F7100000BF00BF78E60000DD3100204972712093
:10F720002564204973737565640A0D00E431002077
:10F73000625472616365203D2025640A0D0000005B
:10F74000093100200A31002031A80200D83C0020F5
:10F75000083100205258204D61737465722E2E2E90
:10F76000506F6E670D0A00000A0D000025642C25FD
:10F77000643A00002CA80200503A00205258204D54
:10F7800061737465722E2E2E50696E670D0A00002B
:10F79000C0C62D00525820536C6176652E2E2E5017
:10F7A000696E670D0A00000050696E672E2E2E0DDF
:10F7B0000A000000506F6E672E2E2E0D0A0000000A
:10F7C00070B50146002000231F240A4605E0167884
:10F7D000521C3518E8B25D1CEBB2E51AF7D170BDCA
:10F7E00010B5094803F073FB00200849084A128845
:10F7F00088540320074908700749034802F0AEFF08
:10F8000006A0FBF75FFE10BD503A0020D83C002058
:10F810000A31002009310020C0C62D004F6E5278F9
:10F8200054696D656F75740A0D00000010B50748C6
:10F8300003F04DFB0620064908700649034802F014
:10F840008DFF05A0FBF73EFE10BD0000503A0020E2
:10F8500009310020C0C62D004F6E547854696D6583
:10F860006F75740A0D00000002210B4A516000BF41
:10F870000A4909680029FBD00749886000BF074989
:10F8800009680029FBD00021034A516000BF0349E9
:10F8900009680029FBD0704700E5014000E4014001
:10F8A00000BF0D4A1278002AFBD101220B4B5A608F
:10F8B00000BF0B4A1268002AFBD0016000BF084A53
:10F8C0001268002AFBD00022044B5A6000BF044A91
:10F8D0001268002AFBD07047B930002000E50140D3
:10F8E00000E4014000200C49086001208107086005
:10F8F00000BF094800680028FBD002200749886142
:10F9000000200549486001208107886000BF024847
:10F9100040680028FBD0704700010040000500400F
:10F920007047000010B58CB017480068401C16499D
:10F9300008603C2114480068FCF704FA01913C215E
:10F9400011480068FCF7FEF904463C21FCF7FAF97F
:10F950000291E12109010C480068FCF7F3F9044623
:10F960001821FCF7EFF90391084907480068FCF7F4
:10F97000E9F904900198009005A0029B039A04996C
:10F98000FBF7A0FD0CB010BD043100208051010038
:10F99000256444202564482025644D202564530AAD
:10F9A0000D00000010B509480068401C07490860B8
:10F9B000032106480068FCF7C5F9002902D101209F
:10F9C0000349087001200349087010BDC82F0020AA
:10F9D000C62F0020C42F0020F8B507460C46154658
:10F9E0001E460D4803F073FA0C480480028839461D
:10F9F0000B48FCF7EDF80B4805800B480670022019
:10FA00000A49087001200A490870054848600846FC
:10FA1000048145810673F8BD503A00200A31002068
:10FA2000D83C00200C3100200E310020093100208C
:10FA3000F83C002010B5054803F049FA05200449B8
:10FA400008700449014802F089FE10BD503A0020B8
:10FA500009310020C0C62D000FB438B50446002C73
:10FA600009D006A800900648009A0599FBF722FDE8
:10FA70000020009000BF38BC08BC04B0184700004C
:10FA8000FC3D002070B505460C4605212846FCF7D4
:10FA900005F9102C1DD006DC012C0BD0022C0ED049
:10FAA000042C2AD110E0202C18D0402C1BD0802C04
:10FAB00023D11DE015A12846FBF712FD22E014A179
:10FAC0002846FBF70DFD1DE012A12846FBF708FDB7
:10FAD00018E011A12846FBF703FD13E00FA128460B
:10FAE000FBF7FEFC0EE00EA12846FBF7F9FC09E04F
:10FAF0000CA12846FBF7F4FC04E021460AA0FBF722
:10FB0000E1FC00BF00BF284670BD00005278000035
:10FB10005478000053527800527074004757000028
:10FB20004D737400544244004572726F72207661C6
:10FB30006C75652025640A0D000000000120014954
:10FB400008707047C52F002010B5074803F0BFF9B3
:10FB50000420064908700649034802F0FFFD05A08D
:10FB6000FBF7B0FC10BD0000503A00200931002026
:10FB7000C0C62D004F6E52784572726F720A0D002A
:10FB800038B505460C46684601F0B4FE2078114AA7
:10FB900012681178CA0F5218521052008A1AC30FF5
:10FBA0001B185B105B00C31A9A4208D101200A4956
:10FBB0000870002009498862074988604860E27B34
:10FBC000A17B0323064805F0E1FB2146284600F00F
:10FBD00085F838BDA0310020D4390020A03900209C
:10FBE00094310020F8B506460C46684605F006FA42
:10FBF000E57B28466438030005F088FC0A06070800
:10FC0000090E131415161B201DE01CE01BE02146F5
:10FC1000304600F03DF816E02146304600F01EF870
:10FC200011E010E00FE00EE02146304600F08EF8C3
:10FC300009E021463046FFF7A3FF04E0294603A070
:10FC4000FBF740FC00BF00BFF8BD000043686563E0
:10FC50006B20436D642025640A0D000070B50546D5
:10FC60000C46002008490870E17B0222074805F095
:10FC70006BFBE27BA17B0323044805F087FB214655
:10FC8000284600F02BF870BDD439002094310020B4
:10FC900070B505460C46207AFDF7C3F806460B49B9
:10FCA000FCF780FF0A49886201200A490870002099
:10FCB00088604860E27BA17B0323074805F066FB70
:10FCC0002146284600F00AF870BD00000000C84236
:10FCD000A0390020D43900209431002070B50546A9
:10FCE0000C4611480168114805F057FA00281AD04F
:10FCF000A17B03220D4805F027FB21460B4805F0A8
:10FD00004CFA00280FD11020607009A0FBF7DAFB35
:10FD1000E27BA17B0423054805F038FB21460A4815
:10FD2000006800F025FC70BDA03100209431002057
:10FD3000726573656E6420627920726570656174A6
:10FD400065720A0D00000000A431002038B5054698
:10FD50000C46684601F0CEFD0822A11D0B48006844
:10FD6000801DFBF735FF684601F08EFCE17B022227
:10FD7000074805F0E9FAE27BA17B0323044805F07C
:10FD800005FB21462846FFF7A9FF38BDA03100201A
:10FD9000943100200FB410B5044610490398086050
:10FDA0000846006801F07CFD0D49086008460068BF
:10FDB0000C4908600C49049808600C4905980860D3
:10FDC0000B49069808600B49079808600A4908988B
:10FDD0000860204610BC08BC04B0184798310020C9
:10FDE0009C310020A0310020A4310020A831002047
:10FDF000AC310020B0310020B43100200FB470B518
:10FE000004460B9D0F49059808600846006801F0FC
:10FE100047FD0D490860084600680C4908600C4918
:10FE2000069808600B49079808600B490998086014
:10FE30000A490A9808600A480560204670BC08BC58
:10FE400004B01847B8310020BC310020C031002078
:10FE5000C4310020C8310020D0310020D43100202E
:10FE6000D83100208CB03D483D4908603D4888604D
:10FE70003D4808613D4848603D48C8603D4802F043
:10FE800057FF07E000213CA0FFF74AFD7F20C00597
:10FE90000AF0C4F84221374800F064F90028F1D094
:10FEA000344800F0F5F8012800D100E00020C40734
:10FEB000E40F39A500BF2F4800F0EAF8002801D16F
:10FEC000012000E00020C407E40F3CA500BF444926
:10FED000284801F015FF43A10020FFF7BDFD4BA10D
:10FEE0000120FFF7B9FD5248002104220691079234
:10FEF0000891099001200822029003920491059034
:10FF00000C20022100230E220091019001211948AA
:10FF100002F002F901200021042207910523099132
:10FF200004910A90039308920591069008200122FB
:10FF30000C23009201910290022201210D4801F050
:10FF40000BFF3CA000BF0021414800F02AFC4149C2
:10FF5000084802F003FCFFF755FA000035FA0100EB
:10FF6000303A0020D9F9010049FB01002DF80100C9
:10FF7000E1F70100503A0020526164696F20636F1D
:10FF8000756C64206E6F74206265206465746563AF
:10FF9000746564210A0D00000A0D203E20426F6145
:10FFA000726420547970653A205358313237364D97
:10FFB00042314C4153203C200A0D00000A0D203EE6
:10FFC00020426F61726420547970653A2053583131
:10FFD0003237364D42314D4153203C200A0D00004E
:10FFE00000A1BC330A0A0D20202020202020202040
:10FFF000202020203E204C4F524120464853532081
:020000040002F8
:100000004D6F6465203C200A0A0D00000A0A0D208D
:100010002020202020202020202020203E204C4F67
:100020005241204D6F6465203C200A0A0D000000FB
:1000300080841E000A0D5374617274696E672050CB
:10004000696E672D506F6E67206C6F6F700D0A00C0
:1000500008310020C0C62D00704710B504460021AD
:10006000A1208000201800F05CFE10BD0246074869
:10007000814208D9FF205B30805C012801D18020BB
:1000800070470020FCE70020FAE7000040DD4A1F2F
:1000900070B50446FF205B30005D022822D1A1200C
:1000A0008000201800F01CFE012009F0CDFFA120E7
:1000B0008000251800BF284606F080FF00BF0128F9
:1000C00004D10121FF205B30015503E00021FF2016
:1000D0005B300155A1208000201800F00CFE0120AB
:1000E00009F0B2FFFF205B30005D70BD70B50446C3
:1000F0000D46FF205A30005DA8420FD0FF205A3035
:100100000555002D05D1206880308168204688473C
:1001100004E020688030C1682046884770BD000038
:1001200070B50546002400BF16E0600020180C4B97
:10013000195C286802692846904760002018084E1C
:100140008019827860002018801941782868C36C73
:1001500028469847601CC4B20F2CE6D370BD00003F
:1001600020A90200F8B504460D46206801236A461E
:100170002946866D2046B04768460078F8BDFFB531
:1001800081B004460E46174600212046783000F024
:1001900008FB7106490E2046083000F047FE002596
:1001A00007E000212046083000F040FE7855681C2A
:1001B000C5B204988542F4DB01212046783000F076
:1001C000F0FA05B0F0BD10B504462046793000F0D5
:1001D00092FD00212046793000F0A3FD012009F0B6
:1001E00033FF2046793000F07BFD062009F02CFF1C
:1001F00010BDFFB581B004460E46174600212046CB
:10020000783000F0CEFA8020304301462046083096
:1002100000F00CFE002506E0795D2046083000F075
:1002200005FE681CC5B204988542F5DB0121204615
:10023000783000F0B6FA05B0F0BDF7B504460D46CB
:100240002068012302AA2946466D2046B047FEBD1C
:1002500010B50446206880308168204688472068B1
:10026000416F2046884710BD70B5044601212046E5
:10027000783000F096FA00220821601800F0FAFDAC
:10028000044D69082046083000F030FE024809F0AD
:10029000C5FE70BD00127A00CDCCCC3DF8B5044649
:1002A0000D461646206833462A460021876D2046B3
:1002B000B847F8BD70B504460D461120400120181E
:1002C000007AA84200D170BD1120400120180572AB
:1002D000002D06D00121A1208000201800F021FD72
:1002E00005E00021A1208000201800F01AFD00BFC9
:1002F000E9E710B504460021A1208000201800F095
:1003000010FD10BD70B504460D46214620467C30D8
:100310006B682A6809F0ECFE21462046A830EB689D
:10032000AA6809F0E5FE21462046D4306B692A69A7
:1003300009F0DEFE2146E01DF930EB69AA6909F0FB
:10034000D7FE21462046FF302D306B6A2A6A09F01D
:10035000CFFE70BDF8B504460D46164620683346FC
:100360002A460021476D2046B847F8BDF0B58BB04E
:1003700004460E46172014211122102305930692DD
:10038000079108900F200E21012218230193029259
:10039000039104901D201C23192231460090204611
:1003A00003F01EFC0446264820600521A1208000A1
:1003B000201800F0ABFCA1218900441A0421214837
:1003C000201801F056F91F49441A0AAD16270020DB
:1003D00028703946284606F0A5FC00BF6660204616
:1003E000FFF7F1FE0221FF205B3001552046FFF7A9
:1003F0004FFE204602F020F92046FFF729FF00219A
:10040000204603F0B3FBFF20653001592046FFF77B
:1004100079FF01210AA800F0C4F92046FFF780FE09
:1004200000210AA800F0BDF90021204602F07FFD5E
:100430000020112149016118087320460BB0F0BD5E
:1004400078AB02008502000010B50446204603F098
:100450009DFC0446204610BD0021074A1161012180
:10046000064A116100BF044909690029FBD0012136
:10047000034A117070470000001100400010004056
:10048000B23000200021014A11707047B1300020C5
:1004900001460148704700005438002010B504465A
:1004A0002046FFF7D9FF0021204600F009F900BFE0
:1004B0000C48C0680028FBD000200A49C860012011
:1004C00009490870094882780948816809A0FAF743
:1004D000F9FF2046FFF7C0FF0121204600F0F0F8A9
:1004E00010BD000000110040B0300020483800204E
:1004F0000015004043683D25642C20486F703D2561
:10050000640A0D0030B5044600250948006801283A
:1005100004D1084885880120074908702046FFF764
:100520009BFF0121204600F0CBF8284630BD00009B
:100530000014004054380020B130002070B505464A
:100540000C46094821460EC90EC0FFF7CBF90648F4
:100550000EC8284600F078F8044809F05FFD012134
:10056000284600F0ADF870BD483800206F12033BFC
:10057000F8B505460E46684604F081FF1E488168BE
:100580001EA0FAF79FFF00271E20204908602022A6
:1005900031461F48FBF71CFB1D48018A0183008A76
:1005A000401C81B21A484183042201461831684632
:1005B00004F010FF014616488183FFF701F9144942
:1005C000C8770D488778807803280FD000240AE088
:1005D00009498C7008460EC8284600F035F82846B0
:1005E000FFF75CFF641C032CF2DB02E02846FFF7F8
:1005F00055FF01488770F8BD4838002073656E6468
:100600005266204368203D25640A0D00B430002066
:100610007438002010B5044608480078002809D036
:100620000748C068002805D000200549C86020465A
:10063000FFF768FF0348007810BD0000B2300020CB
:1006400000110040B13000201FB504466846007A12
:100650001749C86068464079002802D04920886060
:100660001CE068468079032807D146210398FBF7F0
:1006700069FB491C0E48816010E017210398FBF7C5
:1006800061FB68468079172250430818401C0849CE
:1006900088606846817907A0FAF714FF6846C07938
:1006A00003490861039988B208F02CFD1FBD0000C2
:1006B00000150040486F703D25640A0D00000000E1
:1006C00001290ED10122134B1A70134A134B5A60A1
:1006D0000022134B1A600122124B5A6000221A604A
:1006E0000CE000220B4B1A700F4A0C4B5A60002290
:1006F0000B4B1A600B4B5A6001221A6000BF084A6C
:100700001268002AFBD00022054BDA600122054B5B
:100710009A607047B2300020543800200015004025
:1007200000110040001000407438002070B50446ED
:1007300000200D4908700D4908700D4D0D4E00BF89
:1007400005E0002131702970761C6D1C401C2028AA
:10075000F7D30120084908700848206008A0FAF77C
:10076000B1FE204670BD0000B1300020B030002046
:100770005438002074380020B2300020AAAAAAAA57
:100780004E65772052660A0D0000000070B50446E1
:100790000D46002020702946204606F0C3FA204668
:1007A00070BD70B504460D4600BF29462046FEF7D1
:1007B00089FD00BF204670BD10B5044600BF20462D
:1007C00006F0FCFB10BD70B5044600680122036909
:1007D00000212046984705000DD4206802220369B5
:1007E00000212046984706462068002203692946D2
:1007F00020469847304670BD0020704710B54C30F9
:1008000008F080FE10BD10B50C464C3008F086FF95
:10081000204610BD0901081880210958002902D07E
:10082000096874300847704770B505464C3008F0C9
:1008300039FF3F2104460902AB6C08400026002B1B
:1008400008D0002806D001262A463C3201461B6803
:1008500010469847FC202146AA6B0140002A06D08A
:10086000002904D0284612682C30904701E0002E61
:1008700001D008F0BFFF70BD70B5044600680D469A
:10088000016820468847204629464C3008F018FE6B
:1008900094200551206841682046884770BD704704
:1008A000704770B5044600680168204688472046B6
:1008B0004C3008F049FF05462068416820468847CB
:1008C000284670BDFFB585B03849394A01601D46DC
:1008D000D468936800228360C460364B0361364B52
:1008E0004361C2618061024608320262334A426259
:1008F000BFF36F8FBFF34F8F0146002620310E727A
:100900004E72C662066346638663C66306644664C7
:100910008664C664066546658665C665066646667F
:100920008666C6660667022310222549743004F0E5
:1009300013FE0446743C0C300490456100252801E8
:10094000061900206F4674360090019002900390C3
:10095000BE420ED0F068002802D081683046884739
:1009600003983946002802D04268304690470398E1
:10097000F06003996846002901D0896888476D1C9A
:10098000022DDCD320464C300546079A069908F024
:10099000CDFD04984169284608F092FD2246094998
:1009A000284608F079FE204609B0F0BDB0AD02003F
:1009B00060A9020001A00FC8184700001BA3020095
:1009C000B1EC010015080200F0B504468BB04648B2
:1009D0002060002620464C300990002104A8059193
:1009E00004910691079100902068F7B201682046B3
:1009F000884705F01BFF0798002820D039010D1902
:100A000080204059002801D108F0C4FE00987435B8
:100A100085420ED0E9682846002901D089688847B8
:100A200007980099002802D0426828469047079806
:100A3000E86001223946099808F03EFE2BE03901B2
:100A40000D1980204059002801D008F0D3FE002164
:100A50006846743503910091019102910890854296
:100A60000ED0E9682846002901D089688847039894
:100A70000899002802D04268284690470398E86009
:100A800003996846002901D08968884700223946C1
:100A9000099808F011FE05F00BFF20684168204618
:100AA0008847079804AA002802D081681046884722
:100AB000761C022E91DB2046022310220B49743053
:100AC000FBF746FAA06C3C34002802D0816820462F
