:020000040001F9
:10B000000080002085B20100A3B20100A5B20100BA
:10B010000000000000000000000000000000000030
:10B02000000000000000000000000000A7B20100C6
:10B030000000000000000000A9B20100ABB2010056
:10B04000ADB20100ADB20100ADB20100ADB2010080
:10B05000ADB2010000000000ADB20100ADB20100D0
:10B06000ADB20100ADB20100ADB20100ADB2010060
:10B07000ADB20100ADB20100ADB20100ADB2010050
:10B08000ADB20100ADB20100ADB20100ADB2010040
:10B09000ADB20100ADB20100ADB20100ADB2010030
:10B0A000ADB20100ADB201000000000000000000E0
:10B0B0000000000000000000000000000000000090
:10B0C00000F002F800F0B5F80CA030C808382418D9
:10B0D0002D18A246671EAB4654465D46AC4201D1D0
:10B0E00000F0A7F87E460F3E0FCCB646012633424D
:10B0F00000D0FB1AA246AB4633431847A099000084
:10B10000C09900000023002400250026103A01D336
:10B1100078C1FBD8520700D330C100D50B6070470F
:10B1200010B56E2902D101F082FB10BD702902D149
:10B1300000F0A9FA10BD662902D109F09FF810BDF0
:10B14000652902D109F09AF810BD672902D109F0EA
:10B1500095F810BD612902D109F098F810BD036877
:10B160001B0A01D380231943692902D100F016FA82
:10B1700010BD642902D100F011FA10BD752902D169
:10B1800000F00CFA10BD6F2902D101F077FE10BD5E
:10B19000782902D100F064FA10BDE92902D101F04A
:10B1A00013FE10BDE42902D101F00EFE10BDF529F9
:10B1B00002D101F009FE10BDEF2902D101F06AFEB3
:10B1C00010BDF82902D100F059FA10BD0368DB095F
:10B1D00001D380231943632902D101F077FD10BD0B
:10B1E000732902D101F07AFD10BDE32902D102F0EA
:10B1F000B0FC10BDF32902D102F0B3FC10BD002059
:10B2000010BD1FB50098019901F073FA02F08AFA97
:10B2100004000020002108F04FFE401C6060002068
:10B22000002108F033FEE06002F07CF900F050FEEF
:10B230001FBD05F003F9114603B405F013F903BC73
:10B24000FFF7DFFF03F068F906F080F970B50546F7
:10B250000C46164602E00FCC0FC5103E102EFAD257
:10B26000082E02D303CC03C5083E042E07D301CC1D
:10B2700001C5361F03E021782970641C6D1C761E01
:10B28000F9D270BD03210A4802680A4302600948E6
:10B2900002680A4302600848804708488047084817
:10B2A0000047FEE7FEE7FEE7FEE7FEE7FEE70000F9
:10B2B000240500405405004071E70100CD2802003C
:10B2C000C1B0010000487047B038002070B5064694
:10B2D00001F0F2F9056830460B30C408E400B442CE
:10B2E00001D8002070BD68682A46002818D001687F
:10B2F000A14211D30B46214608318B4208D3436843
:10B3000001194B6003681B1B0B605160046001E076
:10B3100041685160001D70BD024640680028E6D1BA
:10B320002146284601F0D0F90028DCD170BD70B567
:10B330000446051F01F0C0F90068002C1AD04468CB
:10B3400001E020466468002C01D0AC42F9D30168CA
:10B350000A18AA4204D12A6805468918016000E04B
:10B36000456028684119A14205D16168696021687A
:10B370004018286070BD6C6070BDFEB50546104673
:10B380000C46184373D0AE468C460020AD1A0146D9
:10B390009C4167D36646002701243D46B61A9D416D
:10B3A00002D313463A462124654676462F04360CCE
:10B3B0003E432D0CB61A9D4104D3150C1B042B43A0
:10B3C00012041034654676462F06360A3E432D0A8F
:10B3D000B61A9D4104D3150E1B022B4312020834EA
:10B3E000654676462F0736093E432D09B61A9D411C
:10B3F00004D3150F1B012B431201241D654676460D
:10B40000AF07B6083E43AD08B61A9D4104D3950F69
:10B410009B002B439200A41C65467646EF077608F6
:10B420003E436D08B61A9D411AD392185B41641CC5
:10B4300016E00018764665464941B71A9D410191CC
:10B44000009009D36046B11A98418E468446009810
:10B4500001990025401C6941DD0752082A435B0819
:10B46000641EE6D57246634603B0F0BDFFE70020D8
:10B470000146C046C0462A462346F5E77CB51D4630
:10B4800016460C00009001D00019401E084B7B446A
:10B490002A4669460190304601F0EDFB002C054636
:10B4A00003D06946002001F0F9FB28467CBD00006E
:10B4B000151800000FB4054910B503AA029801F051
:10B4C00011FC10BC08BC04B018470000083900206B
:10B4D0000FB41CB5084B06AA7B446946009005983A
:10B4E00001F0C9FB04460020694601F0D7FB204665
:10B4F0001CBC08BC04B01847C117000070B5044656
:10B5000085690068C10601D5302600E02026C00705
:10B5100007D070BD62683046A1689047206A401C21
:10B5200020626D1EF6D570BD70B504468569007841
:10B53000C00707D170BD6268A16820209047206ACB
:10B54000401C20626D1EF6D570BD70B50C460546D8
:10B55000012A05D02878800600D5EA69002302E098
:10B56000012305E05B1C934202D2E05C0028F9D184
:10B57000A869E618C01AA861286AC0182862284677
:10B58000FFF7BCFF04E06A682078A968641C904754
:10B59000B442F8D32846FFF7C7FF70BDF7B50025C2
:10B5A00075291068009914A611D001F0D6F800286A
:10B5B00002DA404211A608E0009909688A0701D51D
:10B5C0000FA602E0490704D50EA6012501E001F00F
:10B5D000CDF8009F0024243704E002F051F8303108
:10B5E0003955641C0028F8D12B4632462146009874
:10B5F00001F0C5F8FEBD0000000000002D000000B5
:10B600002B00000020000000F8B50F460188090556
:10B6100002D5224C7C4402E0204C7C440E3405468A
:10B620000021243508E016071209360FA65D6E5476
:10B630001E0732431B09491C16461E43F3D12246FE
:10B6400004780023240705D5702F06D0002901D0E7
:10B650000223113201F093F8F8BD01231032F9E70B
:10B6600070B504460D462146106801F07FF80023AE
:10B67000024629462046FFF7C7FF70BDD21DD308FA
:10B68000DB000CCBC0E730B40368202412682343EE
:10B6900003600823C36130BC0023B5E7708E00004F
:10B6A000F3B50446002081B020622046E168884757
:10B6B000002872D0252802D06268A168ABE0594FFB
:10B6C00000267F442046E16888472028054608DB9D
:10B6D000312D06D2781920380078002801D0064391
:10B6E000F0E7B00701D5042086430020E06107465B
:10B6F000A0612A2D0AD0284604F0A4FE002827D0F5
:10B70000B8000019303D0090856119E00298BA0038
:10B71000121902C8916102902046E1688847012F02
:10B72000054617D1E06900281FDA202086431CE077
:10B7300000980A218069484300994019303888618F
:10B740002046E1688847054604F07CFE0028EFD1DA
:10B75000012F0AD02E2D08D12046E16888470546E2
:10B76000202006437F1C022FC3DBA069002803DAD8
:10B770004042A06101200643F00701D0102086431B
:10B780006C2D0BD0682D09D04C2D3CD06A2D38D0B3
:10B79000742D38D07A2D36D016E040E0E1682F467F
:10B7A00020468847B842054609D16C2F29D0012090
:10B7B0008002E168064320468847054604E06C2F76
:10B7C0001DD0FF2001300643002D28D028464138E7
:10B7D000192803D80120C0020643203520462660E0
:10B7E0002946029A1646FFF79BFC002810D0012834
:10B7F0000BD0F61DF008C0000830029055E740203D
:10B80000E1E78020D5E70020D3E7361D02964CE71C
:10B8100062682846A1689047206A401C44E7206A75
:10B82000FEBD0000EA8D000070B50446C0688107C7
:10B8300013D0800601D5A56A04E0A16960684018AC
:10B840002169451A204601F025FE002206462946B8
:10B85000204601F04FFD304670BD002070BD70B530
:10B86000002802D0FFF7E0FF70BD0025074C6E1ED8
:10B8700008E02046FFF7D8FF002800D03546206DAD
:10B8800044086400002CF4D1284670BDB438002070
:10B8900070B50D46044604E0294605F06AFE401CDA
:10B8A00004D02078641C0028F6D170BD0020C0436D
:10B8B00070BD10B505F04FFE10BD10B505F059FE76
:10B8C00010BD0000F7B516460C46104600F07CF897
:10B8D0002078611C61280AD0722802D0772839D1DB
:10B8E00002E00125002404E00225042401E02D4D9E
:10B8F00008240222032301270878491C2B2806D09C
:10B90000622807D02039C87F742807D008E01D437B
:10B910001443F1E7042005433C43EDE710200443C2
:10B920000098214604F00CFE411C13D00021316127
:10B9300071600121F5604902F1617061200704D551
:10B9400030460222002101F0D5FC306D38433065CD
:10B950003046FEBD0020FEBDF8B50D460646124C31
:10B96000206DC10704D0410804D044086400F7E703
:10B97000224610E05420FFF7A9FC070010D07908F8
:10B98000206D4900012211430843542120653846A7
:10B9900000F058F93A4629463046FFF793FFF8BDC4
:10B9A0000020F8BD02800000B438002010B5002946
:10B9B00002D0FF22013201E00122920201235B0248
:10B9C00001F012FD10BD0000FEB504464669006995
:10B9D0000F4F0190E56800200090A80707D020468F
:10B9E00001F058FD304604F041FD002801DA3846E8
:10B9F000FEBD280502D50198FFF799FC4C21204691
:10BA000000F020F9206D4008400020650098FEBD40
:10BA1000FFFFFFFF0EB5044615460E4612A002F0CA
:10BA20005FFC204602F05CFC15A002F059FC304699
:10BA300002F056FC14A002F053FC6C460020E072A9
:10BA40000A20A0720A3407E00A21284600F05AF9B9
:10BA500030310546641E2170002DF5DC204602F0D1
:10BA60003FFC01F0FDFD00002A2A2A206173736566
:10BA70007274696F6E206661696C65643A200000BB
:10BA80002C2066696C6520002C206C696E65200096
:10BA900030B5441C03E00178401C00290DD081071B
:10BAA000F9D10B4BDD0104C8D11A91432940FAD0DA
:10BAB000001B0A0603D0C01E30BD001B30BD0A04A7
:10BAC00001D0801E30BD0902FCD0401E30BD0000F8
:10BAD000010101010346F0B50B439B072DD1244D15
:10BAE000EF01042A29D308C810C95E1B9E43121F08
:10BAF0003E4017D0D8B2E1B2401A3106014310D10E
:10BB000098B2A1B2401A310401430AD118022102AD
:10BB1000000A090A401A3102014302D1180E210E0F
:10BB2000401AF0BDA342DCD018BA21BA884201D92C
:10BB30000120F0BD0020C043F0BD002A01D100204B
:10BB4000F0BD03780C78401C491C002B0DD0A3429B
:10BB50000BD1521E09D003780C78401C491C002BD5
:10BB600003D0A34201D1521EEBD1181BF0BD00003F
:10BB700001010101F8B5042A2CD3830712D00B78F8
:10BB8000491C0370401C521E83070BD00B78491CC4
:10BB90000370401C521E830704D00B78491C0370AD
:10BBA000401C521E8B079B0F05D0C91ADF002023B3
:10BBB000DE1B08C90AE0FFF749FBF8BD1D4608C9AE
:10BBC000FD401C46B4402C4310C0121F042AF5D27D
:10BBD000F308C91A521EF0D40B78491C0370401C9C
:10BBE000521EEAD40B78491C0370401C012AE4D48D
:10BBF00009780170F8BDD2B210B513029A18130477
:10BC00009A1800F00EF810BD01E004C0091F0429C5
:10BC1000FBD28B0701D50280801CC90700D00270BF
:10BC2000704700290BD0C30702D00270401C491E88
:10BC3000022904D3830702D50280801C891EE3E712
:10BC40000022EEE70022DFE782078B079A4237D116
:10BC500070B5920F0AD0032402780B78401C491C5F
:10BC6000002A2BD09A4229D12042F5D11D4EF40151
:10BC700004C808C9951B9543254010D19A4207D1A5
:10BC800004C808C9951B9543254008D19A42EFD0B6
:10BC900012BA1BBA01209A4200D2404270BD12BAB9
:10BCA0001BBA2DBA18241000E0401900E140401AD8
:10BCB00005D12E00E64002D1083CF4D1D01A70BD67
:10BCC00002780B78401C491C002A09D09A4207D1FF
:10BCD00002780B78401C491C002A01D09A42EFD010
:10BCE000D01A704701010101002203098B4273D36E
:10BCF000030A8B4258D3030B8B423CD3030C8B4279
:10BD000021D312E003460B437FD4002243088B4229
:10BD100074D303098B425FD3030A8B4244D3030BD2
:10BD20008B4228D3030C8B420DD3FF22090212BA97
:10BD3000030C8B4202D31212090265D0030B8B4213
:10BD400019D300E0090AC30B8B4201D3CB03C01AFD
:10BD50005241830B8B4201D38B03C01A5241430BD8
:10BD60008B4201D34B03C01A5241030B8B4201D3C8
:10BD70000B03C01A5241C30A8B4201D3CB02C01A33
:10BD80005241830A8B4201D38B02C01A5241430AAB
:10BD90008B4201D34B02C01A5241030A8B4201D39A
:10BDA0000B02C01A5241CDD2C3098B4201D3CB0141
:10BDB000C01A524183098B4201D38B01C01A5241F0
:10BDC00043098B4201D34B01C01A524103098B42F4
:10BDD00001D30B01C01A5241C3088B4201D3CB00DF
:10BDE000C01A524183088B4201D38B00C01A5241C2
:10BDF00043088B4201D34B00C01A5241411A00D272
:10BE000001465241104670475DE0CA0F00D04942DA
:10BE1000031000D34042534000229C4603098B424A
:10BE20002DD3030A8B4212D3FC22890112BA030AD2
:10BE30008B420CD3890192118B4208D38901921154
:10BE40008B4204D389013AD0921100E08909C309D9
:10BE50008B4201D3CB01C01A524183098B4201D3DB
:10BE60008B01C01A524143098B4201D34B01C01AC6
:10BE7000524103098B4201D30B01C01A5241C3083E
:10BE80008B4201D3CB00C01A524183088B4201D3AD
:10BE90008B00C01A5241D9D243088B4201D34B00C8
:10BEA000C01A5241411A00D20146634652415B100A
:10BEB000104601D34042002B00D5494270476346EB
:10BEC0005B1000D3404201B50020C046C04602BD11
:10BED00070B5064C7C44064D7D4403E02068001993
:10BEE0008047241DAC42F9D170BD0000108D0000C8
:10BEF000188D0000F8B517460E460546002B07D0F2
:10BF0000104658434419E41B2046B047A542FAD1D5
:10BF100028460838F8BD00000246C80FC007814314
:10BF20004B0030B54B405B009B0D20D01923DB0646
:10BF3000C91801231B05994220DB0324A40704250B
:10BF40001346AB400BD3002B04D1EB0613409B00F0
:10BF5000E34204D401246407002312195941FF234A
:10BF60001B0599420BD2C9000143500F09E0CB02D7
:10BF700004D501430803024305D0054830BDFF2125
:10BF8000C905084330BD084607210905884330BD6F
:10BF90000000C07FF0B5F94D0C091E092C402E4061
:10BFA0002F468BB0A7437DD0B543FCD0002E7AD06E
:10BFB000002CFCD00D465D40ED0F2543AC1BFF254A
:10BFC000AD0464190894C502440DC9022143500D03
:10BFD000DC0204430120C00701430443D202019163
:10BFE000200C110C00958C46010423468B430A91CA
:10BFF00061460904E24D8A430991010A7D444919C9
:10C000008039097805464D4301266D18F605751BE4
:10C010006943C90C640B891C4C436418B5012C1B83
:10C02000250C2E04B4434C434D43210C6918890957
:10C030000591009DE90701D00121C90704912C4613
:10C0400001996708CD072F434C08059DE10B4D432F
:10C050002D0C29466646754302950D4645432E46EE
:10C06000029D7D1BB44100950D465D4301942C0C4F
:10C070002F040D465543AE462D0C3D4302950394C7
:10C080007546049C2D04641B049406D2029C039DF7
:10C09000641C002675410395029401AC70CC009F8E
:10C0A0007D1B01E03EE162E1B44109040095079186
:10C0B00001940599A4086143090C0C464443650B9F
:10C0C000E7040C4666467443A646640B3C4303955E
:10C0D00002947446049DE4042C1B049406D2029C32
:10C0E000039D641C002675410395029401AC70CC3D
:10C0F000009F7D1BB44101940C465C430095650F85
:10C10000E7000C465443A646640F3C430395029453
:10C110007446049DE4002C1B049406D2029C039DEB
:10C12000641C002675410395029401AC70CC009FFD
:10C130007D1BB441AE09AF06049DC900AD092F4374
:10C14000049DA406AD060495079D34436918079124
:10C15000059DE10B4D432D0C29466646754302951E
:10C160000D4645432E46029D7D1BB44100950D466C
:10C170005D4301942C0C2F040D465543AE462D0C07
:10C180003D43029503947546049C2D04641B04945E
:10C1900006D2029C039D641C0026754103950294FF
:10C1A00001AC70CC009F7D1BB44101948C050694BA
:10C1B000079C890A611800950791019C0599A408BC
:10C1C0006143090C0D464543680BEF040D46644678
:10C1D00065436C0B3C43049FED047D1BAC4602D2CF
:10C1E0000025641C6841009E019D371B854108465F
:10C1F000584301950C46460FC5005443600F284331
:10C200006546E4002C1B02D20025401C6E41019DB6
:10C210003F1AB5412846BD09800628438446A00937
:10C22000BF064E020699A40676180743079D002014
:10C2300068410A99079019430020099B00906046C5
:10C24000FF1913434041E20F64003A43A4460446F9
:10C25000D71A8C41A04203D90120009020463A46CB
:10C26000C70F941840416246D20F224364466400CF
:10C270000494009CBE466400D71AA4460446029764
:10C280008C417746002F01D1A04204D96046401C62
:10C290008446029A2046C40FA64694184041049A48
:10C2A0000546D20F224364466400D31A8D4171467D
:10C2B000002901D1A84202D928461A46641C10431D
:10C2C0000122002800D0164361020020079B891933
:10C2D00004465C410223002C02DB491813466441EA
:10C2E000089DCE0A2D145D194B056705E10A2C0542
:10C2F0000D1908993E43C9076940002B08D09340A7
:10C3000006D30022761C5141002B01D1760876001D
:10C310001C4A002D43DB154241D0AA433FD0304692
:10C320000BB0F0BD06180D464D41174C7642AC419E
:10C330001AD395181C465C41134A6D42A24113D38F
:10C34000012252054C00D4420AD15C00D4420BD0E9
:10C350004B4002D592021143E2E749004908DFE76A
:10C360005940C90FC90718E000200849D8E7054817
:10C3700001420DD10342F7D0F2E700000000FF07B1
:10C38000C18400000000F07F0000E0FF0000F87FA3
:10C39000114859400143C01241400020C0E7012329
:10C3A000089A9B069A4205DC032252078918C90F96
:10C3B000C907B5E7052252078918074A1143D21267
:10C3C0005140ADE770B515461C4602460B4628465F
:10C3D0002146FFF7DFFD70BDFFFFFF7F1F22030C2B
:10C3E00002D10F22000402D0030E03D004E000208B
:10C3F000014670470002083A030F01D10001121FE5
:10C40000830F01D18000921E002801DB4000521EE4
:10C41000120551184205C012411810467047C10F4D
:10C42000C90700D04042012292071143D6E70121FB
:10C430008907D3E7F0B5FF252D04C609C209FF27F8
:10C4400004462E400137CB093E4348402A402B404A
:10C450000746002A6BD0002B69D0AA4267D0AB42B6
:10C4600065D0002800DA32460125ED0529432C432A
:10C4700009022002090AD21A4B0C7F24E31A434C0A
:10C48000000A7C44E35C7D242404121914145B002C
:10C49000A218884201D3521C00E0400049420C46D9
:10C4A0005C4324115C43DB016415E318040A5C431C
:10C4B000C502200D0C4644436419250A5D4323033D
:10C4C000EC0C0D46654300030019EB184C42A342E7
:10C4D00001D35B18401CD4052018002B07D05B004B
:10C4E000C91804D3401C002901D1400840003F2155
:10C4F00089048A4209D3002A08DC1106090F04D0F6
:10C50000032149074018C00FC007F0BD01224100B8
:10C51000120689187F2252069142F6D20521490758
:10C52000C84201D59010F0BDFF20C005F0BD002F1E
:10C5300000DA32461648AA4207D2AB4205D21902A7
:10C54000090E17D0F80FC007F0BDFF2563002D06B8
:10C55000AB42F9D84900A942F6D8AB4201D1A94271
:10C56000F2D0A94201D1002101E061004908D005C3
:10C570000843F0BD1102090EFBD0FF200243D00595
:10C58000F0BD0A460146104654E70000BB8000009B
:10C590000000C07F10B501469E240002CA15A30703
:10C5A000002A02D01843002A04DBA21A002A0CDD5C
:10C5B000D04010BD1206120E01D140004008A21A50
:10C5C00003D4D04040420028F3DDFF224800120689
:10C5D000904201D9002010BDC817C043584010BD7B
:10C5E0000102C21504D00123DB071943002A0ADB2C
:10C5F0009E239A1A02D40846D0407047FF22410079
:10C600001206914201D900207047C017C0437047FD
:10C6100010B50202C11504D00123DB071A4300291B
:10C6200014DBBE235B1A0CD41146D9401C46203CB7
:10C6300002D41046E04010BD2020C31A1046984096
:10C6400010BDFF2241001206914202D9002001468E
:10C6500010BDC017C043C11710BD1F22030C02D16B
:10C660000F2200041CD0030E01D10002083A030F70
:10C6700001D10001121F830F01D18000921E0028FA
:10C6800001DB4000521ED205511802125118192226
:10C69000904004D3491C002801D1490849000846AC
:10C6A0007047C10FC90700D04042012292071143D1
:10C6B000D3E701218907D0E700487047B03900204F
:10C6C000704770477047704738B504460A460020E7
:10C6D000694601F01BFE002805D00246204600995D
:10C6E00001F024F8012038BD10B5012001F0DAFD79
:10C6F00010BDF8B501F0FEFD054600200C461020E7
:10C70000C0460646A819A0420DD932466946002007
:10C7100001F0FCFD070001D101F0C4FD0098A0422A
:10C7200000D00546C419FFF7C7FFF61D0746056090
:10C73000F008C0004619284600F008F8B44204D0BA
:10C7400031463868A21B00F0F1FFF8BD00210160FE
:10C750004160806070471020704709684A0501D524
:10C7600040B27047C905FCD500B2704709684A0558
:10C7700001D5C0B27047C905FCD580B27047FFB57E
:10C7800004460D4681B0243000902168880604D507
:10C790001022E0699143216000E00120A84201DD00
:10C7A000471B00E000270498A1697A191018081A9D
:10C7B000A0612078C00602D42046FEF79FFE002626
:10C7C00008E003986268A168805D9047206A401C79
:10C7D000761C206204988642F3DB2078C0060AD5D6
:10C7E0002046FEF78BFE06E06268A1683020904785
:10C7F000206A401C206238467F1E0028F4DC07E0D7
:10C8000000986268A168405D9047206A401C2062E1
:10C8100028466D1E0028F3DC2046FEF785FE2078B2
:10C82000000602D5022005B0F0BD0120FBE711682B
:10C830000268006A530501D5087009E0D30501D5E7
:10C84000088005E0130602D5C21705C100E00860A4
:10C85000012070477047FFB50C461E468FB003CAD3
:10C86000089009914F007D0D00D16D1E00210846F2
:10C870000020C0460321099A89050840002A03DAEE
:10C880008200801840080840800D01280A9002DDCF
:10C890000020C0430A90089807430DD0F048F149A2
:10C8A000281848430714189800281DD07542291EDF
:10C8B0001DDD0A9842421BE01898012802D0002092
:10C8C000302104E00020F24305E02154401CB04236
:10C8D000FBDB30460022189B002121540F998B600E
:10C8E0000A60486013B0F0BDBD1B6D1CDFE70A9AFB
:10C8F000002900DA69420BA801F038F90BAB07CB2D
:10C9000003AB07C30899099801F09CF96B4607C36C
:10C910000146D5480918002D00910BDDD249039836
:10C920000A9A49424018002303A90390684601F07F
:10C93000F9FB08E003990A9A0023081803A9039059
:10C94000684601F099FB6B4607C30004000C03D056
:10C950000020C043410800E01046189A002A03D086
:10C960000022009215461EE0751E05D400F0F8FE68
:10C97000303262556D1EF9D501220843079602D068
:10C9800000227F1C04E02078302801D100227F1E85
:10C99000002A069787D01EE0112D07DA00F0E0FE8E
:10C9A000303262556D1C02460A43F5D1084303D06C
:10C9B0000098002819D00EE00021681E05E0235CD5
:10C9C000625C63542254401E491C8142F7DBA81B61
:10C9D000401E07950690079A18990020A0540F98BA
:10C9E000079B069A81600CC07CE7112600201890F6
:10C9F00059E7D21DF0B50D460446D10893B0C900E1
:10CA000003C90C900D9103F04FFC02460D98C00F26
:10CA100001D02D2007E02068810701D52B2002E0FE
:10CA20004007C00F4001032A0F9001D0072A05DB01
:10CA300003462946204601F03DF80EE120788006A5
:10CA400001D5E76900E006272846652D04D0662851
:10CA500014D0672D69D12DE00020112F009001DB4B
:10CA6000112300E07B1C0CAA03A910A8FFF7F3FE1A
:10CA70001199002610987D1C0E9142E001203B4642
:10CA80000CAAC0070B900120009003A910A8FFF783
:10CA9000E2FE119D12981099002600280E9501D1F2
:10CAA000781C0D18781B02D446427D1C761EE81BAC
:10CAB00000903AE0012F00DA01270020112F0090AA
:10CAC00001DD112300E03B460CAA03A910A8FFF7E3
:10CAD000C2FE11993D46109800260E912178090753
:10CAE0000BD40E99A94200DA0D4603A9012D04DDED
:10CAF0004A19203AD27F302A06D0B84201DA011D05
:10CB000004DA012100910FE06D1EEFE7002802DC3E
:10CB100086192D1A03E0411CA94200DD0D46801B39
:10CB2000401C00900120C0070B902078000705D41E
:10CB30000098A84202DB0020C04300906946002014
:10CB4000C8720B98012102AF0337C907884225D06C
:10CB5000022010902B2011900B9800280BDA4042F5
:10CB60000B902D20119006E00B9800F089FD3031DC
:10CB70007F1E0B9039701099481E00291090F3DC2D
:10CB80000B980028F0D111987F1E3870208800057E
:10CB900001D5452000E065207F1E387001A8C01B2C
:10CBA000C01D0B900F98002800D00120411900985B
:10CBB000C01709180B980818A169081A401EA0612F
:10CBC0002078C00602D42046FEF798FC0F98002873
:10CBD00005D06268A1689047206A401C20622078D6
:10CBE000C00625D52046FEF789FC21E0002E07DB94
:10CBF0000E98B04204DD03A86268805DA16802E07F
:10CC00006268A16830209047206A761C401C206230
:10CC10000098401E002800900AD100F083FDC068F3
:10CC200062680168405CA1689047206A401C2062ED
:10CC300028466D1E0028D9DC07E062683878A168B4
:10CC40007F1C9047206A401C20620B99481E0029D7
:10CC50000B90F2DC2046FEF767FC032042E6000062
:10CC600001FCFFFF104D0000E1DFFFFF01694A1CDE
:10CC700002610878704700B58FB0029100210591DC
:10CC80000549019379440391114604906846FEF7E3
:10CC900007FD0FB000BD0000E5FFFFFF0A68107040
:10CCA000521C0A6070470CC908399A4202D2531CC0
:10CCB0000B601070704710B54369002B02D0C0465E
:10CCC000C04601E0FEF741FC012010BD127801468C
:10CCD00024310A7000224A700122ECE71168002218
:10CCE000D243E8E7084B70B50D467B44FFF7C3FF1E
:10CCF0000446284600F0D8F8002802D00020C0439F
:10CD000070BD204670BD000085480000F7B50446A0
:10CD1000154686B02B487844002703C83E4600904D
:10CD2000019111E007986A467100415A02A801F08A
:10CD300087FA411C07D02178890603D5E2693918A2
:10CD400091420ED83F18761C2078800602D5E06903
:10CD5000B84206DDAE42E5DB07987100405A002874
:10CD6000E0D1A069C01BA0612046FEF7C7FB1548B3
:10CD700078445A3803C800900020019116E0410021
:10CD80006A460798415A02A801F05AFA0590401CD9
:10CD90000AD0002505E0626802A8A168405D9047BE
:10CDA0006D1C05988542F6D30498401CB04204904F
:10CDB000E5DB206AC01920622046FEF7B5FB09B00A
:10CDC000F0BD00006A780000F7B5D21D0025D2083A
:10CDD00015A6D200F52905CA11D0002A05DA0021CE
:10CDE0004042914111A60A4608E0009909688B0764
:10CDF00001D50FA602E0490701D50EA6012511466F
:10CE0000009F0024243704E000F0AAFC30323A5599
:10CE1000641C02460A43F7D12B463246214600984D
:10CE2000FFF7ADFCFEBD0000000000002D0000007B
:10CE30002B0000002000000070B5044600212434BF
:10CE400008E05507D2086D0F303565545D072A4359
:10CE5000DB08491C15461D43F3D10468002310A2CA
:10CE6000250708D5A40601D4002904D0C4690123EC
:10CE70000CA2641EC461FFF782FC70BD10B50446AD
:10CE800021461068FFF772FC002302462046FFF798
:10CE9000D3FF10BDD21DD108C9000CC9CCE70000DA
:10CEA0000000000030000000C0688021084070478A
:10CEB00070B50D4601461446D36850692A4603F002
:10CEC0004BFC002808DA411C08D0E1680122400030
:10CED000920311434008E160281A70BD204600F01B
:10CEE000A9FA0020C04370BDC168402211439201DD
:10CEF000914300220260C1604905890F01D0826020
:10CF0000704702694168891AC269891A816070474D
:10CF1000FEB504460121C0688905774B0843E060EF
:10CF2000010310D599108843E060810606D4E26AB7
:10CF300061688A4200D80A46511A21601843E060AD
:10CF400020346079FEBD9843E060800602D520461B
:10CF500000F0C6FA6949E0680140012903D0204683
:10CF600000F068FABFE02168002600290BDAC94307
:10CF700021600121A66009030843E0606068411C4C
:10CF800061600078FEBD5E4908420DD00521266033
:10CF90000903884340210843E06021696068401A22
:10CFA000E169401AA0609EE02169002915D1C00303
:10CFB00013D4E069FEF78AF90028206118D0E068F0
:10CFC0000121C9020843E0608105890F03D1FF21D7
:10CFD00001310843E0602069606060690090E068AA
:10CFE000C1061BD5C0030FD5204600F053FA15E04B
:10CFF00020460321243020610120E061E06809021D
:10D00000884301218902E4E721696068401AA16927
:10D010004118009803F0DAFB0028A0DBE068C003A9
:10D020002AD56168E06A884200D808462169451A15
:10D03000E069471B1BD0A0690190204600F02AFA46
:10D0400001984119A061009803F0C0FB002886DB1D
:10D05000E068012149040843E060000202D5A069AC
:10D060004019A061E1692069C91B45180DE02046FF
:10D0700000F010FAE769F5E725696168A069E769DA
:10D08000491BE56240186560A061E0681021884393
:10D09000E0604005800F02D0204601F0B5F8E0685E
:10D0A0000121A66009030843E060000205D520695C
:10D0B000E06260600120C043FEBD2246394628463A
:10D0C000FFF7F6FE411C0ED029180028E1620DD0B2
:10D0D000401E2060681C6060E0680121490408432C
:10D0E000E0602878FEBD0020C043FEBD656020469C
:10D0F000FFF7FAFEF7E700000000200081200000A3
:10D1000040400000F8B505460C46C8680521C90432
:10D110008843012189050843E060800602D5204646
:10D1200000F0DEF97149E0680140022903D0204691
:10D1300000F080F9BCE00521012249030140D2033F
:10D1400091420FD1C00306D56168E06A884200D8D9
:10D150000846606006E02069E0626060606903F094
:10D16000A9F9A061A1680022EEB200290EDAE068F8
:10D1700083050BD4C943A1600921226049030843F8
:10D18000E0606068411C61600670ACE0E06801210D
:10D1900049030843E060002020602069002831D165
:10D1A000606903F0ADF9012527462437ED02002818
:10D1B00016D0A0898005800F08D0E069FEF786F8B8
:10D1C0000028206102D0E068284318E00120276190
:10D1D000E061E068032109028843012189020DE032
:10D1E000E069FEF773F800282061EFD0E06828437B
:10D1F000E0608105890F03D1FF2101310843E06020
:10D2000020696060E2683A4F2569D0051FD56168E2
:10D21000E06A884200D80846411B05D022462846CD
:10D2200000F012F9002843D1E068010204D5E5625C
:10D2300000206560A06053E0691CE1626160E16903
:10D24000491E3843A160E06030462E70F8BD1002E0
:10D2500001D53A4009E06068411C61600670E068F1
:10D2600038430A2EE06006D00022E16A60688142FD
:10D2700003D90B4602E00122F7E70346A7895B1BAF
:10D280007F0504D4E7699F4201DD002A1ED0814258
:10D2900000D801460F1A0020E5626560002BA060EF
:10D2A00009DD22461946284600F0CEF8002802D0B3
:10D2B0000020C043F8BD002F08D0A069E56265607A
:10D2C000C01BA061E06810210843E060E068000234
:10D2D00009D56168A069E562491B40186560A061D5
:10D2E0000120C043F8BD3046F8BD000082100000A8
:10D2F00000000100F8B5044616460D464769007B5C
:10D30000800730D0384603F0FBF800282BD1324696
:10D310001026002A25D0012A02D0022A23D104E0B7
:10D32000204600F04FFF45191BE0384603F0C2F8D5
:10D33000E16831430028E16004DA204600F07AF821
:10D340000120F8BDC9030BD56268E16A914200D89B
:10D350001146A26989182269891A814200DD0846AE
:10D360002D18002D01DA0220F8BDE16A6068E2683C
:10D37000814206D29103E06203D5012149048A4328
:10D380003243A669AE4211DCE16A814201D90B4603
:10D3900000E003469F192369FF1AAF4206DD814270
:10D3A00001D90F4600E007469F4206D120200243E4
:10D3B0000020A060A56220600DE0AD1BE669AE1BF9
:10D3C0008142A66000D90846C01A281A2060581960
:10D3D000606020208243034802400020E260403425
:10D3E0002072F8BDBFCFD7FF70B5C468A50713D0B2
:10D3F000650211D4D51FF93D0AD0FF3D6D1E07D03F
:10D40000FF3DFF3D022D07D101462431012305E0F8
:10D41000074E5D1EB54201D3012070BD0161C3619D
:10D4200041600F2109028C431443C460002070BD89
:10D43000FFFFFF00C1688022114392039143C16046
:10D440000021816001607047F7B514460E463348ED
:10D45000D5685769054209D03846A16903F0B6F985
:10D46000002811DB2D48C0430540E5602B463246BD
:10D470003846009903F0D0F94200A1695208B21A67
:10D4800089180028A16104D02046FFF7D3FF0020AF
:10D49000C043FEBD70B504460569C06A6168884234
:10D4A00000D80846E1680522D2049143E160C9032F
:10D4B00014D5A84209D02246411B2846FFF7C4FFD5
:10D4C000002802D00020C04370BDE56200206560E6
:10D4D000A060E068012109048843E060002070BD7D
:10D4E00010B50446C06820218843E060A16AA069A5
:10D4F00088420ED02046FFF7CDFFE06803210903E4
:10D50000884310210843E060A06AA0612069E062BE
:10D5100060600349E0680840E06010BD1000020050
:10D52000BFBFFFFF10B543485421FEF78BFB4248B5
:10D530005421FEF787FB41485421FEF783FB404806
:10D540003C493D4B404A01603E4803603B48106007
:10D550005A1C0A65411C1965012101653C48354A80
:10D560003AA17844FEF7AEF9002804D1384878444F
:10D570000C3800F091FE38482F4A36A17844FEF767
:10D58000A1F9002804D1344878440C3800F084FE16
:10D5900032482A4A2FA17844FEF794F9002804D192
:10D5A0002E4878440C3800F077FE40232148DC00F8
:10D5B00000212246FFF718FF002804D024487844B1
:10D5C0005C3800F069FE1C48224640230021FFF72A
:10D5D0000BFF002804D0204878445C3800F05CFE43
:10D5E0001648224610230021FFF7FEFE002804D033
:10D5F0001A4878445C3800F04FFE10BD0F4870B5F3
:10D60000006D44080B486400FEF7DEF90A48FEF797
:10D61000DBF90A48FEF7D8F909E0206D45082046F5
:10D620006D00FEF7D1F92046FDF781FE2C46002C57
:10D63000F3D170BDB4380020083900205C390020D7
:10D64000F8300020FC300020003100207200000083
:10D65000C26D000077000000AF6D00009D6D0000FE
:10D6600010B5002000F012FEC046C046012000F0B8
:10D6700053F810BD10B500F01BFE00F001FE10BD08
:10D6800001468008081A02091018020A1018020C34
:10D690001018C008820012185200891A01E0401CBC
:10D6A0000A390A29FBD2704710B5FF231B06440034
:10D6B0009C421DD84C009C421AD80346124A0B4388
:10D6C00007D4401A02D3EFF3008010BDEFF30080BF
:10D6D00010BD081A06D2EFF3008001219043C9075C
:10D6E000084302E0EFF30080904380F3008810BD10
:10D6F0000D231B041A4204D01146002000F022FE24
:10D7000010BD00F037FE10BD0000009008B569465E
:10D7100008700320ABBE08BD01491820ABBEFEE770
:10D720002600020000487047B439002010B50346B7
:10D73000406801E003464068002801D08842F9D3E0
:10D740001868C3188B4206D0CB1CD808C000001D37
:10D75000411A521A0146081D0A60FDF7E8FD10BD86
:10D760000B4670B5024689078008084319469D0894
:10D77000141AA94125090807054308092C1948412D
:10D78000250A01060D43010A2C194141200C0D0404
:10D7900028430D0C00194D41002140194D41C0088E
:10D7A00069070843E908840F8D0025438400241885
:10D7B0004D4124196D41121BAB4107E00925ED4392
:10D7C0002C11521963410024401C61411C460A255A
:10D7D0000026551BB441F1D270BD0000D21DF0B53A
:10D7E00004460D46D0088DB0C00046680768314633
:10D7F000384602F059FD0246F00F01D02D2307E014
:10D800002068810701D52B2302E04007C00F4301A8
:10D810006846002B037001D0012000E00020032A9D
:10D820000A9001D0072A04DB2946204600F042F97D
:10D830002DE12078800601D40D2500E0E569700017
:10D84000400D0D2D01904BDA300D00210B90084654
:10D850000020C046032189050840002E05DA820019
:10D860008018C20F1018401008408015012801DDF3
:10D870000020C043A9000023182906D39C460A466D
:10D880000123183A1B07D34003E001221205CA40C6
:10D8900094460C31202902D33A46203900E0324622
:10D8A0008A40002802DD002A06D119E0002817D19D
:10D8B0000121C9078A4213D3194663467F185E4186
:10D8C000002806D10120C007824202D108468743C2
:10D8D0009E430B98310D814202D00198401C01906B
:10D8E0002088000502D57149794402E06F497944E6
:10D8F00019396B460A9830221A540A980A7C401C3F
:10D900001A54401C0A900198002801DC302000E0E5
:10D9100031201872019A0120002A02D0644BD218DB
:10D9200004E072003A4302D0614A521C0192002D79
:10D9300002DC2278120703D56A462E20507202209C
:10D940000022864694460CE032033601120F6D1E0B
:10D950008B5C02AA13546246521C401C9446052A52
:10D9600001DA002DF0DC002202AE08E03B0F3F019F
:10D97000CB5C521C6D1E3354401C082A01DA002D6A
:10D98000F4DC23689A0601D511E0401E704504DDE1
:10D990003218203AD27F302AF7D0002807DD32181B
:10D9A000203AD27F2E2A02D11A0700D4401E002D21
:10D9B00003DD3E223254401C6D1E497C31540199D6
:10D9C000401C002906DA2D21471C315401984042A1
:10D9D000019003E02B21471C315401987D21C9009F
:10D9E000884206DBFEF78EF93030F0557F1C01913E
:10D9F00001E0642808DB01986421FEF783F93030E8
:10DA0000F0557F1C019101E00A2806DB01980A21EC
:10DA1000FEF778F93030F0557F1C01980A21FEF7A7
:10DA200071F93031F1550A98A1697F1C7A191018E3
:10DA3000081AA0612078C00602D42046FDF75EFDDA
:10DA4000216A6E460A980818206204E062683078FD
:10DA5000A168761C90470A98401E0A90401CF5D198
:10DA60002078C00602D52046FDF748FD02AE09E049
:10DA70003078761C3E280DD06268A1689047206AF5
:10DA8000401C20627F1EF3D22046FDF74DFD0DB0F5
:10DA90000320F0BD206A4019206203E06268A1689B
:10DAA000302090476D1EEDD3F8E70000B36C000006
:10DAB00001FCFFFFF8B51F46044601230068DB02A6
:10DAC000032601461840072A05DB002801D017A5C8
:10DAD00006E017A504E0002801D016A500E016A571
:10DAE000102081432160A069C01E002FA06101D0D9
:10DAF000401EA0612046FDF701FD002F09D03846E9
:10DB00006268A1689047206A401C2062C01C2062A5
:10DB100006E0206AFAE762682878A1686D1C9047E1
:10DB2000761EF8D22046FDF7FFFCF8BD4E414E00B0
:10DB30006E616E00494E4600696E660010B543691D
:10DB4000002B02D0C046C04601E0FFF7DFF80120FD
:10DB500010BD12880146243182840022C284012231
:10DB6000ECE711680022D243E8E70000F7B516465B
:10DB70008AB0334878446C4603467C33C06F5A6899
:10DB80009B680DC42E487844763003AC0DC80DC494
:10DB90003720C001081837211B30FEF7B3F80546BF
:10DBA0000C46803D1B3C02D56442012000E0002071
:10DBB0000027099010E0E0070CD00C2020497843A2
:10DBC000794432464C3941186846012300F054FA32
:10DBD0006B4607C364107F1C002CECD1184F7F44A8
:10DBE0002E3F16E0E80712D02001C0190EC806919A
:10DBF000089307920068F04201D1981908903246C4
:10DC0000012306A903A800F037FA03AB07C36D1080
:10DC1000641C002DE6D10998002806D032466946DA
:10DC2000012303A800F07EFA05E00123324669468D
:10DC300003A800F021FA0A9B07C30DB0F0BD000055
:10DC40003C6A0000034640000A4610B5400D0BD068
:10DC50000121C9070F24A40200191C0364082143F1
:10DC6000540D2143D20207E000210120F2E7D40F36
:10DC7000490021435200401E0029F8DADB0FDB0780
:10DC8000184310BDFFB50D46144685B0486851686D
:10DC900002F0F2FA00910190A868A16802F0ECFA93
:10DCA00002910390A868616802F0E6FA029A1218DD
:10DCB0008242029201D2012000E00020019A0B185A
:10DCC000D2180028019202D08A4202D903E08A4287
:10DCD00001D2012000E00020009908180090686837
:10DCE000A16802F0C9FA029A12188242029201D285
:10DCF000012000E00020019A0B18D21800280192A0
:10DD000002D08A4202D903E08A4201D2012000E017
:10DD100000200099081800902868216840004900F8
:10DD2000400849084018FA49471814E00199400092
:10DD3000C90F08430090019802994000C90F084399
:10DD40000190029803994000C90F0843029003987C
:10DD500040007F1E039000980028E7DA089800280A
:10DD600001D0EC4E00E00026B74201DA012000E0CD
:10DD70000020002804902AD0F71BF806C00E15D00A
:10DD8000029B2021091A039A8B401A430392029A9C
:10DD9000019BC2408B401A430292019A009BC240F1
:10DDA0008B4000991A430192C14000917B110DD024
:10DDB0006F460320C11A03D500218200B95003E049
:10DDC0008A008100BA587A50401EF3D5374603982E
:10DDD0000299002800D001200143089802910028F0
:10DDE00008460CD0002800D001200199019A49056D
:10DDF00008430121D20AC902D202019200E00121A6
:10DE00000E9B0122D207012B02D0002B03D013E07E
:10DE1000002807D120E0904204D890420CD1019B09
:10DE20000B4209D0019B5918019105D10099491C59
:10DE3000009101D17F1C009200280DD010210846CE
:10DE40000020C0460498002806D00F98002803D070
:10DE5000082108460020C04628682168019B009AD6
:10DE60004840C10F0598C90739430EC009B0F0BD3D
:10DE7000FFB587B0099A0898089953689268406876
:10DE8000896896460022039317469446089A1268BA
:10DE90005300099A5B081268520052089A1A9E4B66
:10DEA000D4180A9A002A01D0352200E040220692B6
:10DEB0000022012315460492DB07059324E0002D80
:10DEC00005D175460346039E4D1BB34109D37546E4
:10DED0006646039B491B049D9841059B7519AC46FA
:10DEE0005F4163463B4308D0059B049EDD077608EF
:10DEF0002E435B080496059301E0521E641EC50F75
:10DF0000ED0749184041521C069B9A42D7DB002D71
:10DF100004D17546039A6B1A824101D203200CE0AA
:10DF2000039A0B466B404240134303D0014303D096
:10DF3000012002E0022000E0002061460191002162
:10DF4000009702910A99002905D0614640020143D9
:10DF5000704B019102E08007002302909C4201DA9D
:10DF6000012000E0002007003AD01A1BD006C00EA6
:10DF700015D0029D2021019C091AC5408C402543E3
:10DF8000029C8C4000D001242543019C0295009DF9
:10DF9000C4408D4000992C430194C140009154111C
:10DFA0001DD06D460221002202290CD10320001B46
:10DFB00007E0002804DB8600AE59002E00D00122C5
:10DFC000401C0328F5DB081B02D588002A5004E01A
:10DFD0008000285810438A00A850491EE3D51C46EB
:10DFE0000A98002802980CD0002800D0012001993E
:10DFF000019A490508430121D20AC902D2020192BD
:10E0000000E00121109B0122D207012B02D0002B3E
:10E0100003D013E0002807D11FE0904204D89042BB
:10E020000CD1019B0B4209D0019B5918019105D1DC
:10E030000099491C009101D1641C009200280CD069
:10E04000102108460020C046002F06D01198002855
:10E0500003D0082108460020C04608980999019A73
:10E06000009B006809684840C10F0798C907214311
:10E0700082600AC00BB0F0BD00B585B0019300927C
:10E080000A460146002302A8FFF7FCFD02A807C8C4
:10E0900005B000BDFFB50A461F4685B0079901933C
:10E0A00001230091014602A8FFF7ECFD02990398B5
:10E0B000049ECA0F4900D20700920F22490892021B
:10E0C0008C1A0021002800DB0C46450013486D081F
:10E0D000844214D3079A002A04DA441E0026104D05
:10E0E000F64302E004460D460E4610210846002085
:10E0F000C046002F03D0042108460020C04620055A
:10E10000E90A0843009908436905F20A1143ADE69C
:10E1100002C0FFFF013C0000FF3F0000FF070000BE
:10E12000FFFFFF7F00B585B0019300920A460146CC
:10E13000002302A8FFF79CFE02A807C8A8E7FFB5C6
:10E140000A461F4685B007990193012300910146B5
:10E1500002A8FFF78DFE02990398049ECA0F49009A
:10E16000D20700920F22490892028C1A002100283F
:10E1700000DB0C46450011486D08844214D3079A11
:10E18000002A04DA441E00260D4DF64302E0044640
:10E190000D460E46102108460020C046002F03D031
:10E1A000042108460020C0462005E90A08430099DA
:10E1B00008436905F20A114358E60000FF07000012
:10E1C000FFFFFF7F10B50146C268900703D090069D
:10E1D00007D5886A0AE0FDF775F801210160881EFD
:10E1E00010BD8B694868C0180B69C01A40310B7AA2
:10E1F000002B02D0497A401A10BD1103FCD500282B
:10E20000FADD401E10BD000070B505460A4C0B4EED
:10E210000EE0206DC00708D0AC4206D03146E06861
:10E22000814302D12046FDF7FFFA206D44086400C7
:10E23000002CEED170BD0000B438002002020000B6
:10E2400070B516460C46054600F09EF80368FF20A0
:10E250000230C05C012807D0FF2C0ED8185D0028C2
:10E260000BD001202C7070BDFF333246214608339D
:10E270001868C3182846984770BD0020C04370BD79
:10E2800010B5002801D0FFF747FA10BD10B500F017
:10E290009DF8FFF7F5FF10BD10B500F0AFF8FFF7E0
:10E2A000EFFF10BD10B500F0C3F8FFF7E9FF10BD98
:10E2B00010B5002102A000F06FF8012010BD000091
:10E2C0005349475056464E3A20507572652076693C
:10E2D000727475616C20666E2063616C6C6564009D
:10E2E00010B50349FDF7D4FA0148FDF7B8FA10BD9F
:10E2F0005C39002001226946114B120382188A42C0
:10E300001A6001D8114670471960704770B50C4CFF
:10E310006D46012636032368AD1B9A18AA420ED813
:10E32000AD1A9019EE0F75196D10AA18904200D908
:10E330001046C01D0B60C208D200D01A226070BD0A
:10E3400004310020C80212D54803400F002804D031
:10E35000C803C043012188407047EFF300800001EB
:10E36000000903210907084380F300887047002053
:10E370007047000010B5024800F082F810BD0000A0
:10E380000000C07F7047000010B5FFF7CBF9001DFB
:10E3900010BD00BF255B000070B505460C460A2085
:10E3A00000E06D1CFFF7B2F9002D06D02878002898
:10E3B000F7D102E0641CFFF7A9F9002C02D0207805
:10E3C0000028F7D10A20FFF7A1F970BD10B5002190
:10E3D00002A0FFF7E1FF012010BD000053494741B3
:10E3E0004252543A2041626E6F726D616C207465C6
:10E3F000726D696E6174696F6E00000010B5014640
:10E4000002A0FFF7C9FF012010BD00005349475289
:10E41000545245443A2052656469726563743A20E7
:10E4200063616E2774206F70656E3A2000000000F3
:10E4300010B5012805D0002103A0FFF7ADFF012092
:10E4400010BD09A1F8E7000053494752544D454D0E
:10E450003A204F7574206F662068656170206D6585
:10E460006D6F7279000000003A2048656170206D80
:10E47000656D6F727920636F727275707465640078
:10E4800010B50C461107090F092904D00A290AD032
:10E4900008290CD104E011460820FFF753FF06E0DD
:10E4A000510606D501E0510601D50120C0072146DD
:10E4B00010BDD10607D501010909CC084907000E96
:10E4C0000006044309E0410F20024907000A014306
:10E4D000200E00061D22D14101430846E7E730B572
:10E4E0008C180278401C13071B0F01D10378401CC5
:10E4F000120906D10278401C03E00578401C0D701B
:10E50000491C5B1EF9D101E00B70491C521EFBD166
:10E51000A142E6D3002030BD10B503F013FD03F097
:10E5200023FB10BD0021016041608160C160704724
:10E53000F0B52248224D0246C3680024214F012134
:10E54000126883B0002B1BD02C603C60BD68447CFB
:10E550006600641C9D53E4B24474057CAC4220D236
:10E56000836800225B68002B18D001228360186842
:10E5700078603960002A01D01348016003B0F0BD13
:10E580002C60124D0123AB603C606C462170BB686F
:10E59000A38081746846904703B0F0BD43688360F0
:10E5A000E5E70A4CA16000266C46267001932581A0
:10E5B00081746846904703B0F0BD00009835002094
:10E5C0000071004000750040007000400073004082
:10E5D000F0B50024FF2183B001314A4E4A4D01239A
:10E5E000204600944A191768012F05D177681F4209
:10E5F00002D000271C431760091D5B00401C89B234
:10E600000428EFD341480168012906D100210160A7
:10E61000400704433E48006900903E4E200712D058
:10E620000127002527420AD03B48AA001118086993
:10E630000969C004C00E8903B258890F90477F0052
:10E640006D1C042DEED3002C59DA0020451E0290DB
:10E650000020044601902F4B1A194032117C880685
:10E66000800E4EB2761C3AD0012282402A4236D029
:10E670001F183026BE578909B6009E59002E02D0B9
:10E68000032902D004E0032929D1029B13430293FA
:10E69000224B8700FB189C461B68009F9B039B0F27
:10E6A0003A4202D0022B02D019E0032B17D10329E2
:10E6B00012D1022B21D002239E4662461368032703
:10E6C0003F04BB431360176873461B041F43176066
:10E6D000019A521CD2B20192002E00D0B047641CA5
:10E6E000082CB8D30198002809D00948006900997E
:10E6F000884204D00090029DAAE70323DCE703B020
:10E70000F0BD000000630040006000407C610040FC
:10E7100000050050AC3500200065004000070050A7
:10E72000024A80008018016470470000F82E002023
:10E7300010B50C4C6068002813D10B4841680029C3
:10E7400005D00021416009484168491C41602068AA
:10E75000002801D005F00AFBA068002801D003F0D2
:10E76000EFF910BD4011014000110140843000203C
:10E7700030B43148314B018C0122C9B2012917D183
:10E78000848C240714D1048D2406250F03D1858D94
:10E790002D062D0F0FD0240F012C03D1858D2D06B2
:10E7A0002D0F08D0032C03D1848D2406240F02D012
:10E7B000012907D012E0224C5C600124214DE403C2
:10E7C000AC6102E0848C240708D1048D2406240F58
:10E7D000042C03D1848D2406240F02D0012903D0F8
:10E7E0001FE019498A6002E0818C090719D1018D67
:10E7F0000906090F0A2903D1848D2406240F05D0A8
:10E800000D290ED1808D0006000F0AD10F48016836
:10E81000012904D00E49016001680129FCD1C02101
:10E8200041619A610B480021416081058A6041681D
:10E830000029FCD030BC7047C00F00F0000500403C
:10E84000DFFF07C0006C00400006004000EC0640FF
:10E850007593000000010040F8B50E4D032004261A
:10E86000002400022F18A00001210904A140FF305C
:10E8700041302A58002A08D07A680A4205D000217F
:10E880002950054A516812689047641CE4B2B442AA
:10E89000E9D3F8BD0090004008360020F8B50F4DD0
:10E8A00003200427002400020D4E28180090A00029
:10E8B00001210904A140FF3041302A58002A08D024
:10E8C000009A52680A4204D00021295032687168C7
:10E8D0009047641CE4B2BC42E9D3F8BD00A00040FC
:10E8E00014360020F8B54D4840684D4C4007274687
:10E8F000264640372036002500283CDA4948816802
:10E90000002938D0317900292FD0856046488069A8
:10E91000A26A216BC0B25054337E0022FF2B0AD072
:10E92000834208D10123206D5B0318432065E06C0E
:10E93000800400D50122491C2163E06A814205D38D
:10E94000FF21206D01310843206501E0002A12D02B
:10E95000387D800702D43149042088603571606BAE
:10E96000002808D06563804705E0A268002A02D02D
:10E97000002160689047294B5868000628D529492E
:10E98000C869002824D0707E00281BD0226C606CDF
:10E99000904207D2CD61E16B234A095CD161401CF2
:10E9A000606415E0387DC00701D1802098607576DD
:10E9B000206D042108432065A06C002808D0A564C0
:10E9C000804705E0A268002A02D0012160689047D4
:10E9D0001448416A002920D045621448016801604A
:10E9E000626BC8B2002A18D0216D02231943216539
:10E9F000830703D50123DB0219432165410704D5B1
:10EA00000123216D9B0219432165C00704D0012118
:10EA1000206D4902084320659047F8BD002300405F
:10EA20009036002000210040002500408024004056
:10EA300070B504460D4600BF00202056401C00283B
:10EA400004D120220BA11BA003F094F900BF002DDC
:10EA500007D000202056012181401C4A916000BF50
:10EA600007E00020205601218140184AD16000BFF4
:10EA700000BF70BD6D6265642F5441524745545FBD
:10EA80004E524635315F444B2F5441524745545FF7
:10EA90004E4F524449432F5441524745545F4E52C2
:10EAA00046352F6770696F5F6F626A6563742E68A1
:10EAB000000000006F626A2D3E70696E20213D20CB
:10EAC0002850696E4E616D65294E43000005005067
:10EAD00070B50146002000231F240A4605E0167881
:10EAE000521C3518E8B25D1CEBB2E51AF7D170BDC7
:10EAF00002210B4A516000BF0A4909680029FBD076
:10EB00000749886000BF074909680029FBD0002138
:10EB1000034A516000BF034909680029FBD07047D0
:10EB200000E5014000E4014000BF0D4A1278002AD0
:10EB3000FBD101220B4B5A6000BF0B4A1268002A1E
:10EB4000FBD0016000BF084A1268002AFBD00022F7
:10EB5000044B5A6000BF044A1268002AFBD0704779
:10EB60009530002000E5014000E4014000200C4900
:10EB7000086001208107086000BF0948006800287C
:10EB8000FBD0022007498861002005494860012028
:10EB90008107886000BF024840680028FBD07047AA
:10EBA000000100400005004010B509480068401C05
:10EBB00007490860032106480068FDF795F8002919
:10EBC00002D101200349087001200349087010BDDB
:10EBD000C02F0020BD2F0020BB2F002001200149A5
:10EBE00008707047BC2F00200021074A11610121E5
:10EBF000064A116100BF044909690029FBD00121BF
:10EC0000034A1170704700000011004000100040DE
:10EC10008E3000200021014A117070478D30002095
:10EC200010B504462046FFF7DFFF0021204600F024
:10EC300009F900BF0C48C0680028FBD000200A4931
:10EC4000C86001200949087009488278094881682C
:10EC500009A0FCF72FFC2046FFF7C6FF0121204644
:10EC600000F0F0F810BD0000001100408C300020D2
:10EC7000E83600200015004043683D25642C2048FC
:10EC80006F703D25640A0D0030B504460025094823
:10EC90000068012804D108488588012007490870C8
:10ECA0002046FFF7A1FF0121204600F0CBF82846BF
:10ECB00030BD000000140040F43600208D300020EC
:10ECC00070B505460C46094821460EC90EC0FFF72F
:10ECD0004DFF06480EC8284600F078F8044805F0B5
:10ECE000ADF80121284600F0ADF870BDE8360020EF
:10ECF0006F12033BF8B505460E46684601F0AEFAC2
:10ED00001E4881681EA0FCF7D5FB00271E20204965
:10ED10000860202231461F48FCF72CFF1D48018A5D
:10ED20000183008A401C81B21A48418304220146B3
:10ED30001831684601F04CFA014616488183FFF706
:10ED4000C7FE1449C8770D488778807803280FD00C
:10ED500000240AE009498C7008460EC8284600F0D5
:10ED600035F82846FFF75CFF641C032CF2DB02E059
:10ED70002846FFF755FF01488770F8BDE8360020A8
:10ED800073656E645266204368203D25640A0D0059
:10ED9000903000201437002010B504460848007851
:10EDA000002809D00748C068002805D00020054980
:10EDB000C8602046FFF768FF0348007810BD0000D8
:10EDC0008E300020001100408D3000201FB5044619
:10EDD0006846007A1749C86068464079002802D022
:10EDE000492088601CE068468079032807D14621C5
:10EDF0000398FCF779FF491C0E48816010E0172149
:10EE00000398FCF771FF6846807917225043081871
:10EE1000401C084988606846817907A0FCF74AFBD6
:10EE20006846C07903490861039988B204F0A6FADC
:10EE30001FBD000000150040486F703D25640A0D9D
:10EE40000000000001290ED10122134B1A70134A51
:10EE5000134B5A600022134B1A600122124B5A6066
:10EE600000221A600CE000220B4B1A700F4A0C4B68
:10EE70005A6000220B4B1A600B4B5A6001221A6039
:10EE800000BF084A1268002AFBD00022054BDA6056
:10EE90000122054B9A6070478E300020F436002026
:10EEA0000015004000110040001000401437002001
:10EEB00070B5044600200D4908700D4908700D4DCD
:10EEC0000D4E00BF05E0002131702970761C6D1CCD
:10EED000401C2028F7D3012008490870084820600A
:10EEE00008A0FCF7E7FA204670BD00008D30002036
:10EEF0008C300020F4360020143700208E300020A3
:10EF0000AAAAAAAA4E65772052660A0D0000000040
:10EF100070B504460D46002020702946204602F0B8
:10EF2000F1FC204670BD70B504460D4600BF294671
:10EF30002046FFF77DFD00BF204670BD70B504463A
:10EF400000680122036900212046984705000DD47E
:10EF5000206802220369002120469847064620685F
:10EF600000220369294620469847304670BD00209C
:10EF7000704710B54C3004F001FC10BD10B50C46C4
:10EF80004C3004F007FD204610BD0901081880210F
:10EF90000958002902D0096874300847704770B5D5
:10EFA00005464C3004F0BAFC3F2104460902AB6C24
:10EFB00008400026002B08D0002806D001262A464B
:10EFC0003C3201461B6810469847FC202146AA6B3C
:10EFD0000140002A06D0002904D0284612682C30AF
:10EFE000904701E0002E01D004F02AFD70BD70B5FD
:10EFF000044600680D460168204688472046294699
:10F000004C3004F099FB942005512068416820465B
:10F01000884770BD7047704770B504460068016846
:10F020002046884720464C3004F0CAFC054620683C
:10F03000416820468847284670BD0000FFB585B06E
:10F040003849394A01601D46D468936800228360BC
:10F05000C460364B0361364B4361C2618061024636
:10F0600008320262334A4262BFF36F8FBFF34F8FA1
:10F070000146002620310E724E72C6620663466358
:10F080008663C663066446648664C6640665466530
:10F090008665C665066646668666C6660667022398
:10F0A00010222549743001F017F90446743C0C30E5
:10F0B0000490456100252801061900206F4674362A
:10F0C0000090019002900390BE420ED0F06800289C
:10F0D00002D081683046884703983946002802D01C
:10F0E0004268304690470398F060039968460029CB
:10F0F00001D0896888476D1C022DDCD320464C3036
:10F100000546079A069904F04DFB04984169284684
:10F1100004F012FB22460949284604F0F9FB204678
:10F1200009B0F0BD9C4602003844020001A00FC89F
:10F1300018470000973F020025E501008BEF010012
:10F14000F0B504468BB046482060002620464C307F
:10F150000990002104A8059104910691079100905F
:10F160002068F7B201682046884702F061F90798E5
:10F17000002820D039010D1980204059002801D1E4
:10F1800004F02EFC0098743585420ED0E9682846BC
:10F19000002901D08968884707980099002802D083
:10F1A0004268284690470798E86001223946099846
:10F1B00004F0BEFB2BE039010D19802040590028D6
:10F1C00001D004F03DFC00216846743503910091A4
:10F1D00001910291089085420ED0E96828460029E5
:10F1E00001D08968884703980899002802D04268AE
:10F1F000284690470398E86003996846002901D0A3
:10F200008968884700223946099804F091FB02F08A
:10F2100051F92068416820468847079804AA0028C9
:10F2200002D0816810468847761C022E91DB20466A
:10F23000022310220B497430FCF75CFEA06C3C34B6
:10F24000002802D0816820468847103CE0680028EA
:10F2500002D081682046884720462C380BB0F0BD8C
:10F260009C460200833F020038B500900146846945
:10F270000831204604F020FC38BD01688968084741
:10F2800010B5014682690831104604F0B3FC10BD88
:10F2900010B50446074820600020A060E0602061AF
:10F2A000606102F061FA0449A06104F0BFFC2046ED
:10F2B00010BD0000B44602007BF2010010B5044608
:10F2C0000448206021460831A06904F093FC2046E0
:10F2D00010BD0000B446020030B583B004463A22A7
:10F2E0006846027044702004020E68468270200254
:10F2F000020E6846C270220E0271FCF72DFB05005B
:10F3000009D02068C16920468847002803D02846D4
:10F310000021FCF74BFB284603B030BDF8B5174D74
:10F3200004462868002801D1281D28600146281DB0
:10F330000090814204D05B221149124802F01AFD6C
:10F340000021114A2F6810230E4688001558A54247
:10F3500000D11650491C5B1EF7D10848002F01D080
:10F36000016801E0011D01600098814204D05B2228
:10F370000349044802F0FEFCF8BD000010300020F4
:10F3800008480200F44702005835002010B500215B
:10F39000FCF70CFB10BD10B5044602F049F800BFA5
:10F3A000207A012803D104F04BFB0020207200BF1B
:10F3B00002F080F8204610BDF8B505460E462C46F2
:10F3C000374602F035F800BF207A002803D104F058
:10F3D00007FB0120207200BF3946204603F084FC61
:10F3E00002F068F800BF2846F8BD7047704700007B
:10F3F00010B51C46029BFFF721FE2146983000F015
:10F4000067F80549983801600146044A8031CA61AD
:10F41000034A8A6110BD0000C8460200444702004A
:10F42000E846020010B5074901600146064A8031EE
:10F43000CA61064A98308A6100F082F89838FFF76E
:10F440007FFE10BDC846020044470200E8460200A5
:10F450007047F8B5054600680E460C468F18C16C1B
:10F4600028468847BC4209D02868816C28468847CE
:10F47000411C03D02070641CBC42F5D12868016D8A
:10F4800028468847A01BF8BD002070470020704721
:10F4900000207047F8B5054600680E460C468F18E8
:10F4A000C16C28468847BC4209D028682178426C44
:10F4B0002846641C9047401C01D0BC42F5D1286806
:10F4C000016D28468847A01BF8BD00207047704793
:10F4D00010B50F4A04C0002200F074F9041F0D4853
:10F4E00020600D486060002060610CA1204600F0A3
:10F4F00015F96061000002D0FFF748FF05E0FBF757
:10F50000E1FE016806A002F00BF8204610BD0000E5
:10F510005046020054470200B0470200772B00001B
:10F5200053747265616D206F626A206661696C75E3
:10F5300072652C206572726E6F3D25640D0A0000A5
:10F5400010B5044605482060054860606069FCF716
:10F550003BFA201D00F056F9001F10BD5447020071
:10F56000B047020070B515461E46044601F060FF24
:10F570002046FFF785FE66622562A06904F019FB4C
:10F58000226A636A82184B412046FFF76DFE01F044
:10F5900091FF70BDF7B586B0074614460C4920466A
:10F5A00004F080FD0090FDF733F805460E4602A8F2
:10F5B000079904F0D7FC2A463346014601903846A5
:10F5C00000F01BF802A804F0DCFC09B0F0BD00005C
:10F5D0000024744910B50446C3688268016A406A11
:10F5E000521843412046FFF73FFE616B002903D0CC
:10F5F000204609682830884710BDF0B51FB482B096
:10F6000005460F4601F014FF00BF686B002801D0CB
:10F61000012000E00020002805D13820405D0028AE
:10F6200001D004F0DDF92C4628340197019FBC423B
:10F630000BD0204604F0A5FC00BF00BF261E04D05E
:10F640003046019904F08EFC064600BF2846059B13
:10F65000049AFFF787FF01F02DFF07B0F0BD00000F
:10F6600010B504462046FFF713FE0446204600BFAF
:10F6700004460748206000212046283004F056FC4C
:10F680000446283C012138200155204610BD0000C9
:10F69000C047020070B584B01F490446016001F004
:10F6A000C7FE2046FFF7ECFD606B002805D0382030
:10F6B000005D002801D004F0C3F900206D46283415
:10F6C0000090019002900390AC4210D0E168204677
:10F6D000002901D089688847260008D00398294668
:10F6E000002802D04268204690470398F0600399B2
:10F6F0006846002901D08968884701F0DBFEE06890
:10F70000002802D081682046884720462838FFF725
:10F71000D5FD04B070BD0000C047020010B5FFF772
:10F72000DBFD10BD70B50546024804F0DBFB044666
:10F7300000BF70BDE030002070B50546024804F0FF
:10F74000D1FB044600BF70BDE03000207047007B55
:10F750007047000070B506460D46164804F0C2FB1F
:10F7600015480468002C20D0A06800281AD02A462A
:10F770003146FCF7AFF9002814D1A068FCF788F9EE
:10F78000A8420FD10B480168002901D1011D016079
:10F79000001D814204D05B220849094802F0EAFAC0
:10F7A000204670BD6468002CDED1024804F09AFB4C
:10F7B000002070BDF0300020EC300020084802002E
:10F7C000F447020070B50446002666600A48A1604E
:10F7D00020600D462273094804F084FB002D04D0FC
:10F7E000074801686160046000E06660034804F057
:10F7F00079FB204670BD0000EC470200F03000208D
:10F80000EC30002010B5044611482060114804F087
:10F8100069FBA06800280FD00F490868A04202D1F8
:10F820006068086008E04168A14203D00846496862
:10F83000A142FBD161684160064804F053FB207B84
:10F84000002802D1201FFFF769FD204610BD0000EF
:10F85000EC470200F0300020EC30002010B50446E8
:10F860004068002803D0FFF772FF012801D0002074
:10F8700010BD60680028FBD0001F10BD10B5044605
:10F880004068002803D0FFF762FF002801D0002065
:10F8900010BD60680028FBD0001F10BD4068002824
:10F8A00000D00120704710B54068002804D0FFF751
:10F8B0004EFF002801D0002010BD012010BD0068BF
:10F8C000704710B5044600202060606008782F283B
:10F8D0000FD1487800280CD04B1C00211A46236019
:10F8E00010782F2807D0002807D0521C491C22600E
:10F8F000F6E7204610BD501C20601846FFF72AFF8F
:10F900006060204610BD0000FEB501200090000799
:10F9100007694069401E01900198784305462846D2
:10F92000FFF7E6F8164C002605E002CC28462D1D10
:10F93000FFF7FAF8761C232EF7D301987843054693
:10F940000F4C00260DE028682168884206D0314619
:10F950000CA02268FBF7AEFD002000902D1D241D99
:10F96000761C232EEFD30098002803D007A0FBF7C6
:10F97000A1FD02E009A0FBF79DFD0098FEBD00007F
:10F980003437002025642C25640A0D0057466C612D
:10F990007368204F6B210A0D0000000057726974D4
:10F9A00065204661696C210A0D000000FEB501204A
:10F9B0000090000707694069401E01900198784354
:10F9C0000446124D002002E002CC02C5401C232850
:10F9D000FAD30198784304460C4D00260DE02868C0
:10F9E0002168884206D0314609A02268FBF762FDF3
:10F9F000002000902D1D241D761C232EEFD300988F
:10FA0000002802D104A0FBF755FDFEBD34370020CD
:10FA100025642C25640A0D005265616420466169E5
:10FA20006C210A0D0000000030B58BB00546284659
:10FA300000F074F80446002003E000212170641CEB
:10FA4000401C8C28F9D303AC002003E00021217076
:10FA5000641C401C2028F9D32D21684601820A210C
:10FA60000173C07B02218843811C6846C173407BBF
:10FA700041084900491C68464173807B41084900A0
:10FA8000491C6846817364218174002103A8C171F7
:10FA9000017201218181202203A91C48FBF7D6FBBA
:10FAA00000211A482030417001210170FE2181702F
:10FAB0001748164988631748C86300204864002126
:10FAC000124881646C46002003E000212170641C10
:10FAD000401C0C28F9D300216846417001700321B5
:10FAE00081700221C170042101710021C180008A4E
:10FAF0000290064869460EC924300EC0064804F03C
:10FB00009DF92846FFF700FF0BB030BD34370020C9
:10FB1000AA55AA5518AB0000CDCCCC3D01460148F2
:10FB2000704700003437002070B504462046FFF7C8
:10FB30003DFF2046FFF7F2FF8588294607A0FBF727
:10FB4000B9FC0948806B0949884204D02046FFF778
:10FB50006BFF002070BD0120FCE700004769643D99
:10FB600025640A0D0000000034370020AA55AA556C
:10FB7000704700000021014A117070479B3000203F
:10FB800070B506460C467B2C09D10020234908702D
:10FB90008870012048700020214908703BE07D2CCE
:10FBA00025D11E484078002819D01C488078442868
:10FBB00015D11CA0FBF77EFC002504E01A49485D26
:10FBC00002F0EEFE6D1C442DF8DB01201349087095
:10FBD0001349087000201149887048701BE000200C
:10FBE0000E490870887048700D49087013E00B4882
:10FBF0008078442807DD0020084908708870487024
:10FC00000749087007E0054881788078401C034A5E
:10FC10009070054844540248007870BD9830002028
:10FC20009C3000200A0D0000E0370020014601480A
:10FC300070470000C0370020F0B58DB00E460CAD07
:10FC40001827002028703946284601F05BFE00BFC7
:10FC50000BA800F003FB3446002005E021786A463B
:10FC60001154641C411CC8B22028F7D320226946D5
:10FC70000BA800F0ADFA0A9008A8017A0170417A49
:10FC800041707B20124908700C46641C002508E076
:10FC90006846425D0FA12046FBF71AFCA41C681CB5
:10FCA000C5B2222DF4D37D20207000210CA8FFF7CF
:10FCB0003AF9002504E00649485D02F071FE6D1C2A
:10FCC000462DF8DB01210CA8FFF72DF90DB0F0BD92
:10FCD000E037002025303278000000007047000037
:10FCE00070B505460B4804682046FFF795F90028D3
:10FCF00001D0012000E00020002808D000BF064805
:10FD0000FBF7D7FDC4B221462846FFF739FF034869
:10FD1000007870BDA0300020B43800209C30002056
:10FD2000014A116070470000A030002070B5054600
:10FD30000C4620480078002805D01F48816A1F48DB
:10FD4000FFF73AFB70BD1E480078022802D0402819
:10FD50002CD11FE018484068002805D0164840689C
:10FD6000401E1549486008E0E079FCF7A2FC064611
:10FD70001449FCF75FFB1049886213480D4948603D
:10FD8000124888600020087008460EC8284600F017
:10FD900045F80CE00E48074948608860002008706C
:10FDA00008460EC8284600F039F800E000BF00BF42
:10FDB00000BFC7E7703800204038002034380020EA
:10FDC000C53000200000C8426F12833A52499D3965
:10FDD0000AD7233C70B506460C4600200B49087034
:10FDE00008623F2000068861C86148620A46116ABD
:10FDF000106A04F0E7F80546214604F0D7F90349F4
:10FE0000086108464461846070BD000040380020ED
:10FE10000146014800787047C43000207FB5044691
:10FE20001B49886A1B49096804F094F912D81948DB
:10FE30000299006804F0C6F8164908601448816AFF
:10FE40001448006804F086F916D81148806A1149F0
:10FE5000086011E00F480399006804F0A7F90D4904
:10FE600008600B48816A0B48006804F0F1F803D879
:10FE70000748806A07490860064801687F20C00576
:10FE800004F094F9054629460348FFF795FA7FBD2B
:10FE900040380020CC300020343800203EB50446E5
:10FEA0000D4619480068401C17490860294620463D
:10FEB000FFF73CFF154800F021F9FF21F53112480A
:10FEC0000068FBF711FF00291DD102A800F0C6F958
:10FED0000F48806A00900F480178684601710E480B
:10FEE00001786846417102A8019A009900F040F932
:10FEF00014220021054800F0EFF864220121034894
:10FF000000F0EAF800BF3EBDD0300020BC30002039
:10FF10004038002070380020C5300020F8B5074672
:10FF20000C460A4804600A4DFF262D3601F080FA7F
:10FF30003146284602F0BCFE01F0BCFA00BF05497C
:10FF40002846FFF739FA3846F8BD0000C0300020D7
:10FF5000343800209A99993E70B5044604480068E8
:10FF60000546243529462046FEF7AAFE70BD00004E
:10FF7000A830002070B505460C4618A0FBF79AFA89
:10FF8000A18823A0FBF796FA217824A0FBF792FA28
:10FF9000617825A0FBF78EFAA17826A0FBF78AFAF4
:10FFA000A17927A0FBF786FAE17928A0FBF782FA6E
:10FFB000217A29A0FBF77EFA617A2AA0FBF77AFA68
:10FFC000A17A2BA0FBF776FAE17A2CA0FBF772FA64
:10FFD000A1892DA0FBF76EFA70BD00000A0D2D2D32
:10FFE0002D2D2D2D2D2D2D2D2D2D2D204E657720B8
:10FFF0004672616D6520466163746F72202D2D2DF0
:020000040002F8
:100000002D2D2D2D2D2D2D2D2D2D2D0A0D000000EA
:100010004769643D25640A0D000000005069643D95
:1000200025640A0D00000000527854783D25640ACA
:100030000D00000053656E736F723D25640A0D005C
:10004000486967683D25640A0D0000004C6F773DE4
:1000500025640A0D000000004C6576656C3D256442
:100060000A0D0000547970653D25640A0D000000FA
:10007000526174653D25640A0D000000537461747B
:1000800075733D25640A0D004454696D653D256412
:100090000A0D000070B505460C462846FEF708FF1D
:1000A0000546094804600068FFF738FD0749086005
:1000B0000846006806490860084601682846FFF7B8
:1000C00059FF284670BD0000A4300020A830002051
:1000D000AC30002070470000002902D0012906D171
:1000E00002E0044B5A8003E0034B5A8000E000BF5B
:1000F00000BF7047B2300020B630002010B5044673
:1001000016484078002811D114484088002809D0AA
:1001100000211348FEF707FF10484088401E0F4992
:10012000488003E001210E48FEF7FDFE0D484078AF
:10013000002811D10B484088002809D000210A4826
:10014000FEF7F1FE07484088401E0649488003E05C
:1001500001210548FEF7E7FE10BD0000B230002087
:10016000B0300020B6300020B130002070470000D1
:1001700007B5054A019911606946497A5171694686
:10018000097A11710EBD0000D430002070B506460A
:100190000C4615462A46214601A0FBF78BF970BD97
:1001A0000A0D2D2D2D2D2D2D2D2D204E616D653AF5
:1001B000202564203A3A3A2076616C75653A20250C
:1001C00064202D2D2D2D2D2D2D2D2D2D2D0A0D00A5
:1001D000F7B581B00B46002100241F480090002B8A
:1001E00002D1002004B0F0BD14E0CD134804010C8E
:1001F00018782041C007C00F0143641C072C05DD9F
:1002000000245B1C0398401E80B20390002D01D097
:100210000098414003980028E7DC002207E0CD1356
:100220004804010C002D01D000984140521C102AB6
:10023000F5DB00270122D203012608E01046084022
:10024000002802D03846304387B252107600002A88
:10025000F4D13846C6E700000580000070477047BB
:10026000704710B59838FEF784FE10BD10B5983869
:10027000FEF784FE10BD7047F8B5040C8BB226461D
:1002800082B25E43104658430D0C370C36040021F1
:100290008019164679416E43370C3604801926467C
:1002A00079416E438919F8BD4900CA020243100022
:1002B00000D004204A0D01D001221043044A490D08
:1002C000914201D102210843012800D10520704745
:1002D000FF07000001207047FFB581B01C4617469C
:1002E0000E0007D0019D02E02846B047ED192046D8
:1002F000641EF9D2019805B0F0BD10B50020FDF7DD
:10030000B9F910BD70B5164C03251648206020467B
:10031000FFF708FA2946201D00F0BEFA2046FFF735
:100320000BFA00BF2646104A10493046FFF7D2FFAD
:100330000F4C17250020207201F07AF8294620463C
:1003400002F0E0FB01F0B6F800BF2646064A094974
:100350003046FFF7BFFF0848FFF708FF70BD0000F9
:1003600028380020D447020000B001004DF70100FA
:100370003438002097F30100BC30002010B515215F
:100380000348FEF7C5FD16210248FEF7C1FD10BD6A
:10039000B0300020B1300020F8B54B20C001002360
:1003A0000B22092100901A48FFF722F80446194A47
:1003B0001949FFF78FFF1948FFF7DAFB1848FFF7D5
:1003C00089FE1848FFF74BFF174C162500202072B6
:1003D00001F02EF82946204602F094FB01F06AF85D
:1003E00000BF26460B4A11493046FFF773FF1048FD
:1003F000FFF736F90446074A0E49FFF76BFF0E4830
:10040000FFF72EF90446034A0A49FFF763FFF8BDD8
:100410001831002000B0010025F40100B82F0020A1
:10042000B92F0020BA2F0020CC31002097F3010013
:10043000D831002095F601001832002010B500F0E8
:1004400009F810BD30380A2801D201207047002079
:100450007047000002486A46C008C00070470000AC
:10046000CF39002010B501F06EFD10BD032801DA70
:100470000020704770B581000D48002209188039AE
:10048000486F551E4A6700280AD0016849698847A5
:1004900004000BD5FAF716FF61420160284670BDD3
:1004A000FAF710FF09210160284670BD002070BDD9
:1004B0005835002070B50025ED43032805DAFAF71A
:1004C00001FF05210160284670BD0C4980004018DD
:1004D0008038406F00280AD00168896A8847040084
:1004E000F2D5FAF7EFFE61420160284670BDFAF7D7
:1004F000E9FE09210160284670BD00005835002042
:10050000032801DA012070470C49800010B540181B
:100510008038406F00280AD00168C9698847040004
:1005200004D5FAF7CFFE61420160002010BDFAF752
:10053000C9FE09210160002010BD000058350020CF
:10054000F3B589B07B490998FBF77EFB4B257A4CC4
:10055000ED01002810D079490998FBF775FB0028B8
:1005600019D077490998FBF76FFB002822D0754C0A
:10057000206800282DD02EE02068002808D10B220A
:100580000921714803F00EF929466F4803F0D4F8A9
:1005900000200BB0F0BD2068002808D10B220921F3
:1005A000694803F0FFF82946674803F0C5F80120C1
:1005B0000BB0F0BD2068002808D10B220921624849
:1005C00003F0F0F82946604803F0B6F802200BB0BB
:1005D000F0BD201D2060261DB04204D05B225B4987
:1005E0005B4801F0C7FB216800245A4D671EA0003C
:1005F0002858002803D0641C102CF8D301E0102CDC
:1006000013D3FAF75FFE182101604E4801680029F4
:1006100001D1011D0160B14204D05B224B494C481D
:1006200001F0A8FB38460BB0F0BD0020C043A70086
:10063000E8514448002901D1011D01600068B04221
:1006400004D05B224149424801F094FB0020009015
:100650000998099900783A2811D004A8FFF731F9D0
:1006600004A8FFF71BF9002829D004A8FFF71BF9FD
:10067000002804A81AD0FFF701F9009056E04A7844
:10068000000A000210438A78FF231B0212029843DB
:100690001A401043CA781B02120498431A401043B0
:1006A00009790002000A09060843E6E7FFF7D6F8D1
:1006B000060004D00A9988070AD5022011E0FAF74B
:1006C00001FE132101600020E851401E0BB0F0BD77
:1006D000480701D5012004E0080701D5092000E002
:1006E00000200A07920F02D001225202104349074C
:1006F00002D5012189020843029004A8FFF7DFF820
:100700000246306869468068029B844630466646E9
:10071000B047002809D00446FAF7D4FD61420160D1
:100720000020E851401E0BB0F0BD0098E851E01CDD
:100730000BB0F0BD28430200603000202F430200C0
:1007400037430200103000206836002008480200BD
:10075000F44702005835002070B515460C460328B2
:1007600013DA17480068002809D10B22092115481F
:1007700003F018F84B21C901124802F0DDFF1148BF
:1007800002F0FCFF2070012410E00F4980004018A7
:100790008038406F00280BD001688B68214698474D
:1007A000040003D5FAF78EFD61420160281B70BD7D
:1007B000FAF788FD092101600020C04370BD0000E8
:1007C00060300020683600205835002070B50022C7
:1007D000551E032805DAFAF775FD1D21016028462C
:1007E00070BD0C4B8000C0188038406F00280AD0C4
:1007F00003681B6998470400F2D5FAF763FD61426C
:100800000160284670BDFAF75DFD092101602846A8
:1008100070BD00005835002070B515460E460328FF
:1008200019DA1A480068002809D10B220921184852
:1008300002F0B8FF4B21C901154802F07DFF0024EA
:10084000002D06D9315D124803F0A4F8641CAC42B7
:10085000F8D32C4610E00F49800040188038406FD4
:1008600000280BD00168CB6831469847040003D5B7
:10087000FAF728FD61420160281B70BDFAF722FDDE
:10088000092101600020C04370BD000060300020DD
:10089000683600205835002070B50C4605461549CD
:1008A000204602F04FF82860401C04D12F22124944
:1008B00012A001F05FFA0F49204602F015F8044635
:1008C000401C04D132220C4912A001F053FA2C71C1
:1008D00016490720FDF724FF0021084601F034FBEC
:1008E000002806D0082804D03B220349104801F014
:1008F00041FA70BD9C420200A04802006F626A2D5E
:100900003E61646320213D20284144434E616D6572
:10091000294E430070696E46756E6320213D202884
:1009200075696E7433325F74294E430031E50100FE
:100930005C48020070B5044600680D46008B6421D7
:1009400080B25043FBF7D0F982B22946204600F02E
:1009500001F870BDF0B50D46044600680C212E4626
:100960004E438BB0311803912321095C022902D038
:1009700008200BB0F0BD03994968914206D1C169C6
:10098000002978D0606800798847D7E16368ED492D
:100990001F79BC46CF5D15218901FF2F0FD0FE2F97
:1009A0004DD01B68BF0079185B5861468F00E6493F
:1009B000C9598B4243D1E34FFF216346F954616823
:1009C000FE230F79DF49CB55039915274B68A90002
:1009D000BF010691C91908910699FF314131019172
:1009E000002B02D081698B427ED3002A02D080691D
:1009F000904241D82068029031182030059106902D
:100A00001746007801F050FD0698407801F04CFD43
:100A100020683618307A01F047FD707A01F044FD05
:100A20000C2068430A30002F0CD002998969B94222
:100A300013D88FB22168085C002807D008E0112085
:100A40000BB0F0BD2168085C002801D0002100E057
:100A500001210598006801F093FC00233A462946DD
:100A6000606801F033FE059847606168FF200A79ED
:100A7000B449885453E161E102922768F1192037A3
:100A80000591B8780490387801F00EFD787801F07F
:100A90000BFD20683618307A01F006FD707A01F0FF
:100AA00003FD002360682946029A01F00FFEA74863
:100AB000049901F067FD05990122097A10468840E2
:100AC0000599497A8A401043049901F035FD05994A
