:020000040001F9
:10B0000000800020A1B20100BFB20100C1B2010066
:10B010000000000000000000000000000000000030
:10B02000000000000000000000000000C3B20100AA
:10B030000000000000000000C5B20100C7B201001E
:10B04000C9B20100C9B20100C9B20100C9B2010010
:10B05000C9B2010000000000C9B20100C9B201007C
:10B06000C9B20100C9B20100C9B20100C9B20100F0
:10B07000C9B20100C9B20100C9B20100C9B20100E0
:10B08000C9B20100C9B20100C9B20100C9B20100D0
:10B09000C9B20100C9B20100C9B20100C9B20100C0
:10B0A000C9B20100C9B201000000000000000000A8
:10B0B0000000000000000000000000000000000090
:10B0C00000F002F800F0C3F80CA030C808382418CB
:10B0D0002D18A246671EAB4654465D46AC4201D1D0
:10B0E00000F0B5F87E460F3E0FCCB646012633423F
:10B0F00000D0FB1AA246AB4633431847F881000044
:10B1000018820000103A02D378C878C1FAD85207E2
:10B1100001D330C830C101D504680C60704700000D
:10B120000023002400250026103A01D378C1FBD863
:10B13000520700D330C100D50B60704710B56E299F
:10B1400002D100F0F6FF10BD702902D100F043FAE1
:10B1500010BD662902D107F0BBFD10BD652902D1E3
:10B1600007F0B6FD10BD672902D107F0B1FD10BD93
:10B17000612902D107F0B4FD10BD03681B0A01D399
:10B1800080231943692902D100F0B0F910BD642968
:10B1900002D100F0ABF910BD752902D100F0A6F97B
:10B1A00010BD6F2902D101F0C9F810BD782902D174
:10B1B00000F0FEF910BDE92902D101F065F810BDDB
:10B1C000E42902D101F060F810BDF52902D101F0A7
:10B1D0005BF810BDEF2902D101F0BCF810BDF829D1
:10B1E00002D100F0F3F910BD0368DB0901D380231D
:10B1F0001943632902D101F0D2FE10BD732902D197
:10B2000001F0D5FE10BDE32902D101F0DFFE10BD33
:10B21000F32902D101F0E2FE10BD002010BD1FB5E0
:10B220000098019900F097FE02F022F80400002037
:10B23000002107F06FFC401C60600020002107F037
:10B2400053FCE06001F0F0FE00F0E2FD1FBD03F0F2
:10B25000FDFF114603B404F00DF803BCFFF7DFFF58
:10B2600002F080FB04F0F2FF70B505460C4616466E
:10B2700002E00FCC0FC5103E102EFAD2082E02D3DA
:10B2800003CC03C5083E042E07D301CC01C5361FED
:10B2900003E021782970641C6D1C761EF9D270BD04
:10B2A00003210A4802680A430260094802680A4307
:10B2B0000260084880470848804708480047FEE782
:10B2C000FEE7FEE7FEE7FEE7FEE70000240500409C
:10B2D000540500401DDB01003D160200C1B0010015
:10B2E00000487047D037002070B5064600F016FEC3
:10B2F000056830460B30C408E400B44201D8002091
:10B3000070BD68682A46002818D00168A14211D390
:10B310000B46214608318B4208D3436801194B6024
:10B3200003681B1B0B605160046001E041685160C1
:10B33000001D70BD024640680028E6D1214628461F
:10B3400000F0F4FD0028DCD170BD70B50446051F87
:10B3500000F0E4FD0068002C1AD0446801E02046AB
:10B360006468002C01D0AC42F9D301680A18AA42E3
:10B3700004D12A6805468918016000E04560286804
:10B380004119A14205D161686960216840182860AF
:10B3900070BD6C6070BDFEB5054610460C46184386
:10B3A00073D0AE468C460020AD1A01469C4167D34F
:10B3B0006646002701243D46B61A9D4102D3134636
:10B3C0003A462124654676462F04360C3E432D0C22
:10B3D000B61A9D4104D3150C1B042B4312041034E0
:10B3E000654676462F06360A3E432D0AB61A9D411B
:10B3F00004D3150E1B022B43120208346546764611
:10B400002F0736093E432D09B61A9D4104D3150F67
:10B410001B012B431201241D65467646AF07B60873
:10B420003E43AD08B61A9D4104D3950F9B002B43B4
:10B430009200A41C65467646EF0776083E436D08E9
:10B44000B61A9D411AD392185B41641C16E000188D
:10B45000764665464941B71A9D410191009009D34E
:10B460006046B11A98418E4684460098019900259D
:10B47000401C6941DD0752082A435B08641EE6D57B
:10B480007246634603B0F0BDFFE700200146C046A8
:10B49000C0462A462346F5E77CB51D4616460C00F5
:10B4A000009001D00019401E084B7B442A46694693
:10B4B0000190304600F055FE002C054603D0694649
:10B4C000002000F061FE28467CBD0000E50C000075
:10B4D0000FB4054910B503AA029800F063FE10BC32
:10B4E00008BC04B0184700002C380020F7B5002530
:10B4F00075291068009914A611D000F087FD002866
:10B5000002DA404211A608E0009909688A0701D5CD
:10B510000FA602E0490704D50EA6012501E000F0C0
:10B520007EFD009F0024243704E001F041F9303112
:10B530003955641C0028F8D12B4632462146009824
:10B5400000F09FFDFEBD0000000000002D00000087
:10B550002B00000020000000F8B50F460188090507
:10B5600002D5224C7C4402E0204C7C440E3405463B
:10B570000021243508E016071209360FA65D6E5427
:10B580001E0732431B09491C16461E43F3D12246AF
:10B5900004780023240705D5702F06D0002901D098
:10B5A0000223113200F06DFDF8BD01231032F9E7DE
:10B5B00070B504460D462146106800F030FD0023AA
:10B5C000024629462046FFF7C7FF70BDD21DD308AB
:10B5D000DB000CCBC0E730B403682024126823439F
:10B5E00003600823C36130BC0023B5E7087900007D
:10B5F000F3B50446002081B020622046E168884708
:10B60000002872D0252802D06268A168ABE0594FAB
:10B6100000267F442046E16888472028054608DB4D
:10B62000312D06D2781920380078002801D0064341
:10B63000F0E7B00701D5042086430020E06107460B
:10B64000A0612A2D0AD0284603F004FE002827D046
:10B65000B8000019303D0090856119E00298BA00E9
:10B66000121902C8916102902046E1688847012FB3
:10B67000054617D1E06900281FDA202086431CE028
:10B6800000980A2180694843009940193038886140
:10B690002046E1688847054603F0DCFD0028EFD12D
:10B6A000012F0AD02E2D08D12046E1688847054693
:10B6B000202006437F1C022FC3DBA069002803DA89
:10B6C0004042A06101200643F00701D010208643CC
:10B6D0006C2D0BD0682D09D04C2D3CD06A2D38D064
:10B6E000742D38D07A2D36D016E040E0E1682F4630
:10B6F00020468847B842054609D16C2F29D0012041
:10B700008002E168064320468847054604E06C2F26
:10B710001DD0FF2001300643002D28D02846413897
:10B72000192803D80120C002064320352046266090
:10B730002946029A1646FFF701FD002810D001287D
:10B740000BD0F61DF008C0000830029055E74020ED
:10B75000E1E78020D5E70020D3E7361D02964CE7CD
:10B7600062682846A1689047206A401C44E7206A26
:10B77000FEBD00008278000070B50446C0688107F5
:10B7800013D0800601D5A56A04E0A169606840185D
:10B790002169451A204600F0B3FF002206462946DB
:10B7A000204600F0DDFE304670BD002070BD70B553
:10B7B000002802D0FFF7E0FF70BD0025074C6E1E89
:10B7C00008E02046FFF7D8FF002800D03546206D5E
:10B7D00044086400002CF4D1284670BDD8370020FE
:10B7E00070B50D46044604E0294604F034FD401CC3
:10B7F00004D02078641C0028F6D170BD0020C0431E
:10B8000070BD0000F7B516460C46104600F07CF8F7
:10B810002078611C61280AD0722802D0772839D19B
:10B8200002E00125002404E00225042401E02D4D5E
:10B8300008240222032301270878491C2B2806D05C
:10B84000622807D02039C87F742807D008E01D433C
:10B850001443F1E7042005433C43EDE71020044383
:10B860000098214603F074FD411C13D00021316182
:10B8700071600121F5604902F1617061200704D512
:10B8800030460222002100F06BFE306D38433065F7
:10B890003046FEBD0020FEBDF8B50D460646124CF2
:10B8A000206DC10704D0410804D044086400F7E7C4
:10B8B000224610E05420FFF717FD070010D079084A
:10B8C000206D490001221143084354212065384668
:10B8D00000F058F93A4629463046FFF793FFF8BD85
:10B8E0000020F8BD02800000D837002010B50029E4
:10B8F00002D0FF22013201E00122920201235B0209
:10B9000000F0A8FE10BD0000FEB5044646690069BF
:10B910000F4F0190E56800200090A80707D020464F
:10B9200000F0EEFE304603F0A9FC002801DA3846AC
:10B93000FEBD280502D50198FFF707FD4C212046E2
:10B9400000F020F9206D4008400020650098FEBD01
:10B95000FFFFFFFF0EB5044615460E4612A001F08C
:10B960004BFC204601F048FC15A001F045FC304698
:10B9700001F042FC14A001F03FFC6C460020E07294
:10B980000A20A0720A3407E00A21284600F05AF97A
:10B9900030310546641E2170002DF5DC204601F093
:10B9A0002BFC00F0F5FE00002A2A2A206173736543
:10B9B0007274696F6E206661696C65643A2000007C
:10B9C0002C2066696C6520002C206C696E65200057
:10B9D00030B5441C03E00178401C00290DD08107DC
:10B9E000F9D10B4BDD0104C8D11A91432940FAD09B
:10B9F000001B0A0603D0C01E30BD001B30BD0A0468
:10BA000001D0801E30BD0902FCD0401E30BD0000B8
:10BA1000010101010346F0B50B439B072DD1244DD5
:10BA2000EF01042A29D308C810C95E1B9E43121FC8
:10BA30003E4017D0D8B2E1B2401A3106014310D1CE
:10BA400098B2A1B2401A310401430AD1180221026E
:10BA5000000A090A401A3102014302D1180E210ED0
:10BA6000401AF0BDA342DCD018BA21BA884201D9ED
:10BA70000120F0BD0020C043F0BD002A01D100200C
:10BA8000F0BD03780C78401C491C002B0DD0A3425C
:10BA90000BD1521E09D003780C78401C491C002B96
:10BAA00003D0A34201D1521EEBD1181BF0BD000000
:10BAB00001010101F8B5042A2CD3830712D00B78B9
:10BAC000491C0370401C521E83070BD00B78491C85
:10BAD0000370401C521E830704D00B78491C03706E
:10BAE000401C521E8B079B0F05D0C91ADF00202374
:10BAF000DE1B08C90AE0FFF7B7FBF8BD1D4608C901
:10BB0000FD401C46B4402C4310C0121F042AF5D23D
:10BB1000F308C91A521EF0D40B78491C0370401C5C
:10BB2000521EEAD40B78491C0370401C012AE4D44D
:10BB300009780170F8BDD2B210B513029A18130437
:10BB40009A1800F00EF810BD01E004C0091F042986
:10BB5000FBD28B0701D50280801CC90700D0027080
:10BB6000704700290BD0C30702D00270401C491E49
:10BB7000022904D3830702D50280801C891EE3E7D3
:10BB80000022EEE70022DFE782078B079A4237D1D7
:10BB900070B5920F0AD0032402780B78401C491C20
:10BBA000002A2BD09A4229D12042F5D11D4EF40112
:10BBB00004C808C9951B9543254010D19A4207D166
:10BBC00004C808C9951B9543254008D19A42EFD077
:10BBD00012BA1BBA01209A4200D2404270BD12BA7A
:10BBE0001BBA2DBA18241000E0401900E140401A99
:10BBF00005D12E00E64002D1083CF4D1D01A70BD28
:10BC000002780B78401C491C002A09D09A4207D1BF
:10BC100002780B78401C491C002A01D09A42EFD0D0
:10BC2000D01A704701010101002203098B4273D32E
:10BC3000030A8B4258D3030B8B423CD3030C8B4239
:10BC400021D312E003460B437FD4002243088B42EA
:10BC500074D303098B425FD3030A8B4244D3030B93
:10BC60008B4228D3030C8B420DD3FF22090212BA58
:10BC7000030C8B4202D31212090265D0030B8B42D4
:10BC800019D300E0090AC30B8B4201D3CB03C01ABE
:10BC90005241830B8B4201D38B03C01A5241430B99
:10BCA0008B4201D34B03C01A5241030B8B4201D389
:10BCB0000B03C01A5241C30A8B4201D3CB02C01AF4
:10BCC0005241830A8B4201D38B02C01A5241430A6C
:10BCD0008B4201D34B02C01A5241030A8B4201D35B
:10BCE0000B02C01A5241CDD2C3098B4201D3CB0102
:10BCF000C01A524183098B4201D38B01C01A5241B1
:10BD000043098B4201D34B01C01A524103098B42B4
:10BD100001D30B01C01A5241C3088B4201D3CB009F
:10BD2000C01A524183088B4201D38B00C01A524182
:10BD300043088B4201D34B00C01A5241411A00D232
:10BD400001465241104670475DE0CA0F00D049429B
:10BD5000031000D34042534000229C4603098B420B
:10BD60002DD3030A8B4212D3FC22890112BA030A93
:10BD70008B420CD3890192118B4208D38901921115
:10BD80008B4204D389013AD0921100E08909C3099A
:10BD90008B4201D3CB01C01A524183098B4201D39C
:10BDA0008B01C01A524143098B4201D34B01C01A87
:10BDB000524103098B4201D30B01C01A5241C308FF
:10BDC0008B4201D3CB00C01A524183088B4201D36E
:10BDD0008B00C01A5241D9D243088B4201D34B0089
:10BDE000C01A5241411A00D20146634652415B10CB
:10BDF000104601D34042002B00D5494270476346AC
:10BE00005B1000D3404201B50020C046C04602BDD1
:10BE100070B5064C7C44064D7D4403E02068001953
:10BE20008047241DAC42F9D170BD00002876000087
:10BE300028760000F8B517460E460546002B07D0B9
:10BE4000104658434419E41B2046B047A542FAD196
:10BE500028460838F8BD10B501469E240002CA15D0
:10BE6000A307002A02D01843002A04DBA21A002AE2
:10BE70000CDDD04010BD1206120E01D1400040086A
:10BE8000A21A03D4D04040420028F3DDFF2248002C
:10BE90001206904201D9002010BDC817C043584077
:10BEA00010BD0102C21504D00123DB071943002A8B
:10BEB0000ADB9E239A1A02D40846D0407047FF221C
:10BEC00041001206914201D900207047C017C043BB
:10BED000704710B50202C11504D00123DB071A43D5
:10BEE000002914DBBE235B1A0CD41146D9401C4632
:10BEF000203C02D41046E04010BD2020C31A10465A
:10BF0000984010BDFF2241001206914202D9002044
:10BF1000014610BDC017C043C11710BD004870478F
:10BF2000D4370020704770477047704738B50446D3
:10BF30000A460020694601F075F9002805D002463E
:10BF40002046009900F054FC012038BD10B50120B6
:10BF500001F034F910BDF8B501F058F9054600209C
:10BF60000C461020C0460646A819A0420DD93246FC
:10BF70006946002001F056F9070001D101F01EF9D1
:10BF80000098A04200D00546C419FFF7C7FFF61D70
:10BF900007460560F008C0004619284600F008F87A
:10BFA000B44204D031463868A21B00F021FCF8BD31
:10BFB000002101604160806070471020704770B5BB
:10BFC000044685690068C10601D5302600E02026B8
:10BFD000C00707D070BD62683046A1689047206AEC
:10BFE000401C20626D1EF6D570BD70B50446856993
:10BFF0000078C00707D170BD6268A1682020904713
:10C00000206A401C20626D1EF6D570BD09684A0585
:10C0100001D540B27047C905FCD500B27047096828
:10C020004A0501D5C0B27047C905FCD580B270473A
:10C0300070B50C460546012A05D02878800600D543
:10C04000EA69002302E0012305E05B1C934202D26F
:10C05000E05C0028F9D1A869E618C01AA861286A2E
:10C06000C01828622846FFF7AAFF04E06A68207813
:10C07000A968641C9047B442F8D32846FFF7B5FF7F
:10C0800070BDFFB504460D4681B024300090216894
:10C09000880604D51022E0699143216000E0012068
:10C0A000A84201DD471B00E000270498A1697A1926
:10C0B0001018081AA0612078C00602D42046FFF7A5
:10C0C0007EFF002608E003986268A168805D9047C3
:10C0D000206A401C761C206204988642F3DB20789C
:10C0E000C0060AD52046FFF76AFF06E06268A1682D
:10C0F00030209047206A401C206238467F1E00286E
:10C10000F4DC07E000986268A168405D9047206A0F
:10C11000401C206228466D1E0028F3DC2046FFF7F5
:10C1200064FF2078000602D5022005B0F0BD012092
:10C13000FBE711680268006A530501D5087009E041
:10C14000D30501D5088005E0130602D5C21705C145
:10C1500000E008600120704701694A1C026108780C
:10C16000704700B58FB002910021059105490193F8
:10C1700079440391114604906846FFF739FA0FB0ED
:10C1800000BD0000E5FFFFFF0A681070521C0A6046
:10C1900070470CC908399A4202D2531C0B601070C8
:10C1A00070470000084B70B50D467B44FFF7D9FF80
:10C1B0000446284600F0D8F8002802D00020C043EA
:10C1C00070BD204670BD0000A9400000F7B50446D0
:10C1D000154686B02B487844002703C83E46009099
:10C1E000019111E007986A467100415A02A800F0D7
:10C1F000B9FF411C07D02178890603D5E2693918B7
:10C2000091420ED83F18761C2078800602D5E0694E
:10C21000B84206DDAE42E5DB07987100405A0028BF
:10C22000E0D1A069C01BA0612046FFF7C8FE1548F9
:10C2300078445A3803C800900020019116E041006C
:10C240006A460798415A02A800F08CFF0590401CEE
:10C250000AD0002505E0626802A8A168405D904709
:10C260006D1C05988542F6D30498401CB04204909A
:10C27000E5DB206AC01920622046FFF7B6FE09B050
:10C28000F0BD0000D26C0000F7B5D21D0025D20829
:10C2900015A6D200F52905CA11D0002A05DA002119
:10C2A0004042914111A60A4608E0009909688B07AF
:10C2B00001D50FA602E0490701D50EA601251146BA
:10C2C000009F0024243704E000F0ACFA30323A55E5
:10C2D000641C02460A43F7D12B4632462146009899
:10C2E000FFF7CFFEFEBD0000000000002D000000A3
:10C2F0002B0000002000000070B50446002124340B
:10C3000008E05507D2086D0F303565545D072A43A4
:10C31000DB08491C15461D43F3D10468002310A215
:10C32000250708D520252C400C4304D0C4690123DF
:10C330000CA2641EC461FFF7A4FE70BD10B50446D4
:10C3400021461068FFF76BFE002302462046FFF7E8
:10C35000D3FF10BDD21DD108C9000CC9CCE7000025
:10C360000000000030000000C068802108407047D5
:10C37000F8B505460C46C8680521C9048843012163
:10C3800089050843E060800602D5204600F0DEF90A
:10C390007149E0680140022903D0204600F080F98D
:10C3A000BCE00521012249030140D20391420FD193
:10C3B000C00306D56168E06A884200D8084660601C
:10C3C00006E02069E0626060606902F07BFFA061C6
:10C3D000A1680022EEB200290EDAE06883050BD4D2
:10C3E000C943A1600921226049030843E0606068F5
:10C3F000411C61600670ACE0E0680121490308431C
:10C40000E060002020602069002831D1606902F0DE
:10C410007FFF012527462437ED02002816D0A0898A
:10C420008005800F08D0E069FEF75EFF00282061DC
:10C4300002D0E068284318E001202761E061E0684D
:10C44000032109028843012189020DE0E069FEF71A
:10C450004BFF00282061EFD0E0682843E0608105B1
:10C46000890F03D1FF2101310843E060206960603A
:10C47000E2683A4F2569D0051FD56168E06A8842B5
:10C4800000D80846411B05D02246284600F012F984
:10C49000002843D1E068010204D5E5620020656010
:10C4A000A06053E0691CE1626160E169491E3843A4
:10C4B000A160E06030462E70F8BD100201D53A4010
:10C4C00009E06068411C61600670E06838430A2E2C
:10C4D000E06006D00022E16A6068814203D90B4621
:10C4E00002E00122F7E70346A7895B1B7F0504D41E
:10C4F000E7699F4201DD002A1ED0814200D8014633
:10C500000F1A0020E5626560002BA06009DD22465D
:10C510001946284600F0CEF8002802D00020C0437B
:10C52000F8BD002F08D0A069E5626560C01BA0615E
:10C53000E06810210843E060E068000209D5616806
:10C54000A069E562491B40186560A0610120C043F5
:10C55000F8BD3046F8BD0000821000000000010068
:10C56000F8B5044616460D464769007B800730D073
:10C57000384602F0CDFE00282BD132461026002A84
:10C5800025D0012A02D0022A23D104E0204600F05F
:10C5900029FD45191BE0384602F094FEE16831435D
:10C5A0000028E16004DA204600F07AF80120F8BDA6
:10C5B000C9030BD56268E16A914200D81146A269AD
:10C5C00089182269891A814200DD08462D18002D3C
:10C5D00001DA0220F8BDE16A6068E268814206D2B1
:10C5E0009103E06203D5012149048A433243A669DD
:10C5F000AE4211DCE16A814201D90B4600E00346FC
:10C600009F192369FF1AAF4206DD814201D90F4607
:10C6100000E007469F4206D1202002430020A06090
:10C62000A56220600DE0AD1BE669AE1B8142A660ED
:10C6300000D90846C01A281A2060581960602020C6
:10C640008243034802400020E26040342072F8BD7B
:10C65000BFCFD7FF70B5C468A50713D0650211D44A
:10C66000D51FF93D0AD0FF3D6D1E07D0FF3DFF3DB0
:10C67000022D07D101462431012305E0074E5D1E3E
:10C68000B54201D3012070BD0161C36141600F213A
:10C6900009028C431443C460002070BDFFFFFF00FB
:10C6A000C1688022114392039143C16000218160DF
:10C6B00001607047F7B514460E463348D568576990
:10C6C000054209D03846A16902F04EFF002811DB6F
:10C6D0002D48C0430540E5602B4632463846009958
:10C6E00002F068FF4200A1695208B21A89180028B6
:10C6F000A16104D02046FFF7D3FF0020C043FEBD58
:10C7000070B504460569C06A6168884200D8084669
:10C71000E1680522D2049143E160C90314D5A8421F
:10C7200009D02246411B2846FFF7C4FF002802D04B
:10C730000020C04370BDE56200206560A060E06835
:10C74000012109048843E060002070BD10B5044653
:10C75000C06820218843E060A16AA06988420ED0A9
:10C760002046FFF7CDFFE06803210903884310212D
:10C770000843E060A06AA0612069E062606003494C
:10C78000E0680840E06010BD10000200BFBFFFFF7E
:10C7900010B5002000F00CFDC046C046012000F09E
:10C7A00021F810BD10B500F00FFD00F0FBFC10BD2E
:10C7B00001468008081A02091018020A1018020C13
:10C7C0001018C008820012185200891A01E0401C9B
:10C7D0000A390A29FBD2704708B569460870032058
:10C7E000ABBE08BD01491820ABBEFEE72600020023
:10C7F00010B50346406801E003464068002801D0B8
:10C800008842F9D31868C3188B4206D0CB1CD808CD
:10C81000C000001D411A521A0146081D0A60FEF7A9
:10C8200094FD10BD0B4670B5024689078008084389
:10C8300019469D08141AA941250908070543080946
:10C840002C194841250A01060D43010A2C194141C2
:10C85000200C0D0428430D0C00194D4100214019F6
:10C860004D41C00869070843E908840F8D0025433E
:10C87000840024184D4124196D41121BAB4107E07F
:10C880000925ED432C11521963410024401C6141DC
:10C890001C460A250026551BB441F1D270BD00008C
:10C8A0007047FFB50C461E468FB003CA0890099129
:10C8B0004F007D0D00D16D1E002108460020C046AE
:10C8C0000321099A89050840002A03DA82008018AA
:10C8D00040080840800D01280A9002DD0020C04376
:10C8E0000A90089807430DD0EF48F04928184843AC
:10C8F0000714189800281DD07542291E1DDD0A98BE
:10C9000042421BE01898012802D00020302104E0A8
:10C910000020F24305E02154401CB042FBDB3046CE
:10C920000022189B002121540F998B600A604860F7
:10C9300013B0F0BDBD1B6D1CDFE70A9A002900DAB9
:10C9400069420BA800F0DCFC0BAB07CB03AB07C3C1
:10C950000899099800F038FD6B4607C30146D44892
:10C960000918002D00910ADDD14903980A9A49421D
:10C97000401803A90390684600F04BFF07E00399B5
:10C980000A9A081803A90390684600F018FF6B463E
:10C9900007C30004000C03D00020C043410800E09E
:10C9A0001046189A002A03D00022009215461EE075
:10C9B000751E05D4FFF736FF303262556D1EF9D56E
:10C9C00001220843079602D000227F1C04E0207851
:10C9D000302801D100227F1E002A069789D01EE050
:10C9E000112D07DAFFF71EFF303262556D1C02462B
:10C9F0000A43F5D1084303D00098002819D00EE06F
:10CA00000021681E05E0235C625C63542254401ED2
:10CA1000491C8142F7DBA81B401E07950690079A28
:10CA200018990020A0540F98079B069A81600CC0AB
:10CA30007EE71126002018905BE7D21DF0B50D4669
:10CA40000446D10893B0C90003C90C900D9102F0BF
:10CA500063FB02460D98C00F01D02D2007E020682F
:10CA6000810701D52B2002E04007C00F4001032AB7
:10CA70000F9001D0072A05DB03462946204600F027
:10CA8000FBFB0EE12078800601D5E76900E0062770
:10CA90002846652D04D0662814D0672D69D12DE075
:10CAA0000020112F009001DB112300E07B1C0CAA59
:10CAB00003A910A8FFF7F5FE1199002610987D1C18
:10CAC0000E9142E001203B460CAAC0070B900120CA
:10CAD000009003A910A8FFF7E4FE119D1298109989
:10CAE000002600280E9501D1781C0D18781B02D461
:10CAF00046427D1C761EE81B00903AE0012F00DACA
:10CB000001270020112F009001DD112300E03B469A
:10CB10000CAA03A910A8FFF7C4FE11993D4610986E
:10CB200000260E91217809070BD40E99A94200DA4C
:10CB30000D4603A9012D04DD4A19203AD27F302A7F
:10CB400006D0B84201DA011D04DA012100910FE09C
:10CB50006D1EEFE7002802DC86192D1A03E0411C48
:10CB6000A94200DD0D46801B401C00900120C0073B
:10CB70000B902078000705D40098A84202DB002023
:10CB8000C043009069460020C8720B98012102AF93
:10CB90000337C907884225D0022010902B2011901E
:10CBA0000B9800280BDA40420B902D20119006E0E4
:10CBB0000B98FFF7FDFD30317F1E0B9039701099F7
:10CBC000481E00291090F3DC0B980028F0D1119832
:10CBD0007F1E38702088000501D5452000E06520C3
:10CBE0007F1E387001A8C01BC01D0B900F98002835
:10CBF00000D0012041190098C01709180B98081897
:10CC0000A169081A401EA0612078C00602D42046FF
:10CC1000FFF7D5F90F98002805D06268A168904702
:10CC2000206A401C20622078C00625D52046FFF7E8
:10CC3000C6F921E0002E07DB0E98B04204DD03A800
:10CC40006268805DA16802E06268A1683020904758
:10CC5000206A761C401C20620098401E002800902C
:10CC60000AD100F005FBC06862680168405CA168F9
:10CC70009047206A401C206228466D1E0028D9DC9F
:10CC800007E062683878A1687F1C9047206A401CE2
:10CC900020620B99481E00290B90F2DC2046FFF71A
:10CCA000A4F9032044E6000001FCFFFF104D000042
:10CCB000E1DFFFFFD21DF0B504460D46D0088DB070
:10CCC000C000466807683146384602F025FA024639
:10CCD000F00F01D02D2307E02068810701D52B2319
:10CCE00002E04007C00F43016846002B037001D0EB
:10CCF000012000E00020032A0A9001D0072A04DB6B
:10CD00002946204600F0B8FA2BE12078800601D4AD
:10CD10000D2500E0E5697000400D0D2D01904BDA06
:10CD2000300D00210B9008460020C04603218905E4
:10CD30000840002E05DA82008018C20F101840103B
:10CD400008408015012801DD0020C043A900002310
:10CD5000182906D39C460A460123183A1B07D340DC
:10CD600003E001221205CA4094460C31202902D367
:10CD70003A46203900E032468A40002802DD002A87
:10CD800006D119E0002817D10121C9078A4213D31F
:10CD9000194663467F185E41002806D10120C0076E
:10CDA000824202D1084687439E430B98310D81424F
:10CDB00002D00198401C01902088000502D57049DE
:10CDC000794402E06E49794419396B460A98302259
:10CDD0001A540A980A7C401C1A54401C0A90019864
:10CDE000002801DC302000E031201872019A012077
:10CDF000002A02D0634BD21804E072003A4302D0FA
:10CE0000604A521C0192002D02DC2278120703D5E1
:10CE10006A462E20507202200022864694460CE07C
:10CE200032033601120F6D1E8B5C02AA1354624648
:10CE3000521C401C9446052A01DA002DF0DC002229
:10CE400002AE08E03B0F3F01CB5C521C6D1E335419
:10CE5000401C082A01DA002DF4DC2278920601D564
:10CE60000FE0401E704504DD3218203AD27F302A90
:10CE7000F7D0002805DD3218203AD27F2E2A00D1C3
:10CE8000401E002D03DD3E223254401C6D1E497CA5
:10CE900031540199401C002906DA2D21471C3154D8
:10CEA00001984042019003E02B21471C3154019826
:10CEB0007D21C900884206DBFEF7C4FE3030F05504
:10CEC0007F1C019101E0642808DB01986421FEF7D2
:10CED000B9FE3030F0557F1C019101E00A2806DBD5
:10CEE00001980A21FEF7AEFE3030F0557F1C019804
:10CEF0000A21FEF7A7FE3031F1550A98A1697F1C7F
:10CF00007A191018081AA0612078C00602D42046A9
:10CF1000FFF755F8216A6E460A980818206204E067
:10CF200062683078A168761C90470A98401E0A9083
:10CF3000401CF5D12078C00602D52046FFF73FF807
:10CF400002AE09E03078761C3E280DD06268A168F8
:10CF50009047206A401C20627F1EF3D22046FFF7D4
:10CF600044F80DB00320F0BD206A4019206203E0B0
:10CF70006268A168302090476D1EEDD3F8E700008D
:10CF80000361000001FCFFFF10B54369002B02D0D4
:10CF9000C046C04601E0FFF74BF8012010BD1278F3
:10CFA000014624310A7000224A700122ECE7116820
:10CFB0000022D243E8E710B54369002B02D0C046F7
:10CFC000C04601E0FFF702F9012010BD12880146BA
:10CFD000243182840022C2840122ECE711680022FD
:10CFE000D243E8E710B50146C268900703D0900627
:10CFF00007D5886A0AE0FEF773F901210160881EEF
:10D0000010BD8B694868C0180B69C01A40310B7A93
:10D01000002B02D0497A401A10BD1103FCD500281C
:10D02000FADD401E10BD000010B543485421FEF744
:10D03000A9FD42485421FEF7A5FD41485421FEF7C1
:10D04000A1FD40483C493D4B404A01603E480360D9
:10D050003B4810605A1C0A65411C19650121016595
:10D060003C48354A3AA17844FEF7CCFB002804D16D
:10D07000384878440C3800F02DFC38482F4A36A147
:10D080007844FEF7BFFB002804D1344878440C38BC
:10D0900000F020FC32482A4A2FA17844FEF7B2FB68
:10D0A000002804D12E4878440C3800F013FC4023AB
:10D0B0002148DC0000212246FFF7CCFA002804D0EA
:10D0C000244878445C3800F005FC1C482246402384
:10D0D0000021FFF7BFFA002804D0204878445C38CC
:10D0E00000F0F8FB1648224610230021FFF7B2FAA1
:10D0F000002804D01A4878445C3800F0EBFB10BDDF
:10D100000F4870B5006D44080B486400FEF7FCFB47
:10D110000A48FEF7F9FB0A48FEF7F6FB09E0206D26
:10D12000450820466D00FEF7EFFB2046FEF70DF99F
:10D130002C46002CF3D170BDD83700202C380020AD
:10D1400080380020AC300020B0300020B430002007
:10D1500072000000A65C000077000000935C0000F5
:10D16000815C000070B516460C46054600F078F864
:10D170000368FF200230C05C012807D0FF2C0ED8C6
:10D18000185D00280BD001202C7070BDFF33324693
:10D19000214608331868C3182846984770BD0020F8
:10D1A000C04370BD10B5002801D0FFF71BFB10BDB8
:10D1B00010B500F077FBFFF7F5FF10BD10B500F0DC
:10D1C0008FFBFFF7EFFF10BD10B5002102A000F0AC
:10D1D0004FFB012010BD00005349475056464E3AC0
:10D1E0002050757265207669727475616C20666E68
:10D1F0002063616C6C65640010B50349FEF7F0FABA
:10D200000148FEF7D4FA10BD80380020012269469B
:10D21000114B120382188A421A6001D811467047D6
:10D220001960704770B50C4C6D46012636032368B3
:10D23000AD1B9A18AA420ED8AD1A9019EE0F7519A7
:10D240006D10AA18904200D91046C01D0B60C2088C
:10D25000D200D01A226070BDB830002070470000A4
:10D2600010B500F005F8001D10BD00BFA958000062
:10D2700000487047D4380020F8B51F460446012303
:10D280000068DB02032601461840072A05DB002858
:10D2900001D017A506E017A504E0002801D016A5C7
:10D2A00000E016A5102081432160A069C01E002F58
:10D2B000A06101D0401EA0612046FEF780FE002F35
:10D2C00009D038466268A1689047206A401C2062F5
:10D2D000C01C206206E0206AFAE762682878A1682C
:10D2E0006D1C9047761EF8D22046FEF77EFEF8BDF4
:10D2F0004E414E006E616E00494E4600696E6600FA
:10D30000F7B516468AB02F4878446C4603467C33FE
:10D31000C06F5A689B680DC42A487844763003ACC5
:10D320000DC80DC43720C001081837211B30FEF787
:10D3300089FC05460C46803D1B3C02D56442012019
:10D3400000E00020002709900FE0E0070BD00C2040
:10D350001C497843794432464C394118684600F0FC
:10D360002EFA6B4607C364107F1C002CEDD1154FBD
:10D370007F442C3F15E0E80711D02001C0190EC8EA
:10D380000691089307920068F04201D1981908901D
:10D39000324606A903A800F012FA03AB07C36D10CA
:10D3A000641C002DE7D1324669460998002803A87D
:10D3B00002D000F02EFA01E000F001FA0A9B07C348
:10D3C0000DB0F0BDD05B0000034640000A4610B52A
:10D3D000400D0BD00121C9070F24A40200191C0322
:10D3E00064082143540D2143D20207E000210120AB
:10D3F000F2E7D40F490021435200401E0029F8DA19
:10D40000DB0FDB07184310BDFFB50D46144685B092
:10D410004868516801F068FE00910190A868A16811
:10D4200001F062FE02910390A868616801F05CFE61
:10D43000029A12188242029201D2012000E00020DA
:10D44000019A0B18D2180028019202D08A4202D900
:10D4500003E08A4201D2012000E000200099081870
:10D4600000906868A16801F03FFE029A121882429B
:10D47000029201D2012000E00020019A0B18D2187C
:10D480000028019202D08A4202D903E08A4201D2E6
:10D49000012000E000200099081800902868216809
:10D4A00040004900400849084018EE49471814E078
:10D4B00001994000C90F084300900198029940006B
:10D4C000C90F08430190029803994000C90F08430F
:10D4D0000290039840007F1E039000980028E7DA2E
:10D4E0000898002801D0E04E00E00026B74228DA74
:10D4F000F71BF806C00E15D0029B2021091A039ACB
:10D500008B401A430392029A019BC2408B401A43FC
:10D510000292019A009BC2408B4000991A430192EB
:10D52000C14000917A110BD06B460320811A01D5BE
:10D53000002101E0890059588700401ED951F5D5D6
:10D54000374603980299002800D00120014308982B
:10D550000291002808460CD0002800D00120019933
:10D56000019A490508430121D20AC902D202019257
:10D5700000E001210E9B0122D207012B02D0002BDB
:10D5800003D013E0002807D116E0904204D890425F
:10D590000CD1019B0B4209D0019B5918019105D177
:10D5A0000099491C009101D17F1C0092002803D0F2
:10D5B000102108460020C04628682168019B009A77
:10D5C0004840C10F0598C90739430EC009B0F0BDE6
:10D5D000FFB587B0099A089808995368926840681F
:10D5E000896896460022039317469446089A126863
:10D5F0005300099A5B081268520052089A1A9B4B12
:10D60000D4180A9A002A01D0352200E0402206925E
:10D610000022012315460492DB07059324E0002D28
:10D6200005D175460346039E4D1BB34109D375468C
:10D630006646039B491B049D9841059B7519AC46A2
:10D640005F4163463B4308D0059B049EDD07760897
:10D650002E435B080496059301E0521E641EC50F1D
:10D66000ED0749184041521C069B9A42D7DB002D1A
:10D6700004D17546039A6B1A824101D203200CE053
:10D68000039A0B466B404240134303D0014303D03F
:10D69000012002E0022000E000206146019100210B
:10D6A000009702910A99002905D061464002014382
:10D6B0006D4B019102E08007002302909C423ADA10
:10D6C0001A1BD006C00E15D0029D2021019C091AFC
:10D6D000C5408C402543029C8C4000D0012425434A
:10D6E000019C02953D46C4408D4039462C43C140C3
:10D6F0000194009154111DD06D460221002202298F
:10D700000CD10320001B07E0002804DB8600AE5983
:10D71000002E00D00122401C0328F5DB081B02D597
:10D7200088002A5004E08000285810438A00A8503E
:10D73000491EE3D51C460A98002802980CD0002800
:10D7400000D001200199019A490508430121D20A1C
:10D75000C902D202019200E00121109B0122D207EE
:10D76000012B02D0002B03D013E0002807D116E0D4
:10D77000904204D890420CD1019B0B4209D0019BEE
:10D780005918019105D10099491C009101D1641CDF
:10D790000092002803D0102108460020C0460898B7
:10D7A0000999019A0068096848400099C30F0798D1
:10D7B000DB0723430360826041600BB0F0BD1FB5FF
:10D7C000002300920A46014601A8FFF71DFE01ABA7
:10D7D00007CB04B010BD1FB5012300920A460146D5
:10D7E00001A8FFF711FE01AB0F2407CBA402C30F62
:10D7F0004000DB074008001B002900DB0020490037
:10D8000000054908CC0A204349051843D20A1143B0
:10D81000DFE71FB5002300920A46014601A8FFF783
:10D82000D7FE01AB07CBD4E71FB5012300920A4610
:10D83000014601A8FFF7CCFE01AB0F2407CBA402E1
:10D84000C30F4000DB074008001B002900DB00205D
:10D85000490000054908CC0A204349051843D20A6B
:10D860001143B6E702C0FFFF013C0000FF3F00008C
:10D8700070B505460C460A2000E06D1CFEF7ACFFB3
:10D88000002D06D028780028F7D102E0641CFEF7AE
:10D89000A3FF002C02D020780028F7D10A20FEF741
:10D8A0009BFF70BD10B5002102A0FFF7E1FF012032
:10D8B00010BD0000534947414252543A2041626E24
:10D8C0006F726D616C207465726D696E6174696FE1
:10D8D0006E00000010B500F02BF8FFF763FC10BDE0
:10D8E00010B5012805D0002103A0FFF7C1FF0120DA
:10D8F00010BD09A1F8E7000053494752544D454D6A
:10D900003A204F7574206F662068656170206D65E0
:10D910006D6F7279000000003A2048656170206DDB
:10D92000656D6F727920636F7272757074656400D3
:10D9300010B5014602A0FFF79BFF012010BD0000BB
:10D9400053494752545245443A20526564697265BE
:10D9500063743A2063616E2774206F70656E3A209D
:10D960000000000010B503F0C5F902F09FFF10BDE4
:10D970000021016041608160C1607047F0B5002402
:10D98000FF2183B001314A4E4A4D012320460094C5
:10D990004A191768012F05D177681F4202D0002766
:10D9A0001C431760091D5B00401C89B20428EFD39B
:10D9B00041480168012906D1002101604007044364
:10D9C0003E48006900903E4E200712D001270025F6
:10D9D00027420AD03B48AA00111808690969C00407
:10D9E000C00E8903B258890F90477F006D1C042D2B
:10D9F000EED3002C59DA0020451E02900020044688
:10DA000001902F4B1A194032117C8806800E4EB2BD
:10DA1000761C3AD0012282402A4236D01F18302686
:10DA2000BE578909B6009E59002E02D0032902D0A4
:10DA300004E0032929D1029B13430293224B870060
:10DA4000FB189C461B68009F9B039B0F3A4202D029
:10DA5000022B02D019E0032B17D1032912D1022B7C
:10DA600021D002239E466246136803273F04BB432E
:10DA70001360176873461B041F431760019A521CFA
:10DA8000D2B20192002E00D0B047641C082CB8D34B
:10DA90000198002809D0094800690099884204D0FB
:10DAA0000090029DAAE70323DCE703B0F0BD00006D
:10DAB00000630040006000407C61004000050050B1
:10DAC0008C3500200065004000070050024A8000AD
:10DAD0008018016470470000F82E002010B50C4C2F
:10DAE0006068002813D10B484168002905D0002147
:10DAF000416009484168491C41602068002801D004
:10DB000004F062FFA068002801D002F0BBFE10BD47
:10DB100040110140001101407830002030B43148FC
:10DB2000314B018C0122C9B2012917D1848C240701
:10DB300014D1048D2406250F03D1858D2D062D0FBC
:10DB40000FD0240F012C03D1858D2D062D0F08D069
:10DB5000032C03D1848D2406240F02D0012907D081
:10DB600012E0224C5C600124214DE403AC6102E030
:10DB7000848C240708D1048D2406240F042C03D19F
:10DB8000848D2406240F02D0012903D01FE01949F7
:10DB90008A6002E0818C090719D1018D0906090FFD
:10DBA0000A2903D1848D2406240F05D00D290ED116
:10DBB000808D0006000F0AD10F480168012904D0AA
:10DBC0000E49016001680129FCD1C02141619A61BF
:10DBD0000B480021416081058A6041680029FCD022
:10DBE00030BC7047C00F00F000050040DFFF07C0E9
:10DBF000006C00400006004000EC064075930000F9
:10DC000000010040F8B50E4D032004260024000258
:10DC10002F18A00001210904A140FF3041302A58EB
:10DC2000002A08D07A680A4205D000212950054A06
:10DC3000516812689047641CE4B2B442E9D3F8BD5D
:10DC400000900040E8350020F8B50F4D0320042770
:10DC5000002400020D4E28180090A00001210904A4
:10DC6000A140FF3041302A58002A08D0009A52685B
:10DC70000A4204D000212950326871689047641C20
:10DC8000E4B2BC42E9D3F8BD00A00040F435002066
:10DC9000F8B54D4840684D4C40072746264640376A
:10DCA0002036002500283CDA49488168002938D010
:10DCB000317900292FD0856046488069A26A216B9E
:10DCC000C0B25054337E0022FF2B0AD0834208D1C9
:10DCD0000123206D5B0318432065E06C800400D5B0
:10DCE0000122491C2163E06A814205D3FF21206D96
:10DCF00001310843206501E0002A12D0387D8007F9
:10DD000002D43149042088603571606B002808D046
:10DD10006563804705E0A268002A02D000216068A0
:10DD20009047294B5868000628D52949C86900281A
:10DD300024D0707E00281BD0226C606C904207D2E9
:10DD4000CD61E16B234A095CD161401C606415E040
:10DD5000387DC00701D1802098607576206D042140
:10DD600008432065A06C002808D0A564804705E022
:10DD7000A268002A02D00121606890471448416AD5
:10DD8000002920D04562144801680160626BC8B266
:10DD9000002A18D0216D022319432165830703D57A
:10DDA0000123DB0219432165410704D50123216DBD
:10DDB0009B0219432165C00704D00121206D49024F
:10DDC000084320659047F8BD0023004070360020CE
:10DDD00000210040002500408024004070B504462A
:10DDE0000D4600BF00202056401C002804D12022F0
:10DDF0000BA11BA002F096FE00BF002D07D0002053
:10DE00002056012181401C4A916000BF07E000209C
:10DE1000205601218140184AD16000BF00BF70BD6B
:10DE20006D6265642F5441524745545F4E524635EA
:10DE3000315F444B2F5441524745545F4E4F52443B
:10DE400049432F5441524745545F4E5246352F6740
:10DE500070696F5F6F626A6563742E68000000000E
:10DE60006F626A2D3E70696E20213D202850696ED8
:10DE70004E616D65294E43000005005070B50146A6
:10DE8000002000231F240A4605E01678521C35188E
:10DE9000E8B25D1CEBB2E51AF7D170BD02210B4A66
:10DEA000516000BF0A4909680029FBD00749886012
:10DEB00000BF074909680029FBD00021034A5160CF
:10DEC00000BF034909680029FBD0704700E5014005
:10DED00000E4014000BF0D4A1278002AFBD1012264
:10DEE0000B4B5A6000BF0B4A1268002AFBD001603E
:10DEF00000BF084A1268002AFBD00022044B5A6077
:10DF000000BF044A1268002AFBD07047803000200E
:10DF100000E5014000E4014000200C4908600120B8
:10DF20008107086000BF094800680028FBD0022074
:10DF30000749886100200549486001208107886001
:10DF400000BF024840680028FBD070470001004035
:10DF5000000500400120014908707047BA2F0020D9
:10DF60000120014908707047BB2F00200021074A9B
:10DF700011610121064A116100BF044909690029A4
:10DF8000FBD00121034A11707047000000110040CE
:10DF900000100040863000200021014A11707047B7
:10DFA0008530002010B504462046FFF7DFFF002132
:10DFB000204600F009F900BF0C48C0680028FBD0DB
:10DFC00000200A49C8600120094908700948827880
:10DFD0000948816809A0FDF77BFA2046FFF7C6FFD4
:10DFE0000121204600F0F0F810BD000000110040B3
:10DFF00084300020543700200015004043683D2540
:10E00000642C20486F703D25640A0D0030B504462D
:10E01000002509480068012804D1084885880120A6
:10E02000074908702046FFF7A1FF0121204600F0B4
:10E03000CBF8284630BD00000014004060370020B7
:10E040008530002070B505460C46094821460EC9AA
:10E050000EC0FFF761FF06480EC8284600F078F8AA
:10E06000044804F019FD0121284600F0ADF870BD08
:10E07000543700206F12033BF8B505460E4668463C
:10E0800001F02AF81E4881681EA0FDF721FA00273A
:10E090001E2020490860202231461F48FDF70AFD56
:10E0A0001D48018A0183008A401C81B21A484183BD
:10E0B000042201461831684600F0C8FF01461648A0
:10E0C0008183FFF7DBFE1449C8770D488778807895
:10E0D00003280FD000240AE009498C7008460EC8B6
:10E0E000284600F035F82846FFF75CFF641C032C37
:10E0F000F2DB02E02846FFF755FF01488770F8BDC4
:10E100005437002073656E645266204368203D25B5
:10E11000640A0D00883000208037002010B50446C6
:10E1200008480078002809D00748C068002805D0B2
:10E1300000200549C8602046FFF768FF03480078C3
:10E1400010BD000086300020001100408530002006
:10E150001FB504466846007A1749C860684640798A
:10E16000002802D0492088601CE068468079032896
:10E1700007D146210398FDF757FD491C0E488160E1
:10E1800010E017210398FDF74FFD684680791722AC
:10E1900050430818401C084988606846817907A0E8
:10E1A000FDF796F96846C07903490861039988B27A
:10E1B00003F036FF1FBD000000150040486F703DA2
:10E1C00025640A0D0000000001290ED10122134B25
:10E1D0001A70134A134B5A600022134B1A60012223
:10E1E000124B5A6000221A600CE000220B4B1A708E
:10E1F0000F4A0C4B5A6000220B4B1A600B4B5A60B3
:10E2000001221A6000BF084A1268002AFBD00022CF
:10E21000054BDA600122054B9A607047863000207A
:10E220006037002000150040001100400010004041
:10E230008037002070B5044600200D4908700D4954
:10E2400008700D4D0D4E00BF05E0002131702970A2
:10E25000761C6D1C401C2028F7D30120084908704B
:10E260000848206008A0FDF733F9204670BD000083
:10E270008530002084300020603700208037002067
:10E2800086300020AAAAAAAA4E65772052660A0DF7
:10E290000000000070B504460068012203690021F7
:10E2A0002046984705000DD420680222036900210A
:10E2B00020469847064620680022036929462046E2
:10E2C0009847304670BD0020704710B50C464C3062
:10E2D00004F09EF9204610BD090108188021095854
:10E2E000002902D0096874300847704770B50546A8
:10E2F0004C3004F051F93F2104460902AB6C084050
:10E300000026002B08D0002806D001262A463C32E1
:10E3100001461B6810469847FC202146AA6B014025
:10E32000002A06D0002904D0284612682C309047D5
:10E3300001E0002E01D004F0B1F970BD70B50446C3
:10E3400000680D46016820468847204629464C3023
:10E3500004F044F89420055120684168204688471D
:10E3600070BD704770470000FFB585B03849394A25
:10E3700001601D46D468936800228360C460364BF8
:10E380000361364B4361C26180610246083202621A
:10E39000334A4262BFF36F8FBFF34F8F01460026AF
:10E3A00020310E724E72C662066346638663C66390
:10E3B000066446648664C664066546658665C66509
:10E3C000066646668666C6660667022310222549EB
:10E3D000743000F0B9FE0446743C0C300490456182
:10E3E00000252801061900206F4674360090019020
:10E3F00002900390BE420ED0F068002802D08168DF
:10E400003046884703983946002802D04268304693
:10E4100090470398F06003996846002901D0896805
:10E4200088476D1C022DDCD320464C300546079AE8
:10E43000069903F0F5FF04984169284603F0CEFFE2
:10E4400022460949284604F0A1F8204609B0F0BD4B
:10E45000C42F0200202E020001A00FC818470000A0
:10E46000F32B020071D90100D9E20100F0B5044696
:10E470008BB046482060002620464C300990002191
:10E4800004A8059104910691079100902068F7B2C5
:10E4900001682046884701F04BFE0798002820D0ED
:10E4A00039010D1980204059002801D104F0C6F827
:10E4B0000098743585420ED0E9682846002901D0BD
:10E4C0008968884707980099002802D04268284642
:10E4D00090470798E86001223946099804F066F8E9
:10E4E0002BE039010D1980204059002801D004F09B
:10E4F000D5F800216846743503910091019102918D
:10E50000089085420ED0E9682846002901D0896824
:10E51000884703980899002802D042682846904707
:10E520000398E86003996846002901D08968884704
:10E5300000223946099804F039F801F03BFE2068C2
:10E54000416820468847079804AA002802D08168BD
:10E5500010468847761C022E91DB204602231022AB
:10E560000B497430FDF766FCA06C3C34002802D0E7
:10E57000816820468847103CE068002802D0816806
:10E580002046884720462C380BB0F0BDC42F02002F
:10E59000DF2B020038B5009001468469083120461F
:10E5A00004F0B8F838BD01688968084710B501461D
:10E5B00082690831104604F04BF910BD10B50446CD
:10E5C000074820600020A060E0602061606101F0E9
:10E5D0003DFF0449A06104F057F9204610BD00003A
:10E5E000DC2F0200A7E5010010B5044604482060B6
:10E5F00021460831A06904F02BF9204610BD000027
:10E60000DC2F020030B583B004463A22684602701F
:10E6100044702004020E684682702002020E684692
:10E62000C270220E0271FDF737F9050009D020688B
:10E63000C16920468847002803D028460021FDF7FD
:10E6400055F9284603B030BDF8B5174D0446286883
:10E65000002801D1281D28600146281D0090814214
:10E6600004D05B221149124802F05CFA0021114AE1
:10E670002F6810230E4688001558A54200D1165069
:10E68000491C5B1EF7D10848002F01D0016801E04A
:10E69000011D01600098814204D05B2203490448B7
:10E6A00002F040FAF8BD00000430002018310200EA
:10E6B000043102004C35002010B50021FDF716F999
:10E6C00010BD10B5044600202060A060E06020610D
:10E6D000606101F0BBFEA0610120207701F028FD00
:10E6E000A06904F094F8E160A060002020616061FE
:10E6F00001F060FD204610BD10B5044601F018FD84
:10E700002068002804D0207F002801D003F0C6FF35
:10E710000020206001F04EFD204610BD70B504467B
:10E720000D4601F005FD2946204603F013F901F0DE
:10E7300041FD70BD70B504460D460020207201F009
:10E74000F7FC2946204603F02FF801F033FD204660
:10E7500070BD10B5044601F0EBFC00BF207A012823
:10E7600003D103F09BFF0020207200BF01F022FDC7
:10E77000204610BDF8B505460E462C46374601F03A
:10E78000D7FC00BF207A002803D103F057FF0120F7
:10E79000207200BF3946204603F0F8F801F00AFD68
:10E7A00000BF2846F8BD70477047000010B51C46F2
:10E7B000029BFFF7D9FD2146983000F04DF805493E
:10E7C000983801600146044A8031CA61034A8A616F
:10E7D00010BD0000F02F02006C300200103002006B
:10E7E00010B5074901600146064A8031CA61064AF0
:10E7F00098308A6100F068F89838FFF737FE10BD4E
:10E80000F02F02006C300200103002007047002030
:10E8100070470020704700207047F8B50546006833
:10E820000E460C468F18C16C28468847BC4209D05A
:10E8300028682178426C2846641C9047401C01D00F
:10E84000BC42F5D12868016D28468847A01BF8BD59
:10E85000002070477047000010B50F4A04C0002226
:10E8600000F05EF9041F0D4820600D486060002034
:10E8700060610CA1204600F015F96061000002D033
:10E88000FFF71AFF05E0FCF72BFD016806A001F079
:10E89000C7FC204610BD0000782F02007C3002002B
:10E8A000D8300200772B000053747265616D206FC1
:10E8B000626A206661696C7572652C206572726E81
:10E8C0006F3D25640D0A000010B504460548206020
:10E8D000054860606069FDF717F8201D00F040F9F9
:10E8E000001F10BD7C300200D830020070B5154604
:10E8F0001E46044601F01CFC2046FFF757FE6662E8
:10E900002562A06903F083FF226A636A82184B4183
:10E910002046FFF73FFE01F04DFC70BDF7B586B015
:10E92000074614460C49204604F07AF90090FDF79A
:10E93000D0FA05460E4602A8079904F041F92A4686
:10E94000334601460190384600F01BF802A804F057
:10E9500046F909B0F0BD00000024744910B5044622
:10E96000C3688268016A406A521843412046FFF733
:10E9700011FE616B002903D02046096828308847C2
:10E9800010BDF0B51FB482B005460F4601F0D0FBB4
:10E9900000BF686B002801D0012000E000200028A3
:10E9A00005D13820405D002801D003F047FE2C46F9
:10E9B00028340197019FBC420BD0204604F00FF988
:10E9C00000BF00BF261E04D03046019904F0F8F8BD
:10E9D000064600BF2846059B049AFFF787FF01F013
:10E9E000E9FB07B0F0BD000010B504462046FFF774
:10E9F000E5FD0446204600BF04460748206000218C
:10EA00002046283004F0C0F80446283C0121382074
:10EA10000155204610BD0000E830020070B584B0FA
:10EA20001F490446016001F083FB2046FFF7BEFD4D
:10EA3000606B002805D03820005D002801D003F06D
:10EA40002DFE00206D462834009001900290039026
:10EA5000AC4210D0E1682046002901D0896888477F
:10EA6000260008D003982946002802D04268204694
:10EA700090470398F06003996846002901D089689F
:10EA8000884701F097FBE068002802D081682046A3
:10EA9000884720462838FFF7A7FD04B070BD000066
:10EAA000E830020010B5FFF7ADFD10BD007B7047E8
:10EAB00070B506460D46164804F042F8154804683D
:10EAC000002C20D0A06800281AD02A463146FCF736
:10EAD000A1FF002814D1A068FCF77AFFA8420FD14B
:10EAE0000B480168002901D1011D0160001D814210
:10EAF00004D05B220849094802F014F8204670BD92
:10EB00006468002CDED1024804F01AF8002070BDC1
:10EB1000A4300020A030002018310200043102008F
:10EB200070B50446002666600A48A16020600D4664
:10EB30002273094804F004F8002D04D00748016846
:10EB40006160046000E06660034803F0F9FF20465E
:10EB500070BD0000FC300200A4300020A030002076
:10EB600010B5044611482060114803F0E9FFA06881
:10EB700000280FD00F490868A04202D160680860E1
:10EB800008E04168A14203D008464968A142FBD190
:10EB900061684160064803F0D3FF207B002802D162
:10EBA000201FFFF751FD204610BD0000FC30020081
:10EBB000A4300020A030002010B504464068002892
:10EBC00003D0FFF773FF012801D0002010BD60685B
:10EBD0000028FBD0001F10BD10B504464068002877
:10EBE00003D0FFF763FF002801D0002010BD60684C
:10EBF0000028FBD0001F10BD4068002800D0012075
:10EC0000704710B54068002804D0FFF74FFF002878
:10EC100001D0002010BD012010BD0068704710B564
:10EC2000044600202060606008782F280FD14878C3
:10EC300000280CD04B1C00211A46236010782F2886
:10EC400007D0002807D0521C491C2260F6E7204656
:10EC500010BD501C20601846FFF72AFF6060204658
:10EC600010BD0000FEB50120009000070769406953
:10EC7000401E0190019878430446124D002002E0A6
:10EC800002CC02C5401C2328FAD3019878430446DD
:10EC90000C4D00260DE028682168884206D03146D8
:10ECA00009A02268FCF714FC002000902D1D241DF3
:10ECB000761C232EEFD30098002802D104A0FCF785
:10ECC00007FCFEBDC836002025642C25640A0D0013
:10ECD00052656164204661696C210A0D00000000E4
:10ECE00030B58BB00546284600F0C6F80446002033
:10ECF00003E000212170641C401C8C28F9D303AC74
:10ED0000002003E000212170641C401C2028F9D35E
:10ED10002D21684601820A210173C07B02218843AC
:10ED2000811C6846C173407B41084900491C684604
:10ED30004173807B41084900491C68468173062164
:10ED40008174002103A8C17101720A2181812022EE
:10ED500003A91C48FCF788FA00211A4820304170AA
:10ED600001210170FE2181701748164988631748F8
:10ED7000C863002048640021124881646C4600206A
:10ED800003E000212170641C401C0C28F9D30021F1
:10ED9000684641700170032181700221C170042115
:10EDA00001710021C180008A0290064869460EC99F
:10EDB00024300EC0064803F06FFE284600F00AF823
:10EDC0000BB030BDC8360020AA55AA5518AB0000BC
:10EDD000CDCCCC3DFEB5012000900007076940690D
:10EDE000401E01900198784305462846FFF756F8E3
:10EDF000164C002605E002CC28462D1DFFF76AF8C8
:10EE0000761C232EF7D30198784305460F4C002635
:10EE10000DE028682168884206D031460CA022689F
:10EE2000FCF756FB002000902D1D241D761C232E80
:10EE3000EFD30098002803D007A0FCF749FB02E0BD
:10EE400009A0FCF745FB0098FEBD0000C836002075
:10EE500025642C25640A0D0057466C617368204FA9
:10EE60006B210A0D0000000057726974652046612D
:10EE7000696C210A0D00000001460148704700003E
:10EE8000C836002070B504462046FFF7EBFE20464A
:10EE9000FFF7F2FF8588294607A0FCF719FB094810
:10EEA000806B0949884204D02046FFF719FF0020F3
:10EEB00070BD0120FCE700004769643D25640A0D30
:10EEC00000000000C8360020AA55AA55704700006F
:10EED00070B5044604480068054624352946204696
:10EEE000FFF7B0F870BD00009430002070B5054603
:10EEF0000C4618A0FCF7ECFAA18823A0FCF7E8FA6E
:10EF0000217824A0FCF7E4FA617825A0FCF7E0FA68
:10EF1000A17826A0FCF7DCFAA17927A0FCF7D8FAA3
:10EF2000E17928A0FCF7D4FA217A29A0FCF7D0FADD
:10EF3000617A2AA0FCF7CCFAA17A2BA0FCF7C8FAD8
:10EF4000E17A2CA0FCF7C4FAA1892DA0FCF7C0FA45
:10EF500070BD00000A0D2D2D2D2D2D2D2D2D2D2DAB
:10EF60002D2D2D204E6577204672616D65204661FE
:10EF700063746F72202D2D2D2D2D2D2D2D2D2D2DCA
:10EF80002D2D2D0A0D0000004769643D25640A0DF2
:10EF9000000000005069643D25640A0D0000000077
:10EFA000527854783D25640A0D00000053656E7355
:10EFB0006F723D25640A0D00486967683D25640A43
:10EFC0000D0000004C6F773D25640A0D0000000025
:10EFD0004C6576656C3D25640A0D000054797065BA
:10EFE0003D25640A0D000000526174653D25640AE8
:10EFF0000D0000005374617475733D25640A0D00A3
:10F000004454696D653D25640A0D000070B50546E0
:10F010000C462846FFF70EF90546094804600068CB
:10F02000FFF72AFF0749086008460068064908609C
:10F03000084601682846FFF759FF284670BD0000C2
:10F04000903000209430002098300020F7B581B037
:10F050000B46002100241F480090002B02D1002005
:10F0600004B0F0BD14E0CD134804010C1878204121
:10F07000C007C00F0143641C072C05DD00245B1C86
:10F080000398401E80B20390002D01D000984140AB
:10F0900003980028E7DC002207E0CD134804010CA8
:10F0A000002D01D000984140521C102AF5DB0027AA
:10F0B0000122D203012608E010460840002802D0B1
:10F0C0003846304387B252107600002AF4D13846D1
:10F0D000C6E70000058000007047704710B59838FB
:10F0E000FFF7F3F810BD7047F8B5040C8BB2264655
:10F0F00082B25E43104658430D0C370C3604002193
:10F100008019164679416E43370C3604801926461D
:10F1100079416E438919F8BD4900CA0202431000C3
:10F1200000D004204A0D01D001221043044A490DA9
:10F13000914201D102210843012800D105207047E6
:10F14000FF07000001207047FFB581B01C4617463D
:10F150000E0007D0019D02E02846B047ED19204679
:10F16000641EF9D2019805B0F0BD10B50020FDF77E
:10F1700019FB10BDF8B5274C152500262670324620
:10F180002946204601F054FA00BF4B20C00100235D
:10F190000B22092100902048FFF708FB04461F4A74
:10F1A0001F49FFF7CFFF1F48FFF790FE1E48FFF7EC
:10F1B0001BFC0446194A1D49FFF7C4FF1C48FFF712
:10F1C00013FC0446154A1949FFF7BCFF1948FFF71D
:10F1D00078FA0446114A1849FFF7B4FF1621174878
:10F1E000FFF7A8FA04460D4A1549FFF7ABFF1721B0
:10F1F0001448FFF79FFA0446084A1149FFF7A2FF97
:10F2000018211148FFF796FA0446044A0C49FFF703
:10F2100099FFF8BDB82F0020D030002000B00100C9
:10F22000E1E70100B92F0020883100201DEA01002C
:10F23000C831002008320020F9E601002832002001
:10F2400053E70100343200204032002010B500F0B6
:10F2500009F810BD30380A2801D20120704700207B
:10F260007047000002486A46C008C00070470000AE
:10F27000EF38002010B501F03EFD10BD032801DA83
:10F280000020704770B581000D48002209188039B0
:10F29000486F551E4A6700280AD0016849698847A7
:10F2A00004000BD5FCF71CF861420160284670BDD4
:10F2B000FCF716F809210160284670BD002070BDDA
:10F2C0004C35002070B50025ED43032805DAFCF726
:10F2D00007F805210160284670BD0C4980004018E0
:10F2E0008038406F00280AD00168896A8847040086
:10F2F000F2D5FBF7F5FF61420160284670BDFBF7D0
:10F30000EFFF09210160284670BD00004C35002048
:10F31000032801DA012070470C49800010B540181D
:10F320008038406F00280AD00168C9698847040006
:10F3300004D5FBF7D5FF61420160002010BDFBF74B
:10F34000CFFF09210160002010BD00004C350020D6
:10F35000F3B589B07B490998FCF716FC4B257A4C2C
:10F36000ED01002810D079490998FCF70DFC002820
:10F3700019D077490998FCF707FC002822D0754C72
:10F38000206800282DD02EE02068002808D10B220C
:10F390000921714803F044F829466F4803F01EF82C
:10F3A00000200BB0F0BD2068002808D10B220921F5
:10F3B000694803F035F82946674803F00FF8012043
:10F3C0000BB0F0BD2068002808D10B22092162484B
:10F3D00003F026F82946604803F000F802200BB03D
:10F3E000F0BD201D2060261DB04204D05B225B4989
:10F3F0005B4801F097FB216800245A4D671EA0006E
:10F400002858002803D0641C102CF8D301E0102CDD
:10F4100013D3FBF765FF182101604E4801680029EE
:10F4200001D1011D0160B14204D05B224B494C481F
:10F4300001F078FB38460BB0F0BD0020C043A700B8
:10F44000E8514448002901D1011D01600068B04223
:10F4500004D05B224149424801F064FB0020009047
:10F460000998099900783A2811D004A8FFF7D7FB2A
:10F4700004A8FFF7C1FB002829D004A8FFF7C1FBAF
:10F48000002804A81AD0FFF7A7FB009056E04A789E
:10F49000000A000210438A78FF231B0212029843DD
:10F4A0001A401043CA781B02120498431A401043B2
:10F4B00009790002000A09060843E6E7FFF77CFB2A
:10F4C000060004D00A9988070AD5022011E0FBF74C
:10F4D00007FF132101600020E851401E0BB0F0BD72
:10F4E000480701D5012004E0080701D5092000E004
:10F4F00000200A07920F02D001225202104349074E
:10F5000002D5012189020843029004A8FFF785FB78
:10F510000246306869468068029B844630466646EB
:10F52000B047002809D00446FBF7DAFE61420160CB
:10F530000020E851401E0BB0F0BD0098E851E01CDF
:10F540000BB0F0BD102D020054300020172D02002A
:10F550001F2D020004300020483600201831020020
:10F56000043102004C35002070B50022551E0328DE
:10F5700005DAFBF7B5FE1D210160284670BD0C4B76
:10F580008000C0188038406F00280AD003681B69CB
:10F5900098470400F2D5FBF7A3FE614201602846BC
:10F5A00070BDFBF79DFE09210160284670BD00007B
:10F5B0004C35002070B515460E46032819DA1A4856
:10F5C0000068002809D10B220921184802F028FF01
:10F5D0004B21C901154802F001FF0024002D06D976
:10F5E000315D124803F014F8641CAC42F8D32C4689
:10F5F00010E00F49800040188038406F00280BD081
:10F600000168CB6831469847040003D5FBF768FED4
:10F6100061420160281B70BDFBF762FE0921016099
:10F620000020C04370BD0000543000204836002048
:10F630004C35002070B5044600680D46008B6421EF
:10F6400080B25043FCF7F0FA82B22946204600F01F
:10F6500001F870BDF0B50D46044600680C212E4639
:10F660004E438BB0311803912321095C022902D04B
:10F6700008200BB0F0BD03994968914206D1C169D9
:10F68000002978D0606800798847D7E16368ED4940
:10F690001F79BC46CF5D15218901FF2F0FD0FE2FAA
:10F6A0004DD01B68BF0079185B5861468F00E64952
:10F6B000C9598B4243D1E34FFF216346F954616836
:10F6C000FE230F79DF49CB55039915274B68A90015
:10F6D000BF010691C91908910699FF314131019185
:10F6E000002B02D081698B427ED3002A02D0806930
:10F6F000904241D820680290311820300591069040
:10F700001746007801F088FD0698407801F084FDE6
:10F7100020683618307A01F07FFD707A01F07CFDA8
:10F720000C2068430A30002F0CD002998969B94235
:10F7300013D88FB22168085C002807D008E0112098
:10F740000BB0F0BD2168085C002801D0002100E06A
:10F7500001210598006801F0CBFC00233A462946B8
:10F76000606801F06BFE059847606168FF200A79C8
:10F77000B449885453E161E102922768F1192037B6
:10F780000591B8780490387801F046FD787801F05A
:10F7900043FD20683618307A01F03EFD707A01F0A2
:10F7A0003BFD002360682946029A01F047FEA74806
:10F7B000049901F09FFD05990122097A10468840BD
:10F7C0000599497A8A401043049901F06DFD059925
:10F7D00048689F49002804982ED0C00042186068ED
:10F7E00001683878FF3100E045E0493101F0F2FC72
:10F7F000002301220321606801F020FE60680021DF
:10F8000000798200904881506068026878781146DB
:10F81000FF3149314C3201F0DDFC387801F012FD46
:10F82000787801F00FFD059902984860616803201F
:10F830000A7984498854F2E0C0004218606801687F
:10F8400001980918387801F0C5FC00231A460321F5
:10F85000606801F0F3FD606808990268515800790A
:10F860008200794881506068016801980A464C32EC
:10F8700009187878CFE7002A01D0914270D8049215
:10F8800027680297F6192037B8780390387801F086
:10F89000C3FC787801F0C0FC6C48039901F02AFDA4
:10F8A000327A012108469040727A914008430399C8
:10F8B00001F0FAFC049A6749002A30D00298008BC4
:10F8C00080B204900398C0004218606801683878DC
:10F8D000FF31493101F07EFC0023012203216068E1
:10F8E00001F0ACFD6168002009798A005649885012
:10F8F0006068026878781146FF3149314C3201F076
:10F9000069FC387801F09EFC787801F09BFC049843
:10F910007060616803200A794A4988547FE003983F
:10F92000C00042186068016801980918387801F031
:10F9300051FC00231A460321606801F07FFD6068D6
:10F94000089902685158007982003F4881506068E8
:10F950000199006802464C3241187878CFE7FFE7FA
:10F9600023681746F0181E4620360390B0780090A2
:10F97000307801F051FC707801F04EFC334800996A
:10F9800001F0B8FC3278012108469040727891402D
:10F990000843009901F088FC6068016806984030CF
:10F9A000C0B20A18FF3130784D3101F013FC6068A5
:10F9B000052100680902401800690006000E12D0F7
:10F9C0000020C1190398406881420ED20398006854
:10F9D00001F058FB0246606801687078FF314D31D4
:10F9E00001F0F8FB07E00120EBE771780120884087
:10F9F000009901F07FFC0398002347603A460321F9
:10FA0000606801F01BFD009801F0CCFC6068007993
:10FA100081000D48475061680A790A498D54206871
:10FA2000C06900280AD061680B4A097902204900A0
:10FA3000891848550221606801F01FFD00200BB0B5
:10FA4000F0BD0000BC2F0020C42F0020FF3F0000AD
:10FA500000F0014004F00140BE2F0020F8B506463A
:10FA60000768406801F01CFD0221706801F0FCFC91
:10FA7000002438192030007801F0CEFB641CE4B279
:10FA8000022CF6D3002420460C214843C519E97AFC
:10FA9000002912D031680A30085C0028287819D073
:10FAA000012181401548C160286801F0F9FA287ADF
:10FAB00001F0B2FB687A01F0AFFB641CE4B2022CE7
:10FAC000E1D370680E4A01680020914207D10D49C8
:10FAD000C8600EE00121814008488160E4E70A4ADD
:10FAE000914201D1094903E0094A914201D10949F2
:10FAF000C86001202037F870F8BD000000050050F4
:10FB000000800040008C004000900040009C0040BD
:10FB100000A0004000AC0040F8B505460068002495
:10FB20002746009020460C214843009946186968F2
:10FB300009794A001D4951180F55F17A00290CD056
:10FB400029680A30085C002818D00021306801F0CC
:10FB5000CFFA306801F0B4FA7760641C022CE1D36C
:10FB60006968134A0979FF2050546868114A01688E
:10FB70000120914204D11049C8600BE00121E5E762
:10FB80000E4A914201D10E4903E00E4A914201D141
:10FB90000D49C860686801F04DFC686801F08CFC94
:10FBA000009802212030C170F8BD0000BE2F002057
:10FBB000BC2F002000800040008C004000900040DE
:10FBC000009C004000A0004000AC0040F7B588B0A9
:10FBD000099800280AD00898076838462030049011
:10FBE000C078002805D008200BB0F0BD0B200BB06A
:10FBF000F0BD01F013FC002804D0852802D00420B9
:10FC00000BB0F0BD01F0D2F9002806D101F09EF949
:10FC1000002802D003200BB0F0BD0499FF2008702B
:10FC2000049900264870049934468870FE72387230
:10FC30007872711E3960FE7538757875F9603819FB
:10FC4000203001F093FA002809D1641CE4B2022CA0
:10FC5000F5D33846223001F073FB002805D0089810
:10FC600001F0FAFC04200BB0F0BD00250998A900B2
:10FC70004058411C78D00090099829464019007AD4
:10FC80000690089804680C20414323200191005DF0
:10FC90000E19002801D008248AE000207060069820
:10FCA000B0725F48006805900898016801980A30B2
:10FCB000085C002809D000206946487505A900980D
:10FCC00001F07CF9002819D101E00120F4E7019945
:10FCD0000098605006980099002804D001208840C0
:10FCE0005049C86003E0012088404E4988600024E4
:10FCF0003019083001F03AFA002801D0042457E006
:10FD0000641CE4B2022CF3D3307A01F085FA707AE5
:10FD100001F082FA306801F0B5F9024608984168AE
:10FD2000A800FF300968413080B20918307A01F02C
:10FD300051FA306801F0A6F9024608984068016857
:10FD4000707AFF31493101F045FA0120F0720899CB
:10FD50000020496809794A0033495218294650540D
:10FD600002460898FFF776FC6D1CEDB2022D00D21A
:10FD70007CE709982D4A01690020092301E0490820
:10FD8000401C914201D99842F9D3254A51689268A2
:10FD900002910392694608720898254A406802A9B0
:10FDA000007903900898406801F0BEFB040005D07C
:10FDB000089801F051FC20460BB0F0BD08980522D0
:10FDC00040680999006812028018096900690C01ED
:10FDD000C440BC610898406801F02CFB01250898DC
:10FDE0000095406804232246022101F073FB089825
:10FDF0000221406801F038FB0A98F86108980D4A22
:10FE0000416809798900505008990B4A4968FF20D8
:10FE1000097950540498C57000200BB0F0BD000063
:10FE2000F02C020000050050BE2F0020FF0F000044
:10FE3000E5160200CC2F0020BC2F002070B504680E
:10FE400005462034E078022802D0002809D002E0DC
:10FE50002846FFF703FE284601F0FEFB0020E07075
:10FE600070BD082070BD000030B4EFF3108172B691
:10FE70000A4A54680123002C05D00370002900D1E0
:10FE800062B630BC70475360054B1D68054C254079
:10FE900015601C6000220270F0E700006C3000204A
:10FEA00080E100E0FC06FFBC08494A68002A0CD04B
:10FEB00000280AD1EFF3108072B60A68044B1A606A
:10FEC00000224A60002800D162B670476C300020E2
:10FED00000E100E070B50446200E02F009FC0506C2
:10FEE000200C02F005FC00040543200A02F000FC8F
:10FEF00000020543204602F0FBFB284370BD0000D2
:10FF0000F8B50C4E0C4C65680C48406861680906F1
:10FF10000F1800F00DF97068002804D00020706000
:10FF20006068401C606000F045F96068A842EAD152
:10FF30003846F8BD0011014078300020001501401E
:10FF4000F8B5124F124C666812484068616809069D
:10FF50000D1800F0EDF87868002804D000207860D3
:10FF60006068401C606000F025F96068B042EAD12A
:10FF700028460949FFF7B8F801239B030022C0185F
:10FF800051414A04C00B1043C90BF8BD0011014098
:10FF9000783000200015014040420F0070B5114C30
:10FFA000207800281CD110491120FDF78FFD104941
:10FFB00000200E4D88600F490860486088600E4937
:10FFC00048600F480D49416002214164072109043E
:10FFD00081641120032100F08FFE01202860207031
:10FFE00070BD000078300020DDDA01000010014013
:10FFF00000150140401101400011014002000500C0
:020000040002F8
:1000000000130140F7B5364E364D374C82B0676865
:100010007068616809060818009000F089F868683F
:10002000002804D0002068606068401C606000F018
:10003000C1F86068B842EAD12C4F00983946FFF702
:1000400053F801239B030022C01851414A04C30BFB
:100050001343029AC90B0020121848410299994291
:1000600002D20121121C4841C103530C1943D00391
:100070001F4B0022C01851413A460023FBF78BF971
:10008000074600F055F8666815484068616809063B
:100090000D1800F04DF813484168002904D00021E4
:1000A00041606068401C606000F084F86068B042A5
:1000B000E9D1AD1C781B002800DC2F4603990D4ABE
:1000C00089008A1838020521000A090251180864BB
:1000D00009490498486400F06DF805B0F0BD0000CF
:1000E00000150140001101407830002040420F000F
:1000F0003F420F00001001400013014070B50D4653
:10010000044600F015F82088401B85B2258000F0D9
:1001100051F8284670BD70B50D46044600F008F849
:100120002088401985B2258000F044F8284670BD2B
:1001300016484168002903D04168491C4160704756
:1001400070B5EFF3108172B6114A556801240F4B58
:10015000002D03D01C7000290AD00AE054600D4C19
:1001600026680D4D2E401660256000221A70F2E7B9
:1001700062B64168002904D02822084908A0FBF78C
:10018000E9FB4168491C416070BD00000C30002053
:100190006C30002080E100E0FC06FFBC2832020049
:1001A0005F656E7472795F636F756E74203D3D207C
:1001B0003000000010B511484168002918D041688E
:1001C000491E41604168002911D10D4900784A68F3
:1001D000002A0CD000280AD1EFF3108072B60A680A
:1001E000084B1A6000224A60002800D162B610BD98
:1001F0002E22054905A0FBF7ADFB00000C300020C6
:100200006C30002000E100E0283202005F656E746F
:1002100072795F636F756E74203E203000000000BD
:100220000FB410B508480178002908D101210170E8
:1002300003A9029800F036FD012000F007F810BC79
:1002400008BC04B0184700009E300020002801D0F0
:1002500000F092FCFEE710B58A68002A02DCFCF789
:1002600087F810BD521E8A604A68C0B2531C4B60AA
:10027000107010BDF8B5264D2F78FB070DD0002863
:100280000DD0244C84420AD8234C844207D900293B
:1002900007D08B0507D00620F8BD0120F8BD02204D
:1002A000F8BD0320F8BD03688B4204D8930244686C
:1002B0005B18A34201D90520F8BD002A1DD0174BB9
:1002C0005E6D042E1BD01C6DA419042C00D30024D9
:1002D000761C5E6514267443E31800245C609C6001
:1002E000DC601C611860022089011871090C1981F9
:1002F00079079A81890F04D007E00420F8BD072010
:10030000F8BD07432F7001F035FE0020F8BD000056
:10031000EC2F0020BC300020CC30002054330020D3
:1003200010B5084601F04CFB10BD0000F8B5274C95
:100330002778FC0711D0002811D0254D85420ED812
:10034000244D85420BD9002A0BD0002909D0144630
:100350000C43A40707D00620F8BD0120F8BD0220F9
:10036000F8BD0320F8BD04688C4204D89D004468A1
:100370006D18AC4201D20520F8BD002B1BD0164CE5
:10038000666D042E19D0256DAD19042D00D30025FE
:10039000761C6665142675432C1900256560256159
:1003A000206001252571A260E16008487907238259
:1003B000890F04D008E00420F8BD0720F8BD022111
:1003C0000F43077001F0D6FD0020F8BDEC2F002090
:1003D000BC300020CC3000205433002010B5174C26
:1003E0006088211D01F098FF154900280DD008688C
:1003F00089886268890041185088C01C83B2032034
:1004000020701048FFF792FF10BD608802010E486F
:1004100010188289002A09D00520207002208880C7
:10042000096801220748FFF725FF10BD4168012236
:100430000448FFF71FFF0421217010BD4433002042
:10044000E42F0020BC3000202433002000487047F7
:10045000682E0200F8B529490446085D0122C30749
:100460001546A540264E002B01D1830641D58307B2
:100470000021002B01DA83062FD56F46F970B97081
:1004800003233B70870614D5684643701D4A6946AE
:10049000204600F0B7FCB068054226D01748005D42
:1004A000C10901D1400620D50121204600F058FCA9
:1004B0001BE0C006800F01280CD00328684607D037
:1004C00041704078104A8000A100891808600CE053
:1004D0004370F6E768464270F3E740070091C00FAB
:1004E00069464870204600F069FD30680543356074
:1004F000F8BD3068A8433060F8BD00002834002003
:10050000F02F0020750702000007005070B5044668
:10051000002020560E46401C04D1B722114912A0DB
:1005200000F000FB164A2078012112688140154D29
:10053000114209D0295C8A0704D5890602D400F04B
:10054000EDFD01E000F0C4FC00202056FD22295CF6
:100550001140F207920F114329542078FFF77AFFD8
:1005600070BD00006C3102006F626A2D3E70696ED2
:1005700020213D202850696E4E616D65294E430053
:10058000F02F00202834002010B504460170481CCC
:1005900013D01F2904D35322084909A000F0C2FA3E
:1005A0000F490620FDF792FA00F0D0FC00216156B9
:1005B0000C480123425C1A43425410BD6C310200C6
:1005C0002875696E7433325F742970696E203C201F
:1005D0004750494F5F50494E5F434F554E540000BE
:1005E0007DD901002834002070B504460D46002650
:1005F000FFF7CAFF6D1C14D0A057401C04D1202265
:100600000849094800F08EFA207801218140074806
:10061000C16001212046FFF779FF3146204600F0F6
:100620003BF870BDC03102007C060200000500509E
:10063000F8B504460F4600261546FFF7A5FF791CBE
:1006400019D0A057401C04D120220B490BA000F068
:1006500069FA01200F492278002D02D0904088606D
:1006600001E09040C86001212046FFF74FFF31466E
:10067000204600F011F8F8BDC03102006F626A2D0B
:100680003E70696E20213D202850696E4E616D6577
:10069000294E43000005005070B504460020205646
:1006A0000E46401C04D1AC22114912A000F03AFAC7
:1006B000164A2078012112688140154D114209D057
:1006C000295C8A0704D5890602D400F027FD01E0E1
:1006D00000F0FEFB00202056E722295C1140B20703
:1006E000D20E114329542078FFF7B4FE70BD0000EC
:1006F0006C3102006F626A2D3E70696E20213D20D0
:100700002850696E4E616D65294E4300F02F002020
:100710002834002010B5044600202056401C04D187
:1007200066220B490BA000F0FDF9002161560F482D
:10073000405C82070E4806D5806801228A4010403E
:1007400000D0012010BD0069C840C007C00F10BD17
:100750006C3102006F626A2D3E70696E20213D206F
:100760002850696E4E616D65294E43002834002083
:1007700000050050114930B48200511809688903FE
:10078000890F032913D002210D4B01249D68844059
:100790002C4211D00B4C01290BD002290CD1205C2A
:1007A000400609D5084880585A6830BC10470121D6
:1007B000EAE7205CC009F5D130BC70470007005063
:1007C000F02F002028340020AC330020F0B4164C69
:1007D0004B1C01D0022800D12146144B551C9961B5
:1007E00001D0012800D122464E1C0024104D5A6130
:1007F000002E07D001260F4F8E40BE6003268F00CB
:100800007F193E60561C02D0960075192C60002896
:1008100000D0012018775B7F03430748C3668160DF
:100820000261F0BC70470000FFFFFFFF7036002040
:10083000000700500005005000250040014900203D
:10084000886070474011014001200249800488649B
:10085000704700000013014010B5FFF751FB801CEA
:1008600000020449000A0864012003498004486426
:1008700010BD0000081501400013014010B5FFF73E
:100880008DFB10BD10B5024801F072FF10BD0000D5
:10089000482E020010B5FFF753FB10BD10B5012222
:1008A00092040221FFF7AEFB10BD00008AB0E121E7
:1008B00049025E48FDF742FD5DA0FAF709FE66A019
:1008C000FAF706FE6A4802F0E7F86A48FEF7DAFA35
:1008D0006848FEF7D1FA0590059DA98866A0FAF749
:1008E000F7FD644904A8FEF791FB04A8FEF7F0FAAF
:1008F000654906A802F048F904467F22D205214640
:100900006248FEF70BF806A802F069F9604906A8EC
:1009100002F03AF90446564A21465E48FDF7FEFFCA
:1009200006A802F05CF900200390002602907D21C9
:10093000C9005948FDF7F2FE7D21C9005748FDF76F
:10094000EDFE7D21C9005648FDF7E8FE6DE004A8E4
:10095000FDF7E4FB002805D004A8FDF71DFB51A01E
:10096000FAF7B6FD5548007800282ED000205349EC
:100970000870534F3C4600BF2046FFF7CBFE00BF38
:10098000002801D1012000E000200190019C2146B7
:100990003846FDF723FA00BF00BF0398401C0390C0
:1009A00068788007C00F00280BD046A00399FAF79B
:1009B0008FFD49A0FAF78CFD294604A8FDF75CFBE2
:1009C00003E04CA00399FAF783FD4F480078002814
:1009D0002BD000204C490870761C7D21C900304680
:1009E000FBF722F9002903D1314648A0FAF770FD40
:1009F00001210298484002900298002810D0072157
:100A00003046FBF711F9002905D13F21090624489A
:100A1000FDF7B0FE09E042491F48FDF7ABFE04E0D8
:100A20003F2109061D48FDF7A5FE90E7D0300020C4
:100A30000A0D4E6F77204E6577206E72663532381C
:100A4000333220323031372E31322E3138203132AC
:100A50003A35300A0D0000004D79207379737465C2
:100A60006D206973206E726635313832320A0D009E
:100A70006F12833AB92F00204D7920476964203DD9
:100A800025640A0D0000000055DF010088310020B8
:100A900061DF0100C83100204032002034320020E4
:100AA000283200202D2D2D2D2D2D2D2D2D5266205F
:100AB00052656365697665640A0D0000BA2F0020EF
:100AC000B82F0020546869732069732054783A2045
