:020000040001F9
:10C000000000012031C201003DC201003FC2010019
:10C0100041C2010043C2010045C20100000000000E
:10C0200000000000000000000000000047C2010006
:10C0300049C20100000000004BC201004DC20100D6
:10C040004FC201004FC201004FC201004FC20100A8
:10C050004FC201004FC201004FC201004FC2010098
:10C060004FC201004FC201004FC201004FC2010088
:10C070004FC201004FC201004FC201004FC2010078
:10C080004FC201004FC201004FC201004FC2010068
:10C090004FC201004FC201004FC201004FC2010058
:10C0A0004FC201004FC201004FC201004FC2010048
:10C0B0004FC201004FC2010000000000000000005C
:10C0C0004FC201004FC201004FC201004FC2010028
:10C0D0004FC201004FC201004FC2010000F002F840
:10C0E00000F098F80AA090E8000C82448344AAF17A
:10C0F0000107DA4501D100F08DF8AFF2090EBAE878
:10C100000F0013F0010F18BFFB1A43F0010318478B
:10C11000B06C0000D06C0000103A24BF78C878C121
:10C12000FAD8520724BF30C830C144BF04680C603D
:10C13000704700000023002400250026103A28BF85
:10C1400078C1FBD8520728BF30C148BF0B60704789
:10C150006E2900F04886702900F03D82662906F0BD
:10C16000C082652906F0BD82672906F0BA8261297E
:10C1700006F0B98203681B0A28BF41F080016929D3
:10C1800000F0AE81642900F0AB81752900F0A88130
:10C190006F2901F05681782900F00982E92901F020
:10C1A000F180E42901F0EE80F52901F0EB80EF2920
:10C1B00001F05381F82900F008820368DB0928BFE9
:10C1C00041F08001632901F06080732901F06580EE
:10C1D000E32901F03D86F32901F0428600207047F3
:10C1E0001FB506F079FA9DE8030000F05BFD01F051
:10C1F00003FC04000020002106F0F4F9401C6060FC
:10C200000020002106F0D8F9E06001F039FB00F0D1
:10C2100009FD1FBD03F046FC114603B403F056FCB4
:10C2200003BCFFF7DDFF02F07FFB04F04FF80000D6
:10C23000074880470748804707480047FEE7FEE772
:10C24000FEE7FEE7FEE7FEE7FEE7FEE7FEE7FEE7C6
:10C2500009EC0100E1120200DDC001000048704756
:10C26000B036002070B5064600F000FD056806F106
:10C270000B0020F00704B4429CBF002070BD2B4689
:10C280006A68BAB11068A04210D304F1080188426C
:10C290003CBF5068586007D351681019416011685D
:10C2A000091B016058601460101D70BD1346526870
:10C2B000002AE7D12146284600F0E0FC0028DED124
:10C2C00070BD70B50446051F00F0D0FC0068002C5E
:10C2D00014BF446870BD002C18BFAC423CBF204660
:10C2E0006468F8D301680A18AA4218BF456003D1F0
:10C2F0002A6805461144016028684119A1421CBF03
:10C300006C6070BD6168696021680844286070BD18
:10C3100053EA020C00F069802DE9F04B4FF0000663
:10C32000002B1FBFB3FA83F503FA05F424FA05F6D0
:10C330005E4012BF1643B2FA82F502FA05F4C5F167
:10C3400020051EBF22FA05FC44EA0C04203556EAFB
:10C35000044C4FEA144418BF641C4FF000084FF01F
:10C360000009904271EB030C39D3002919BFB1FACF
:10C3700081F701FA07F6B0FA80F700FA07F6C7F17D
:10C3800020071EBF20FA07FC46EA0C062037B6FB42
:10C39000F4FCA7EB0507103F07F01F0BCBF12006BD
:10C3A0000CFA0BFB2CFA06F644BFB3460026202FEE
:10C3B000A4BF5E464FF0000B5BEA060C08BF4FF0CF
:10C3C000010B19EB0B09ABFB027C48EB0608C01B09
:10C3D00006FB02CC0BFB03CC71EB0C01C1E70B4657
:10C3E000024641464846BDE8F08B13B54FF00000C9
:10C3F0004FF00001AFF30080BDE81C407047000023
:10C400007CB51D4616460C00009001D02044401E0D
:10C41000074B7B442A4669460190304600F00BFFEB
:10C4200005461CB10020694600F018FF28467CBD77
:10C43000510E00000B460146184600F033BF70B5A0
:10C44000044685690068C10601D5302600E0202633
:10C45000C00707D070BDD4E9012130469047206A5B
:10C46000401C20626D1EF6D570BD70B5044685690E
:10C470000078C00707D170BDD4E901212020904782
:10C48000206A401C20626D1EF6D570BD70B50C464A
:10C490000546012A05D02878800600D5EA690023E0
:10C4A00002E0012305E05B1C934202D2E05C00281D
:10C4B000F9D1A869E618C01AA861286A1844286248
:10C4C0002846FFF7BCFF04E0D5E9012114F8010B71
:10C4D0009047B442F8D32846FFF7C7FF70BD00006D
:10C4E0002DE9F0410646002410687529314616A54D
:10C4F00010D000F00DFC002802DA404213A507E03E
:10C5000031688A0701D512A502E0490704D511A5B3
:10C51000012401E000F005FC00210A2206F12407B5
:10C5200009E0B0FBF2FCB0FBF2F302FB1C00303080
:10C5300078541846491C0028F3D123462A46304631
:10C54000BDE8F04100F0F6BB000000002D00000047
:10C550002B00000020000000F0B40D460188090502
:10C5600002D5214C7C4402E01F4C7C440E34002157
:10C5700000F1240608E002F00F071209E75D42EA25
:10C5800003721B097754491C52EA0307F3D102785E
:10C590000023120704D5702D06D009B102231134EF
:10C5A0002246F0BC00F0C6BB01231034F8E770B59A
:10C5B00004460D462146106800F0B3FB02462946AA
:10C5C0002046BDE870400023C6E7D21D22F00703D5
:10C5D000D3E90023C0E70368126843F02003036037
:10C5E0000823C3610023B7E7106300002DE9F05F63
:10C5F000894604464FF0000ADFF874B1FB44C0F8E6
:10C6000020A02046E1688847002874D0252806D05D
:10C61000D4E901219047206A401C2062F1E70026FE
:10C620005F462046E16888472028054607DB312D14
:10C6300005D2781910F8200C08B10643F1E7B007CD
:10C6400001D526F00406C4F81CA00027C4F818A0E1
:10C650002A2D09D0284603F029FA38B304EB8708BD
:10C66000303DC8F8185019E059F8041B204604EB77
:10C6700087029161E1688847012F054618D1E0697A
:10C68000002820DA26F020061DE0D8F8180000EB7C
:10C69000800005EB40003038C8F818002046E168FB
:10C6A0008847054603F002FA0028EED1012F0AD090
:10C6B0002E2D08D12046E16888477F1C0546022FB1
:10C6C00046F02006C4DBA069002803DA404246F0A9
:10C6D0000106A061F00701D026F010066C2D0BD0EA
:10C6E000682D09D04C2D39D06A2D35D0742D35D018
:10C6F0007A2D33D016E038E0E1682F46204688478F
:10C70000B842054609D16C2F26D04FF48060E1680D
:10C71000064320468847054604E06C2F1AD04FF4A4
:10C72000807006430DB3A5F14100192802D82035C9
:10C7300046F400664A462946204626604E46FFF7E4
:10C7400007FD80B101280BD0F61D26F0070000F18F
:10C75000080956E74020E4E78020D8E70020D6E724
:10C7600006F104094DE7284652E7206ABDE8F09F2C
:10C77000A062000070B50446C068810713D080062F
:10C7800001D5A56A04E0A169606808442169451AD9
:10C79000204601F031F8002206462946204600F0E6
:10C7A00057FF304670BD002070BD70B510B1BDE8B8
:10C7B0007040DFE70025074C6E1E07E02046FFF7BC
:10C7C000D9FF00B13546206D20F00104002CF5D1D1
:10C7D000284670BDB436002070B50D46044604E00E
:10C7E000294603F078FD401C04D014F8010B002802
:10C7F000F6D170BD4FF0FF3070BD00002DE9F04163
:10C800000C4607461646104600F078F82078611C62
:10C8100061280AD0722802D077283CD102E0012595
:10C82000002405E00225042402E0082448F2020561
:10C8300011F8010B2B2806D0622809D011F8010C41
:10C8400074280AD00BE045F0030544F00204EFE73A
:10C8500045F0040544F00104EAE744F010043846CA
:10C86000214603F0A3F9411C15D00021316171600C
:10C870004FF40071F560F1617061200704D5304616
:10C880000222002100F0E4FE306D40F0010030652E
:10C890003046BDE8F0810020FBE72DE9F0410D4670
:10C8A0000646104C206DC10704D0410804D020F08A
:10C8B0000104F7E722460EE05420FFF7D3FC0700FF
:10C8C0000ED0206D47F00101084354212065384601
:10C8D00000F040F93A4629463046BDE8F0418DE780
:10C8E0000020D6E7B436002011B14FF4807201E089
:10C8F0004FF480624FF4007300F026BF2DE9F0473B
:10C9000004464FF000094FF0FF37C568D4E90486AC
:10C91000A80707D0204600F06FFF304603F0DAF892
:10C92000002802DA3846BDE8F087280502D54046DF
:10C93000FFF7C7FC4C21204600F00CF9206D20F0D9
:10C94000010020654846EEE70EB5054614460E4642
:10C9500013A001F06FFB284601F06CFB16A001F05C
:10C9600069FB304601F066FB15A001F063FB002176
:10C970008DF80B100A210DF10A008DF80A1008E05D
:10C9800094FBF1F201FB124294FBF1F4303200F817
:10C99000012D002CF4DC01F04DFB01F00DF800003E
:10C9A0002A2A2A20617373657274696F6E2066612A
:10C9B000696C65643A2000002C2066696C65200073
:10C9C0002C206C696E65200010B5431C02E010F845
:10C9D000011B71B18107FAD14FF0013202C88C1AE4
:10C9E0008C4314EAC211F9D0C01A0A0603D0C01E43
:10C9F00010BDC01A10BD0A0401D0801E10BD09026E
:10CA0000FCD0401E10BD40EA010370B59B072ED13B
:10CA10004FF00136042A2AD308C810C99D1B9D4334
:10CA2000121F15EAC61517D0D8B2E1B2401A50EA63
:10CA3000056110D198B2A1B2401A50EA05410AD15D
:10CA400023F07F4024F07F41401A50EA052102D1B3
:10CA5000180EA0EB146070BDA342DBD018BA21BA47
:10CA6000884201D9012070BD4FF0FF3070BD0AB976
:10CA7000002070BD10F8013B11F8014B63B1A342D7
:10CA80000AD1521E08D010F8013B11F8014B1BB11E
:10CA9000A34201D1521EEDD1181B70BD10B5203A32
:10CAA000C0F00B80B1E81850203AA0E81850B1E867
:10CAB0001850A0E81850BFF4F5AF5FEA027C24BF1D
:10CAC000B1E81850A0E8185044BF18C918C0BDE814
:10CAD00010405FEA827C24BF51F8043B40F8043BDD
:10CAE00008BF7047D20728BF31F8023B48BF11F892
:10CAF000012B28BF20F8023B48BF00F8012B7047EC
:10CB000002F0FF0343EA032242EA024200F002B8C5
:10CB10004FF000020429C0F0128010F0030C00F066
:10CB20001B80CCF1040CBCF1020F18BF00F8012BE4
:10CB3000A8BF20F8022BA1EB0C0100F00DB85FEAB2
:10CB4000C17C24BF00F8012B00F8012B48BF00F87E
:10CB5000012B70474FF0000200B5134694469646ED
:10CB6000203922BFA0E80C50A0E80C50B1F1200100
:10CB7000BFF4F7AF090728BFA0E80C5048BF0CC0AE
:10CB80005DF804EB890028BF40F8042B08BF70470C
:10CB900048BF20F8022B11F0804F18BF00F8012B7E
:10CBA000704700004FF0013C50F8042B51F8043B53
:10CBB0009A4221D1A2EB0C03934313EACC1317D171
:10CBC00050F8042B51F8043B9A4215D1A2EB0C0308
:10CBD000934313EACC130BD150F8042B51F8043BC8
:10CBE0009A4209D1A2EB0C03934313EACC13DBD096
:10CBF0004FF00000704700BFD01A01BAB1FA81F1BE
:10CC000001F0180122FA01F0CB40C1F12001DBB2A2
:10CC1000C0B2C01A2CFA01F3D11A914311EAC31120
:10CC2000E6D1704770B5064C7C44064D7D4403E068
:10CC3000206820448047241DAC42F9D170BD00001B
:10CC4000E0620000E86200002DE9F04117460E4660
:10CC5000054633B107FB0354E41B2046B047A54209
:10CC6000FAD1A5F10800BDE8F08100000048704746
:10CC7000B0370020704770477047704738B504469A
:10CC80000A460020694601F0ECF9002808BF38BDCB
:10CC900002460099204600F0B3FE012038BD012075
:10CCA00001F0A8B9F8B501F0D1F9054600200C460D
:10CCB000102000BF0646A819A0420DD93246694689
:10CCC000002001F0CEF9070008BF01F093F90098A9
:10CCD000A04218BF0546C419FFF7C8FF0560074604
:10CCE000F01D20F007004619284600F00AF8B4426B
:10CCF00008BFF8BDA21B31463868BDE8F84000F017
:10CD00007FBE00210160C0E901107047102070470C
:10CD100009684A0501D540B27047C905FCD500B283
:10CD2000704709684A0501D5C0B27047C905FCD5EE
:10CD300080B270472DE9F0470D4699469246044669
:10CD400000F124080168880604D5E06921F010018B
:10CD5000216000E00120A84201DD471B00E0002720
:10CD6000A1697A1902EB0900081AA0612078C006AF
:10CD700002D42046FFF763FB002608E0D4E9012136
:10CD80001AF806009047206A401C761C20624E4527
:10CD9000F4DB2078C0060AD52046FFF750FB06E0FA
:10CDA000D4E9012130209047206A401C2062381EBF
:10CDB000A7F10107F4DC07E0D4E9012118F8050028
:10CDC0009047206A401C2062281EA5F10105F3DC73
:10CDD0002046FFF74AFB2078000602D50220BDE876
:10CDE000F0870120FBE711680268006A530501D54E
:10CDF00008700AE0D30501D5088006E0130603D5C4
:10CE0000C217C1E9000200E00860012070477047C6
:10CE10002DE9FF4F0C461E464FF0FF378BB0D2E98D
:10CE20000001DDF860800A908A46C1F30A5505B911
:10CE30003D46002108464FF00000BAF1000F00F413
:10CE4000400005DA00EB80004FF4400101EA500099
:10CE50004FEA9059B9F1010F00DDB9460A9850EA3E
:10CE60004A000ED044F61050A5F2FF3545432F146A
:10CE7000B8F1000F1ED07542291E1EDDC9F1000257
:10CE80001CE0B8F1010F4FF0000001D0302103E0A9
:10CE9000F24305E02154401CB042FBDB3046002247
:10CEA000002121540B99C1F80880C1E900200FB07E
:10CEB000BDE8F08FBD1B6D1CDEE74A4600DA694213
:10CEC00006A800F0D1FF06AB93E8070003AB83E8A8
:10CED000070050460A9901F05FF98DE80700A0F5B8
:10CEE00000501F3800900398002D0ADD42F21F0108
:10CEF0004A460844002303A90390684601F0C8FB92
:10CF000009E0A0F500504A461F38002303A903900A
:10CF1000684601F0D2FB8DE807000004000C03D046
:10CF20004FF0FF30410800E01046B8F1000F03D089
:10CF30000022009215461EE0751E05D400F07AFD11
:10CF4000303262556D1EF9D5B3460122084302D036
:10CF500000227F1C04E02078302801D100227F1EAF
:10CF6000002A099784D01DE0112D07DA00F062FD38
:10CF7000303262556D1C50EA0102F5D1084302D0EF
:10CF80000098C8B10EE00021681E05E0235C625CD9
:10CF900063542254401E491C8142F7DBAB46A81B58
:10CFA000401E0990002004F80B000B98099AC0F865
:10CFB0000880C0E9002B7AE711264FF0000857E7F8
:10CFC0002DE9F04F88460446D21D22F0070191B0AA
:10CFD000D1E90001CDE90A0102F0ACFC02460B9850
:10CFE000C00F01D02D2007E02068810701D52B203C
:10CFF00002E0202101EAC000032A099001D0072A9B
:10D0000005DB03464146204600F0D8FE0BE12078C0
:10D01000800601D5E06900E00620B8F1650F814681
:10D0200006D0B8F1660F18D0B8F1670F70D131E0B3
:10D030000020B9F1110F009001DB112301E009F18B
:10D0400001030AAA01A90CA8FFF7E2FEDDE90C70B2
:10D05000002609F10105834647E001204B46009078
:10D060004FF000470AAA01A90CA8FFF7D1FEDDE99D
:10D070000DB00C995D46002610B909F101000D189C
:10D08000B9EB050003D4C0F1FF3609F10105A5EBAA
:10D0900009002BE0B9F1010F01DA4FF0010900207E
:10D0A000B9F1110F0090484601DD112300E003465D
:10D0B0000AAA01A90CA8FFF7ABFEDDE90C704D46EA
:10D0C00000268346207800070AD4AB4500DA5D4687
:10D0D00001A8012D04DD411911F8011C302907D0E8
:10D0E0004F4502DA17F1040F04DA012082460FE0FF
:10D0F0006D1EEEE7002F02DCED1B3E4403E0781CC2
:10D10000A84200DD7D1CB81B00F1010A4FF000476A
:10D110002078000703D4AA4501DB4FF0FF3A002135
:10D12000B7F1004F0DF143088DF8431024D00220D1
:10D130002B23002F01DA7F422D230A21021EA0F1AA
:10D14000010000DC5FB197FBF1FC97FBF1F201FB02
:10D150001C7C17460CF1300C08F801CDEEE7A8F165
:10D16000010003702188090501D5452100E06521F2
:10D17000A0F1010800F8011C09980FA9A1EB08070C
:10D18000FF1D00B10120411901EBEA70A16938448B
:10D19000081A401EA0612078C00602D42046FFF77E
:10D1A0004EF9099828B1D4E901219047206A401C22
:10D1B00020622078C00622D52046FFF740F91EE005
:10D1C000002E04DBB34502DD01A8805D00E03020C5
:10D1D000D4E901219047206A401C2062761CAAF104
:10D1E00001005FEA000A0AD100F006FCC06801688D
:10D1F000405CD4E901219047206A401C2062281E2F
:10D20000A5F10105DCDC07E0D4E9012118F8010BE8
:10D210009047206A401C2062381EA7F10107F3DC0A
:10D220002046FFF722F9032011B041E601694A1CAC
:10D2300002610878704700B58FB0CDE90131002157
:10D24000059105497944CDE9031011466846FFF779
:10D25000CDF90FB000BD0000E5FFFFFF0A6802F83E
:10D26000010B0A607047D1E900239A4202D2531C95
:10D270000B601070704710B5436913B1AFF30080B5
:10D2800001E0FFF703F9012010BD127800F124013D
:10D290000A7000224A700122EDE711684FF0FF3258
:10D2A000E9E70000074B70B50D467B44FFF7C3FF6D
:10D2B0000446284600F0DCF810B14FF0FF3070BD96
:10D2C000204670BD293000002DE9FF5F15468A46D3
:10D2D0000446DFF8AC80F8440027D8E900103E4649
:10D2E000CDE9001010E03AF816106A4602A800F0E6
:10D2F0004EFE411C07D02178890603D5E269391812
:10D3000091420DD80744761C2078800602D5E0694A
:10D31000B84205DDAE42E6DB3AF816000028E2D15D
:10D32000A069C01BA0612046FFF789F8D8E900106A
:10D33000CDE90010002017E03AF818106A4602A85C
:10D3400000F025FEB0F1FF3F81460BD000250DF126
:10D35000080B05E0D4E901211BF8050090476D1C7E
:10D360004D45F7D308F10100B0428046E4DB206A66
:10D37000384420622046FFF778F8BDE8FF9F0000A0
:10D38000DA5500002DE9F0418046D21D22F0070257
:10D390000025D2E90002F52915A614D0011E72F16C
:10D3A000000106DA0023D0EB030063EB020211A6B2
:10D3B00008E0D8F800108B0701D50FA602E0490756
:10D3C00001D50EA601251146002408F1240704E02A
:10D3D00000F030FB30323A55641C50EA0102F7D1BC
:10D3E0002B46324621464046BDE8F041FFF7A2BC3D
:10D3F000000000002D0000002B00000020000000B5
:10D4000030B4002100F1240408E002F00705D2083E
:10D41000303542EA4372DB086554491C52EA030581
:10D42000F3D10468002310A2250707D5A40600D471
:10D4300021B1C46901230DA2641EC46130BCFFF791
:10D4400079BC10B5044621461068FFF76AFC024615
:10D450002046BDE810400023D2E7D21D22F007018C
:10D46000D1E90023CCE700000000000030000000FC
:10D47000007B00F0800070472DE9F04705460C4620
:10D48000C86820F4201040F48000C860800602D5EF
:10D49000084600F0D4F9E06841F282014FF0FF390C
:10D4A0000140022903D0204600F072F9B5E000F4F3
:10D4B0002041B1F5004F0FD1C00306D56168E06A85
:10D4C000884200D80846606006E02069E06260603B
:10D4D000606902F025FBA061A0680022EEB200287E
:10D4E0000DDAE1688B050AD4C043A06041F49030A6
:10D4F0002260E0606068411C61600670A5E0E06841
:10D500009046226040F40050E060206968BB60698A
:10D5100002F02CFB012704F12405A0B1A08910F42E
:10D52000407F08D0E069FEF79DFE206118B1E068F9
:10D5300040F4006016E0E7612561E06820F4407087
:10D5400040F480600EE0E069FEF78CFE0028206168
:10D55000F1D0E06840F4006010F4407FE06002D158
:10D5600040F48070E06020696060E06825696FF0D9
:10D57000010AC1051FD56168E06A884200D80846E3
:10D58000411B04D02246284600F00CF9F0BBE068AD
:10D59000010203D5E562C4E9015854E0691CE16267
:10D5A0006160E16940F48030491EC4E902103046F0
:10D5B0002E70BDE8F087010202D500F480320AE047
:10D5C0006068411C61600670E0680A2E40F480309B
:10D5D000E06006D00022E16A6068814203D90B4610
:10D5E00002E00122F7E70346A7895B1B7F0503D40E
:10D5F000E7699F4200DDE2B1814200D80146E56261
:10D600000F1AC4E90158002B09DD00E005E02246AD
:10D610001946284600F0C6F808B14846C9E747B1A0
:10D62000A069E5626560C01BA061E06840F0100081
:10D63000E060E068000208D56168A069E562491B06
:10D6400008446560A0615046B3E73046B1E700008A
:10D650002DE9F041044616460D464769007B8007D8
:10D660002ED0384602F082FA50BB3EB3012E02D0D3
:10D67000022E25D104E0204600F068FC05441DE0A0
:10D68000384602F04DFAE168002841F01001E160EF
:10D6900005DA204600F07CF80120BDE8F081C903DE
:10D6A0000BD56268E16A914200D81146A269114423
:10D6B0002269891A814200DD08460544002D01DAFD
:10D6C0000220EAE7E16A6068E268814206D29103DB
:10D6D000E06203D522F4003141F01002A669002770
:10D6E000AE4213DCE16A814201D90B4600E00346F9
:10D6F00003EB060C2369ACEB030CAC4506DD814261
:10D7000001D98C4600E084469C4505D1A76027607E
:10D7100042F02000A5620DE0AD1BE669AE1B814220
:10D72000A66000D90846C01A281A206058196060FF
:10D7300022F0200003490840E060002084F848708F
:10D74000ABE70000BFCFD7FF70B5C468A50713D003
:10D75000650211D4B2F5807F09D0B2F5007F06D002
:10D76000B2F5806F08D1012300F1240106E05D1EAF
:10D770006FF07F46B54201D3012070BD0161C361E6
:10D78000416024F470611143C160002070BD00004D
:10D79000C16821F4001141F08001C1600021816065
:10D7A000016070472DE9F047814614460E464FF060
:10D7B000FF383248D5685769054209D03846A16913
:10D7C00002F0F4FA002811DB2C48C0430540E56064
:10D7D0002B4632464946384602F010FBA16920F03C
:10D7E0000042B21A11440028A16103D02046FFF77D
:10D7F000CFFF4046BDE8F08770B504460569C06AB2
:10D800006168884200D80846E16821F42011E1608F
:10D81000C90312D5A84208D02246411B2846FFF76B
:10D82000C1FF10B14FF0FF3070BD0020E562C4E9C8
:10D830000150E06820F48030E060002070BD10B539
:10D840000446C06820F02000E060A16AA069884218
:10D850000DD02046FFF7D0FFE06820F4405040F0A4
:10D860001000E060A06AA0612069E062606044F29C
:10D870004001E0688843E06010BD00001000020035
:10D8800010B542485421FFF765F941485421FFF78C
:10D8900061F940485421FFF75DF93F493B483C4A54
:10D8A0003F4B08603D490A603A491960531C0365C3
:10D8B000481C1065012008653B48344A39A178446A
:10D8C000FEF79CFF20B9384878440A3800F08BFBFB
:10D8D00037482F4A35A17844FEF790FF20B93448E5
:10D8E00078440A3800F07FFB32482A4A2FA1784456
:10D8F000FEF784FF20B92F4878440A3800F073FB04
:10D9000040232248DC0000212246FFF71DFF20B102
:10D9100025487844543800F066FB1D4822464023D1
:10D920000021FFF711FF20B121487844543800F05E
:10D930005AFB1848224610230021FFF705FF002854
:10D9400006D01C487844BDE81040563800F04BBB68
:10D9500010BD104870B5006D20F001040B48FEF7B3
:10D96000CDFF0B48FEF7CAFF0A48FEF7C7FF09E0E4
:10D97000206D20F001052046FEF7C0FF2046FEF78F
:10D98000A0FC2C46002CF3D170BD0000B436002062
:10D99000083700205C3700207030002074300020F1
:10D9A00078300020720000004A4E0000770000002E
:10D9B000394E0000294E000010B5002000F00CFB8D
:10D9C000AFF30080BDE81040012000F00FB810B5A3
:10D9D00000F018FBBDE8104000F0F9BA08B5694640
:10D9E0008DF800000320ABBE08BD000001491820DF
:10D9F000ABBEFEE72600020000487047B4370020A7
:10DA0000034640688C46002818BF88423CBF034646
:10DA10004068F8D318681844884207D00CF1030016
:10DA200020F00700001D411A521A0146081D0A6025
:10DA3000FEF747BC30B5B0F10A024FEA900E71F123
:10DA400000034EEA817EB0EB0E0061EB91014FEADC
:10DA5000101E4EEA017E10EB0E0041EB11114FEA51
:10DA6000102E4EEA016E10EB0E0041EB11214FEA31
:10DA7000104E4EEA014E10EB0E0041EB11414018E2
:10DA800041F100014FEAD00040EA41704FEAD10174
:10DA900010EB80054FEA810444EA907444EB0104E2
:10DAA0006D1944EB0404521BA3414FF0000348BF1F
:10DAB0000A3200D530BD401C41F1000130BD0000EC
:10DAC0002DE9F04F04460D46D21D22F0070089B023
:10DAD000D0E900974846394601F02CFF0246F80F7E
:10DAE00001D02D2307E02068810701D52B2302E018
:10DAF000202101EAC0038DF820300BB1012000E0A5
:10DB00000020032A824601D0072A04DB294620464A
:10DB100000F054F93FE12078800601D40D2500E0A3
:10DB2000E569C7F30A560D2D49DA00214FEA175B64
:10DB300008464FF00000002F00F4400007DA00EB29
:10DB400080004FF4400100EBD07001EA60008115C5
:10DB5000012901DD4FF0FF3100224FEA850CBCF1B5
:10DB6000180F06D31346ACF118004FF08052C24094
:10DB700003E04FF4801323FA0CF30CF10C0CBCF10E
:10DB8000200F04D3ACF1200C09FA0CF001E007FAE5
:10DB90000CF000294FF0004801DD18B90FE00ED15C
:10DBA00040450CD319EB02095F4121B9404502D130
:10DBB0009F4329EA0209BBEB175F00D0761C20883F
:10DBC000000502D57B48784402E07A487844193849
:10DBD00008AA302302F80A30037C0AF10101002E62
:10DBE0000AF1020A53546A4602DC4FF0300101E0A8
:10DBF0004FF031014FF001088DF8001002D0A6F26D
:10DC0000FF3603E059EA470100D06B4E002D02DCDD
:10DC10002178090704D54FF002082E218DF8011054
:10DC2000C44600210BE0C7F303433F01C35C491C1A
:10DC30006D1E02F80830052908F1010801DA002DEF
:10DC4000F1DC00210CE000EB1973491C1B786D1E00
:10DC5000082902F808304FEA091908F1010801DA29
:10DC6000002DF0DC21688B0602D516E0A8F1010832
:10DC7000E04505DD02EB080313F8013C302BF5D03D
:10DC8000B8F1000F09DD02EB080313F8013C2E2B5D
:10DC900003D1090701D4A8F10108002D05DD3E21BB
:10DCA00002F808106D1E08F10108407C002E02F8F1
:10DCB000080008F1010804DA2D20764202F8080075
:10DCC00002E02B2002F808000A214FF47A70864205
:10DCD00008F101080BDB96FBF0F3303302F8083053
:10DCE00096FBF0F308F1010800FB136601E0642ED7
:10DCF0000CDB642096FBF0F3303302F8083096FB1F
:10DD0000F0F308F1010800FB136601E00A2E06DBC0
:10DD100096FBF1F0303002F8080008F1010896FB9C
:10DD2000F1F001FB1060303002F80800A16908F141
:10DD3000010808EB050202EB0A00081AA06120782E
:10DD4000C00602D42046FEF77AFB216A08AE01EB3A
:10DD50000A00206204E0D4E9012116F8010B904783
:10DD6000BAF1010AF7D22078C00602D52046FEF7A4
:10DD700066FB6E4609E016F8010B3E280FD0D4E989
:10DD800001219047206A401C2062B8F10108F2D2BC
:10DD90002046FEF76AFB09B00320BDE8F08F206A39
:10DDA0002844206203E0D4E90121302090476D1E11
:10DDB000EBD3F8E7054D000002FCFFFF2DE9F04131
:10DDC0001F46044603260168072A01F4006004DBAD
:10DDD00008B116A505E016A503E008B115A500E0F9
:10DDE00015A521F010002060A069C01EA0610FB130
:10DDF000401EA0612046FEF722FB4FB1D4E901216D
:10DE000038469047206A401C2062C01C206206E011
:10DE1000206AFAE7D4E9012115F8010B9047761E34
:10DE2000F8D22046FEF721FBBDE8F0814E414E00BE
:10DE30006E616E00494E4600696E660010B543691A
:10DE400013B1AFF3008001E0FFF73EFA012010BDEF
:10DE5000128800F1240182840022C2840122EDE7AD
:10DE600011684FF0FF32E9E72DE9F0478146164689
:10DE70008AB0354878440DC88DE80D0032487844A2
:10DE8000801C03AC0DC884E80D0041F69B300844AB
:10DE9000372190FBF1F290FBF1F5A5F1800501FB34
:10DEA00012041B3C02D56442012000E00020DFF890
:10DEB00098A080460027FA44AAF1BE0A0EE0E007C7
:10DEC0000AD03246684607EB470101230AEB81017D
:10DED00000F0F3FB8DE8070064107F1C002CEED1EE
:10DEE000194F7F44AE3F19E0E80715D007EB041047
:10DEF0000DF1180A90E80E008AE80E00C068F042A2
:10DF000001D1981908903246012306A903A800F010
:10DF1000D4FB03AB83E807006D10641C002DE3D134
:10DF20004FF0010332466946B8F1000F03A802D052
:10DF300000F0AEFB01E000F0C0FBC9E90001C9F848
:10DF400008200AB0BDE8F087E84A000010B5014695
:10DF5000C268900703D0900607D5886A0AE0FEF7EA
:10DF60007DF901210160881E10BD8B694868184445
:10DF70000B69C01A91F848301BB191F84910401A4A
:10DF800010BD1103FCD50028FADD401E10BD70B590
:10DF900016460C46054600F083F8036893F8010125
:10DFA000012806D0FF2C0FD8185D68B101202C7015
:10DFB00070BDD3F807013246214603F2071303442C
:10DFC0002846BDE8704018474FF0FF3070BD00286C
:10DFD00001D0FFF70BBD704710B500F083F8BDE826
:10DFE0001040FFF7F4BF10B500F094F8BDE8104002
:10DFF000FFF7EDBF10B500F0A7F8BDE81040FFF740
:10E00000E6BF000010B5002102A000F051F8012089
:10E0100010BD00005349475056464E3A2050757285
:10E0200065207669727475616C20666E2063616C20
:10E030006C65640010B50449FEF7CEFBBDE81040E6
:10E040000148FEF7B2BB00005C370020124B694666
:10E0500000F580528A421A6001D811467047196053
:10E06000704730B50C4D6B46A3F580532C682244A5
:10E070009A420FD89B1A02F5805003EBD37302EB40
:10E080006303984200D91846C01D20F007020C60B7
:10E09000101B2A6030BD00007C300020704700005B
:10E0A00010B5FFF7A9FC001D10BD00BF39450000E9
:10E0B00070B505460C460A2000E06D1CFFF78EFC8B
:10E0C00035B128780028F8D102E0641CFFF786FCFF
:10E0D00014B120780028F8D1BDE870400A20FFF77D
:10E0E0007DBC000010B5002102A0FFF7E1FF012078
:10E0F00010BD0000534947414252543A2041626EDC
:10E100006F726D616C207465726D696E6174696F98
:10E110006E00000010B5014602A0FFF7C9FF012004
:10E1200010BD000053494752545245443A205265AD
:10E130006469726563743A2063616E2774206F703E
:10E14000656E3A200000000010B5012805D00021BE
:10E1500003A0FFF7ADFF012010BD09A1F8E7000003
:10E1600053494752544D454D3A204F7574206F66C0
:10E170002068656170206D656D6F72790000000028
:10E180003A2048656170206D656D6F727920636F0C
:10E1900072727570746564005FEA400C08BF91F09C
:10E1A000000F4FEA8C234FEAC12243EA51514FEA54
:10E1B0001C5018BF00F5F0404FEA300018BF41F086
:10E1C00000415FEA6C5C00F02980BCF1FF3F08BFB2
:10E1D00040F080407047130C06BF12044FF0100C43
:10E1E0004FF0000C130E04BF12020CF1080C130FB9
:10E1F00004BF12010CF1040C930F04BF92000CF148
:10E20000020CD30F04BF52000CF1010C11464FF069
:10E210000002A0F11F00A0EB0C00704711F0004FAE
:10E2200008BF704731F000413FF4D5AF0B0C06BF7B
:10E2300009044FF0100C4FF0000C0B0E04BF090244
:10E240000CF1080C0B0F04BF09010CF1040C8B0F2F
:10E2500004BF89000CF1020CCB0F04BF49000CF184
:10E26000010CCCF12003A0EB0C0022FA03F302FA1C
:10E270000CF241EA030100F10100704720F07F4CED
:10E2800080EA030023F07F47ACEB070303F57C53E0
:10E2900000F0004003F1FF032DE980494FEA154BE0
:10E2A00009B44FEA144325EA0B4E24EA03480FF25F
:10E2B000042606EB132749083E785FEA320203FB87
:10E2C0000667C7F5000707FB06F64FEA54374FEA23
:10E2D000D64606F1020607FB066CCCF1005C4FEA5D
:10E2E0001C472CEA074C07FB06F40CFB06F504EB75
:10E2F00015464FEA961634BF00204FF000404FEA13
:10E30000D13706FB07FC4FEA1C4C0CFB0BF7D21B6A
:10E3100003FB0CF761EB07010CFB0EF7B0EB0740BA
:10E3200072EB17420CFB08F734BFA2EB0742B2EBCB
:10E33000074261EB17414FEA0C444FEA910706FB95
:10E3400007FC4FEA1C4C0CFB0BF7B0EBC74072EB21
:10E35000573203FB0CF734BFA2EBC742B2EBC74204
:10E3600061EB57310CFB0EF7B0EBC70072EB577245
:10E370000CFB08F734BFA2EBC702B2EBC70261EB9C
:10E380005771039F4FEA816141EA921104EBCC047B
:10E390004FEAD1374FEA826206FB07FC42EA90124D
:10E3A0004FEA80604FEA1C4C0CFB0BF7D21B03FBBF
:10E3B0000CF761EB07010CFB0EF7B0EB074072EBBB
:10E3C00017420CFB08F734BFA2EB0742B2EB07423F
:10E3D00061EB17414FEA8C554FEA910704EB9C24FF
:10E3E00006FB07FC4FEA1C4C0CFB0BF7B0EBC740DD
:10E3F00072EB573203FB0CF734BFA2EBC742B2EB10
:10E40000C74261EB57310CFB0EF7B0EBC70072EB64
:10E4100057720CFB08F734BFA2EBC702B2EBC7027E
:10E4200061EB577115EB4C254FEA816141EA92117E
:10E430004FEA82624FEAD13742EA901206FB07FCAC
:10E4400044F100044FEA80604FEA1C4C0CFB0BF7D0
:10E45000D21B03FB0CF761EB07010CFB0EF7B0EBD3
:10E46000074072EB17420CFB08F734BFA2EB0742E0
:10E47000B2EB074261EB174115EB1C154FEA8131F6
:10E4800041EA92414FEA823242EA90424FEA8030BA
:10E490004FEA0C7644F1000448EA03434EEA0B4885
:10E4A0004FF0000EB2EB080C71EB030724BF62467D
:10E4B00039464EEB0E0E4FF0000B00185241494109
:10E4C0004BEB0B0BB2EB080C71EB03077BF1000B72
:10E4D00024BF624639464EEB0E0E4FF0000B00187B
:10E4E000524149414BEB0B0BB2EB080C71EB0307AC
:10E4F0007BF1000B24BF624639464EEB0E0E51EA0B
:10E50000020718BF46F0010616EB0E7655F1000221
:10E5100054F1000103D5BDE88901BDE80088BDE8DC
:10E520008901BDE80048B619524141EB0101A3F150
:10E530000103704780807F7E7D7C7B7A7978777657
:10E5400076757473727171706F6E6E6D6C6C6B6AD0
:10E550006A6968686766666564646363626161606E
:10E56000605F5F5E5E5D5D5C5C5B5B5A5A595958EB
:10E570005857575656555555545453535252525155
:10E58000515050504F4F4F4E4E4D4D4D4C4C4C4BAB
:10E590004B4B4A4A4A4949494848484747474746F2
:10E5A000464645454544444444434343434242422E
:10E5B00042414141002B9C4630D477002BD01CB502
:10E5C0004FEA370703B44FF010004FF01001BAF1D3
:10E5D000000F06D0BCF1000FDCBF40F0080040F097
:10E5E00008014FF000000FBCBDE810400BF1010B1B
:10E5F000BBF1010F08BF5FEA170722BF12F101024A
:10E6000011F101014FF0004143F1000300F000401F
:10E6100043EA00007047F9D35708D0E746EA0646B8
:10E6200013F1400F4FEA16461FDD13F1200FDFBF35
:10E6300016430A46002120335B42BED0C3F12007B7
:10E6400046EA064602FA07F74FEA164646EA070682
:10E65000C3F1200722FA03F201FA07F721FA03F1C6
:10E660004FF0000342EA0702A7E746EA020646EA3D
:10E6700006464FEA164646EA0106BCBF46EA06468B
:10E68000360C4FF000034FF000024FF0000194E70A
:10E690002DE9804C9A46934670B491E8380007C83B
:10E6A00031EA400C48BF34EA430C03D5FFF7E6FDDE
:10E6B000FFF780FFF0BCBDE8008C2DE9804C9A4646
:10E6C000934670B491E8380007C810F0804F08BF37
:10E6D00013F0804F03D100F005F8FFF76BFFF0BC9B
:10E6E000BDE8008C20F07F4780EA030023F07F4CD8
:10E6F00007EB0C03A3F57C5300F00040A3F1FE03ED
:10E7000092F0000F00F0B38095F0000F00F07780DA
:10E710002DE901494FEA11404FEA144621EA004829
:10E7200000FB06FC24EA064708FB06F607FB08F890
:10E7300000FB07F718EB06484CEB164C4FEA124B60
:10E7400018EB07484FEA15464CEB174022EA0B4EF0
:10E750000BFB06FC25EA06470EFB06F607FB0EFE42
:10E760000BFB07F71EEB064E4CEB164C4FF000066A
:10E770001EEB074E4CEB174B18EB0B0840F100005B
:10E7800018EB0E0B58EB000840F100008F1A4FF009
:10E7900000013CBFC943661B14BFB5EB040C00214C
:10E7A0003CBFC943F61B4FEA17444EEA8E0E27EAD8
:10E7B00004454FEA1C4704FB07622CEA074C05FBA3
:10E7C00007F70CFB05F604FB0CFC16EB074642EBC7
:10E7D000174216EB0C4642EB1C421BEB060658EBAD
:10E7E0000202414146EA9E0601D5BDE80189B619FB
:10E7F000524141EB0101A3F10103BDE801894FEA58
:10E8000014454FEA114724EA054621EA074C05FB67
:10E8100007F406FB07F70CFB06F105FB0CFC11EBFC
:10E82000074144EB17444FEA124711EB0C4144EB0C
:10E830001C4422EA074C05FB07F206FB07F70CFB1A
:10E8400006F605FB0CFC16EB074642EB174216EBEF
:10E850000C4642EB1C456A1854F1000148BF704752
:10E86000B619524141EB0101A3F10103704795F044
:10E87000000F37D04FEA11424FEA144721EA02460F
:10E8800024EA074C02FB07F106FB07F70CFB06F432
:10E8900002FB0CFC14EB074441EB17414FEA154710
:10E8A00014EB0C4441EB1C4125EA074C02FB07F535
:10E8B00006FB07F70CFB06F602FB0CFC16EB074603
:10E8C00045EB174516EB0C4645EB1C42121951F16E
:10E8D000000148BF7047B619524141EB0101A3F155
:10E8E000010370474FEA14454FEA114724EA0546F1
:10E8F00021EA074C05FB07F106FB07F70CFB06F2C4
:10E900004FF0000605FB0CFC12EB074241EB1741F0
:10E9100012EB0C4251EB1C4148BF7047921841EB7F
:10E920000101A3F10103704710B502F085F9BDE8BC
:10E93000104002F077B80021016041608160C16041
:10E94000704700002DE9F84F00270121594C3E4641
:10E950004FF480703A46BC464FEA010A00F180430A
:10E9600003F5C0431D68012D08D1D4F804530D42AE
:10E9700004D0C3F800C01B680F430093001D49007A
:10E98000521C80B2082AE9D34B48DFF83091016865
:10E99000012907D1C0F800C000680090D9F80060D4
:10E9A00047F00047464D17F0FF0F1CBF4FF001081E
:10E9B000002417D018EA070F0FD0A00000F1804103
:10E9C00001F5C041D1F81005D1F81015C0F30420AD
:10E9D00055F82420C1F301419047641C4FEA4808D0
:10E9E000082CE7D317F0004F1ABF00274FF0FF386D
:10E9F000BDE8F88F4FF000094C462A1992F86010D4
:10EA00004AB221F0C000B2F1FF3F1CBF0AFA00FC7D
:10EA10001CEA080F25D005EB00024FEA911192F98C
:10EA2000402055F8223013B1032902D003E0032916
:10EA300017D147EA0C07820002F1A042D2F800B7D2
:10EA40001CEA060FCBF3014B03D0BBF1020F03D03E
:10EA500007E0BBF1030F04D1032913D0002B18BF2B
:10EA60009847641C082CC8D3B9F1000F08BFBDE853
:10EA7000F88F12480068B0421CBF0646B846B9D1AC
:10EA8000BDE8F88FBBF1020F14BF4FF0020C4FF03E
:10EA9000030CD2F800B72BF4403BC2F800B7D2F811
:10EAA00000B74BEA0C4CC2F800C709F1010202F0B2
:10EAB000FF09D3E7006000407C6100401005005072
:10EAC000BC340020024A02EB800001647047000061
:10EAD000F82E00200149024801F026BF2835002009
:10EAE00000C001400149024801F01EBF303500203E
:10EAF000001002400149024801F016BF38350020DD
:10EB00000020024038B50E4CD4F8040148B1002072
:10EB1000C4F80401D4F8040100900A484168491C73
:10EB20004160D4F84001002818BF03F0B1FCD4F8CC
:10EB30004801002808BF38BDBDE8384001F062BF79
:10EB400000100140243000202DE9F0432B4C83B00D
:10EB5000D4F8040100262A4D0127B8B1C4F8046195
:10EB60008DF800606868019026480068ADF80800DC
:10EB7000E868002808BF85F8276004D06860A88A84
:10EB80002881EE602760296868468847D4F8140118
:10EB900000281FBFC4F8146185F8276003B0BDE8E2
:10EBA000F0832C69002C19BF4FF000484FF48C798A
:10EBB00003B0BDE8F08300BFB4FA84F028FA00F196
:10EBC0008C4309EB800000F1804101F5E0410A68C7
:10EBD00072B10E60A0F58C70C1088DF8041027EAA0
:10EBE00090008DF800708DF8050029686846884708
:10EBF000002CE1D103B0BDE8F083000000700040BC
:10EC0000403500203476004070B492480125011D43
:10EC100003780A1D08074FF0000C062B04BF0C7880
:10EC200014F00F0F04D1147804F0F004302C0CD041
:10EC3000062B04BF0C7814F00F0F0AD0062B04BF6C
:10EC40000C7814F00F0F19D113E0844E824C7467C6
:10EC500007E0147804F0F004302C1CBF402C502C3A
:10EC6000ECD14FF08054D4F844427D4EC4F342348A
:10EC70003460147804F0F004302C0CD0062B04BF60
:10EC80000C7814F00F0F0CD0062B04BF0C7814F086
:10EC90000F0F1AD114E0734C266826F08076266098
:10ECA00007E0147804F0F004302C1CBF402C502CEA
:10ECB000EAD1C0F80CC1C0F810C16B4CC4F800C058
:10ECC000147804F0F004302C06D0062B04BF0C7826
:10ECD00014F00F0F0AD104E0644B4FF003011960E8
:10ECE0000BE0147804F0F004302C06D0062B04BF9F
:10ECF000097811F00F0F65D10DE05D4B4FF0050164
:10ED000019605C490D605C49C1F800C003F104035F
:10ED10004FF03F011960117801F0F001502951D1F5
:10ED200056490968564A11605649096802F10402B9
:10ED300011605549096802F10402116053490968DC
:10ED400002F1040211605249096802F104021160E3
:10ED50005049096802F1040211604F4909684F4A9D
:10ED600011604F49096802F1040211604D490968B8
:10ED700002F1040211604C49096802F104021160B9
:10ED80004A49096802F1040211604949096802F11F
:10ED90000402116047490968474A116047490968F8
:10EDA00002F1040211604649096802F1040211608F
:10EDB0004449096802F1040211604349096802F1FB
:10EDC0000402116041490A6842F470020A60BFF30C
:10EDD0004F8FBFF36F8F4FF01022D2F8001211F057
:10EDE000004F04BFD2F8041211F0004F24D0384B6A
:10EDF0001D60384801680029FCD04FF01504C2F8A6
:10EE0000004201680029FCD0C2F8044201680029D0
:10EE1000FCD0C3F800C001680029FCD0BFF34F8FBD
:10EE20002D4801682D4A01F4E06141EA02010160C8
:10EE3000BFF34F8F00BFFDE72A4A294911602A49D5
:10EE40000D60C0F804C18560D0F804110029FBD022
:10EE500070BC7047E00F00F00DF0ADBA00C0074085
:10EE60003C050040FCED00E038050040A0050040F6
:10EE70001056004088560040185600400404001008
:10EE800020C50040080400100C04001010040010FD
:10EE900014040010180400101C04001040C50040A9
:10EEA0002004001024040010280400102C0400107A
:10EEB000300400103404001060C500403804001015
:10EEC0003C040010400400104404001088ED00E0F1
:10EED00004E5014000E401400CED00E00400FA0507
:10EEE0000090D003203000201805004070B5534D2D
:10EEF000D5F80403524C10F0040F4FF000061CBF6D
:10EF0000D5F8080100283CD094F82400002833D01C
:10EF1000C5F80861D5F81805226BA16AC0B28854FB
:10EF200094F838300021FF2B0BD0834209D1206D9B
:10EF300040F400502065B4F84C0010F4005F18BF96
:10EF40000121501C2063E26A904204D3206D40F4FA
:10EF50008070206500E0A1B194F8540010F0020F19
:10EF600004BF0420C5F8080384F82460606B0028FF
:10EF70001CBF6663804704E0A26812B1002160688C
:10EF80009047D5F8040310F0800F1CBFD5F81C0182
:10EF9000002828D094F8390000B3D4E91010884232
:10EFA00008D2C5F81C61E16B264A095C1160401C5F
:10EFB000606418E094F8540010F0010F04BF802042
:10EFC000C5F8080384F83960206D40F0040020651E
:10EFD000A06C00281CBFA664804704E0A26812B1A0
:10EFE000012160689047D5F82401002808BF70BD52
:10EFF000C5F82461D5F88004C5F88004616BC0B2FF
:10F00000002908BF70BD226D10F0020F42F002020D
:10F0100022651CBF42F40062226510F0040F03D089
:10F02000226D42F48062226510F0010F03D0206D42
:10F0300040F400702065BDE87040084700200040A3
:10F04000D03500201C25004070B504460D46002038
:10F0500020702946204601F053FB204670BD70B554
:10F0600004460068012200210369204698470500F4
:10F0700048BF70BD206802220021036920469847DE
:10F0800006462068002229460369204698473046F4
:10F0900070BD0020704710B50C464C3003F018F8D6
:10F0A000204610BD00EB0110D0F88010002908BFE9
:10F0B000704709687430084770B504464C3002F058
:10F0C000C3FF054600F47C51A06C0026002818BF41
:10F0D000002906D004F13C0203684FF001061046F7
:10F0E0009847A26B05F0FC01002A18BF002904D044
:10F0F000126804F12C00904702E0002E08BF70BD9A
:10F10000BDE8704003F02CB870B5044600680D46A9
:10F11000016820468847294604F14C0002F0B2FEFF
:10F12000C4F89450206841682046BDE87040084704
:10F13000704770472DE9F047904689463B4A84B0B6
:10F1400039491C460160D2E9023C00228360C0F8C4
:10F150000CC0374B036148F207034361C261806111
:10F1600000F108020262334A4262BFF36F8FBFF3BD
:10F170004F8F002580F8285080F82950C56205631C
:10F1800045638563C563056445648564C564056539
:10F1900045658565C565056645668566C566056719
:10F1A000022310222449743000F0DEFBA0F1740623
:10F1B000AA46046206EB0A1000F174046F4600953B
:10F1C000019502950395BC420DD0E16820460029C7
:10F1D0001CBF896888473946039810B142682046A9
:10F1E00090470398E0600399684600291CBF89682E
:10F1F00088470AF1010ABAF1020FDBD342464946B9
:10F2000006F14C0002F062FE06F14C00D6F89410B4
:10F2100002F038FE3246094906F14C0002F00EFFBA
:10F2200004B03046BDE8F087CC290200282802004F
:10F2300001A090E8A326020037E90100A5F0010033
:10F240002DE9F043054689B045480027B9462860B6
:10F25000CDF81090CDF81490CDF81890CDF81C9002
:10F26000286804AE07F0FF0801682846884700F0C8
:10F2700093FF079805EB08140028D4F880001BD0F2
:10F28000002808BF02F03CFF7434B4420DD0E1689E
:10F29000204600291CBF89688847079818B1426832
:10F2A0003146204690470798E0600122414605F12B
:10F2B0004C0002F0D3FE29E0002818BF02F050FFF6
:10F2C0006E467434CDF80090CDF80490CDF80890D7
:10F2D000CDF80C90B4420DD0E168204600291CBF47
:10F2E000896888473146039810B1426820469047A4
:10F2F0000398E0600399684600291CBF8968884725
:10F300000022414605F14C0002F0A8FE00F08EFFFD
:10F310002868416828468847079804AA10B1816880
:10F32000104688477F1C022F92DB022310220D49D2
:10F3300005F17400FDF788FCA86C05F13C0410B1E0
:10F3400081682046884754F8040C103C10B181684D
:10F350002046884709B0A4F12C00BDE8F0830000E6
:10F36000CC2902009126020008B500F108010090A6
:10F37000D0F818C0604602F01DFF08BD016889681A
:10F380000847826900F10801104602F0B8BF00008A
:10F3900010B50446074820600020A060E0602061AE
:10F3A000606101F0DBF80449A06102F0C4FF20466F
:10F3B00010BD0000E42902007DF3010010B50446F1
:10F3C0000448206004F10801A06902F098FF20467B
:10F3D00010BD0000E429020030B583B005463A2094
:10F3E0008DF80000CDF801506846FDF756FA04008C
:10F3F00008D02868C1692846884718B120460021EE
:10F40000FDF772FA03B0204630BD000070B5174C0E
:10F4100005462068002804BF201D2060261DB0423C
:10F4200004D05B221249134801F01CFB0021246820
:10F43000114B1022084600BF53F821C0AC4508BF4D
:10F4400043F82100491C521EF6D10848002C04BF85
:10F45000011D01600068B04208BF70BD5B22BDE8BD
:10F4600070400349034801F0FDBA00000C30002051
:10F47000382B0200242B02007C3400200021FDF7F1
:10F4800033BA10B5044600202060C4E90200C4E984
:10F49000040001F063F8A0610120207700F07CFEF9
:10F4A000A06902F00CFFC4E902010020C4E90400D5
:10F4B00000F0BCFE204610BD10B5044600F06CFE06
:10F4C000206800281CBF207F002801D002F048FEE1
:10F4D0000020206000F0AAFE204610BD10B50446B2
:10F4E00000F05AFE00BF207A012803D102F038FE56
:10F4F0000020207200BF00F099FE204610BD70472A
:10F500007047000010B51C46029BFFF713FE214612
:10F51000983000F061F8054940F8981D7C31C0F83A
:10F520009C105C39C0F8981010BD0000F82902004A
:10F5300010B5074940F89C1B7C3140F804195C3930
:10F54000016000F081F8BDE810409838FFF778BE00
:10F55000F829020070470020704700207047002003
:10F5600070472DE9F041054600680F460C468E189D
:10F57000C16C28468847B4420AD0286814F8011B99
:10F58000426C28469047B0F1FF3F18BFB442F4D117
:10F590002868016D28468847E01BBDE8F0810020FF
:10F5A00070470FB470B504460068C16C20468847A8
:10F5B00006AD6069FDF7F9F82A4660690599FCF720
:10F5C00039FF05462068016D20468847284670BCF3
:10F5D0005DF814FB7047000010B5104A40F8042B8A
:10F5E000002200F005F9041F0D4820605C306060C7
:10F5F000002060610BA1204600F0AAF80100084637
:10F60000616102D0FFF73AFF05E0FCF727FE0168D1
:10F6100005A000F047FE204610BD00008029020032
:10F62000842A0200772B000053747265616D206F8D
:10F63000626A206661696C7572652C206572726EF3
:10F640006F3D25640D0A000010B504460548206092
:10F650005C3060606069FDF751F9201D00F0E8F84A
:10F66000001F10BD842A020010B50446D4E9080129
:10F67000D4E9022312184B412046FFF775FE616B57
:10F68000002908BF10BD04F128000968BDE810403A
:10F690000847000010B504462046FFF779FE0446EF
:10F6A000204600BF044607482060002104F12800DE
:10F6B00002F0D2FFA0F12804012084F8380020468F
:10F6C00010BD0000F02A020070B5054684B01F4846
:10F6D000286000F061FD2846FFF753FE686B0028A4
:10F6E0001EBF95F83800002802F03AFD05F1280405
:10F6F00000206E460090019002900390B4420ED01C
:10F70000E168204600291CBF896888473CB1314622
:10F71000039810B14268204690470398E06003992F
:10F72000684600291CBF8968884700F07FFD686B28
:10F7300005F1280410B181682046884704B0A4F17F
:10F740002800BDE87040FFF739BE0000F02A020033
:10F75000FFF742BE70B50546024802F059FF044665
:10F7600000BF70BD5830002070B50546024802F059
:10F770004FFF044600BF70BD583000207047007B2B
:10F780007047000070B506460D46154802F040FF70
:10F7900014480468F4B1A068C8B12A463146FDF7A0
:10F7A00032F9A0B9A068FDF70FF9A8420FD10C48B3
:10F7B0000168002904BF011D0160001D814204D0C1
:10F7C0005B220949094801F04DF9204670BD646883
:10F7D000002CE0D1024802F01BFF002070BD0000A9
:10F7E0006830002064300020382B0200242B0200F7
:10F7F00070B504460B480026A160C4E900060D461A
:10F800002273094802F004FF002D08BF666003D090
:10F810000648016861600460034802F0F9FE204672
:10F8200070BD00001C2B02006830002064300020F6
:10F8300010B5044610482060104802F0E9FEA068A8
:10F8400078B10F490868A04204BF6068086008D01A
:10F850004168A14203D008464968A142FBD16168D2
:10F860004160064802F0D4FE207B002804BF201F20
:10F87000FFF7CCFD204610BD1C2B02006830002095
:10F880006430002010B50446406818B1FFF777FFD8
:10F89000012801D0002010BD6068002818BF001F9B
:10F8A00010BD10B50446406810B1FFF768FF08B1FD
:10F8B000002010BD6068002818BF001F10BD406800
:10F8C000002818BF0120704710B54068002808BF05
:10F8D00010BDFFF754FF00280CBF0120002010BD11
:10F8E0000068704710B5044600202060606008780A
:10F8F0002F280DD1487858B14B1C00212360226875
:10F9000010782F2806D038B1501C491C2060F6E72B
:10F91000204610BD501C20601846FFF733FF606082
:10F92000204610BD70477047704770479838FFF702
:10F93000B2BB704703B401984100009850EAC1205F
:10F9400018BF04204A0D18BF40F0010040F2FF72BA
:10F95000B2EB515F08BF40F00200012808BF05204C
:10F9600002B07047012070472DE9F0411C46174650
:10F970000E00804607D0054602E02846B0473D44C9
:10F980002046641EF9D24046BDE8F0810020FEF713
:10F990001EB8000010B511210348FFF755FB1221D6
:10F9A0000248FFF751FB10BD4C3000204D300020C5
:10F9B00070B5164C0325164820602046FFF7CAFE96
:10F9C0002946201D00F05AFA2046FFF7CDFE00BF61
:10F9D0002646104A10493046FFF7C4FF0F4C132546
:10F9E0000020207200F0D8FB2946204601F0B6FC2A
:10F9F00000F01CFC00BF2646064A09493046FFF7C6
:10FA0000B1FF0848FFF78FFF70BD00002C300020C9
:10FA1000042B020000C001007DF7010034360020F5
:10FA2000DDF401003430002038B54FF416500023C7
:10FA30000822062100901248FFF764FD0446114A8F
:10FA40001149FFF78FFF1148FFF76CFF1048FFF7D0
:10FA500021FE04460B4A0F49FFF784FF0E48FFF7CB
:10FA600019FE0446074A0B49FFF77CFF0B48FFF7D6
:10FA700008FD0446034A0A49FFF774FF38BD000039
:10FA80009030002000C0010031F50100D02F00208F
:10FA9000D8300020C9F6010018310020583100206C
:10FAA000B9F4010010B500F009F810BD30380A288B
:10FAB00001D20120704700207047000002486A46CA
:10FAC00020F0070070470000CF37002010B501F08C
:10FAD000B4F810BD0328BCBF0020704710B5002249
:10FAE0000E4901EB800151F80C0C41F80C2C68B167
:10FAF00001684969884704005CBF002010BDFCF71D
:10FB0000ADFB614201604FF0FF3010BDFCF7A6FB7A
:10FB1000092101604FF0FF3010BD00007C3400204F
:10FB200010B5032805DAFCF799FB05210160881F51
:10FB300010BD0D4901EB800050F80C0C60B101685C
:10FB4000896A8847040058BF10BDFCF787FB6142F3
:10FB500001604FF0FF3010BDFCF780FB0921016010
:10FB60004FF0FF3010BD00007C3400200328BCBFE4
:10FB70000120704710B50C4901EB800050F80C0CC7
:10FB800058B10168C9698847040058BF10BDFCF727
:10FB900065FB61420160002010BDFCF75FFB09219D
:10FBA0000160002010BD00007C3400202DE9F047EA
:10FBB0000E4684B081467449FCF7F4FF734C20B3C1
:10FBC00073494846FCF7EEFF00282ED0714948469D
:10FBD000FCF7E8FF002838D06F4C2068002804BFED
:10FBE000201D2060251DA84204D05B226B496C4873
:10FBF00000F038FF21686B4F002400BF57F8240045
:10FC000098B3641C102CF9D332E0206848B908225C
:10FC10000621654802F05AF94FF41651624802F085
:10FC200031F904B00020BDE8F087206848B9082207
:10FC300006215D4802F04AF94FF416515A4802F085
:10FC400021F904B00120BDE8F087206848B90822F6
:10FC50000621554802F03AF94FF41651524802F085
:10FC600011F904B00220BDE8F087FFE7102C15D38E
:10FC7000FCF7F4FA1821016047480168002904BF25
:10FC8000011D0160A94204D05B224449444800F0B0
:10FC9000E9FE04B04FF0FF30BDE8F0874FF0FF38C9
:10FCA0003D4847F82480002904BF011D0160006819
:10FCB000A84204D05B223949394800F0D3FE4FF006
:10FCC000000ACDF808A099F800003A2808BFD9F832
:10FCD000010010D049466846FFF704FE6846FFF76A
:10FCE000EEFD1325D8B36846FFF7EEFD0028684601
:10FCF00008D0FFF7D6FD029047F8240004B0E01CBE
:10FD0000BDE8F087FFF7BEFD48B316F0020F18BF3D
:10FD100002252ED016F00C0F18BF45F4007516F012
:10FD2000040F18BF45F4806506466846FFF7D8FD06
:10FD3000024630682B4602A9D0F808C03046E0479A
:10FD4000002808BF0298D7D00546FCF787FA694219
:10FD5000016047F824A004B04046BDE8F087FFE703
:10FD6000FCF77CFA056047F824A004B04046BDE8E3
:10FD7000F08716F0040F18BF0125CBD116F0080F3D
:10FD800014BF09250025C5E70C2702001C30002000
:10FD9000132702001B2702000C300020382B020022
:10FDA000242B02007C340020A835002010B500224E
:10FDB000032806DAFCF752FA1D2101604FF0FF30EC
:10FDC00010BD0D4B03EB800050F80C0C60B10368C4
:10FDD0001B699847040058BF10BDFCF73FFA614209
:10FDE00001604FF0FF3010BDFCF738FA09210160C7
:10FDF0004FF0FF3010BD00007C34002070B5154678
:10FE00000E46032818DA1948006848B90822062166
:10FE1000174802F05BF84FF41651154802F032F81B
:10FE20000024002D06D9315D114802F051F9641CFF
:10FE3000A542F8D82C460FE00E4901EB800050F89F
:10FE40000C0C58B10168CB6831469847040003D5C3
:10FE5000FCF704FA61420160281B70BDFCF7FEF953
:10FE6000092101604FF0FF3070BD00001C30002000
:10FE7000A83500207C3400207047000070B50C4687
:10FE8000054682B020490720FEF71CFE1F49204886
:10FE900001F0EAF9002818BF082805D04FF0390210
:10FEA0001C491D4800F0DEFDA01E0026032898BF57
:10FEB000601E07D9A4F11C00032894BFA4F1170009
:10FEC000344602D810F0FF0404D13C22114913A09B
:10FED00000F0C8FD2E70601E68700D48D0E901105A
:10FEE000CDE900108DF806406878694601F092F976
:10FEF000002804BF02B070BD4522064910A000F0E2
:10FF0000B1FD02B070BD000049EB010079FE0100B7
:10FF1000EC260200D42B02008C2B0200736161647A
:10FF200063496E20213D204E52465F534141444378
:10FF30005F494E5055545F44495341424C4544003B
:10FF40007265745F636F6465203D3D204E52465F6D
:10FF500053554343455353002DE9F8430E4D0F4C81
:10FF600000276668D5F80405616800EB016800F0B9
:10FF700013F9D5F8040138B1C5F80471D5F80401B6
:10FF800000906068401C606000F050F96068B0420A
:10FF9000E7D14046BDE8F88300100140243000203E
:10FFA0002DE9F843144D154C4FF000086768D5F85B
:10FFB0000405616800EB016600F0EEF8D5F8040175
:10FFC00038B1C5F80481D5F8040100906068401C80
:10FFD000606000F02BF96068B842E7D10848A6FBE2
:10FFE000001011F5804240F10001D20B42EA41407D
:10FFF000C90BBDE8F8830000001001402430002048
:020000040002F8
:1000000040420F0038B5184D2878002818BF38BD79
:1000100016491120FEF756FD154C0020C4F80805BE
:10002000C4F84001D4F840110091C4F84801D4F854
:1000300048110091C4F80401D4F8040100900D485F
:10004000C4F804030220C4F844034FF4A020C4F809
:10005000480311200721CC3400F0F0FD012044F8C2
:10006000CC0C287038BD00002430002005EB0100C6
:1000700000100140020005002DE9F84F354D364CC7
:1000800093468A4680460026D4F80490D5F80405A5
:10009000616800EB016700F07FF8D5F8040138B122
:1000A000C5F80461D5F8040100906068401C6060E8
:1000B00000F0BCF860684845E6D1284AA7FB02106A
:1000C00011F5804140F10000C90B41EA4043C10BEA
:1000D00018EB06007141984502D2001C41F1010164
:1000E000C90341EA50411E4BC003C01841F1000151
:1000F0000023FCF70DF9074600F04EF8D4F8048011
:10010000D5F80405616800EB016900F045F8D5F801
:10011000040138B1C5F80461D5F8040100906068A5
:10012000401C606000F082F860684045E6D109F14B
:100130000200391A0029D8BF074627F07F4005EB97
:100140008A01C1F84005C5F844B3BDE8F84F00F096
:100150006DB80000001001402430002040420F0024
:100160003F420F0070B50D46044600F015F8208898
:10017000401B85B2258000F059F8284670BD70B547
:100180000D46044600F008F82088284485B22580F2
:1001900000F04CF8284670BD1B48416819B1416811
:1001A000491C4160704770B5EFF3108172B6174A71
:1001B00094680123DFF850C0002C18BF8CF8003081
:1001C00001D0A9B913E093604FF0E023D3F8805138
:1001D0000F4C25401560C3F88041D3F8844154602A
:1001E0005A17C3F8842100228CF80020E9E762B690
:1001F000416821B12822074907A0FCF7A5FB416807
:10020000491C416070BD00001430002028360020D9
:10021000FC06FFBCFC2C02005F656E7472795F63A4
:100220006F756E74203D3D2030000000154810B5FC
:10023000416809B34168491E41604168002918BFFF
:1002400010BD007810498A68002A08BF10BD002838
:1002500018BF10BDEFF3108072B60B684FF0E022AC
:10026000C2F800314B68C2F8043100228A600028CD
:1002700018BF10BD62B610BD2E22044904A0FCF7C1
:1002800063FB00001430002028360020FC2C020004
:100290005F656E7472795F636F756E74203E203097
:1002A000000000000FB4084810B5017800291CBFF9
:1002B00010BC5DF814FB0121017003A9029800F045
:1002C00093FC012000F002F862300020002818BFE3
:1002D00000F0F2FBFEE78A68002A01DCFDF7CCB8EB
:1002E000521E8A604A68C0B2531C4B60107070473F
:1002F0002DE9F0412D4C257815F0010F04BF0120A8
:10030000BDE8F0810027F0B1DFF8A4C084459CBFB0
:10031000DFF8A0C0604516D2002904BF0320BDE865
:10032000F0810B051B0D1CBF0620BDE8F0810368A2
:100330008B4205D8D0F804C001EB0233634505D9E0
:100340000520BDE8F0810220BDE8F081002A04BF4D
:100350000420BDE8F081184B5E6D042E04BF072019
:10036000BDE8F081D3F850C0B444BCF1040F28BFFD
:100370004FF0000C761C0CEB8C0C5E6503EB8C03D1
:100380005F609F60DF601F61186002201871080BBA
:1003900018819A8115F0060F04D145F002002070F3
:1003A00001F098FB0020BDE8F0810000F42F002050
:1003B000803000209030002080320020084601F07C
:1003C00081B800002DE9F047314D2E7816F0010F6D
:1003D00004BF0120BDE8F0874FF0000908B32D4CA1
:1003E00084429CBF2C4CA0421BD20127002A12BF82
:1003F00000290320BDE8F08742EA010C1CF0030F3E
:100400001CBF0620BDE8F087D0F800C08C4505D899
:10041000D0F804C001EB8304644505D90520BDE88C
:10042000F0870220BDE8F087002B04BF0420BDE860
:10043000F087DFF868C0DCF85480B8F1040F04BF1F
:100440000720BDE8F087DCF850404444042C28BF66
:10045000002408F1010804EB8404CCF854800CEB70
:10046000840C16F0060FCCF80490CCF81090CCF861
:1004700000008CF80470CCE90221ACF8103004D1F3
:1004800046F00200287001F025FB0020BDE8F0874F
:10049000F42F002080300020903000208032002097
:1004A00070B52B4CDFF8ACC0231D62886068A4F1E6
:1004B000200505EB021100281DBF468800EB8600D1
:1004C0000C30486808BF08304FF6FF7605EB021283
:1004D000526802F58052824222D90568B5F1FF3F89
:1004E0001ED08588B5421CBF0588002D13D018602A
:1004F0006268BCF80410DCF8000000EB8101508851
:1005000000F1030083B24FF003002070BDE870409B
:100510001148FFF757BF458800EB85000C30DAE73C
:10052000888960B1052020700220ACF80400DCF856
:100530000010BDE8704001220748FFF7D9BE4968A6
:1005400001220548FFF7D4FE0421217070BD000090
:1005500070320020EC2F00208030002000487047CF
:1005600070280200F8B52B4F04464FF00103395DA7
:10057000294D11F0210F03FA04F604BF2868B04397
:1005800046D011F0020F4FF0000002D011F0200F02
:1005900033D08DF8030003228DF802008DF800207F
:1005A00011F0200F12D08DF801201C4A6946204618
:1005B00000F0C2FBA86806421CBF385D10F0C00FF7
:1005C00024D00121204600F055FB1FE0C1F3C101FA
:1005D000012908BF8DF8013005D0032914BF8DF81B
:1005E00001008DF801209DF8011040EA8100A10072
:1005F00001F1A041C1F8000708E00090C1F38000BC
:100600008DF801006946204600F082FC28683043DE
:100610002860F8BD58330020F82F00204908020058
:1006200070B5044690F900000E46B0F1FF3F04D1CA
:10063000B722114911A000F015FA164A20780121BD
:1006400012688140144D114208D0295C11F0020F4C
:1006500002D011F0200F0CD000F0E0FB94F9000064
:10066000295C66F3410129542078BDE87040FFF70A
:1006700079BF00F0BFFCF1E7402C02006F626A2DE9
:100680003E70696E20213D202850696E4E616D6577
:10069000294E4300F82F00205833002010B504469F
:1006A0000170B1F1FF3F08BF10BD202904D35322D0
:1006B000084909A000F0D6F90F490620FEF702FA12
:1006C00000F0F6FB94F900100C48425C42F0010285
:1006D000425410BD402C02002875696E7433325F9D
:1006E000742970696E203C204750494F5F50494E35
:1006F0005F434F554E54000045E901005833002038
:1007000070B504460D460026FFF7C8FFB5F1FF3F60
:1007100008BF70BD94F90000B0F1FF3F04D1202262
:1007200009490A4800F09EF92078012101FA00F0F9
:100730000749086001212046FFF772FF3146204635
:10074000BDE8704000F042B8942C0200AC070200F3
:100750000C0500502DE9F04104460E4600271546D1
:10076000FFF79CFFB6F1FF3F08BFBDE8F08194F9A9
:100770000000B0F1FF3F04D120220B490BA000F094
:1007800071F901202178002D00FA01F014BF0D4904
:100790000D49086001212046FFF742FF39462046F7
:1007A000BDE8F04100F012B8942C02006F626A2D8F
:1007B0003E70696E20213D202850696E4E616D6546
:1007C000294E4300080500500C05005070B5044642
:1007D00090F900000E46B0F1FF3F04D1AC22114960
:1007E00011A000F03FF9164A2078012112688140DB
:1007F000144D114208D0295C11F0020F02D011F003
:10080000200F0CD000F00AFB94F90000295C66F37D
:10081000C40129542078BDE87040FFF7A3BE00F062
:10082000E9FBF1E7402C02006F626A2D3E70696EB1
:1008300020213D202850696E4E616D65294E430090
:10084000F82F002058330020810001F1A041D1F899
:100850000017C1F3014103290CBF0121022101222C
:1008600002FA00F30D4AD2F808C013EA0C0F08BFD1
:1008700070470B4B01290CD0022918BF70471B5C35
:1008800013F0400F08BF7047064B526853F8200022
:1008900010471B5C13F0800FF6D17047F82F002033
:1008A00058330020D832002010B4B1F1FF3F14BFFC
:1008B00002284FF0FF31194BB2F1FF3F996114BF8D
:1008C00001284FF0FF325A61B1F1FF3F0DD0144CB7
:1008D0004FF0010C0CFA01FCC4F800C08C0004F1CC
:1008E000A0444FF0030CC4F800C7B2F1FF3F06D09C
:1008F000940004F1A0444FF0000CC4F800C7002895
:1009000018BF012018775B7F03430648C0F86C3599
:10091000C0F80815C0F8102510BC7047D03500206D
:1009200008050050002000402DE9F0410446D0F8B1
:1009300004030D4610F0100F4FF001074FF00006B2
:100940001CBFD4F81001002805D0C4F81061296834
:100950004FF001008847D4F8040310F0200F1CBFAB
:10096000D4F81401002805D0C4F8146129684FF0A8
:1009700002008847D4F8040310F0800F1CBFD4F89D
:100980001C01002805D0C4F81C6129684FF0000044
:100990008847D4F80401002808BFBDE8F081C4F8F6
:1009A00004612F712968BDE8F04103200847000069
:1009B000044881B00021C0F84811D0F848010090E7
:1009C00001B070470010014002494FF48020C1F887
:1009D000480370470010014010B5FFF7BDFA074A01
:1009E000801C054920F07F40C2F840054FF480206C
:1009F000C1F8440310BD0000001001400810014080
:100A0000FFF700BB014801F00DBC000050280200B8
:100A100010B5FFF7C5FA10BD4FF480220221FFF791
:100A20002BBB000008B56846FEF77EFF00244FF49C
:100A300016510848FEF768FB0AE02246641C06A12E
:100A400004482C30FEF7ADFDB6EE000A01F08AFD39
:100A5000F3E7000090300020486F6E672025640A9D
:100A60000D00000070B514460D460646FFF794FBD6
:100A700023462A46314603A000F08CF8BDE87040BA
:100A800000F01AB86D6265642061737365727461F9
:100A900074696F6E206661696C65643A2025732CF9
:100AA0002066696C653A2025732C206C696E652080
:100AB0002564200A0000000082B0FFF76DFB1121C1
:100AC0006846FFF71DFE2B4D01242E1D5FF0000729
:100AD0009DF90000B0F1FF3F04D12022264927A054
:100AE000FFF7C0FF9DF8000004FA00F02860962090
:100AF00001F050FD9DF90000B0F1FF3F04D120222C
:100B00001D491EA0FFF7AEFF9DF8000004FA00F09B
:100B10003060962001F03EFD7F1C042FD8DB0027BB
:100B20009DF90000B0F1FF3F04D12022124913A02B
:100B3000FFF798FF9DF8000004FA00F028604FF4DA
:100B4000C87001F027FD9DF90000B0F1FF3F04D10E
:100B50002022094909A0FFF785FF9DF8000004FA4B
:100B600000F030604FF4C87001F014FD7F1C042FBA
:100B7000D6DBABE708050050942C02006F626A2DAB
:100B80003E70696E20213D202850696E4E616D6572
:100B9000294E43000FB470B5A0B025AC249DFFF7DB
:100BA000FBFA23462A4680216846FBF729FC051EEE
:100BB00010DD0B48006820B908220621094801F021
:100BC00085F900246E460748315D01F081FA641C06
:100BD000AC42F8DBFFF72AFB20B070BC5DF814FBD9
:100BE0001C300020A835002070B5A0B00C4605468A
:100BF000FFF7D2FA23462A4680216846FBF700FC1D
:100C0000051E10DD0A48006820B90822062109489F
:100C100001F05CF900246E460648315D01F058FA97
:100C2000641CAC42F8DBFFF701FB20B070BD000094
:100C30001C300020A8350020704770474907090E76
:100C400000F01F02012303FA02F243099B0003F1A3
:100C5000E0230028B8BF00F00F0000F1E020A9BF9A
:100C600080F8001480F8141DC3F88022C3F8002116
:100C700070470000F8B42D4B00251C184FF0010CF4
:100C800094F94020082A24DB02EB030191F8581064
:100C90004FEA9111032902D0012906D007E0244927
:100CA00009680CFA00F2114201D1022100E003218F
:100CB000800000F1A040D0F8002722F44032C0F8B4
:100CC0000027D0F8002742EA0141C0F80017F8BC1D
:100CD000704724BFF8BC70474FF48070960006F14F
:100CE000804606F5C04600EB8200D6F8107580B24B
:100CF00047F00107C6F8107500F1804000F5C040CC
:100D0000056000680090002904BFF8BC704794F9A2
:100D1000400053F82000002804BFF8BC70470CFACC
:100D200002F00449C1F80403F8BC7047BC34002049
:100D300010050050006000402DE9F001DFF8D8C038
:100D400000250CEB0003012493F9403014EBE3730E
:100D500018BF082511D1CE78002E19BF002308270F
:100D600008231027BB4207D25CF82340B4F1FF3FB1
:100D700007D05B1CBB42F7D304252846BDE8F00131
:100D800070470CEB00085CB288F840404CF8232018
:100D9000002E04BF0CEB030282F85800B4F1FF3FB1
:100DA000EAD08B78820002F1A042002B03BF4B787F
:100DB000002646EA8303D2F8003718BF23F0020367
:100DC000C2F80037CA78E2B10A78A10001F1804187
:100DD00001F5C041D1F8103523F4F85323F4403322
:100DE000C1F810354FF4F85303EA00204FF44033B4
:100DF00003EA02421043D1F810251043C1F8100550
:100E0000BBE70CEB0400097890F8582042EA811106
:100E100080F85810B1E70000BC340020224A70B4BA
:100E20001318800093F9401001244FF0000C00F1DA
:100E3000A04008290ADBD0F8001721F44031C0F89F
:100E40000017D0F80017C0F8001711E010D24FEAD1
:100E5000810505F1804505F5C045D5F8106526F0FA
:100E60000106C5F8106504FA01F1104CC4F8081326
:100E700093F94010082906D2890001F1804101F55B
:100E8000C041C1F810C50221C0F8001793F8400016
:100E9000C91E082842F8201024BF104480F85810BA
:100EA00083F8401070BC7047BC34002000600040E4
:100EB00010B5154C94F8680000281CBF082010BD20
:100EC0004FF0FF32202104F14000FBF719FE002013
:100ED000B0F1010144F82010082824BF221882F83C
:100EE0005810401CC0B21028F4D307210620FFF789
:100EF000A5FE06494FF00040C1F80403012084F824
:100F00006800002010BD0000BC34002000600040DC
:100F10002DE9F001344B00251A1892F940C0BCF1BC
:100F2000FF3F18BF082516D191F802C0BCF1000F91
:100F300004BF6FF0010382F8403045D0002701263E
:100F40003A46082453F822C0BCF1FF3F07D0521C98
:100F5000A242F7D304252846BDE8F001704703EB11
:100F600000084FFA82FC88F840C043F82270002E37
:100F700004BF1A4482F85800BCF1FF3FEAD04FEAA0
:100F80008C0202F1804202F5C0420B784C78D2F814
:100F900010C52CF4F85C2CF4981CC2F810C5D2F8DB
:100FA00010C54FF4F85606EA00264CEA060C4FF43A
:100FB000403606EA03434FF4801606EA04542343FE
:100FC0004CEA0303C2F810354A7801218140012A16
:100FD0000CBF064A064A11600321800000F1A040C0
:100FE000C0F80017B7E70000BC3400200805005027
:100FF0000C050050124910B401EB000C00249CF9C0
:101000004030621E082B10D2DBB2082B41F823209F
:1010100024BF194481F858209CF94010890001F13F
:10102000804101F5C041C1F810450221800000F166
:10103000A0408CF84020C0F8001710BC704700009A
:10104000BC3400202DE9F0470379DFF8FCC084B000
:101050000CEBC30494F804C0BCF1000F1EBF0820C1
:1010600004B0BDE8F08721B903EB4301374B03EB34
:10107000810122600022DFF8D8800326571E08F184
:101080000409EC4601258B5CFF2B08BF4CF822704D
:1010900011D05FEAD31A23F080034CF8223005FA0E
:1010A00003FA14BFC8F800A0C9F800A09B0003F120
:1010B000A043C3F80067521CD2B2042AE3D30268EB
:1010C000009BC2F86035019BC2F86435029BC2F8F0
:1010D0006835039BC2F86C350268C2F80055026897
:1010E0004E7991F806C00B89C2F80C65C2F804C5A8
:1010F000C2F808358B7A91F80BC0026843EA0C23DA
:10110000C2F8103502680023C2F800320268C2F843
:10111000003303680022C3F81C210368C3F81021C0
:101120000368C3F814210368C3F8042122682AB1B4
:1011300000680979000B40B2FFF780FD257104B00B
:101140000020BDE8F0870000283500202427020099
:101150000805005030B490F804C02D4C0D6804EB25
:10116000CC04D0F800C0CCF820558D88CCF824559C
:101170008D68CCF82855CD68CCF82C55D0F800C037
:101180000D68CCF840558D88CCF844558D68CCF866
:101190004855C968CCF84C15016802F0010C0CEBFD
:1011A0005202C1F8142513F0010F18BF102107D106
:1011B00013F0020104D0BCF1000F0CBF0421082180
:1011C0000268C2F80012DAB2BCF1000F14BF0C239F
:1011D000082302212171216889B1822112F0040FB4
:1011E00018BF922112F0080F18BF41F0200112F031
:1011F000100F18BF21F080010268C2F800130168C7
:101200000022C1F8042100680121C15030BC7047A0
:101210002835002070B5134A05460C4692F8270081
:10122000012804BF112070BD02EB4500817D21B96A
:1012300092F82810491C82F82810A1798175E1796B
:10124000C1752146284600F059F82A0102F1804272
:1012500002F5E042A079E179C2F81415C2F8100550
:10126000002070BD4035002070B5184A92F8263035
:10127000002B1CBF082070BD002904BF072070BDD3
:10128000002808BF12481160124B017819601B1D1D
:1012900041781960012582F82650002182F8271034
:1012A00082F828100C4C11616FF00042C4F808233A
:1012B000C4F80411817807208834FFF7BFFC0220AE
:1012C000C4F87C0205480560002070BD4035002050
:1012D00048270200F0750040007000400075004093
:1012E00010B50449D8220448FBF7D8FB024813DFA5
:1012F00010BD000000C00100F82E00200A784B78D5
:101300004FF0300C02F003020CEA03131A438B78FF
:101310004FF4E06C0CEA03231A43CB784FF4805C63
:101320000CEA03331A430B794FF4E02C0CEA034325
:101330001A434B794FF4801C0CEA03531A43000103
:1013400000F1804000F5E040C0F818258A79C9799D
:10135000C0F81415C0F8102570470000F0B5474ECE
:101360008BB00F460546002404EB840056F820009D
:10137000002818BF641CF7D1414800EBC400416845
:1013800090F90000FDF79EFB3E486F7000EBC40132
:1013900004EB8400AC7046F820103B4A06EB800159
:1013A0005010C1E90120B6EE000A81ED030A696020
:1013B00048688968000109010023EC4601224FF6C4
:1013C000FF7600BFB0F5004F49DAACF80000ACF88A
:1013D00002108CF80430686806AF0668294800F1EE
:1013E000300292E80E1087E80E10696810310691FD
:1013F000BDF802106A6841F400411182D0E9101270
:10140000806C0291CDE903206878002240F08000D2
:101410008DF808009DF804008DF80D00BDF800005F
:10142000ADF8100002A93046FFF70CFE28B14FF4CA
:10143000C372164916A0FFF715FB0223002206A966
:101440003046FFF787FE032C1CBF0BB0F0BDA12276
:101450000BB00E49BDE8F04013A0FFF703BB5B1CC7
:101460004010491006EA4202DBB2802AAAD940F2B3
:101470008D12064912A0FFF7F5FAE4E76C3500205B
:10148000642702004C270200400D0300582D020083
:101490007265745F636F6465203D3D204E52465F08
:1014A00053554343455353006920213D2050574D28
:1014B0005F494E5354414E43455F434F554E540090
:1014C000300000002DE9F04FF549F54ADFF8D4A3CC
:1014D000096FDFF8D493C1EBC10102EB81050F2343
:1014E0002A780E2701260024DAF8001085B009F1C9
:1014F00020084FF0020B072A80F05982DFE802F043
:10150000FD046565FCFCFB00E84A127820B1E74861
:1015100022F00101017069E0287940B1012808BF7B
:1015200000200BD0022826D003282BD045E0022330
:10153000DF4AE048FEF746FF2E7139E009EB001163
:10154000097802290BD0401C80B20228F6D3D74874
:1015500022F0010141F00201017000F026BA09EB0E
:1015600000180223D44AD348D8F80410FEF72AFF03
:1015700088F800401CE00122CE48FEF7B9FEAAF828
:1015800004B014E00223CC4ACA48FEF71BFFB8F8A7
:101590000210DAF8002009EB01114B68CAF800309C
:1015A0004A60BAF804200A81AAF804B00C702C71C1
:1015B000002804BF05B0BDE8F08FBC48017821F0D9
:1015C00001010170384600F0F3B9698A09EB01198D
:1015D00078B1E888B9F80810C21C1144A9F80810BD
:1015E000B9F80A10081AC01EA9F80A00304600F01F
:1015F000DFB9B9F80810D9F8040000EB810A287C9B
:10160000AE4907287AD2DFE800F010611E32047F6D
:101610008E004C60A86908606946A84800F06EFB1F
:10162000002808BF0A2000F0C381A84651460123C4
:101630002A1DA048FEF7C6FE88F810B0002861D128
:10164000204600F0A9B9A846012305F10C020AF1D1
:1016500008019848FEF7B6FE98F81610002914BF46
:101660000321012188F810100028E9D04AE09448AD
:10167000D446A846416C4FF0000A41B1026C00EB21
:10168000C20A521C02F00702491EC0E91021B8F834
:101690001400BAF804300CEB80018648DAF8002018
:1016A000FEF790FEB8F81420BAF804101144A8F818
:1016B000141098F81610491E11F0FF0188F8161042
:1016C00008BF88F810600028BAD01BE0A8460123A4
:1016D00005F108020AF104017648FEF773FE98F856
:1016E000001003290CBF0521062188F810100028DE
:1016F00008BF05B003E074E028E058E116E008BF39
:10170000BDE8F08F384612E0496801236D4A694808
:10171000FEF758FE002818BF0E200621297430B9A4
:1017200005B0BDE8F08F41F61D5000E00F20E988BC
:10173000B9F80820CB1C1A44A9F80820B9F80A20E7
:10174000511AC91EA9F80A1000F026B900287FF422
:101750004DAF287928B1012825D0022800F0258135
:101760003DE002940394E8680190694601A800F006
:10177000C5FA002808BF0A2012D002980123514A56
:101780008188E980018829814A480299FEF71AFE7A
:10179000002818BF0E20BDF8001009EB01118E7350
:1017A00085F804B0F8E0484B6A460021A81D00F017
:1017B000EFF928B13D498C60CC600A286FD0EBE08E
:1017C0000123404A3B480199FEF7FCFD002818BF61
:1017D0000E203D49898809EB01118E73EDE718460B
:1017E000E6E000287FF402AF384A98F80C0007279B
:1017F0005268002818BF88F80C4045D1294898F84D
:1018000000C08088BCF1080F3ED2DFE80CF0043D38
:101810003D1E2638383BB8F80800401CA8F80800E0
:10182000A8F8024099F8000000280CBF0120002011
:1018300088F80A0099F8100000280CBF0120002049
:1018400088F80B0088F800601EE05188C91C084425
:10185000AAF8040088F800B016E0B8F802C009EB56
:101860000C1CDCF80470CAF80070CCF80410ACF85A
:101870000800AAF804B0062088F8000004E088F800
:10188000007001E088F8006098F800000828A6D2EF
:10189000DFE800F0041E434653046E799FE784E0BE
:1018A00090310020EC2F002050320020DC2F00204F
:1018B000FC2602008030002004270200783100203E
:1018C00008320020F8260200E42F002070320020A9
:1018D00098F80A1008F1020051B188F80A40B9F8E6
:1018E0000C10002902BF99F80E100129048014D0B1
:1018F00098F80B1051B188F80B40B9F81C1000296A
:1019000002BF99F81E100129068006D088F8004011
:10191000A8F80240C8F8044047E0FEF7C1FD3BE0EC
:10192000BAF80410DAF8000000EB81015088C01CFE
:1019300083B26148FEF746FD2EE0B8F8020009EBDD
:101940000010818959B1052088F80000AAF804B078
:1019500001225948DAF80010FEF7CAFC1CE0416881
:1019600001225548FEF7C4FC042188F8001013E05A
:10197000B8F80200022309EB0010504A41684E48B3
:10198000FEF720FD08E0C8F8044002234C4A4A480C
:10199000DAF80010FEF716FD002804BF05B0BDE818
:1019A000F08FA0F5E8511D3902D1019410E00F200D
:1019B00001902878022818BF032809D14148AA7D40
:1019C000016C11440164AA7D416CA1EB02014164E8
:1019D000287807283DD2DFE800F03C0407122430C5
:1019E00039008DF8004034E08DF800602889ADF8AA
:1019F0000C00A888ADF80E00E868029029E08DF888
:101A000000B02889ADF80C00A888ADF80E00E86891
:101A10000290287C06280CBF012000208DF81000C1
:101A200017E003208DF80000E888ADF80C00288945
:101A3000ADF80E00E86802900BE004208DF800007D
:101A4000E888ADF80C00ADF80E4002E005208DF8F6
:101A500000001D4E6F46002556F8251000291CBFBA
:101A6000384688476D1C032DF6D31848016FC1EB2B
:101A7000C10100EB81010C604C608C60CC600C619A
:101A80004C618C61416F71B190F87020521C02F072
:101A90000302491EC0E91C2105D00020FFF712FDFA
:101AA00005B0BDE8F08F0A48017821F0040101700B
:101AB00005B0BDE8F08F0000803000200427020050
:101AC000FC260200083200208431002090310020E2
