:020000040001F9
:10C000000000012031C201003DC201003FC2010019
:10C0100041C2010043C2010045C20100000000000E
:10C0200000000000000000000000000047C2010006
:10C0300049C20100000000004BC201004DC20100D6
:10C040004FC201004FC201004FC201004FC20100A8
:10C050004FC201004FC201004FC201004FC2010098
:10C060004FC201004FC201004FC201004FC2010088
:10C070004FC201004FC201004FC201004FC2010078
:10C080004FC201004FC201004FC201004FC2010068
:10C090004FC201004FC201004FC201004FC2010058
:10C0A0004FC201004FC201004FC201004FC2010048
:10C0B0004FC201004FC2010000000000000000005C
:10C0C0004FC201004FC201004FC201004FC2010028
:10C0D0004FC201004FC201004FC2010000F002F840
:10C0E00000F098F80AA090E8000C82448344AAF17A
:10C0F0000107DA4501D100F08DF8AFF2090EBAE878
:10C100000F0013F0010F18BFFB1A43F0010318478B
:10C11000687A0000887A0000103A24BF78C878C195
:10C12000FAD8520724BF30C830C144BF04680C603D
:10C13000704700000023002400250026103A28BF85
:10C1400078C1FBD8520728BF30C148BF0B60704789
:10C150006E2900F09286702900F0F381662907F0BD
:10C160000B82652907F00882672907F0058261299B
:10C1700007F0048203681B0A28BF41F08001692987
:10C1800000F06481642900F06181752900F05E810E
:10C190006F2900F07D87782900F0BF81E92900F040
:10C1A0001787E42900F01487F52900F01187EF299B
:10C1B00000F07A87F82900F0BE810368DB0928BF08
:10C1C00041F08001632901F09585732901F09A857A
:10C1D000E32901F0A585F32901F0AA850020704725
:10C1E0001FB507F095F99DE8030000F055FD01F03B
:10C1F000EBFE04000020002107F0BCF8401C60604A
:10C200000020002107F0A0F8E06001F0B7FD00F089
:10C2100003FD1FBD04F038F9114603B404F048F9DA
:10C2200003BCFFF7DDFF02F0B8FB04F0E7FC000001
:10C23000074880470748804707480047FEE7FEE772
:10C24000FEE7FEE7FEE7FEE7FEE7FEE7FEE7FEE7C6
:10C25000B9EB01002D1F0200DDC00100004870474E
:10C260008837002070B5064600F0FAFC056806F134
:10C270000B0020F00704B4429CBF002070BD2B4689
:10C280006A68BAB11068A04210D304F1080188426C
:10C290003CBF5068586007D351681019416011685D
:10C2A000091B016058601460101D70BD1346526870
:10C2B000002AE7D12146284600F0DAFC0028DED12A
:10C2C00070BD70B50446051F00F0CAFC0068002C64
:10C2D00014BF446870BD002C18BFAC423CBF204660
:10C2E0006468F8D301680A18AA4218BF456003D1F0
:10C2F0002A6805461144016028684119A1421CBF03
:10C300006C6070BD6168696021680844286070BD18
:10C3100053EA020C00F069802DE9F04B4FF0000663
:10C32000002B1FBFB3FA83F503FA05F424FA05F6D0
:10C330005E4012BF1643B2FA82F502FA05F4C5F167
:10C3400020051EBF22FA05FC44EA0C04203556EAFB
:10C35000044C4FEA144418BF641C4FF000084FF01F
:10C360000009904271EB030C39D3002919BFB1FACF
:10C3700081F701FA07F6B0FA80F700FA07F6C7F17D
:10C3800020071EBF20FA07FC46EA0C062037B6FB42
:10C39000F4FCA7EB0507103F07F01F0BCBF12006BD
:10C3A0000CFA0BFB2CFA06F644BFB3460026202FEE
:10C3B000A4BF5E464FF0000B5BEA060C08BF4FF0CF
:10C3C000010B19EB0B09ABFB027C48EB0608C01B09
:10C3D00006FB02CC0BFB03CC71EB0C01C1E70B4657
:10C3E000024641464846BDE8F08B13B54FF00000C9
:10C3F0004FF00001AFF30080BDE81C407047000023
:10C400007CB51D4616460C00009001D02044401E0D
:10C41000074B7B442A4669460190304600F047FDB1
:10C4200005461CB10020694600F054FD28467CBD3D
:10C43000C90A00000FB4044910B503AA029800F01D
:10C4400057FD10BC5DF814FBE43700202DE9F041E6
:10C450000646002410687529314616A510D000F054
:10C4600078FC002802DA404213A507E031688A0709
:10C4700001D512A502E0490704D511A5012401E068
:10C4800000F070FC00210A2206F1240709E0B0FB4D
:10C49000F2FCB0FBF2F302FB1C003030785418467B
:10C4A000491C0028F3D123462A463046BDE8F04116
:10C4B00000F08ABC000000002D0000002B000000EE
:10C4C00020000000F0B40D460188090502D5214C7A
:10C4D0007C4402E01F4C7C440E34002100F1240611
:10C4E00008E002F00F071209E75D42EA03721B0938
:10C4F0007754491C52EA0307F3D10278002312074C
:10C5000004D5702D06D009B1022311342246F0BCA7
:10C5100000F05ABC01231034F8E770B504460D460C
:10C520002146106800F01EFC024629462046BDE860
:10C5300070400023C6E7D21D22F00703D3E9002391
:10C54000C0E70368126843F0200303600823C36157
:10C550000023B7E7287200002DE9F05F8946044602
:10C560004FF0000ADFF874B1FB44C0F820A0204669
:10C57000E1688847002874D0252806D0D4E9012135
:10C580009047206A401C2062F1E700265F46204663
:10C59000E16888472028054607DB312D05D2781948
:10C5A00010F8200C08B10643F1E7B00701D526F0DA
:10C5B0000406C4F81CA00027C4F818A02A2D09D02E
:10C5C000284603F065FF38B304EB8708303DC8F810
:10C5D000185019E059F8041B204604EB87029161BA
:10C5E000E1688847012F054618D1E069002820DA64
:10C5F00026F020061DE0D8F8180000EB800005EBBF
:10C6000040003038C8F818002046E16888470546E1
:10C6100003F03EFF0028EED1012F0AD02E2D08D1C5
:10C620002046E16888477F1C0546022F46F0200619
:10C63000C4DBA069002803DA404246F00106A0618D
:10C64000F00701D026F010066C2D0BD0682D09D014
:10C650004C2D39D06A2D35D0742D35D07A2D33D06C
:10C6600016E038E0E1682F4620468847B842054684
:10C6700009D16C2F26D04FF48060E1680643204634
:10C680008847054604E06C2F1AD04FF480700643AB
:10C690000DB3A5F14100192802D8203546F40066F3
:10C6A0004A462946204626604E46FFF751FD80B196
:10C6B00001280BD0F61D26F0070000F1080956E707
:10C6C0004020E4E78020D8E70020D6E706F10409FF
:10C6D0004DE7284652E7206ABDE8F09FB871000098
:10C6E00070B50446C068810713D0800601D5A56ADD
:10C6F00004E0A169606808442169451A204600F0F9
:10C70000A1FE002206462946204600F0C7FD30461D
:10C7100070BD002070BD70B510B1BDE87040DFE79E
:10C720000025074C6E1E07E02046FFF7D9FF00B139
:10C730003546206D20F00104002CF5D1284670BD4F
:10C740009037002070B50D46044604E0294604F0F9
:10C750005AFA401C04D014F8010B0028F6D170BD21
:10C760004FF0FF3070BD00002DE9F0410C46074648
:10C770001646104600F078F82078611C61280AD02F
:10C78000722802D077283CD102E00125002405E080
:10C790000225042402E0082448F2020511F8010BE6
:10C7A0002B2806D0622809D011F8010C74280AD071
:10C7B0000BE045F0030544F00204EFE745F0040503
:10C7C00044F00104EAE744F010043846214603F03F
:10C7D000DFFE411C15D00021316171604FF4007102
:10C7E000F560F1617061200704D530460222002116
:10C7F00000F054FD306D40F0010030653046BDE87A
:10C80000F0810020FBE72DE9F0410D460646104C73
:10C81000206DC10704D0410804D020F00104F7E7DF
:10C8200022460EE05420FFF71DFD07000ED0206DBC
:10C8300047F00101084354212065384600F085F98E
:10C840003A4629463046BDE8F0418DE70020D6E75C
:10C850009037002011B14FF4807201E04FF48062F4
:10C860004FF4007300F096BD2DE9F04704464FF0F9
:10C8700000094FF0FF37C568D4E90486A80707D040
:10C88000204600F0DFFD304603F016FE002802DAF5
:10C890003846BDE8F087280502D54046FFF711FD70
:10C8A0004C21204600F051F9206D20F00100206558
:10C8B0004846EEE70EB5054614460E4613A001F0B5
:10C8C00045FB284601F042FB16A001F03FFB304635
:10C8D00001F03CFB15A001F039FB00218DF80B1095
:10C8E0000A210DF10A008DF80A1008E094FBF1F21C
:10C8F00001FB124294FBF1F4303200F8012D002CC0
:10C90000F4DC01F023FB00F0E1FD00002A2A2A20DC
:10C91000617373657274696F6E206661696C6564BA
:10C920003A2000002C2066696C6520002C206C6980
:10C930006E65200010B5431C02E010F8011B71B1B8
:10C940008107FAD14FF0013202C88C1A8C4314EAE5
:10C95000C211F9D0C01A0A0603D0C01E10BDC01AF9
:10C9600010BD0A0401D0801E10BD0902FCD0401E7B
:10C9700010BD40EA010370B59B072ED14FF0013680
:10C98000042A2AD308C810C99D1B9D43121F15EA0B
:10C99000C61517D0D8B2E1B2401A50EA056110D1DD
:10C9A00098B2A1B2401A50EA05410AD123F07F4063
:10C9B00024F07F41401A50EA052102D1180EA0EB65
:10C9C000146070BDA342DBD018BA21BA884201D9E5
:10C9D000012070BD4FF0FF3070BD0AB9002070BD5E
:10C9E00010F8013B11F8014B63B1A3420AD1521E6A
:10C9F00008D010F8013B11F8014B1BB1A34201D143
:10CA0000521EEDD1181B70BD032A40F2308010F089
:10CA1000030C00F0158011F8013BBCF1020F6244D9
:10CA200098BF11F801CB00F8013B38BF11F8013B6A
:10CA3000A2F1040298BF00F801CB38BF00F8013B17
:10CA400011F0030300F02580083AC0F0088051F887
:10CA5000043B083A51F804CBA0E80810F5E7121D92
:10CA60005CBF51F8043B40F8043BAFF30080D207B1
:10CA700024BF11F8013B11F801CB48BF11F8012B7D
:10CA800024BF00F8013B00F801CB48BF00F8012BA0
:10CA9000704710B5203AC0F00B80B1E81850203A2A
:10CAA000A0E81850B1E81850A0E81850BFF4F5AF4E
:10CAB0005FEA027C24BFB1E81850A0E8185044BFD8
:10CAC00018C918C0BDE810405FEA827C24BF51F845
:10CAD000043B40F8043B08BF7047D20728BF31F839
:10CAE000023B48BF11F8012B28BF20F8023B48BF8A
:10CAF00000F8012B704702F0FF0343EA032242EAE9
:10CB0000024200F002B84FF000020429C0F0128087
:10CB100010F0030C00F01B80CCF1040CBCF1020FF0
:10CB200018BF00F8012BA8BF20F8022BA1EB0C01C5
:10CB300000F00DB85FEAC17C24BF00F8012B00F8BB
:10CB4000012B48BF00F8012B70474FF0000200B5E1
:10CB5000134694469646203922BFA0E80C50A0E820
:10CB60000C50B1F12001BFF4F7AF090728BFA0E8CE
:10CB70000C5048BF0CC05DF804EB890028BF40F89A
:10CB8000042B08BF704748BF20F8022B11F0804FDC
:10CB900018BF00F8012B70474FF0013C50F8042BF0
:10CBA00051F8043B9A4221D1A2EB0C03934313EAC0
:10CBB000CC1317D150F8042B51F8043B9A4215D1ED
:10CBC000A2EB0C03934313EACC130BD150F8042BC4
:10CBD00051F8043B9A4209D1A2EB0C03934313EAA8
:10CBE000CC13DBD04FF00000704700BFD01A01BA61
:10CBF000B1FA81F101F0180122FA01F0CB40C1F144
:10CC00002001DBB2C0B2C01A2CFA01F3D11A914351
:10CC100011EAC311E6D1704770B5064C7C44064D4D
:10CC20007D4403E0206820448047241DAC42F9D1B4
:10CC300070BD0000A4700000A47000002DE9F04158
:10CC400017460E46054633B107FB0354E41B204646
:10CC5000B047A542FAD1A5F10800BDE8F081000077
:10CC6000004870478C370020704770477047704706
:10CC700038B504460A460020694601F07EF90028CE
:10CC800008BF38BD02460099204600F03FFC012055
:10CC900038BD012001F03AB9F8B501F063F9054655
:10CCA00000200C46102000BF0646A819A0420DD94E
:10CCB00032466946002001F060F9070008BF01F024
:10CCC00025F90098A04218BF0546C419FFF7C8FF10
:10CCD00005600746F01D20F007004619284600F0C1
:10CCE0000AF8B44208BFF8BDA21B31463868BDE857
:10CCF000F84000F00BBC00210160C0E90110704752
:10CD00001020704770B5044685690068C10601D5DA
:10CD1000302600E02026C00707D070BDD4E90121ED
:10CD200030469047206A401C20626D1EF6D570BDCB
:10CD300070B5044685690078C00707D170BDD4E995
:10CD4000012120209047206A401C20626D1EF6D5EC
:10CD500070BD09684A0501D540B27047C905FCD5C8
:10CD600000B2704709684A0501D5C0B27047C905CD
:10CD7000FCD580B2704770B50C460546012A05D037
:10CD80002878800600D5EA69002302E0012305E047
:10CD90005B1C934202D2E05C0028F9D1A869E61836
:10CDA000C01AA861286A184428622846FFF7AAFF1B
:10CDB00004E0D5E9012114F8010B9047B442F8D3FF
:10CDC0002846FFF7B5FF70BD2DE9F0470D4699469F
:10CDD0009246044600F124080168880604D5E069FB
:10CDE00021F01001216000E00120A84201DD471B75
:10CDF00000E00027A1697A1902EB0900081AA06176
:10CE00002078C00602D42046FFF77CFF002608E009
:10CE1000D4E901211AF806009047206A401C761CCC
:10CE200020624E45F4DB2078C0060AD52046FFF785
:10CE300069FF06E0D4E9012130209047206A401CB8
:10CE40002062381EA7F10107F4DC07E0D4E90121D4
:10CE500018F805009047206A401C2062281EA5F1A2
:10CE60000105F3DC2046FFF763FF2078000602D5BA
:10CE70000220BDE8F0870120FBE711680268006A24
:10CE8000530501D508700AE0D30501D5088006E0F6
:10CE9000130603D5C217C1E9000200E008600120B3
:10CEA0007047000001694A1C02610878704700B5AC
:10CEB0008FB0CDE901310021059105497944CDE9D3
:10CEC000031011466846FFF747FB0FB000BD000096
:10CED000E5FFFFFF0A6802F8010B0A607047D1E91D
:10CEE00000239A4202D2531C0B601070704700005E
:10CEF000074B70B50D467B44FFF7D9FF0446284623
:10CF000000F0DCF810B14FF0FF3070BD204670BD6E
:10CF10000D3D00002DE9FF5F15468A460446DFF807
:10CF2000AC80F8440027D8E900103E46CDE9001057
:10CF300010E03AF816106A4602A800F0BBFF411C48
:10CF400007D02178890603D5E269391891420DD8B6
:10CF50000744761C2078800602D5E069B84205DDDA
:10CF6000AE42E6DB3AF816000028E2D1A069C01B09
:10CF7000A0612046FFF7C6FED8E90010CDE90010F9
:10CF8000002017E03AF818106A4602A800F092FF55
:10CF9000B0F1FF3F81460BD000250DF1080B05E0F5
:10CFA000D4E901211BF8050090476D1C4D45F7D3CE
:10CFB00008F10100B0428046E4DB206A3844206278
:10CFC0002046FFF7B5FEBDE8FF9F00001268000095
:10CFD0002DE9F0418046D21D22F007020025D2E95A
:10CFE0000002F52915A614D0011E72F1000106DA1F
:10CFF0000023D0EB030063EB020211A608E0D8F88F
:10D0000000108B0701D50FA602E0490701D50EA637
:10D0100001251146002408F1240704E000F090FAED
:10D0200030323A55641C50EA0102F7D12B463246A1
:10D0300021464046BDE8F041FFF7C6BE00000000B3
:10D040002D0000002B0000002000000030B4002163
:10D0500000F1240408E002F00705D208303542EA66
:10D060004372DB086554491C52EA0305F3D1046896
:10D07000002310A2250708D504F020040C4304D097
:10D08000C46901230CA2641EC46130BCFFF79CBEBE
:10D0900010B5044621461068FFF764FE024620469C
:10D0A000BDE810400023D1E7D21D22F00701D1E9ED
:10D0B0000023CBE70000000030000000007B00F000
:10D0C000800070472DE9F04705460C46C86820F4FB
:10D0D000201040F48000C860800602D5084600F0A9
:10D0E000D4F9E06841F282014FF0FF390140022992
:10D0F00003D0204600F072F9B5E000F42041B1F50C
:10D10000004F0FD1C00306D56168E06A884200D89D
:10D110000846606006E02069E0626060606903F0D4
:10D12000F1F9A061A0680022EEB200280DDAE168F2
:10D130008B050AD4C043A06041F490302260E060C7
:10D140006068411C61600670A5E0E068904622605E
:10D1500040F40050E060206968BB606903F0F8F9B2
:10D16000012704F12405A0B1A08910F4407F08D064
:10D17000E069FFF777F8206118B1E06840F40060DB
:10D1800016E0E7612561E06820F4407040F48060BB
:10D190000EE0E069FFF766F800282061F1D0E06852
:10D1A00040F4006010F4407FE06002D140F48070F1
:10D1B000E06020696060E06825696FF0010AC105E0
:10D1C0001FD56168E06A884200D80846411B04D038
:10D1D0002246284600F00CF9F0BBE068010203D5B6
:10D1E000E562C4E9015854E0691CE1626160E169EB
:10D1F00040F48030491EC4E9021030462E70BDE86C
:10D20000F087010202D500F480320AE06068411C18
:10D2100061600670E0680A2E40F48030E06006D05D
:10D220000022E16A6068814203D90B4602E00122D4
:10D23000F7E70346A7895B1B7F0503D4E7699F4295
:10D2400000DDE2B1814200D80146E5620F1AC4E96F
:10D250000158002B09DD00E005E02246194628466A
:10D2600000F0C6F808B14846C9E747B1A069E562D1
:10D270006560C01BA061E06840F01000E060E068FD
:10D28000000208D56168A069E562491B0844656031
:10D29000A0615046B3E73046B1E700002DE9F04108
:10D2A000044616460D464769007B80072ED0384657
:10D2B00003F04EF950BB3EB3012E02D0022E25D111
:10D2C00004E0204600F038FD05441DE0384603F038
:10D2D00019F9E168002841F01001E16005DA204603
:10D2E00000F07CF80120BDE8F081C9030BD562682D
:10D2F000E16A914200D81146A26911442269891A53
:10D30000814200DD08460544002D01DA0220EAE7EB
:10D31000E16A6068E268814206D29103E06203D567
:10D3200022F4003141F01002A6690027AE4213DC5E
:10D33000E16A814201D90B4600E0034603EB060C8B
:10D340002369ACEB030CAC4506DD814201D98C4668
:10D3500000E084469C4505D1A760276042F020008C
:10D36000A5620DE0AD1BE669AE1B8142A66000D947
:10D370000846C01A281A20605819606022F0200060
:10D3800003490840E060002084F84870ABE70000E3
:10D39000BFCFD7FF70B5C468A50713D0650211D4FD
:10D3A000B2F5807F09D0B2F5007F06D0B2F5806F6C
:10D3B00008D1012300F1240106E05D1E6FF07F46D5
:10D3C000B54201D3012070BD0161C361416024F405
:10D3D00070611143C160002070BD0000C16821F47C
:10D3E000001141F08001C16000218160016070473F
:10D3F0002DE9F047814614460E464FF0FF3832487B
:10D40000D5685769054209D03846A16903F0C0F9CB
:10D41000002811DB2C48C0430540E5602B4632460E
:10D420004946384603F0DCF9A16920F00042B21AFF
:10D4300011440028A16103D02046FFF7CFFF4046EA
:10D44000BDE8F08770B504460569C06A6168884226
:10D4500000D80846E16821F42011E160C90312D523
:10D46000A84208D02246411B2846FFF7C1FF10B151
:10D470004FF0FF3070BD0020E562C4E90150E06864
:10D4800020F48030E060002070BD10B50446C06814
:10D4900020F02000E060A16AA06988420DD02046FB
:10D4A000FFF7D0FFE06820F4405040F01000E0604B
:10D4B000A06AA0612069E062606044F24001E06817
:10D4C0008843E06010BD00001000020010B500208D
:10D4D00000F015FDAFF30080BDE81040012000F022
:10D4E0000FB810B500F01AFDBDE8104000F002BD05
:10D4F00008B569468DF800000320ABBE08BD0000EA
:10D5000001491820ABBEFEE7260002000346406832
:10D510008C46002818BF88423CBF03464068F8D3B9
:10D5200018681844884207D00CF1030020F0070067
:10D53000001D411A521A0146081D0A60FEF7C1BEBD
:10D5400030B5B0F10A024FEA900E71F100034EEAD5
:10D55000817EB0EB0E0061EB91014FEA101E4EEAA6
:10D56000017E10EB0E0041EB11114FEA102E4EEA36
:10D57000016E10EB0E0041EB11214FEA104E4EEA06
:10D58000014E10EB0E0041EB1141401841F100013A
:10D590004FEAD00040EA41704FEAD10110EB80051C
:10D5A0004FEA810444EA907444EB01046D1944EBA2
:10D5B0000404521BA3414FF0000348BF0A3200D5B8
:10D5C00030BD401C41F1000130BD70472DE9FF4FD7
:10D5D0000C461E464FF0FF378BB0D2E90001DDF854
:10D5E00060800A908A46C1F30A5505B93D4600217C
:10D5F00008464FF00000BAF1000F00F4400005DAD1
:10D6000000EB80004FF4400101EA50004FEA9059CE
:10D61000B9F1010F00DDB9460A9850EA4A000ED070
:10D6200044F61050A5F2FF3545432F14B8F1000F12
:10D630001ED07542291E1EDDC9F100021CE0B8F1A2
:10D64000010F4FF0000001D0302103E0F24305E06C
:10D650002154401CB042FBDB304600220021215403
:10D660000B99C1F80880C1E900200FB0BDE8F08F28
:10D67000BD1B6D1CDEE74A4600DA694206A800F0D1
:10D68000E7FC06AB93E8070003AB83E807005046CE
:10D690000A9900F0C7FD8DE80700A0F500501F387B
:10D6A00000900398002D09DD42F21F014A4608440C
:10D6B00003A90390684601F026F808E0A0F50050A1
:10D6C0004A461F3803A90390684601F030F88DE8F8
:10D6D00007000004000C03D04FF0FF30410800E0C9
:10D6E0001046B8F1000F03D00022009215461EE04C
:10D6F000751E05D4FFF724FF303262556D1EF9D533
:10D70000B3460122084302D000227F1C04E02078A7
:10D71000302801D100227F1E002A099786D01DE003
:10D72000112D07DAFFF70CFF303262556D1C50EAFD
:10D730000102F5D1084302D00098C8B10EE00021E3
:10D74000681E05E0235C625C63542254401E491C41
:10D750008142F7DBAB46A81B401E0990002004F86D
:10D760000B000B98099AC0F80880C0E9002B7CE7F1
:10D7700011264FF0000859E72DE9F04F884604467E
:10D78000D21D22F0070191B0D1E90001CDE90A01D3
:10D7900002F0DEFD02460B98C00F01D02D2007E0FD
:10D7A0002068810701D52B2002E0202101EAC0007A
:10D7B000032A099001D0072A05DB0346414620468B
:10D7C00000F006FC0BE12078800601D5E06900E05E
:10D7D0000620B8F1650F814606D0B8F1660F18D063
:10D7E000B8F1670F70D131E00020B9F1110F00904E
:10D7F00001DB112301E009F101030AAA01A90CA828
:10D80000FFF7E4FEDDE90C70002609F1010583460F
:10D8100047E001204B4600904FF000470AAA01A9BB
:10D820000CA8FFF7D3FEDDE90DB00C995D4600268C
:10D8300010B909F101000D18B9EB050003D4C0F1CE
:10D84000FF3609F10105A5EB09002BE0B9F1010F45
:10D8500001DA4FF001090020B9F1110F009048469C
:10D8600001DD112300E003460AAA01A90CA8FFF775
:10D87000ADFEDDE90C704D4600268346207800079A
:10D880000AD4AB4500DA5D4601A8012D04DD41193B
:10D8900011F8011C302907D04F4502DA17F1040FA7
:10D8A00004DA012082460FE06D1EEEE7002F02DC55
:10D8B000ED1B3E4403E0781CA84200DD7D1CB81B34
:10D8C00000F1010A4FF000472078000703D4AA4571
:10D8D00001DB4FF0FF3A0021B7F1004F0DF1430893
:10D8E0008DF8431024D002202B23002F01DA7F4231
:10D8F0002D230A21021EA0F1010000DC5FB197FB7D
:10D90000F1FC97FBF1F201FB1C7C17460CF1300C8B
:10D9100008F801CDEEE7A8F10100037021880905A0
:10D9200001D5452100E06521A0F1010800F8011CA6
:10D9300009980FA9A1EB0807FF1D00B101204119AB
:10D9400001EBEA70A1693844081A401EA0612078F2
:10D95000C00602D42046FFF7D5F9099828B1D4E9CA
:10D9600001219047206A401C20622078C00622D501
:10D970002046FFF7C7F91EE0002E04DBB34502DDA9
:10D9800001A8805D00E03020D4E901219047206AA1
:10D99000401C2062761CAAF101005FEA000A0AD14D
:10D9A00000F012FBC0680168405CD4E90121904797
:10D9B000206A401C2062281EA5F10105DCDC07E07E
:10D9C000D4E9012118F8010B9047206A401C20621D
:10D9D000381EA7F10107F3DC2046FFF7A9F9032061
:10D9E00011B043E62DE9F04F04460D46D21D22F05A
:10D9F000070089B0D0E9009248461746394602F040
:10DA0000A7FC0246F80F01D02D2307E0206881070C
:10DA100001D52B2302E0202101EAC0038DF820303C
:10DA20000BB1012000E00020032A824601D0072A22
:10DA300004DB2946204600F0CBFA3DE12078800641
:10DA400001D40D2500E0E569C7F30A560D2D49DA2A
:10DA500000214FEA175B08464FF00000002F00F44A
:10DA6000400007DA00EB80004FF4400100EBD0707B
:10DA700001EA60008115012901DD4FF0FF3100222C
:10DA80004FEA850CBCF1180F06D31346ACF1180011
:10DA90004FF08052C24003E04FF4801323FA0CF39E
:10DAA0000CF10C0CBCF1200F04D3ACF1200C09FAE2
:10DAB0000CF001E007FA0CF000294FF0004801DDFE
:10DAC00018B90FE00ED140450CD319EB02095F41A4
:10DAD00021B9404502D19F4329EA0209BBEB175FF8
:10DAE00000D0761C2088000502D57B48784402E0EF
:10DAF00079487844193808AA302302F80A30037CA0
:10DB00000AF10101002E0AF1020A53546A4602DCAE
:10DB10004FF0300101E04FF031014FF001088DF876
:10DB2000001002D0A6F2FF3603E059EA470100D008
:10DB30006A4E002D02DC2178090704D54FF0020857
:10DB40002E218DF80110C44600210BE0C7F30343DA
:10DB50003F01C35C491C6D1E02F80830052908F11D
:10DB6000010801DA002DF1DC00210CE000EB197353
:10DB7000491C1B786D1E082902F808304FEA091964
:10DB800008F1010801DA002DF0DC2178890602D5C0
:10DB900014E0A8F10108E04505DD02EB080111F8E9
:10DBA000011C3029F5D0B8F1000F07DD02EB0801A8
:10DBB00011F8011C2E2901D1A8F10108002D05DD65
:10DBC0003E2102F808106D1E08F10108407C002E6D
:10DBD00002F8080008F1010804DA2D20764202F864
:10DBE000080002E02B2002F808000A214FF47A70A6
:10DBF000864208F101080BDB96FBF0F3303302F8A4
:10DC0000083096FBF0F308F1010800FB136601E011
:10DC1000642E0CDB642096FBF0F3303302F80830FE
:10DC200096FBF0F308F1010800FB136601E00A2EF1
:10DC300006DB96FBF1F0303002F8080008F101082D
:10DC400096FBF1F001FB1060303002F80800A1698A
:10DC500008F1010808EB050202EB0A00081AA061AE
:10DC60002078C00602D42046FFF74CF8216A08AE9F
:10DC700001EB0A00206204E0D4E9012116F8010B4F
:10DC80009047BAF1010AF7D22078C00602D52046A3
:10DC9000FFF738F86E4609E016F8010B3E280FD062
:10DCA000D4E901219047206A401C2062B8F10108A4
:10DCB000F2D22046FFF73CF809B00320BDE8F08F10
:10DCC000206A2844206203E0D4E9012130209047F3
:10DCD0006D1EEBD3F8E70000635C000002FCFFFF61
:10DCE00010B5436913B1AFF3008001E0FFF743F8CB
:10DCF000012010BD127800F124010A7000224A7040
:10DD00000122EDE711684FF0FF32E9E710B54369F2
:10DD100013B1AFF3008001E0FFF7FCF8012010BD64
:10DD2000128800F1240182840022C2840122EDE7DE
:10DD300011684FF0FF32E9E710B50146C26890075D
:10DD400003D0900607D5886A0AE0FEF787FA01211A
:10DD50000160881E10BD8B69486818440B69C01AA1
:10DD600091F848301BB191F84910401A10BD1103C9
:10DD7000FCD50028FADD401E10BD000010B5424859
:10DD80005421FEF7E2FE41485421FEF7DEFE4048F2
:10DD90005421FEF7DAFE3F493B483C4A3F4B0860BE
:10DDA0003D490A603A491960531C0365481C1065D7
:10DDB000012008653B48344A39A17844FEF7D4FC79
:10DDC00020B9384878440A3800F0E2F937482F4A39
:10DDD00035A17844FEF7C8FC20B9344878440A38A5
:10DDE00000F0D6F932482A4A2FA17844FEF7BCFC4D
:10DDF00020B92F4878440A3800F0CAF94023224855
:10DE0000DC0000212246FFF7C5FA20B125487844FE
:10DE1000543800F0BDF91D48224640230021FFF789
:10DE2000B9FA20B121487844543800F0B1F91848C3
:10DE3000224610230021FFF7ADFA002806D01C4827
:10DE40007844BDE81040563800F0A2B910BD104823
:10DE500070B5006D20F001040B48FEF705FD0B487E
:10DE6000FEF702FD0A48FEF7FFFC09E0206D20F0F6
:10DE700001052046FEF7F8FC2046FEF722FA2C4664
:10DE8000002CF3D170BD000090370020E437002053
:10DE9000383800204C300020503000205430002012
:10DEA00072000000D657000077000000C557000040
:10DEB000B557000070B516460C46054600F07CF8D4
:10DEC000036893F80101012806D0FF2C0FD8185DD4
:10DED00068B101202C7070BDD3F80701324621468D
:10DEE00003F2071303442846BDE8704018474FF07B
:10DEF000FF3070BD002801D0FFF702BB704710B59E
:10DF000000F02EF9BDE81040FFF7F4BF10B500F0A7
:10DF100047F9BDE81040FFF7EDBF000010B5002144
:10DF200002A000F003F9012010BD00005349475042
:10DF300056464E3A20507572652076697274756146
:10DF40006C20666E2063616C6C65640010B50449DA
:10DF5000FEF7F8FBBDE810400148FEF7DCBB00000F
:10DF600038380020124B694600F580528A421A6008
:10DF700001D8114670471960704730B50C4D6B469B
:10DF8000A3F580532C6822449A420FD89B1A02F5BD
:10DF9000805003EBD37302EB6303984200D9184619
:10DFA000C01D20F007020C60101B2A6030BD00006D
:10DFB000583000207047000010B500F005F8001D33
:10DFC00010BD00BFB1530000004870478C380020DE
:10DFD0002DE9F0411F46044603260168072A01F493
:10DFE000006004DB08B116A505E016A503E008B142
:10DFF00015A500E015A521F010002060A069C01E45
:10E00000A0610FB1401EA0612046FEF77BFE4FB11C
:10E01000D4E9012138469047206A401C2062C01C88
:10E02000206206E0206AFAE7D4E9012115F8010B25
:10E030009047761EF8D22046FEF77AFEBDE8F081C2
:10E040004E414E006E616E00494E4600696E66009C
:10E050002DE9F047814616468AB0334878440DC80A
:10E060008DE80D0030487844801C03AC0DC884E86E
:10E070000D0041F69B300844372190FBF1F290FBF4
:10E08000F1F5A5F1800501FB12041B3C02D56442A9
:10E09000012000E00020DFF890A080460027FA442D
:10E0A000AAF1BE0A0DE0E00709D03246684607EB48
:10E0B00047010AEB810100F03AFB8DE8070064108C
:10E0C0007F1C002CEFD1184F7F44AC3F18E0E807CD
:10E0D00014D007EB04100DF1180A90E80E008AE83E
:10E0E0000E00C068F04201D198190890324606A986
:10E0F00003A800F01CFB03AB83E807006D10641C51
:10E10000002DE4D132466946B8F1000F03A802D0D1
:10E1100000F0F9FA01E000F00AFBC9E90001C9F8D2
:10E1200008200AB0BDE8F0878457000070B50546A6
:10E130000C460A2000E06D1CFFF7DAF935B12878AB
:10E140000028F8D102E0641CFFF7D2F914B120785E
:10E150000028F8D1BDE870400A20FFF7C9B90000D7
:10E1600010B5002102A0FFF7E1FF012010BD000063
:10E17000534947414252543A2041626E6F726D6179
:10E180006C207465726D696E6174696F6E00000059
:10E1900010B500F02DF8BDE81040FFF7ABBE000051
:10E1A00010B5012805D0002103A0FFF7BFFF012013
:10E1B00010BD09A1F8E7000053494752544D454DA1
:10E1C0003A204F7574206F662068656170206D6518
:10E1D0006D6F7279000000003A2048656170206D13
:10E1E000656D6F727920636F72727570746564000B
:10E1F00010B5014602A0FFF799FF012010BD0000F5
:10E2000053494752545245443A20526564697265F5
:10E2100063743A2063616E2774206F70656E3A20D4
:10E22000000000005FEA400C08BF91F0000F4FEAC9
:10E230008C234FEAC12243EA51514FEA1C5018BFC8
:10E2400000F5F0404FEA300018BF41F000415FEAAE
:10E250006C5C00F02980BCF1FF3F08BF40F08040BB
:10E260007047130C06BF12044FF0100C4FF0000C57
:10E27000130E04BF12020CF1080C130F04BF12019D
:10E280000CF1040C930F04BF92000CF1020CD30F9D
:10E2900004BF52000CF1010C11464FF00002A0F136
:10E2A0001F00A0EB0C00704711F0004F08BF704733
:10E2B00031F000413FF4D5AF0B0C06BF09044FF01D
:10E2C000100C4FF0000C0B0E04BF09020CF1080CEF
:10E2D0000B0F04BF09010CF1040C8B0F04BF890064
:10E2E0000CF1020CCB0F04BF49000CF1010CCCF176
:10E2F0002003A0EB0C0022FA03F302FA0CF241EA2D
:10E30000030100F10100704720F07F4C80EA030018
:10E3100023F07F47ACEB070303F57C5300F000408C
:10E3200003F1FF032DE980494FEA154B09B44FEA89
:10E33000144325EA0B4E24EA03480FF2042606EBA9
:10E34000132749083E785FEA320203FB0667C7F5E8
:10E35000000707FB06F64FEA54374FEAD64606F1A8
:10E36000020607FB066CCCF1005C4FEA1C472CEA66
:10E37000074C07FB06F40CFB06F504EB15464FEAC9
:10E38000961634BF00204FF000404FEAD13706FB0D
:10E3900007FC4FEA1C4C0CFB0BF7D21B03FB0CF7E2
:10E3A00061EB07010CFB0EF7B0EB074072EB174275
:10E3B0000CFB08F734BFA2EB0742B2EB074261EB5C
:10E3C00017414FEA0C444FEA910706FB07FC4FEA5E
:10E3D0001C4C0CFB0BF7B0EBC74072EB573203FB46
:10E3E0000CF734BFA2EBC742B2EBC74261EB573127
:10E3F0000CFB0EF7B0EBC70072EB57720CFB08F783
:10E4000034BFA2EBC702B2EBC70261EB5771039FA7
:10E410004FEA816141EA921104EBCC044FEAD13713
:10E420004FEA826206FB07FC42EA90124FEA8060E4
:10E430004FEA1C4C0CFB0BF7D21B03FB0CF761EBF8
:10E4400007010CFB0EF7B0EB074072EB17420CFB19
:10E4500008F734BFA2EB0742B2EB074261EB17416A
:10E460004FEA8C554FEA910704EB9C2406FB07FC0E
:10E470004FEA1C4C0CFB0BF7B0EBC74072EB57326A
:10E4800003FB0CF734BFA2EBC742B2EBC74261EB10
:10E4900057310CFB0EF7B0EBC70072EB57720CFB59
:10E4A00008F734BFA2EBC702B2EBC70261EB5771AA
:10E4B00015EB4C254FEA816141EA92114FEA8262E5
:10E4C0004FEAD13742EA901206FB07FC44F1000400
:10E4D0004FEA80604FEA1C4C0CFB0BF7D21B03FB8E
:10E4E0000CF761EB07010CFB0EF7B0EB074072EB8A
:10E4F00017420CFB08F734BFA2EB0742B2EB07420E
:10E5000061EB174115EB1C154FEA813141EA92414D
:10E510004FEA823242EA90424FEA80304FEA0C766C
:10E5200044F1000448EA03434EEA0B484FF0000E62
:10E53000B2EB080C71EB030724BF624639464EEB81
:10E540000E0E4FF0000B0018524149414BEB0B0BE4
:10E55000B2EB080C71EB03077BF1000B24BF6246A2
:10E5600039464EEB0E0E4FF0000B00185241494158
:10E570004BEB0B0BB2EB080C71EB03077BF1000BC1
:10E5800024BF624639464EEB0E0E51EA020718BF11
:10E5900046F0010616EB0E7655F1000254F100012B
:10E5A00003D5BDE88901BDE80088BDE88901BDE863
:10E5B0000048B619524141EB0101A3F10103704734
:10E5C00080807F7E7D7C7B7A7978777676757473B0
:10E5D000727171706F6E6E6D6C6C6B6A6A6968686F
:10E5E000676666656464636362616160605F5F5E05
:10E5F0005E5D5D5C5C5B5B5A5A595958585757567B
:10E6000056555555545453535252525151505050DF
:10E610004F4F4F4E4E4D4D4D4C4C4C4B4B4B4A4A31
:10E620004A49494948484847474747464646454575
:10E6300045444444444343434342424242414141AE
:10E64000002B26D4770021D01CB54FEA370703B43E
:10E650004FF010004FF010014FF000000FBCBDE86C
:10E6600010400BF1010BBBF1010F08BF5FEA170768
:10E6700022BF12F1010211F101014FF0004143F1FB
:10E68000000300F0004043EA00007047F9D3570848
:10E69000DAE746EA064613F1400F4FEA16461FDD59
:10E6A00013F1200FDFBF16430A46002120335B42DF
:10E6B000C8D0C3F1200746EA064602FA07F74FEA38
:10E6C000164646EA0706C3F1200722FA03F201FACA
:10E6D00007F721FA03F14FF0000342EA0702B1E71E
:10E6E00046EA020646EA06464FEA164646EA0106AA
:10E6F000BCBF46EA0646360C4FF000034FF000025E
:10E700004FF000019EE72DE9C048934630B491E8F0
:10E71000380007C831EA400C48BF34EA430C03D53F
:10E72000FFF7F2FDFFF78CFFF0BCBDE800882DE994
:10E73000C048934630B491E8380007C810F0804FC5
:10E7400008BF13F0804F03D100F005F8FFF778FF02
:10E75000F0BCBDE8008820F07F4780EA030023F08A
:10E760007F4C07EB0C03A3F57C5300F00040A3F1B2
:10E77000FE0392F0000F00F0B38095F0000F00F060
:10E7800077802DE901494FEA11404FEA144621EA0A
:10E79000004800FB06FC24EA064708FB06F607FBD8
:10E7A00008F800FB07F718EB06484CEB164C4FEA4D
:10E7B000124B18EB07484FEA15464CEB174022EA7C
:10E7C0000B4E0BFB06FC25EA06470EFB06F607FB85
:10E7D0000EFE0BFB07F71EEB064E4CEB164C4FF0F4
:10E7E00000061EEB074E4CEB174B18EB0B0840F1E5
:10E7F000000018EB0E0B58EB000840F100008F1AD8
:10E800004FF000013CBFC943661B14BFB5EB040CBD
:10E8100000213CBFC943F61B4FEA17444EEA8E0E57
:10E8200027EA04454FEA1C4704FB07622CEA074C21
:10E8300005FB07F70CFB05F604FB0CFC16EB074683
:10E8400042EB174216EB0C4642EB1C421BEB060652
:10E8500058EB0202414146EA9E0601D5BDE8018916
:10E86000B619524141EB0101A3F10103BDE8018951
:10E870004FEA14454FEA114724EA054621EA074CBE
:10E8800005FB07F406FB07F70CFB06F105FB0CFC88
:10E8900011EB074144EB17444FEA124711EB0C41CF
:10E8A00044EB1C4422EA074C05FB07F206FB07F782
:10E8B0000CFB06F605FB0CFC16EB074642EB174279
:10E8C00016EB0C4642EB1C456A1854F1000148BF98
:10E8D0007047B619524141EB0101A3F101037047A2
:10E8E00095F0000F37D04FEA11424FEA144721EA62
:10E8F000024624EA074C02FB07F106FB07F70CFB74
:10E9000006F402FB0CFC14EB074441EB17414FEA01
:10E91000154714EB0C4441EB1C4125EA074C02FB64
:10E9200007F506FB07F70CFB06F602FB0CFC16EBE3
:10E93000074645EB174516EB0C4645EB1C421219F2
:10E9400051F1000148BF7047B619524141EB010136
:10E95000A3F1010370474FEA14454FEA114724EA37
:10E96000054621EA074C05FB07F106FB07F70CFB00
:10E9700006F24FF0000605FB0CFC12EB074241EBE0
:10E98000174112EB0C4251EB1C4148BF70479218E3
:10E9900041EB0101A3F10103704710B502F0B6FF8E
:10E9A000BDE8104002F084BD00210160416081603B
:10E9B000C16070472DE9F84F00270121594C3E46B0
:10E9C0004FF480703A46BC464FEA010A00F180439A
:10E9D00003F5C0431D68012D08D1D4F804530D423E
:10E9E00004D0C3F800C01B680F430093001D49000A
:10E9F000521C80B2082AE9D34B48DFF830910168F5
:10EA0000012907D1C0F800C000680090D9F8006063
:10EA100047F00047464D17F0FF0F1CBF4FF00108AD
:10EA2000002417D018EA070F0FD0A00000F1804192
:10EA300001F5C041D1F81005D1F81015C0F304203C
:10EA400055F82420C1F301419047641C4FEA48085F
:10EA5000082CE7D317F0004F1ABF00274FF0FF38FC
:10EA6000BDE8F88F4FF000094C462A1992F8601063
:10EA70004AB221F0C000B2F1FF3F1CBF0AFA00FC0D
:10EA80001CEA080F25D005EB00024FEA911192F91C
:10EA9000402055F8223013B1032902D003E00329A6
:10EAA00017D147EA0C07820002F1A042D2F800B762
:10EAB0001CEA060FCBF3014B03D0BBF1020F03D0CE
:10EAC00007E0BBF1030F04D1032913D0002B18BFBB
:10EAD0009847641C082CC8D3B9F1000F08BFBDE8E3
:10EAE000F88F12480068B0421CBF0646B846B9D13C
:10EAF000BDE8F88FBBF1020F14BF4FF0020C4FF0CE
:10EB0000030CD2F800B72BF4403BC2F800B7D2F8A0
:10EB100000B74BEA0C4CC2F800C709F1010202F041
:10EB2000FF09D3E7006000407C6100401005005001
:10EB300030350020024A02EB80000164704700007B
:10EB4000F82E00200149024802F034BC9C35002018
:10EB500000C001400149024802F02CBCA43500204D
:10EB6000001002400149024802F024BCAC350020EC
:10EB70000020024038B50E4CD4F8040148B1002002
:10EB8000C4F80401D4F8040100900A484168491C03
:10EB90004160D4F84001002818BF04F041FBD4F8CC
:10EBA0004801002808BF38BDBDE8384002F070BCFD
:10EBB000001001401C30002070B492480125011D56
:10EBC00003780A1D08074FF0000C062B04BF0C78D1
:10EBD00014F00F0F04D1147804F0F004302C0CD092
:10EBE000062B04BF0C7814F00F0F0AD0062B04BFBD
:10EBF0000C7814F00F0F19D113E0844E824C746717
:10EC000007E0147804F0F004302C1CBF402C502C8A
:10EC1000ECD14FF08054D4F844427D4EC4F34234DA
:10EC20003460147804F0F004302C0CD0062B04BFB0
:10EC30000C7814F00F0F0CD0062B04BF0C7814F0D6
:10EC40000F0F1AD114E0734C266826F080762660E8
:10EC500007E0147804F0F004302C1CBF402C502C3A
:10EC6000EAD1C0F80CC1C0F810C16B4CC4F800C0A8
:10EC7000147804F0F004302C06D0062B04BF0C7876
:10EC800014F00F0F0AD104E0644B4FF00301196038
:10EC90000BE0147804F0F004302C06D0062B04BFEF
:10ECA000097811F00F0F65D10DE05D4B4FF00501B4
:10ECB00019605C490D605C49C1F800C003F10403B0
:10ECC0004FF03F011960117801F0F001502951D146
:10ECD00056490968564A11605649096802F104020A
:10ECE00011605549096802F104021160534909682D
:10ECF00002F1040211605249096802F10402116034
:10ED00005049096802F1040211604F4909684F4AED
:10ED100011604F49096802F1040211604D49096808
:10ED200002F1040211604C49096802F10402116009
:10ED30004A49096802F1040211604949096802F16F
:10ED40000402116047490968474A11604749096848
:10ED500002F1040211604649096802F104021160DF
:10ED60004449096802F1040211604349096802F14B
:10ED70000402116041490A6842F470020A60BFF35C
:10ED80004F8FBFF36F8F4FF01022D2F8001211F0A7
:10ED9000004F04BFD2F8041211F0004F24D0384BBA
:10EDA0001D60384801680029FCD04FF01504C2F8F6
:10EDB000004201680029FCD0C2F804420168002921
:10EDC000FCD0C3F800C001680029FCD0BFF34F8F0E
:10EDD0002D4801682D4A01F4E06141EA0201016019
:10EDE000BFF34F8F00BFFDE72A4A294911602A4926
:10EDF0000D60C0F804C18560D0F804110029FBD073
:10EE000070BC7047E00F00F00DF0ADBA00C00740D5
:10EE10003C050040FCED00E038050040A005004046
:10EE20001056004088560040185600400404001058
:10EE300020C50040080400100C040010100400104D
:10EE400014040010180400101C04001040C50040F9
:10EE50002004001024040010280400102C040010CA
:10EE6000300400103404001060C500403804001065
:10EE70003C040010400400104404001088ED00E041
:10EE800004E5014000E401400CED00E00400FA0557
:10EE90000090D003183000201805004070B5534D85
:10EEA000D5F80403524C10F0040F4FF000061CBFBD
:10EEB000D5F8080100283CD094F82400002833D06D
:10EEC000C5F80861D5F81805226BA16AC0B288544C
:10EED00094F838300021FF2B0BD0834209D1206DEC
:10EEE00040F400502065B4F84C0010F4005F18BFE7
:10EEF0000121501C2063E26A904204D3206D40F44B
:10EF00008070206500E0A1B194F8540010F0020F69
:10EF100004BF0420C5F8080384F82460606B00284F
:10EF20001CBF6663804704E0A26812B100216068DC
:10EF30009047D5F8040310F0800F1CBFD5F81C01D2
:10EF4000002828D094F8390000B3D4E91010884282
:10EF500008D2C5F81C61E16B264A095C1160401CAF
:10EF6000606418E094F8540010F0010F04BF802092
:10EF7000C5F8080384F83960206D40F0040020656E
:10EF8000A06C00281CBFA664804704E0A26812B1F0
:10EF9000012160689047D5F82401002808BF70BDA2
:10EFA000C5F82461D5F88004C5F88004616BC0B24F
:10EFB000002908BF70BD226D10F0020F42F002025E
:10EFC00022651CBF42F40062226510F0040F03D0DA
:10EFD000226D42F48062226510F0010F03D0206D93
:10EFE00040F400702065BDE87040084700200040F4
:10EFF000183600201C25004070B504460D4600BFA1
:10F0000094F90000401C20B920220CA11BA002F0A2
:10F0100093FB00BF3DB194F90000012181401D4ADE
:10F02000116000BF08E094F9000001218140194AF5
:10F03000121D116000BF00BF70BD00006D626564ED
:10F040002F5441524745545F4E524635325F444B30
:10F050002F5441524745545F4E4F524449432F5419
:10F0600041524745545F4E5246352F6770696F5F76
:10F070006F626A6563742E68000000006F626A2D1B
:10F080003E70696E20213D202850696E4E616D658D
:10F09000294E43000805005070B5014600200023AA
:10F0A0001F240A4605E012F8016B3518E8B25D1C12
:10F0B000EBB2E51AF7D170BD02210C4A116000BF16
:10F0C0000B4909680029FBD00849091D086000BFE9
:10F0D000074909680029FBD00021044A116000BFDC
:10F0E000034909680029FBD07047000004E501408E
:10F0F00000E4014000BF0D4A1278002AFBD1012232
:10F100000B4B1A6000BF0B4A1268002AFBD001604B
:10F1100000BF084A1268002AFBD00022044B1A6084
:10F1200000BF044A1268002AFBD070472D3000202F
:10F1300004E5014000E4014000200D490860012081
:10F140008107086000BF0A4800680028FBD0022041
:10F150000849086000200649091D08600120810750
:10F16000886000BF0248001D00680028FAD0704780
:10F170000001004018050040012001490870704757
:10F18000D22F00200120014908707047D32F0020A2
:10F190000021074A11600121064A116100BF04499C
:10F1A00009680029FBD00121034A11707047000053
:10F1B0001011004000100040263000200021014ABC
:10F1C000117070472530002001460148704700004B
:10F1D0008836002010B504462046FFF7D9FF0021ED
:10F1E000204600F00FF900BF0C4800680028FBD053
:10F1F00000200A49086001200949087009488278FE
:10F200000948016809A0FDF715F92046FFF7C0FF7E
:10F210000121204600F0F6F810BD00000C1100405E
:10F22000243000207C3600200815004043683D252E
:10F23000642C20486F703D25640A0D0030B50446EB
:10F24000002509480068012804D108488588012064
:10F25000074908702046FFF79BFF0121204600F078
:10F26000D1F8284630BD0000001400408836002048
:10F270002530002070B505460C460A4894E80E007B
:10F280000EC0FFF759FF07480EC8284600F078F86F
:10F290009FED050A04F02EF80121284600F0B2F88F
:10F2A00070BD00007C3600206F12033BF8B50546A8
:10F2B0000E46684601F046F81E4881681EA0FDF71C
:10F2C000B9F800271E2020490860202231461F4837
:10F2D000FDF79AFB1D48018A0183008A401C81B218
:10F2E0001A484183042200F11801684600F0E2FF49
:10F2F000014616488183FFF7CFFE1449C8770D48B1
:10F300008778807803280FD000240AE009498C70A0
:10F3100008460EC8284600F033F82846FFF75AFF83
:10F32000641C032CF2DB02E02846FFF753FF014880
:10F330008770F8BD7C36002073656E64526620438A
:10F3400068203D25640A0D0028300020A8360020E2
:10F3500010B504460748007840B10748006828B156
:10F360000020054908602046FFF768FF0348007841
:10F3700010BD0000263000200C1100402530002078
:10F380001FB504469DF808001A4908609DF805005D
:10F3900018B14920091F086022E09DF806000328E3
:10F3A0000AD146210398B0FBF1F201FB1200401C88
:10F3B0001049091F086013E017210398B0FBF1F210
:10F3C00001FB12009DF80610172212FB0100401CE1
:10F3D0000849091F08609DF8061007A0FDF72AF8E4
:10F3E0009DF807000349091D0860039988B203F0DE
:10F3F00019FA1FBD0C150040486F703D25640A0DB9
:10F400000000000001290ED10122144B1A70144A89
:10F41000144B1A600022144B1A600122134B5A60DD
:10F4200000221A600CE000220C4B1A70104A0D4B9F
:10F430001A6000220C4B1A600C4B5A6001221A60B1
:10F4400000BF094A1268002AFBD00022064B0C3389
:10F450001A600122054B9A60704700002630002098
:10F4600088360020041500400011004000100040C4
:10F47000A836002070B5044600200D4908700D49DB
:10F4800008700D4D0D4E00BF05E0002106F8011B70
:10F4900005F8011B401C2028F7D3012008490870FB
:10F4A0004FF0AA30206007A0FCF7C4FF204670BDD3
:10F4B000253000202430002088360020A836002087
:10F4C000263000204E65772052660A0D00000000AD
:10F4D00070B5044600680122002103692046984760
:10F4E000050048BF70BD2068022200210369204644
:10F4F0009847064620680022294603692046984717
:10F50000304670BD0020704710B50C464C3003F0FB
:10F5100095FC204610BD00EB0110D0F880100029AA
:10F5200008BF704709687430084770B504464C300E
:10F5300003F040FC054600F47C51A06C0026002836
:10F5400018BF002906D004F13C0203684FF0010601
:10F5500010469847A26B05F0FC01002A18BF00294D
:10F5600004D0126804F12C00904702E0002E08BF7E
:10F5700070BDBDE8704003F0A9BC70B504460068DA
:10F580000D46016820468847294604F14C0003F0E7
:10F590002FFBC4F89450206841682046BDE87040B5
:10F5A00008477047704700002DE9F04790468946AC
:10F5B0003B4A84B039491C460160D2E9023C002232
:10F5C0008360C0F80CC0374B036148F20703436106
:10F5D000C261806100F108020262334A4262BFF3F5
:10F5E0006F8FBFF34F8F002580F8285080F8295087
:10F5F000C562056345638563C563056445648564C9
:10F60000C564056545658565C565056645668566A8
:10F61000C5660567022310222449743000F0B2FE4B
:10F62000A0F17406AA46046206EB0A1000F1740405
:10F630006F460095019502950395BC420DD0E16897
:10F64000204600291CBF896888473946039810B1B5
:10F650004268204690470398E06003996846002975
:10F660001CBF896888470AF1010ABAF1020FDBD38F
:10F670004246494606F14C0003F0DEFA06F14C0022
:10F68000D6F8941003F0B4FA3246094906F14C005A
:10F6900003F08AFB04B03046BDE8F0875038020022
:10F6A000AC36020001A090E84F340200A9E9010045
:10F6B00017F501002DE9F043054689B045480027BC
:10F6C000B9462860CDF81090CDF81490CDF8189078
:10F6D000CDF81C90286804AE07F0FF0801682846A2
:10F6E000884701F0F1F9079805EB08140028D4F8D1
:10F6F00080001BD0002808BF03F0B8FB7434B4426C
:10F700000DD0E168204600291CBF8968884707980A
:10F7100018B142683146204690470798E0600122C0
:10F72000414605F14C0003F04FFB29E0002818BFCB
:10F7300003F0CCFB6E467434CDF80090CDF8049005
:10F74000CDF80890CDF80C90B4420DD0E168204679
:10F7500000291CBF896888473146039810B1426868
:10F76000204690470398E0600399684600291CBF33
:10F77000896888470022414605F14C0003F024FBCC
:10F7800001F0ECF92868416828468847079804AAE0
:10F7900010B18168104688477F1C022F92DB02233C
:10F7A00010220D4905F17400FDF748FAA86C05F127
:10F7B0003C0410B181682046884754F8040C103C82
:10F7C00010B181682046884709B0A4F12C00BDE83B
:10F7D000F0830000503802003D34020008B500F10B
:10F7E00008010090D0F818C0604603F0ABFB08BDDC
:10F7F000016889680847826900F10801104603F032
:10F8000046BC000010B50446074820600020A060F8
:10F81000E0602061606101F039FB0449A06103F000
:10F8200052FC204610BD000068380200F1F70100CC
:10F8300010B504460448206004F10801A06903F0F3
:10F8400026FC204610BD00006838020030B583B0A9
:10F8500005463A208DF80000CDF801506846FCF7C7
:10F86000D2FF040008D02868C1692846884718B12B
:10F8700020460021FCF7EEFF03B0204630BD00001B
:10F8800070B5174C05462068002804BF201D206075
:10F89000261DB04204D05B221249134801F04CFFF0
:10F8A00000212468114B1022084600BF53F821C0E4
:10F8B000AC4508BF43F82100491C521EF6D1084848
:10F8C000002C04BF011D01600068B04208BF70BD7C
:10F8D0005B22BDE870400349034801F02DBF0000E2
:10F8E00004300020A439020090390200F0340020D6
:10F8F0000021FCF7AFBF10B5044600202060C4E92A
:10F900000200C4E9040001F0C1FAA06101202077DF
:10F9100001F0DAF8A06903F09AFBC4E902010020C3
:10F92000C4E9040001F01AF9204610BD10B50446E0
:10F9300001F0CAF8206800281CBF207F002801D0F1
:10F9400003F0C4FA0020206001F008F9204610BD41
:10F9500070B504460D4601F0B7F82946204602F07E
:10F96000A7FB01F0FBF870BD70B504460D46002002
:10F97000207201F0A9F82946204602F0E5FA01F0CC
:10F98000EDF8204670BD10B5044601F09DF800BFAB
:10F99000207A012803D103F099FA0020207200BFD9
:10F9A00001F0DCF8204610BD70B52DED028B054648
:10F9B000B0EE408A2C46F0EE488A01F085F800BF90
:10F9C000207A18B903F052FA0120207200BFB0EE7D
:10F9D000680A204602F088FB01F0C0F800BF284604
:10F9E000BDEC028B70BD70477047000010B51C461F
:10F9F000029BFFF7D9FD2146983000F047F80549F2
:10FA000040F8981D7C31C0F89C105C39C0F8981003
:10FA100010BD00007C38020010B5074940F89C1B5F
:10FA20007C3140F804195C39016000F067F8BDE8EA
:10FA300010409838FFF73EBE7C3802007047002027
:10FA4000704700207047002070472DE9F0410546BF
:10FA500000680F460C468E18C16C28468847B44291
:10FA60000AD0286814F8011B426C28469047B0F170
:10FA7000FF3F18BFB442F4D12868016D284688477B
:10FA8000E01BBDE8F08100207047704710B5104AB8
:10FA900040F8042B002200F061F9041F0D4820609B
:10FAA0005C306060002060610BA1204600F01CF912
:10FAB00001000846616102D0FFF71AFF05E0FCF77C
:10FAC000CDFB016805A001F085F8204610BD0000BF
:10FAD0000438020008390200772B00005374726565
:10FAE000616D206F626A206661696C7572652C2099
:10FAF0006572726E6F3D25640D0A000010B50446F4
:10FB0000054820605C3060606069FCF7ADFE201D38
:10FB100000F044F9001F10BD0839020070B5154609
:10FB20001E46044600F0D0FF2046FFF764FEC4E9FD
:10FB30000856A06903F08BFAD4E9082382184B41D8
:10FB40002046FFF74BFEBDE8704001F007B800000B
:10FB50002DE9F0412DED028B84B004460D46B0EE48
:10FB6000408A9FED0F0A28EE000A10EE101A084690
:10FB700003F0D4FC06460F462946684603F050FCC5
:10FB8000804632463B464146204600F020F8684613
:10FB900003F054FC04B0BDEC028BBDE8F081000022
:10FBA0000024744910B50446D4E90801D4E90223BD
:10FBB00012184B412046FFF711FE616B002908BF68
:10FBC00010BD04F128000968BDE8104008472DE980
:10FBD000F047054689461746984600F075FF00BF76
:10FBE000686B08B1012000E0002020B995F83800CA
:10FBF00008B103F03BF905F12804CA4654450BD07F
:10FC0000204603F01BFC00BF00BF261E04D0514657
:10FC1000304603F005FC064600BF3A4643462846F8
:10FC2000FFF77CFF00F09AFFBDE8F08710B50446AF
:10FC30002046FFF7E7FD0446204600BF044607487C
:10FC40002060002104F1280003F0CEFBA0F128047D
:10FC5000012084F83800204610BD000074390200ED
:10FC600070B5054684B01F48286000F02DFF284677
:10FC7000FFF7C1FD686B00281EBF95F8380000280B
:10FC800003F024F905F1280400206E46009001904D
:10FC900002900390B4420ED0E168204600291CBFB8
:10FCA000896888473CB13146039810B142682046C4
:10FCB00090470398E0600399684600291CBF896853
:10FCC000884700F04BFF686B05F1280410B181688C
:10FCD0002046884704B0A4F12800BDE87040FFF733
:10FCE000A7BD000074390200FFF7B0BD007B70476C
:10FCF00070B506460D46154803F052FB14480468DB
:10FD0000F4B1A068C8B12A463146FCF732FEA0B96A
:10FD1000A068FCF70FFEA8420FD10C48016800292B
:10FD200004BF011D0160001D814204D05B2209490E
:10FD3000094801F001FD204670BD6468002CE0D147
:10FD4000024803F02DFB002070BD0000443000206D
:10FD500040300020A43902009039020070B50446FA
:10FD60000B480026A160C4E900060D46227309482D
:10FD700003F016FB002D08BF666003D0064801683B
:10FD800061600460034803F00BFB204670BD000077
:10FD900088390200443000204030002010B504466D
:10FDA00010482060104803F0FBFAA06878B10F49B2
:10FDB0000868A04204BF6068086008D04168A1429A
:10FDC00003D008464968A142FBD1616841600648FA
:10FDD00003F0E6FA207B002804BF201FFFF750FD48
:10FDE000204610BD883902004430002040300020F9
:10FDF00010B50446406818B1FFF778FF012801D01C
:10FE0000002010BD6068002818BF001F10BD10B58D
:10FE10000446406810B1FFF769FF08B1002010BD2B
:10FE20006068002818BF001F10BD4068002818BF78
:10FE30000120704710B54068002808BF10BDFFF7CB
:10FE400055FF00280CBF0120002010BD006870473E
:10FE500010B5044600202060606008782F280DD17E
:10FE6000487858B14B1C00212360226810782F2855
:10FE700006D038B1501C491C2060F6E7204610BD62
:10FE8000501C20601846FFF733FF6060204610BD0D
:10FE90002DE9F04782464FF001094FF08050076985
:10FEA0004069A0F1010807FB08F4124D002002E0B0
:10FEB00002CC02C5401C2328FAD307FB08F40D4DE1
:10FEC00000260DE028682168884206D031460AA045
:10FED0002268FCF7AFFA4FF000092D1D241D761C97
:10FEE000232EEFD3B9F1000F02D105A0FCF7A2FA3F
:10FEF000BDE8F087C836002025642C25640A0D0073
:10FF000052656164204661696C210A0D00000000A1
:10FF100030B58BB00546284600F0DAF804460020DC
:10FF200003E0002104F8011B401C8C28F9D303AC2A
:10FF3000002003E0002104F8011B401C2028F9D315
:10FF40002D20ADF810000A208DF80C009DF80F0050
:10FF500020F00200801C8DF80F009DF80D0020F0AD
:10FF60000100401C8DF80D009DF80E0020F00100EE
:10FF7000401C8DF80E0006208DF8120000218DF82F
:10FF800013108DF814100A21ADF81810202203A9BF
:10FF90002248FCF77EFD0021204880F82110012036
:10FFA0001E4981F82000FE211C4880F822101C48C0
:10FFB0001A4988634AF61830C86300204864002153
:10FFC000164881646C46002003E0002104F8011B00
:10FFD000401C0C28F9D300208DF801008DF800009A
:10FFE00003208DF8020002208DF8030004208DF814
:10FFF00004000020ADF80600BDF81000029007488C
:020000040002F8
:100000009DE80E0024300EC09FED060A03F072F941
:10001000284600F009F80BB030BD0000C8360020BB
:10002000AA55AA55CDCCCC3D2DE9F04782464FF0DC
:1000300001094FF0805007694069A0F1010807FBF2
:1000400008F52846FFF738F8164C002605E002CCE4
:1000500028462D1DFFF74EF8761C232EF7D307FBFD
:1000600008F5104C00260DE028682168884206D06B
:1000700031460DA02268FCF7DDF94FF000092D1D77
:10008000241D761C232EEFD3B9F1000F03D008A056
:10009000FCF7D0F902E00AA0FCF7CCF94846BDE82D
:1000A000F0870000C836002025642C25640A0D0066
:1000B00057466C617368204F6B210A0D00000000E9
:1000C0005772697465204661696C210A0D00000051
:1000D0000146014870470000C836002070B504464C
:1000E0002046FFF7D5FE2046FFF7F2FF8588294618
:1000F00007A0FCF79FF90948806B0949884204D0A2
:100100002046FFF705FF002070BD0120FCE700003E
:100110004769643D25640A0D00000000C8360020D0
:10012000AA55AA5570470246887B012800D100BF16
:1001300000BF70477047000070B50446044800686F
:1001400000F1240529462046FFF794F870BD000011
:100150003430002070B505460C4618A0FCF76AF94B
:10016000A18823A0FCF766F9217824A0FCF762F9A6
:10017000617825A0FCF75EF9A17826A0FCF75AF972
:10018000A17927A0FCF756F9E17928A0FCF752F9EC
:10019000217A29A0FCF74EF9617A2AA0FCF74AF9E6
:1001A000A17A2BA0FCF746F9E17A2CA0FCF742F9E2
:1001B000A1892DA0FCF73EF970BD00000A0D2D2D80
:1001C0002D2D2D2D2D2D2D2D2D2D2D204E657720D6
:1001D0004672616D6520466163746F72202D2D2D0E
:1001E0002D2D2D2D2D2D2D2D2D2D2D0A0D00000009
:1001F0004769643D25640A0D000000005069643DB4
:1002000025640A0D00000000527854783D25640AE8
:100210000D00000053656E736F723D25640A0D007A
:10022000486967683D25640A0D0000004C6F773D02
:1002300025640A0D000000004C6576656C3D256460
:100240000A0D0000547970653D25640A0D00000018
:10025000526174653D25640A0D0000005374617499
:1002600075733D25640A0D004454696D653D256430
:100270000A0D000070B505460C462846FFF7FAF84F
:100280000546094804600068FFF722FF0749086037
:100290000846006806490860084601682846FFF7D6
:1002A00059FF284670BD0000303000203430002057
:1002B000383000202DE9F04381460B4614460021DA
:1002C000002748F2050813B90020BDE8F08316E0C6
:1002D0004FEAE13C4FF6FF7000EA410118783841DF
:1002E00000F0010001437F1C072F03DD00275B1C8A
:1002F000601E84B2BCF1000F01D081EA0801002C1D
:10030000E6DC00220BE04FEAE13C4FF6FF7000EA2A
:100310004101BCF1000F01D081EA0801521C102AF2
:10032000F1DB00254FF40042012607E002EA01005C
:1003300010B145EA060085B252107600002AF5D1C8
:100340002846C2E7704770479838FFF7DDB8704716
:1003500003B401984100009850EAC12018BF04205E
:100360004A0D18BF40F0010040F2FF72B2EB515F3E
:1003700008BF40F00200012808BF052002B0704706
:10038000012070472DE9F0411C4617460E008046BB
:1003900007D0054602E02846B0473D442046641E8B
:1003A000F9D24046BDE8F0810020FDF79AB8000080
:1003B000F8B5274C112500262670324629462046DE
:1003C00000F060FE00BF4FF4165000230822062103
:1003D00000902048FFF70AFB04461F4A1F49FFF719
:1003E000CFFF1F48FFF79EFE1E48FFF71FFC044685
:1003F000194A1D49FFF7C4FF1C48FFF717FC0446C4
:10040000154A1949FFF7BCFF1948FFF774FA04466B
:10041000114A1849FFF7B4FF12211748FFF7A4FA51
:1004200004460D4A1549FFF7ABFF13211448FFF7A7
:100430009BFA0446084A1149FFF7A2FF142111480C
:10044000FFF792FA0446044A0C49FFF799FFF8BDFA
:10045000D02F00207030002000C0010019FA0100E8
:10046000D12F00202831002061FC010068310020DC
:10047000A83100202DF90100C831002087F90100C2
:10048000D4310020E031002010B500F009F810BD93
:1004900030380A2801D20120704700207047000040
:1004A00002486A4620F0070070470000A738002085
:1004B00010B501F02CFA10BD0328BCBF0020704716
:1004C00010B500220E4901EB800151F80C0C41F8E7
:1004D0000C2C68B101684969884704005CBF0020A2
:1004E00010BDFBF7BBFE614201604FF0FF3010BD55
:1004F000FBF7B4FE092101604FF0FF3010BD000092
:10050000F034002010B5032805DAFBF7A7FE05211B
:100510000160881F10BD0D4901EB800050F80C0CE4
:1005200060B10168896A8847040058BF10BDFBF7B5
:1005300095FE614201604FF0FF3010BDFBF78EFE6B
:10054000092101604FF0FF3010BD0000F0340020A1
:100550000328BCBF0120704710B50C4901EB800097
:1005600050F80C0C58B10168C9698847040058BF9D
:1005700010BDFBF773FE61420160002010BDFBF768
:100580006DFE09210160002010BD0000F034002044
:100590002DE9F0470E4684B081467449FCF7FCFA19
:1005A000734C20B373494846FCF7F6FA00282ED066
:1005B00071494846FCF7F0FA002838D06F4C2068A3
:1005C000002804BF201D2060251DA84204D05B2206
:1005D0006B496C4801F0B0F821686B4F002400BFF4
:1005E00057F8240098B3641C102CF9D332E020682B
:1005F00048B908220621654802F01EFB4FF4165147
:10060000624802F0F5FA04B00020BDE8F0872068E7
:1006100048B9082206215D4802F00EFB4FF416513E
:100620005A4802F0E5FA04B00120BDE8F0872068DE
:1006300048B908220621554802F0FEFA4FF4165137
:10064000524802F0D5FA04B00220BDE8F087FFE777
:10065000102C15D3FBF702FE1821016047480168F2
:10066000002904BF011D0160A94204D05B22444956
:10067000444801F061F804B04FF0FF30BDE8F08766
:100680004FF0FF383D4847F82480002904BF011D82
:1006900001600068A84204D05B223949394801F062
:1006A0004BF84FF0000ACDF808A099F800003A285E
:1006B00008BFD9F8010010D049466846FFF7C8FBCB
:1006C0006846FFF7B2FB1325D8B36846FFF7B2FBC5
:1006D0000028684608D0FFF79AFB029047F82400EC
:1006E00004B0E01CBDE8F087FFF782FB48B316F0CA
:1006F000020F18BF02252ED016F00C0F18BF45F4BC
:10070000007516F0040F18BF45F48065064668466C
:10071000FFF79CFB024630682B4602A9D0F808C0C0
:100720003046E047002808BF0298D7D00546FBF7BF
:1007300095FD6942016047F824A004B04046BDE839
:10074000F087FFE7FBF78AFD056047F824A004B0B7
:100750004046BDE8F08716F0040F18BF0125CBD145
:1007600016F0080F14BF09250025C5E794350200CF
:10077000143000209B350200A33502000430002015
:10078000A439020090390200F0340020F035002036
:1007900010B50022032806DAFBF760FD1D21016079
:1007A0004FF0FF3010BD0D4B03EB800050F80C0CE8
:1007B00060B103681B699847040058BF10BDFBF780
:1007C0004DFD614201604FF0FF3010BDFBF746FD6B
:1007D000092101604FF0FF3010BD0000F03400200F
:1007E00070B515460E46032818DA1948006848B94E
:1007F00008220621174802F01FFA4FF41651154837
:1008000002F0F6F90024002D06D9315D114802F0FE
:1008100015FB641CA542F8D82C460FE00E4901EBED
:10082000800050F80C0C58B10168CB6831469847ED
:10083000040003D5FBF712FD61420160281B70BD67
:10084000FBF70CFD092101604FF0FF3070BD000087
:1008500014300020F0350020F034002070B504463C
:10086000200E02F05DFB0506200C02F059FB45EA64
:100870000045200A02F054FB45EA0025204602F01C
:100880004FFB284370BD00002DE9F8430E4D0F4C7F
:1008900000276668D5F80405616800EB016800F080
:1008A00013F9D5F8040138B1C5F80471D5F804017D
:1008B00000906068401C606000F050F96068B042D1
:1008C000E7D14046BDE8F883001001401C3000200D
:1008D0002DE9F843144D154C4FF000086768D5F822
:1008E0000405616800EB016600F0EEF8D5F804013C
:1008F00038B1C5F80481D5F8040100906068401C47
:10090000606000F02BF96068B842E7D10848A6FBA8
:10091000001011F5804240F10001D20B42EA414043
:10092000C90BBDE8F8830000001001401C30002016
:1009300040420F0038B5184D2878002818BF38BD40
:1009400016491120FEF7F6F8154C0020C4F80805EA
:10095000C4F84001D4F840110091C4F84801D4F81B
:1009600048110091C4F80401D4F8040100900D4826
:10097000C4F804030220C4F844034FF4A020C4F8D0
:10098000480311200721CC3400F0C2FF012044F8B5
:10099000CC0C287038BD00001C30002075EB010025
:1009A00000100140020005002DE9F84F354D364C8E
:1009B00093468A4680460026D4F80490D5F804056C
:1009C000616800EB016700F07FF8D5F8040138B1E9
:1009D000C5F80461D5F8040100906068401C6060AF
:1009E00000F0BCF860684845E6D1284AA7FB021031
:1009F00011F5804140F10000C90B41EA4043C10BB1
:100A000018EB06007141984502D2001C41F101012A
:100A1000C90341EA50411E4BC003C01841F1000117
:100A20000023FBF775FC074600F04EF8D4F804806D
:100A3000D5F80405616800EB016900F045F8D5F8C8
:100A4000040138B1C5F80461D5F80401009060686C
:100A5000401C606000F082F860684045E6D109F112
:100A60000200391A0029D8BF074627F07F4005EB5E
:100A70008A01C1F84005C5F844B3BDE8F84F00F05D
:100A80006DB80000001001401C30002040420F00F3
:100A90003F420F0070B50D46044600F015F820885F
:100AA000401B85B2258000F059F8284670BD70B50E
:100AB0000D46044600F008F82088284485B22580B9
:100AC00000F04CF8284670BD1B48416819B14168D8
:100AD000491C4160704770B5EFF3108172B6174A38
:100AE00094680123DFF850C0002C18BF8CF8003048
:100AF00001D0A9B913E093604FF0E023D3F88051FF
:100B00000F4C25401560C3F88041D3F884415460F0
:100B10005A17C3F8842100228CF80020E9E762B656
:100B2000416821B12822074907A0FBF7C3FE4168AD
:100B3000491C416070BD00000C3000207036002060
:100B4000FC06FFBCB43A02005F656E7472795F63A5
:100B50006F756E74203D3D2030000000154810B5C3
:100B6000416809B34168491E41604168002918BFC6
:100B700010BD007810498A68002A08BF10BD0028FF
:100B800018BF10BDEFF3108072B60B684FF0E02273
:100B9000C2F800314B68C2F8043100228A60002894
:100BA00018BF10BD62B610BD2E22044904A0FBF789
:100BB00081FE00000C30002070360020B43A0200A4
:100BC0005F656E7472795F636F756E74203E20305E
:100BD000000000000FB4084810B5017800291CBFC0
:100BE00010BC5DF814FB0121017003A9029800F00C
:100BF00065FE012000F002F83E300020002818BFFA
:100C000000F0C4FDFEE78A68002A01DCFCF75ABA4E
:100C1000521E8A604A68C0B2531C4B601070704705
:100C20002DE9F0412D4C257815F0010F04BF01206E
:100C3000BDE8F0810027F0B1DFF8A4C084459CBF77
:100C4000DFF8A0C0604516D2002904BF0320BDE82C
:100C5000F0810B051B0D1CBF0620BDE8F081036869
:100C60008B4205D8D0F804C001EB0233634505D9A7
:100C70000520BDE8F0810220BDE8F081002A04BF14
:100C80000420BDE8F081184B5E6D042E04BF0720E0
:100C9000BDE8F081D3F850C0B444BCF1040F28BFC4
:100CA0004FF0000C761C0CEB8C0C5E6503EB8C0398
:100CB0005F609F60DF601F61186002201871080B81
:100CC00018819A8115F0060F04D145F002002070BA
:100CD00001F04AFD0020BDE8F0810000EC2F00206B
:100CE0005C3000206C300020F4320020084601F017
:100CF00033BA00002DE9F047314D2E7816F0010F80
:100D000004BF0120BDE8F0874FF0000908B32D4C67
:100D100084429CBF2C4CA0421BD20127002A12BF48
:100D200000290320BDE8F08742EA010C1CF0030F04
:100D30001CBF0620BDE8F087D0F800C08C4505D860
:100D4000D0F804C001EB8304644505D90520BDE853
:100D5000F0870220BDE8F087002B04BF0420BDE827
:100D6000F087DFF868C0DCF85480B8F1040F04BFE6
:100D70000720BDE8F087DCF850404444042C28BF2D
:100D8000002408F1010804EB8404CCF854800CEB37
:100D9000840C16F0060FCCF80490CCF81090CCF828
:100DA00000008CF80470CCE90221ACF8103004D1BA
:100DB00046F00200287001F0D7FC0020BDE8F08763
:100DC000EC2F00205C3000206C300020F43200203A
:100DD00070B52B4CDFF8ACC0231D62886068A4F1AD
:100DE000200505EB021100281DBF468800EB860098
:100DF0000C30486808BF08304FF6FF7605EB02124A
:100E0000526802F58052824222D90568B5F1FF3F4F
:100E10001ED08588B5421CBF0588002D13D01860F0
:100E20006268BCF80410DCF8000000EB8101508817
:100E300000F1030083B24FF003002070BDE8704062
:100E40001148FFF757BF458800EB85000C30DAE703
:100E5000888960B1052020700220ACF80400DCF81D
:100E60000010BDE8704001220748FFF7D9BE49686D
:100E700001220548FFF7D4FE0421217070BD000057
:100E8000E4320020E42F00205C300020004870474E
:100E9000F4360200F8B52B4F04464FF00103395DDC
:100EA000294D11F0210F03FA04F604BF2868B0435E
:100EB00046D011F0020F4FF0000002D011F0200FC9
:100EC00033D08DF8030003228DF802008DF8002046
:100ED00011F0200F12D08DF801201C4A69462046DF
:100EE00000F094FDA86806421CBF385D10F0C00FEA
:100EF00024D00121204600F027FD1FE0C1F3C101ED
:100F0000012908BF8DF8013005D0032914BF8DF8E1
:100F100001008DF801209DF8011040EA8100A10038
:100F200001F1A041C1F8000708E00090C1F3800082
:100F30008DF801006946204600F054FE28683043D1
:100F40002860F8BDCC330020F02F0020E91102000A
:100F500070B5044690F900000E46B0F1FF3F04D191
:100F6000B722114911A000F0E7FB164A20780121B1
:100F700012688140144D114208D0295C11F0020F13
:100F800002D011F0200F0CD000F0B2FD94F9000057
:100F9000295C66F3410129542078BDE87040FFF7D1
:100FA00079BF00F091FEF1E7F83902006F626A2D17
:100FB0003E70696E20213D202850696E4E616D653E
:100FC000294E4300F02F0020CC33002010B50446FA
:100FD0000170B1F1FF3F08BF10BD202904D3532297
:100FE000084909A000F0A8FB0F490620FDF7A2FD63
:100FF00000F0C8FD94F900100C48425C42F0010278
:10100000425410BDF83902002875696E7433325F9E
:10101000742970696E203C204750494F5F50494EFB
:101020005F434F554E540000B5E90100CC3300201A
:1010300070B504460D460026FFF7C8FFB5F1FF3F27
:1010400008BF70BD94F90000B0F1FF3F04D1202229
:1010500009490A4800F070FB2078012101FA00F0EC
:101060000749086001212046FFF772FF31462046FC
:10107000BDE8704000F042B84C3A0200DC100200BB
:101080000C0500502DE9F04104460E460027154698
:10109000FFF79CFFB6F1FF3F08BFBDE8F08194F970
:1010A0000000B0F1FF3F04D120220B490BA000F05B
:1010B00043FB01202178002D00FA01F014BF0D49F7
:1010C0000D49086001212046FFF742FF39462046BE
:1010D000BDE8F04100F012B84C3A02006F626A2D90
:1010E0003E70696E20213D202850696E4E616D650D
:1010F000294E4300080500500C05005070B5044609
:1011000090F900000E46B0F1FF3F04D1AC22114926
:1011100011A000F011FB164A2078012112688140CD
:10112000144D114208D0295C11F0020F02D011F0C9
:10113000200F0CD000F0DCFC94F90000295C66F371
:10114000C40129542078BDE87040FFF7A3BE00F029
:10115000BBFDF1E7F83902006F626A2D3E70696EDF
:1011600020213D202850696E4E616D65294E430057
:10117000F02F0020CC33002010B5044690F9000079
:10118000B0F1FF3F04D166220D490EA000F0D4FA61
:1011900094F900001149095C11F0020F08D01049C0
:1011A0000968012202FA00F0084018BF012010BDB2
:1011B0000C49096821FA00F000F0010010BD0000A0
:1011C000F83902006F626A2D3E70696E20213D2061
:1011D0002850696E4E616D65294E4300CC33002066
:1011E0000805005010050050810001F1A041D1F820
:1011F0000017C1F3014103290CBF01210221012283
:1012000002FA00F30D4AD2F808C013EA0C0F08BF27
:1012100070470B4B01290CD0022918BF70471B5C8B
:1012200013F0400F08BF7047064B526853F8200078
:1012300010471B5C13F0800FF6D17047F02F002091
:10124000CC3300204C330020F0B5D0F804C08BB074
:101250000025DCF80430DCF808C01B014FEA0C1C48
:101260006E4601244FF6FF77B3F5004F48DA33801E
:10127000A6F802C0357143680DF1180E1C68294BA1
:1012800003F1300797E8E0108EE8E010D0F804C0D2
:101290000CF1100CCDF818C0BDF802C045684CF434
:1012A000004CA5F810C019B3D3E9101C9B6CCDE914
:1012B000021C04934078002A40F080008DF808005A
:1012C0009DF804008DF80D00BDF80000ADF8100089
:1012D00004BF204600F008FE002202A9204600F0CC
:1012E0001BFD28B14FF4C3720F49104800F024FAD7
:1012F0000223002206A9204600F096FD0BB0F0BDA7
:101300006D1C5B1007EA44044FEA6C0CEDB2802CB4
:10131000AAD940F28D120449054800F00DFA0BB02D
:10132000F0BD0000D0350200103B02007C2002001E
:10133000AC20020010B4B1F1FF3F14BF02284FF0FF
:10134000FF31194BB2F1FF3F996114BF01284FF0F3
:10135000FF325A61B1F1FF3F0DD0144C4FF0010C38
:101360000CFA01FCC4F800C08C0004F1A0444FF05A
:10137000030CC4F800C7B2F1FF3F06D0940004F19B
:10138000A0444FF0000CC4F800C7002818BF01208B
:1013900018775B7F03430648C0F86C35C0F8081522
:1013A000C0F8102510BC7047183600200805005002
:1013B000002000402DE9F0410446D0F804030D461A
:1013C00010F0100F4FF001074FF000061CBFD4F8CB
:1013D0001001002805D0C4F8106129684FF0010001
:1013E0008847D4F8040310F0200F1CBFD4F8140170
:1013F000002805D0C4F8146129684FF0020088471E
:10140000D4F8040310F0800F1CBFD4F81C0100288E
:1014100005D0C4F81C6129684FF000008847D4F853
:101420000401002808BFBDE8F081C4F804612F71F1
:101430002968BDE8F041032008470000044881B056
:101440000021C0F84811D0F84801009001B0704761
:101450000010014002494FF48020C1F84803704752
:101460000010014010B5FFF70FFA074A801C05492C
:1014700020F07F40C2F840054FF48020C1F84403BB
:1014800010BD00000010014008100140FFF752BAE3
:10149000014801F08FBD0000D436020010B5FFF7FF
:1014A00017FA10BD4FF480220221FFF77DBA000029
:1014B00086B04FF4E1316248FEF75FF861A0FAF7B9
:1014C000B9FF6AA0FAF7B6FF9FED6E0A01F012FFAE
:1014D0006D48FEF703FE6C48FEF7FAFD824656465D
:1014E000B1886AA0FAF7A6FF674901A8FEF7C2FE15
:1014F00001A8FEF721FE694902A801F075FF054623
:10150000B7EE000A29466648FEF722FB02A801F062
:1015100095FF644902A801F067FF05469FED590A4F
:1015200029466148FEF714FB02A801F087FF4FF03F
:1015300000080024A1464FF47A715C48FEF708FACF
:101540004FF47A715A48FEF703FA4FF47A7159480A
:10155000FEF7FEF96846FEF7EDFD6FE001A8FDF726
:10156000F7FE68B101A8FDF729FE01A8FDF72CFEE2
:10157000054629466846FEF7D6FD4FA0FAF75AFF02
:101580005348007800282BD0002051490870514F53
:101590003D4600BF2846FFF7EFFD00BF08B9012018
:1015A00000E0002083465D4629463846FDF724FDCD
:1015B00000BF00BF08F101087078C0F3400058B1C7
:1015C000414645A0FAF736FF48A0FAF733FF314607
:1015D00001A8FDF76BFE03E041464BA0FAF72AFF96
:1015E0004E48007820B300204C490870641C4FF42A
:1015F0007A70B4FBF0F100FB114018B9214648A005
:10160000FAF718FF89F00109B9F1000F11D007208E
:10161000B4FBF0F100FB114028B9B6EE000A2548F2
:10162000FEF7C2F90AE09FED430A2048FEF7BCF935
:1016300004E0B6EE000A1E48FEF7B6F98EE7000099
:10164000703000200A0D4E6F77204E6577206E7245
:1016500066353238333220323031372E31322E3146
:10166000382031323A35300A0D0000004D792073B0
:10167000797374656D206973206E72663532383304
:10168000320A0D006F12833AD12F00204D79204786
:101690006964203D25640A0D0000000079F1010015
:1016A0002831002085F1010068310020E031002060
:1016B000D4310020C83100202D2D2D2D2D2D2D2D84
:1016C0002D52662052656365697665640A0D0000D7
:1016D000D22F0020D02F0020546869732069732016
:1016E00054783A2025640A0D0000000054782053F5
:1016F000656E64205266204672616D6520746F20AD
:101700005278200A0D000000546869732069732024
:1017100052783A2025640A0D00000000D32F0020E3
:10172000756C6D536563436F756E74203D20256441
:101730000A0D0000CDCCCC3D70B514460D460646D2
:10174000FFF7C2F923462A46314603A000F08CF881
:10175000BDE8704000F01AB86D6265642061737373
:101760006572746174696F6E206661696C65643A54
:101770002025732C2066696C653A2025732C206C1B
:10178000696E65202564200A0000000082B0FFF722
:101790009BF911216846FFF74BFC2B4D01242E1DB0
:1017A0005FF000079DF90000B0F1FF3F04D1202257
:1017B000264927A0FFF7C0FF9DF8000004FA00F0BB
:1017C0002860962001F0AEFD9DF90000B0F1FF3FCA
:1017D00004D120221D491EA0FFF7AEFF9DF8000096
:1017E00004FA00F03060962001F09CFD7F1C042F6D
:1017F000D8DB00279DF90000B0F1FF3F04D1202283
:10180000124913A0FFF798FF9DF8000004FA00F0BA
:1018100028604FF4C87001F085FD9DF90000B0F11B
:10182000FF3F04D12022094909A0FFF785FF9DF859
:10183000000004FA00F030604FF4C87001F072FD4F
:101840007F1C042FD6DBABE7080500504C3A0200A2
:101850006F626A2D3E70696E20213D202850696EAE
:101860004E616D65294E43000FB470B5A0B025AC34
:10187000249DFFF729F923462A4680216846FAF776
:10188000BFFD051E10DD0B48006820B908220621A7
:10189000094801F0D1F900246E460748315D01F096
:1018A000CDFA641CAC42F8DBFFF758F920B070BCED
:1018B0005DF814FB14300020F035002070B5A0B0A6
:1018C0000C460546FFF700F923462A468021684664
:1018D000FAF796FD051E10DD0A48006820B90822B7
:1018E0000621094801F0A8F900246E460648315D3A
:1018F00001F0A4FA641CAC42F8DBFFF72FF920B02A
:1019000070BD000014300020F03500207047704793
:101910004907090E00F01F02012303FA02F24309EE
:101920009B0003F1E0230028B8BF00F00F0000F196
:10193000E020A9BF80F8001480F8141DC3F88022AD
:10194000C3F8002170470000F8B42D4B00251C1887
:101950004FF0010C94F94020082A24DB02EB03012C
:1019600091F858104FEA9111032902D0012906D0AD
:1019700007E0244909680CFA00F2114201D1022162
:1019800000E00321800000F1A040D0F8002722F4FD
:101990004032C0F80027D0F8002742EA0141C0F8E1
:1019A0000017F8BC704724BFF8BC70474FF4807034
:1019B000960006F1804606F5C04600EB8200D6F898
:1019C000107580B247F00107C6F8107500F180402D
:1019D00000F5C040056000680090002904BFF8BC15
:1019E000704794F9400053F82000002804BFF8BC69
:1019F00070470CFA02F00449C1F80403F8BC7047C0
:101A00003035002010050050006000402DE9F00145
:101A1000DFF8D8C000250CEB0003012493F9403017
:101A200014EBE37318BF082511D1CE78002E19BF2F
:101A30000023082708231027BB4207D25CF8234065
:101A4000B4F1FF3F07D05B1CBB42F7D30425284607
:101A5000BDE8F00170470CEB00085CB288F840402C
:101A60004CF82320002E04BF0CEB030282F8580030
:101A7000B4F1FF3FEAD08B78820002F1A042002B44
:101A800003BF4B78002646EA8303D2F8003718BF1D
:101A900023F00203C2F80037CA78E2B10A78A10045
:101AA00001F1804101F5C041D1F8103523F4F8531C
:101AB00023F44033C1F810354FF4F85303EA002003
:101AC0004FF4403303EA02421043D1F8102510438B
