:020000040001F9
:10C000000000012051C201005DC201005FC20100B9
:10C0100061C2010063C2010065C2010000000000AE
:10C0200000000000000000000000000067C20100E6
:10C0300069C20100000000006BC201006DC2010076
:10C040006FC201006FC201006FC201006FC2010028
:10C050006FC201006FC201006FC201006FC2010018
:10C060006FC201006FC201006FC201006FC2010008
:10C070006FC201006FC201006FC201006FC20100F8
:10C080006FC201006FC201006FC201006FC20100E8
:10C090006FC201006FC201006FC201006FC20100D8
:10C0A0006FC201006FC201006FC201006FC20100C8
:10C0B0006FC201006FC2010000000000000000001C
:10C0C0006FC201006FC201006FC201006FC20100A8
:10C0D0006FC201006FC201006FC2010000F002F8E0
:10C0E00000F0A8F80AA090E8000C82448344AAF16A
:10C0F0000107DA4501D100F09DF8AFF2090EBAE868
:10C100000F0013F0010F18BFFB1A43F0010318478B
:10C11000A0930000C09300000A4410F8014B14F0F3
:10C120000F0508BF10F8015B240908BF10F8014B88
:10C130006D1E05D010F8013B6D1E01F8013BF9D1D1
:10C14000641E03D0641E01F8015BFBD19142E4D36D
:10C15000704700000023002400250026103A28BF65
:10C1600078C1FBD8520728BF30C148BF0B60704769
:10C170006E2900F0AC86702900F05982662908F01B
:10C18000F985652908F0F685672908F0F3856129A6
:10C1900008F0F28503681B0A28BF41F08001692975
:10C1A00000F0CA81642900F0C781752900F0C481BC
:10C1B0006F2901F0BA81782900F02582E92901F080
:10C1C0005581E42901F05281F52901F04F81EF29D1
:10C1D00001F0B781F82900F024820368DB0928BF49
:10C1E00041F08001632901F0C480732901F0C98006
:10C1F000E32901F0BD87F32901F0C28700207047D1
:10C200001FB508F07EFD9DE8030000F0BFFD01F0C2
:10C2100083FD04000020002108F088FA401C6060C3
:10C220000020002108F06CFAE06001F0B9FC00F099
:10C230006DFD1FBD05F0CEF9114603B405F0DEF922
:10C2400003BCFFF7DDFF02F01BFD05F025FE00003B
:10C25000074880470748804707480047FEE7FEE752
:10C26000FEE7FEE7FEE7FEE7FEE7FEE7FEE7FEE7A6
:10C2700061EF01001D320200DDC00100004870477F
:10C280008839002070B5064600F064FD056806F1A7
:10C290000B0020F00704B4429CBF002070BD2B4669
:10C2A0006A68BAB11068A04210D304F1080188424C
:10C2B0003CBF5068586007D351681019416011683D
:10C2C000091B016058601460101D70BD1346526850
:10C2D000002AE7D12146284600F044FD0028DED19F
:10C2E00070BD70B50446051F00F034FD0068002CD9
:10C2F00014BF446870BD002C18BFAC423CBF204640
:10C300006468F8D301680A18AA4218BF456003D1CF
:10C310002A6805461144016028684119A1421CBFE2
:10C320006C6070BD6168696021680844286070BDF8
:10C3300053EA020C00F069802DE9F04B4FF0000643
:10C34000002B1FBFB3FA83F503FA05F424FA05F6B0
:10C350005E4012BF1643B2FA82F502FA05F4C5F147
:10C3600020051EBF22FA05FC44EA0C04203556EADB
:10C37000044C4FEA144418BF641C4FF000084FF0FF
:10C380000009904271EB030C39D3002919BFB1FAAF
:10C3900081F701FA07F6B0FA80F700FA07F6C7F15D
:10C3A00020071EBF20FA07FC46EA0C062037B6FB22
:10C3B000F4FCA7EB0507103F07F01F0BCBF120069D
:10C3C0000CFA0BFB2CFA06F644BFB3460026202FCE
:10C3D000A4BF5E464FF0000B5BEA060C08BF4FF0AF
:10C3E000010B19EB0B09ABFB027C48EB0608C01BE9
:10C3F00006FB02CC0BFB03CC71EB0C01C1E70B4637
:10C40000024641464846BDE8F08B13B54FF00000A8
:10C410004FF00001AFF30080BDE81C407047000002
:10C420007CB51D4616460C00009001D02044401EED
:10C43000074B7B442A4669460190304600F06FFF67
:10C4400005461CB10020694600F07CFF28467CBDF3
:10C45000190F00000FB4044910B503AA029800F0A8
:10C4600095FF10BC5DF814FBE03900200FB41CB53B
:10C47000084B06AA7B4469460090059800F04FFFE0
:10C4800004460020694600F05DFF20461CBC5DF8B4
:10C4900014FB0000CD0E000070B5044685690068ED
:10C4A000C10601D5302600E02026C00707D070BDA8
:10C4B000D4E9012130469047206A401C20626D1E5D
:10C4C000F6D570BD70B5044685690078C00707D100
:10C4D00070BDD4E9012120209047206A401C2062D1
:10C4E0006D1EF6D570BD70B50C460546012A05D007
:10C4F0002878800600D5EA69002302E0012305E0E0
:10C500005B1C934202D2E05C0028F9D1A869E618CE
:10C51000C01AA861286A184428622846FFF7BCFFA1
:10C5200004E0D5E9012114F8010B9047B442F8D397
:10C530002846FFF7C7FF70BD2DE9F04106460024ED
:10C5400010687529314616A510D000F055FC00285A
:10C5500002DA404213A507E031688A0701D512A527
:10C5600002E0490704D511A5012401E000F04DFCCB
:10C5700000210A2206F1240709E0B0FBF2FCB0FB1F
:10C58000F2F302FB1C00303078541846491C002896
:10C59000F3D123462A463046BDE8F04100F03EBCC8
:10C5A000000000002D0000002B0000002000000013
:10C5B000F0B40D460188090502D5214C7C4402E007
:10C5C0001F4C7C440E34002100F1240608E002F0E8
:10C5D0000F071209E75D42EA03721B097754491CF1
:10C5E00052EA0307F3D102780023120704D5702D15
:10C5F00006D009B1022311342246F0BC00F00EBC73
:10C6000001231034F8E770B504460D462146106842
:10C6100000F0FBFB024629462046BDE8704000239F
:10C62000C6E7D21D22F00703D3E90023C0E7036861
:10C63000126843F0200303600823C3610023B7E7B7
:10C64000488900002DE9F05F894604464FF0000A52
:10C65000DFF874B1FB44C0F820A02046E1688847A9
:10C66000002874D0252806D0D4E901219047206AFB
:10C67000401C2062F1E700265F462046E1688847BB
:10C680002028054607DB312D05D2781910F8200C3B
:10C6900008B10643F1E7B00701D526F00406C4F857
:10C6A0001CA00027C4F818A02A2D09D0284604F0A1
:10C6B00095FF38B304EB8708303DC8F8185019E0EF
:10C6C00059F8041B204604EB87029161E168884712
:10C6D000012F054618D1E069002820DA26F020064F
:10C6E0001DE0D8F8180000EB800005EB4000303862
:10C6F000C8F818002046E1688847054604F06EFF38
:10C700000028EED1012F0AD02E2D08D12046E16855
:10C7100088477F1C0546022F46F02006C4DBA0692F
:10C72000002803DA404246F00106A061F00701D07C
:10C7300026F010066C2D0BD0682D09D04C2D39D069
:10C740006A2D35D0742D35D07A2D33D016E038E0EF
:10C75000E1682F4620468847B842054609D16C2F2C
:10C7600026D04FF48060E16806432046884705469E
:10C7700004E06C2F1AD04FF4807006430DB3A5F17E
:10C780004100192802D8203546F400664A46294659
:10C79000204626604E46FFF7EBFC80B101280BD007
:10C7A000F61D26F0070000F1080956E74020E4E7EF
:10C7B0008020D8E70020D6E706F104094DE7284697
:10C7C00052E7206ABDE8F09FD888000070B50446A3
:10C7D000C068810713D0800601D5A56A04E0A1696D
:10C7E000606808442169451A204601F095F9002245
:10C7F00006462946204601F0BBF8304670BD0020B1
:10C8000070BD70B510B1BDE87040DFE70025074C82
:10C810006E1E07E02046FFF7D9FF00B13546206DB8
:10C8200020F00104002CF5D1284670BD8C39002081
:10C8300070B50D46044604E0294605F03EFB401C59
:10C8400004D014F8010B0028F6D170BD4FF0FF3072
:10C8500070BD05F026BB05F030BB00002DE9F041AE
:10C860000C4607461646104600F078F82078611C02
:10C8700061280AD0722802D077283CD102E0012535
:10C88000002405E00225042402E0082448F2020501
:10C8900011F8010B2B2806D0622809D011F8010CE1
:10C8A00074280AD00BE045F0030544F00204EFE7DA
:10C8B00045F0040544F00104EAE744F0100438466A
:10C8C000214604F00BFF411C15D00021316171603D
:10C8D0004FF40071F560F1617061200704D53046B6
:10C8E0000222002101F044F8306D40F00100306573
:10C8F0003046BDE8F0810020FBE72DE9F0410D4610
:10C900000646104C206DC10704D0410804D020F029
:10C910000104F7E722460EE05420FFF7B3FC0700BE
:10C920000ED0206D47F001010843542120653846A0
:10C9300000F085F93A4629463046BDE8F0418DE7DA
:10C940000020D6E78C39002011B14FF4807201E04D
:10C950004FF480624FF4007301F086B82DE9F04780
:10C9600004464FF000094FF0FF37C568D4E904864C
:10C97000A80707D0204601F0CFF8304604F042FE69
:10C98000002802DA3846BDE8F087280502D540467F
:10C99000FFF7A7FC4C21204600F051F9206D20F054
:10C9A000010020654846EEE70EB5054614460E46E2
:10C9B00013A001F0EBFC284601F0E8FC16A001F002
:10C9C000E5FC304601F0E2FC15A001F0DFFC00219F
:10C9D0008DF80B100A210DF10A008DF80A1008E0FD
:10C9E00094FBF1F201FB124294FBF1F4303200F8B7
:10C9F000012D002CF4DC01F0C9FC01F06DF9000000
:10CA00002A2A2A20617373657274696F6E206661C9
:10CA1000696C65643A2000002C2066696C65200012
:10CA20002C206C696E65200010B5431C02E010F8E4
:10CA3000011B71B18107FAD14FF0013202C88C1A83
:10CA40008C4314EAC211F9D0C01A0A0603D0C01EE2
:10CA500010BDC01A10BD0A0401D0801E10BD09020D
:10CA6000FCD0401E10BD40EA010370B59B072ED1DB
:10CA70004FF00136042A2AD308C810C99D1B9D43D4
:10CA8000121F15EAC61517D0D8B2E1B2401A50EA03
:10CA9000056110D198B2A1B2401A50EA05410AD1FD
:10CAA00023F07F4024F07F41401A50EA052102D153
:10CAB000180EA0EB146070BDA342DBD018BA21BAE7
:10CAC000884201D9012070BD4FF0FF3070BD0AB916
:10CAD000002070BD10F8013B11F8014B63B1A34277
:10CAE0000AD1521E08D010F8013B11F8014B1BB1BE
:10CAF000A34201D1521EEDD1181B70BD032A40F292
:10CB0000308010F0030C00F0158011F8013BBCF1EF
:10CB1000020F624498BF11F801CB00F8013B38BF07
:10CB200011F8013BA2F1040298BF00F801CB38BF15
:10CB300000F8013B11F0030300F02580083AC0F033
:10CB4000088051F8043B083A51F804CBA0E80810DB
:10CB5000F5E7121D5CBF51F8043B40F8043BAFF30E
:10CB60000080D20724BF11F8013B11F801CB48BF68
:10CB700011F8012B24BF00F8013B00F801CB48BF9E
:10CB800000F8012B704710B5203AC0F00B80B1E8D7
:10CB90001850203AA0E81850B1E81850A0E81850F2
:10CBA000BFF4F5AF5FEA027C24BFB1E81850A0E8FB
:10CBB000185044BF18C918C0BDE810405FEA827C15
:10CBC00024BF51F8043B40F8043B08BF7047D2072C
:10CBD00028BF31F8023B48BF11F8012B28BF20F8CD
:10CBE000023B48BF00F8012B704702F0FF0343EA05
:10CBF000032242EA024200F002B84FF00002042988
:10CC0000C0F0128010F0030C00F01B80CCF1040C7B
:10CC1000BCF1020F18BF00F8012BA8BF20F8022BAF
:10CC2000A1EB0C0100F00DB85FEAC17C24BF00F855
:10CC3000012B00F8012B48BF00F8012B70474FF083
:10CC4000000200B5134694469646203922BFA0E85C
:10CC50000C50A0E80C50B1F12001BFF4F7AF090768
:10CC600028BFA0E80C5048BF0CC05DF804EB890059
:10CC700028BF40F8042B08BF704748BF20F8022B9C
:10CC800011F0804F18BF00F8012B70474FF0013CA6
:10CC900050F8042B51F8043B9A4221D1A2EB0C032B
:10CCA000934313EACC1317D150F8042B51F8043BEB
:10CCB0009A4215D1A2EB0C03934313EACC130BD188
:10CCC00050F8042B51F8043B9A4209D1A2EB0C0313
:10CCD000934313EACC13DBD04FF00000704700BF42
:10CCE000D01A01BAB1FA81F101F0180122FA01F06B
:10CCF000CB40C1F12001DBB2C0B2C01A2CFA01F363
:10CD0000D11A914311EAC311E6D1704770B5064CB0
:10CD10007C44064D7D4403E0206820448047241D68
:10CD2000AC42F9D170BD0000E8880000F488000032
:10CD30002DE9F04117460E46054633B107FB035473
:10CD4000E41B2046B047A542FAD1A5F10800BDE892
:10CD5000F081000000487047883A00207047704713
:10CD60007047704738B504460A460020694601F00E
:10CD700024FB002808BF38BD02460099204600F079
:10CD8000CFFF012038BD012001F0E1BAF8B501F074
:10CD900009FB054600200C46102000BF0646A819D6
:10CDA000A0420DD932466946002001F006FB07007B
:10CDB00008BF01F0CCFA0098A04218BF0546C4197C
:10CDC000FFF7C8FF05600746F01D20F00700461971
:10CDD000284600F00AF8B44208BFF8BDA21B31464D
:10CDE0003868BDE8F84000F09BBF00210160C0E951
:10CDF000011070471020704709684A0501D540B2FC
:10CE00007047C905FCD500B2704709684A0501D5CD
:10CE1000C0B27047C905FCD580B270472DE9F04714
:10CE20000D4699469246044600F12408016888069A
:10CE300004D5E06921F01001216000E00120A84242
:10CE400001DD471B00E00027A1697A1902EB090008
:10CE5000081AA0612078C00602D42046FFF71CFB08
:10CE6000002608E0D4E901211AF806009047206A5C
:10CE7000401C761C20624E45F4DB2078C0060AD5A3
:10CE80002046FFF709FB06E0D4E901213020904756
:10CE9000206A401C2062381EA7F10107F4DC07E07D
:10CEA000D4E9012118F805009047206A401C20624F
:10CEB000281EA5F10105F3DC2046FFF703FB2078CF
:10CEC000000602D50220BDE8F0870120FBE71168CB
:10CED0000268006A530501D508700AE0D30501D540
:10CEE000088006E0130603D5C217C1E9000200E07E
:10CEF00008600120704770472DE9FF4F0C461E4621
:10CF00004FF0FF378BB0D2E90001DDF860800A9066
:10CF10008A46C1F30A5505B93D46002108464FF03F
:10CF20000000BAF1000F00F4400005DA00EB8000C9
:10CF30004FF4400101EA50004FEA9059B9F1010F56
:10CF400000DDB9460A9850EA4A000ED044F6105067
:10CF5000A5F2FF3545432F14B8F1000F1ED07542DE
:10CF6000291E1EDDC9F100021CE0B8F1010F4FF0CF
:10CF7000000001D0302103E0F24305E02154401CC1
:10CF8000B042FBDB30460022002121540B99C1F84E
:10CF90000880C1E900200FB0BDE8F08FBD1B6D1CFB
:10CFA000DEE74A4600DA694206A801F0EDF806AB72
:10CFB00093E8070003AB83E8070050460A9901F0A5
:10CFC00097FA8DE80700A0F500501F3800900398ED
:10CFD000002D0ADD42F21F014A460844002303A93E
:10CFE0000390684601F000FD09E0A0F500504A46B4
:10CFF0001F38002303A90390684601F00AFD8DE85D
:10D0000007000004000C03D04FF0FF30410800E09F
:10D010001046B8F1000F03D00022009215461EE022
:10D02000751E05D400F096FE303262556D1EF9D59E
:10D03000B3460122084302D000227F1C04E020787E
:10D04000302801D100227F1E002A099784D01DE0DC
:10D05000112D07DA00F07EFE303262556D1C50EA69
:10D060000102F5D1084302D00098C8B10EE00021BA
:10D07000681E05E0235C625C63542254401E491C18
:10D080008142F7DBAB46A81B401E0990002004F844
:10D090000B000B98099AC0F80880C0E9002B7AE7CA
:10D0A00011264FF0000857E72DE9F04F8846044657
:10D0B000D21D22F0070191B0D1E90001CDE90A01AA
:10D0C00004F08EF902460B98C00F01D02D2007E026
:10D0D0002068810701D52B2002E0202101EAC00051
:10D0E000032A099001D0072A05DB03464146204662
:10D0F00000F0F4FF0BE12078800601D5E06900E044
:10D100000620B8F1650F814606D0B8F1660F18D039
:10D11000B8F1670F70D131E00020B9F1110F009024
:10D1200001DB112301E009F101030AAA01A90CA8FE
:10D13000FFF7E2FEDDE90C70002609F101058346E8
:10D1400047E001204B4600904FF000470AAA01A992
:10D150000CA8FFF7D1FEDDE90DB00C995D46002665
:10D1600010B909F101000D18B9EB050003D4C0F1A5
:10D17000FF3609F10105A5EB09002BE0B9F1010F1C
:10D1800001DA4FF001090020B9F1110F0090484673
:10D1900001DD112300E003460AAA01A90CA8FFF74C
:10D1A000ABFEDDE90C704D46002683462078000773
:10D1B0000AD4AB4500DA5D4601A8012D04DD411912
:10D1C00011F8011C302907D04F4502DA17F1040F7E
:10D1D00004DA012082460FE06D1EEEE7002F02DC2C
:10D1E000ED1B3E4403E0781CA84200DD7D1CB81B0B
:10D1F00000F1010A4FF000472078000703D4AA4548
:10D2000001DB4FF0FF3A0021B7F1004F0DF1430869
:10D210008DF8431024D002202B23002F01DA7F4207
:10D220002D230A21021EA0F1010000DC5FB197FB53
:10D23000F1FC97FBF1F201FB1C7C17460CF1300C62
:10D2400008F801CDEEE7A8F1010003702188090577
:10D2500001D5452100E06521A0F1010800F8011C7D
:10D2600009980FA9A1EB0807FF1D00B10120411982
:10D2700001EBEA70A1693844081A401EA0612078C9
:10D28000C00602D42046FFF707F9099828B1D4E96F
:10D2900001219047206A401C20622078C00622D5D8
:10D2A0002046FFF7F9F81EE0002E04DBB34502DD4F
:10D2B00001A8805D00E03020D4E901219047206A78
:10D2C000401C2062761CAAF101005FEA000A0AD124
:10D2D00000F022FDC0680168405CD4E9012190475C
:10D2E000206A401C2062281EA5F10105DCDC07E055
:10D2F000D4E9012118F8010B9047206A401C2062F4
:10D30000381EA7F10107F3DC2046FFF7DBF8032006
:10D3100011B041E601694A1C02610878704700B506
:10D320008FB0CDE901310021059105497944CDE95E
:10D33000031011466846FFF785F90FB000BD0000E5
:10D34000E5FFFFFF0A6802F8010B0A607047D1E9A8
:10D3500000239A4202D2531C0B601070704710B524
:10D36000436913B1AFF3008001E0FFF7BCF801207F
:10D3700010BD127800F124010A7000224A700122C7
:10D38000EDE711684FF0FF32E9E70000074B70B599
:10D390000D467B44FFF7C3FF0446284600F0DCF847
:10D3A00010B14FF0FF3070BD204670BD254B00001E
:10D3B0002DE9FF5F15468A460446DFF8AC80F84445
:10D3C0000027D8E900103E46CDE9001010E03AF8F9
:10D3D00016106A4602A800F087FF411C07D021788A
:10D3E000890603D5E269391891420DD80744761CA5
:10D3F0002078800602D5E069B84205DDAE42E6DB62
:10D400003AF816000028E2D1A069C01BA0612046AE
:10D41000FFF742F8D8E90010CDE90010002017E02E
:10D420003AF818106A4602A800F05EFFB0F1FF3F1C
:10D4300081460BD000250DF1080B05E0D4E9012150
:10D440001BF8050090476D1C4D45F7D308F101000E
:10D45000B0428046E4DB206A384420622046FFF771
:10D4600031F8BDE8FF9F0000827B00002DE9F0410C
:10D470008046D21D22F007020025D2E90002F529DC
:10D4800015A614D0011E72F1000106DA0023D0EBBC
:10D49000030063EB020211A608E0D8F800108B0726
:10D4A00001D50FA602E0490701D50EA601251146B8
:10D4B000002408F1240704E000F04CFC30323A5517
:10D4C000641C50EA0102F7D12B4632462146404601
:10D4D000BDE8F041FFF7A2BC000000002D000000F5
:10D4E0002B0000002000000030B4002100F12404D3
:10D4F00008E002F00705D208303542EA4372DB0843
:10D500006554491C52EA0305F3D10468002310A2B4
:10D51000250707D5A40600D421B1C46901230DA2B3
:10D52000641EC46130BCFFF779BC10B504462146C7
:10D530001068FFF76AFC02462046BDE81040002351
:10D54000D2E7D21D22F00701D1E90023CCE7000089
:10D550000000000030000000007B00F080007047F9
:10D5600070B50D4601461446D36850692A4604F04A
:10D57000B5F9002807DA411C07D0E16820F0004027
:10D5800041F48041E160281A70BD204600F090FA15
:10D590004FF0FF3070BDC1680022026021F480515D
:10D5A00041F0400111F4C06FC16001D0826070474A
:10D5B00002694168891AC269891A816070472DE938
:10D5C000F0470446C06840F48000E060010312D5D3
:10D5D00020F40020E060810606D4E26A61688A4295
:10D5E00000D80A46511A216040F40010E06094F817
:10D5F0002500BDE8F08720F40010E060800602D529
:10D60000204600F0ACFAE06842F281014FF0FF39A9
:10D610000140012903D0204600F04AFAB6E0216813
:10D62000002600290ADAC94340F480502160C4E989
:10D6300002606068411C61600078DAE744F24001F2
:10D6400008420CD020F4A04040F040002660E0608A
:10D6500021696068401AE169401AA06096E021697A
:10D6600091B9C00310D4E069FEF70CFE2061B0B19F
:10D67000E06840F4006010F4407FE06002D140F4C4
:10D680008070E06020696060E068D4F814A0C10692
:10D690001AD5C0030ED5204600F03EFA14E004F17E
:10D6A000240020610120E061E06820F4407040F433
:10D6B0008060E6E721696068401AA169014450462C
:10D6C00004F044F90028A6DBE068C0032AD56168AD
:10D6D000E06A884200D808462169451AE069471B7C
:10D6E0001BD02046D4F8188000F016FA08EB05018C
:10D6F0005046C4F8188004F029F900288BDBE06854
:10D7000040F40030E060000202D5A0692844A06126
:10D71000E1692069C91B45180DE0204600F0FCF9BD
:10D72000E769F5E725696168D4E90607491BE56201
:10D7300008446560A061E06820F0100010F4C06F3C
:10D74000E06002D0204600F0B3FDE06840F4805075
:10D75000C4E90260000205D52069E06260606FF0F4
:10D76000010046E7224639462846FFF7F9FE411CEC
:10D770000CD02918E16258B1401E2060681C60601E
:10D78000E06840F40030E060287832E7484630E74F
:10D7900065602046FFF7FFFEF8E72DE9F0470546F4
:10D7A0000C46C86820F4201040F48000C860800651
:10D7B00002D5084600F0D3F9E06841F282014FF04B
:10D7C000FF390140022903D0204600F071F9B5E08D
:10D7D00000F42041B1F5004F0FD1C00306D56168B8
:10D7E000E06A884200D80846606006E02069E0628E
:10D7F0006060606903F02CFFA061A0680022EEB2B7
:10D8000000280DDAE1688B050AD4C043A06041F41A
:10D8100090302260E0606068411C61600670A5E0A5
:10D82000E0689046226040F40050E060206968BBE8
:10D83000606903F033FF012704F12405A0B1A0893A
:10D8400010F4407F08D0E069FEF71CFD206118B19C
:10D85000E06840F4006016E0E7612561E06820F4CC
:10D86000407040F480600EE0E069FEF70BFD002898
:10D870002061F1D0E06840F4006010F4407FE06087
:10D8800002D140F48070E06020696060E068256942
:10D890006FF0010AC1051FD56168E06A884200D8AF
:10D8A0000846411B04D02246284600F00BF9F0BB85
:10D8B000E068010203D5E562C4E9015854E0691C3F
:10D8C000E1626160E16940F48030491EC4E9021000
:10D8D00030462E70BDE8F087010202D500F4803298
:10D8E0000AE06068411C61600670E0680A2E40F43E
:10D8F0008030E06006D00022E16A6068814203D98E
:10D900000B4602E00122F7E70346A7895B1B7F0570
:10D9100003D4E7699F4200DDE2B1814200D80146AD
:10D92000E5620F1AC4E90158002B09DD00E005E0AB
:10D9300022461946284600F0C5F808B14846C9E70E
:10D9400047B1A069E5626560C01BA061E06840F076
:10D950001000E060E068000208D56168A069E56237
:10D96000491B08446560A0615046B3E73046B1E703
:10D970002DE9F041044616460D464769007B8007B5
:10D980002ED0384603F08AFE50BB3EB3012E02D0A3
:10D99000022E25D104E0204600F068FC05441DE07D
:10D9A000384603F055FEE168002841F01001E160BF
:10D9B00005DA204600F07CF80120BDE8F081C903BB
:10D9C0000BD56268E16A914200D81146A269114400
:10D9D0002269891A814200DD08460544002D01DADA
:10D9E0000220EAE7E16A6068E268814206D29103B8
:10D9F000E06203D522F4003141F01002A66900274D
:10DA0000AE4213DCE16A814201D90B4600E00346D5
:10DA100003EB060C2369ACEB030CAC4506DD81423D
:10DA200001D98C4600E084469C4505D1A76027605B
:10DA300042F02000A5620DE0AD1BE669AE1B8142FD
:10DA4000A66000D90846C01A281A206058196060DC
:10DA500022F0200003490840E060002084F848706C
:10DA6000ABE70000BFCFD7FF70B5C468A50713D0E0
:10DA7000650211D4B2F5807F09D0B2F5007F06D0DF
:10DA8000B2F5806F08D1012300F1240106E05D1E8C
:10DA90006FF07F46B54201D3012070BD0161C361C3
:10DAA000416024F470611143C160002070BD00002A
:10DAB000C16821F4001141F08001C1600021816042
:10DAC000016070472DE9F047814614460E464FF03D
:10DAD000FF383248D5685769054209D03846A169F0
:10DAE00003F034FF002811DB2C48C0430540E560FB
:10DAF0002B4632464946384603F050FFA16920F0D4
:10DB00000042B21A11440028A16103D02046FFF759
:10DB1000CFFF4046BDE8F08770B504460569C06A8E
:10DB20006168884200D80846E16821F42011E1606C
:10DB3000C90312D5A84208D02246411B2846FFF748
:10DB4000C1FF10B14FF0FF3070BD0020E562C4E9A5
:10DB50000150E06820F48030E060002070BD10B516
:10DB60000446C06820F02000E060A16AA0698842F5
:10DB70000DD02046FFF7D0FFE06820F4405040F081
:10DB80001000E060A06AA0612069E062606044F279
:10DB90004001E0688843E06010BD00001000020012
:10DBA00010B542485421FFF74AF841485421FFF785
:10DBB00046F840485421FFF742F83F493B483C4A69
:10DBC0003F4B08603D490A603A491960531C0365A0
:10DBD000481C1065012008653B48344A39A1784447
:10DBE000FEF73CFE20B9384878440A3800F0A8FB1C
:10DBF00037482F4A35A17844FEF730FE20B9344823
:10DC000078440A3800F09CFB32482A4A2FA1784415
:10DC1000FEF724FE20B92F4878440A3800F090FB24
:10DC200040232248DC0000212246FFF71DFF20B1DF
:10DC300025487844543800F083FB1D482246402391
:10DC40000021FFF711FF20B121487844543800F03B
:10DC500077FB1848224610230021FFF705FF002814
:10DC600006D01C487844BDE81040563800F068BB28
:10DC700010BD104870B5006D20F001040B48FEF790
:10DC80006DFE0B48FEF76AFE0A48FEF767FE09E0E4
:10DC9000206D20F001052046FEF760FE2046FEF7CD
:10DCA00020FB2C46002CF3D170BD00008C390020E5
:10DCB000E0390020343A0020603100206431002037
:10DCC0006831002072000000BA7100007700000087
:10DCD000A97100009971000010B5002000F029FB27
:10DCE000AFF30080BDE81040012000F00FB810B580
:10DCF00000F034FBBDE8104000F016BB08B56946E3
:10DD00008DF800000320ABBE08BD000001491820BB
:10DD1000ABBEFEE726000200004870478C3A0020A8
:10DD2000034640688C46002818BF88423CBF034623
:10DD30004068F8D318681844884207D00CF10300F3
:10DD400020F00700001D411A521A0146081D0A6002
:10DD5000FEF7C7BA30B5B0F10A024FEA900E71F182
:10DD600000034EEA817EB0EB0E0061EB91014FEAB9
:10DD7000101E4EEA017E10EB0E0041EB11114FEA2E
:10DD8000102E4EEA016E10EB0E0041EB11214FEA0E
:10DD9000104E4EEA014E10EB0E0041EB11414018BF
:10DDA00041F100014FEAD00040EA41704FEAD10151
:10DDB00010EB80054FEA810444EA907444EB0104BF
:10DDC0006D1944EB0404521BA3414FF0000348BFFC
:10DDD0000A3200D530BD401C41F1000130BD0000C9
:10DDE0002DE9F04F04460D46D21D22F0070089B000
:10DDF000D0E900974846394603F0F2FA0246F80F98
:10DE000001D02D2307E02068810701D52B2302E0F4
:10DE1000202101EAC0038DF820300BB1012000E081
:10DE20000020032A824601D0072A04DB2946204627
:10DE300000F054F93FE12078800601D40D2500E080
:10DE4000E569C7F30A560D2D49DA00214FEA175B41
:10DE500008464FF00000002F00F4400007DA00EB06
:10DE600080004FF4400100EBD07001EA60008115A2
:10DE7000012901DD4FF0FF3100224FEA850CBCF192
:10DE8000180F06D31346ACF118004FF08052C24071
:10DE900003E04FF4801323FA0CF30CF10C0CBCF1EB
:10DEA000200F04D3ACF1200C09FA0CF001E007FAC2
:10DEB0000CF000294FF0004801DD18B90FE00ED139
:10DEC00040450CD319EB02095F4121B9404502D10D
:10DED0009F4329EA0209BBEB175F00D0761C20881C
:10DEE000000502D57B48784402E07A487844193826
:10DEF00008AA302302F80A30037C0AF10101002E3F
:10DF00000AF1020A53546A4602DC4FF0300101E084
:10DF10004FF031014FF001088DF8001002D0A6F249
:10DF2000FF3603E059EA470100D06B4E002D02DCBA
:10DF30002178090704D54FF002082E218DF8011031
:10DF4000C44600210BE0C7F303433F01C35C491CF7
:10DF50006D1E02F80830052908F1010801DA002DCC
:10DF6000F1DC00210CE000EB1973491C1B786D1EDD
:10DF7000082902F808304FEA091908F1010801DA06
:10DF8000002DF0DC21688B0602D516E0A8F101080F
:10DF9000E04505DD02EB080313F8013C302BF5D01A
:10DFA000B8F1000F09DD02EB080313F8013C2E2B3A
:10DFB00003D1090701D4A8F10108002D05DD3E2198
:10DFC00002F808106D1E08F10108407C002E02F8CE
:10DFD000080008F1010804DA2D20764202F8080052
:10DFE00002E02B2002F808000A214FF47A708642E2
:10DFF00008F101080BDB96FBF0F3303302F8083030
:10E0000096FBF0F308F1010800FB136601E0642EB3
:10E010000CDB642096FBF0F3303302F8083096FBFB
:10E02000F0F308F1010800FB136601E00A2E06DB9D
:10E0300096FBF1F0303002F8080008F1010896FB79
:10E04000F1F001FB1060303002F80800A16908F11E
:10E05000010808EB050202EB0A00081AA06120780B
:10E06000C00602D42046FEF717FA216A08AE01EB7B
:10E070000A00206204E0D4E9012116F8010B904760
:10E08000BAF1010AF7D22078C00602D52046FEF781
:10E0900003FA6E4609E016F8010B3E280FD0D4E9CA
:10E0A00001219047206A401C2062B8F10108F2D299
:10E0B0002046FEF707FA09B00320BDE8F08F206A7A
:10E0C0002844206203E0D4E90121302090476D1EEE
:10E0D000EBD3F8E77570000002FCFFFF2DE9F0417B
:10E0E0001F46044603260168072A01F4006004DB8A
:10E0F00008B116A505E016A503E008B115A500E0D6
:10E1000015A521F010002060A069C01EA0610FB10C
:10E11000401EA0612046FEF7BFF94FB1D4E90121AE
:10E1200038469047206A401C2062C01C206206E0EE
:10E13000206AFAE7D4E9012115F8010B9047761E11
:10E14000F8D22046FEF7BEF9BDE8F0814E414E0000
:10E150006E616E00494E4600696E660010B54369F7
:10E1600013B1AFF3008001E0FFF722F9012010BDE9
:10E17000128800F1240182840022C2840122EDE78A
:10E1800011684FF0FF32E9E72DE9F0478146164666
:10E190008AB0354878440DC88DE80D00324878447F
:10E1A000801C03AC0DC884E80D0041F69B30084488
:10E1B000372190FBF1F290FBF1F5A5F1800501FB11
:10E1C00012041B3C02D56442012000E00020DFF86D
:10E1D00098A080460027FA44AAF1BE0A0EE0E007A4
:10E1E0000AD03246684607EB470101230AEB81015A
:10E1F00000F00FFC8DE8070064107F1C002CEED1AE
:10E20000194F7F44AE3F19E0E80715D007EB041023
:10E210000DF1180A90E80E008AE80E00C068F0427E
:10E2200001D1981908903246012306A903A800F0ED
:10E23000F0FB03AB83E807006D10641C002DE3D1F5
:10E240004FF0010332466946B8F1000F03A802D02F
:10E2500000F0CAFB01E000F0DCFBC9E90001C9F8ED
:10E2600008200AB0BDE8F087586E000010B50146DE
:10E27000C268900703D0900607D5886A0AE0FDF7C8
:10E28000FDFF01210160881E10BD8B69486818449C
:10E290000B69C01A91F848301BB191F84910401A27
:10E2A00010BD1103FCD50028FADD401E10BD000092
:10E2B00070B5054640F202260A4C0FE094F8500073
:10E2C000C00708D0AC4206D0E06836EA000002D1B0
:10E2D0002046FEF77BFA206D20F00104002CEDD1E2
:10E2E00070BD00008C39002070B516460C460546FE
:10E2F00000F082F8036893F80101012806D0FF2C92
:10E300000FD8185D68B101202C7070BDD3F80701DB
:10E310003246214603F2071303442846BDE8704005
:10E3200018474FF0FF3070BD002801D0FFF7EEBC5A
:10E33000704710B500F082F8BDE81040FFF7F4BF59
:10E3400010B500F093F8BDE81040FFF7EDBF10B531
:10E3500000F0A6F8BDE81040FFF7E6BF10B50021B9
:10E3600002A000F051F8012010BD000053494750B1
:10E3700056464E3A20507572652076697274756102
:10E380006C20666E2063616C6C65640010B5044996
:10E39000FEF74EFABDE810400148FEF732BA000021
:10E3A000343A0020124B694600F580528A421A60C6
:10E3B00001D8114670471960704730B50C4D6B4657
:10E3C000A3F580532C6822449A420FD89B1A02F579
:10E3D000805003EBD37302EB6303984200D91846D5
:10E3E000C01D20F007020C60101B2A6030BD000029
:10E3F0006C3100207047000010B5FFF78DFC001D48
:10E4000010BD00BF2963000070B505460C460A2008
:10E4100000E06D1CFFF772FC35B128780028F8D1B8
:10E4200002E0641CFFF76AFC14B120780028F8D1E0
:10E43000BDE870400A20FFF761BC000010B5002164
:10E4400002A0FFF7E1FF012010BD00005349474142
:10E450004252543A2041626E6F726D616C20746555
:10E46000726D696E6174696F6E00000010B50146CF
:10E4700002A0FFF7C9FF012010BD00005349475219
:10E48000545245443A2052656469726563743A2077
:10E4900063616E2774206F70656E3A200000000083
:10E4A00010B5012805D0002103A0FFF7ADFF012022
:10E4B00010BD09A1F8E7000053494752544D454D9E
:10E4C0003A204F7574206F662068656170206D6515
:10E4D0006D6F7279000000003A2048656170206D10
:10E4E000656D6F727920636F727275707465640008
:10E4F0005FEA400C08BF91F0000F4FEA8C234FEA0F
:10E50000C12243EA51514FEA1C5018BF00F5F040B8
:10E510004FEA300018BF41F000415FEA6C5C00F048
:10E520002980BCF1FF3F08BF40F080407047130CCA
:10E5300006BF12044FF0100C4FF0000C130E04BF76
:10E5400012020CF1080C130F04BF12010CF1040CA1
:10E55000930F04BF92000CF1020CD30F04BF5200C2
:10E560000CF1010C11464FF00002A0F11F00A0EBCE
:10E570000C00704711F0004F08BF704731F00041A8
:10E580003FF4D5AF0B0C06BF09044FF0100C4FF051
:10E59000000C0B0E04BF09020CF1080C0B0F04BF9A
:10E5A00009010CF1040C8B0F04BF89000CF1020C63
:10E5B000CB0F04BF49000CF1010CCCF12003A0EB00
:10E5C0000C0022FA03F302FA0CF241EA030100F113
:10E5D0000100704720F07F4C80EA030023F07F4762
:10E5E000ACEB070303F57C5300F0004003F1FF039D
:10E5F0002DE980494FEA154B09B44FEA144325EA47
:10E600000B4E24EA03480FF2042606EB13274908B1
:10E610003E785FEA320203FB0667C7F5000707FB97
:10E6200006F64FEA54374FEAD64606F1020607FBD4
:10E63000066CCCF1005C4FEA1C472CEA074C07FB48
:10E6400006F40CFB06F504EB15464FEA961634BFAC
:10E6500000204FF000404FEAD13706FB07FC4FEA9D
:10E660001C4C0CFB0BF7D21B03FB0CF761EB0701F7
:10E670000CFB0EF7B0EB074072EB17420CFB08F7F0
:10E6800034BFA2EB0742B2EB074261EB17414FEAFE
:10E690000C444FEA910706FB07FC4FEA1C4C0CFBAD
:10E6A0000BF7B0EBC74072EB573203FB0CF734BFEC
:10E6B000A2EBC742B2EBC74261EB57310CFB0EF73E
:10E6C000B0EBC70072EB57720CFB08F734BFA2EB3C
:10E6D000C702B2EBC70261EB5771039F4FEA81613A
:10E6E00041EA921104EBCC044FEAD1374FEA82623F
:10E6F00006FB07FC42EA90124FEA80604FEA1C4C8E
:10E700000CFB0BF7D21B03FB0CF761EB07010CFBB7
:10E710000EF7B0EB074072EB17420CFB08F734BF63
:10E72000A2EB0742B2EB074261EB17414FEA8C556F
:10E730004FEA910704EB9C2406FB07FC4FEA1C4CB4
:10E740000CFB0BF7B0EBC74072EB573203FB0CF737
:10E7500034BFA2EBC742B2EBC74261EB57310CFBAF
:10E760000EF7B0EBC70072EB57720CFB08F734BF23
:10E77000A2EBC702B2EBC70261EB577115EB4C2558
:10E780004FEA816141EA92114FEA82624FEAD13742
:10E7900042EA901206FB07FC44F100044FEA806055
:10E7A0004FEA1C4C0CFB0BF7D21B03FB0CF761EB85
:10E7B00007010CFB0EF7B0EB074072EB17420CFBA6
:10E7C00008F734BFA2EB0742B2EB074261EB1741F7
:10E7D00015EB1C154FEA813141EA92414FEA823232
:10E7E00042EA90424FEA80304FEA0C7644F100044E
:10E7F00048EA03434EEA0B484FF0000EB2EB080C18
:10E8000071EB030724BF624639464EEB0E0E4FF004
:10E81000000B0018524149414BEB0B0BB2EB080CBB
:10E8200071EB03077BF1000B24BF624639464EEBC8
:10E830000E0E4FF0000B0018524149414BEB0B0BF1
:10E84000B2EB080C71EB03077BF1000B24BF6246AF
:10E8500039464EEB0E0E51EA020718BF46F001068C
:10E8600016EB0E7655F1000254F1000103D5BDE818
:10E870008901BDE80088BDE88901BDE80048B619F6
:10E88000524141EB0101A3F10103704780807F7E7B
:10E890007D7C7B7A79787776767574737271717016
:10E8A0006F6E6E6D6C6C6B6A6A69686867666665C8
:10E8B0006464636362616160605F5F5E5E5D5D5C56
:10E8C0005C5B5B5A5A5959585857575656555555C7
:10E8D0005454535352525251515050504F4F4F4E27
:10E8E0004E4D4D4D4C4C4C4B4B4B4A4A4A49494975
:10E8F00048484847474747464646454545444444B7
:10E90000444343434342424242414141002B9C46DF
:10E9100030D477002BD01CB54FEA370703B44FF043
:10E9200010004FF01001BAF1000F06D0BCF1000F3B
:10E93000DCBF40F0080040F008014FF000000FBCC1
:10E94000BDE810400BF1010BBBF1010F08BF5FEAFE
:10E95000170722BF12F1010211F101014FF000412E
:10E9600043F1000300F0004043EA00007047F9D390
:10E970005708D0E746EA064613F1400F4FEA16461D
:10E980001FDD13F1200FDFBF16430A46002120339D
:10E990005B42BED0C3F1200746EA064602FA07F7FB
:10E9A0004FEA164646EA0706C3F1200722FA03F2A9
:10E9B00001FA07F721FA03F14FF0000342EA0702D8
:10E9C000A7E746EA020646EA06464FEA164646EA40
:10E9D0000106BCBF46EA0646360C4FF000034FF076
:10E9E00000024FF0000194E72DE9804C9A469346CF
:10E9F00070B491E8380007C831EA400C48BF34EAE7
:10EA0000430C03D5FFF7E6FDFFF780FFF0BCBDE840
:10EA1000008C2DE9804C9A46934670B491E83800FA
:10EA200007C810F0804F08BF13F0804F03D100F0EB
:10EA300005F8FFF76BFFF0BCBDE8008C20F07F47C6
:10EA400080EA030023F07F4C07EB0C03A3F57C5313
:10EA500000F00040A3F1FE0392F0000F00F0B3803D
:10EA600095F0000F00F077802DE901494FEA114041
:10EA70004FEA144621EA004800FB06FC24EA064758
:10EA800008FB06F607FB08F800FB07F718EB06483B
:10EA90004CEB164C4FEA124B18EB07484FEA154661
:10EAA0004CEB174022EA0B4E0BFB06FC25EA06470F
:10EAB0000EFB06F607FB0EFE0BFB07F71EEB064EE2
:10EAC0004CEB164C4FF000061EEB074E4CEB174B71
:10EAD00018EB0B0840F1000018EB0E0B58EB000888
:10EAE00040F100008F1A4FF000013CBFC943661B84
:10EAF00014BFB5EB040C00213CBFC943F61B4FEA21
:10EB000017444EEA8E0E27EA04454FEA1C4704FBE1
:10EB100007622CEA074C05FB07F70CFB05F604FB24
:10EB20000CFC16EB074642EB174216EB0C4642EB89
:10EB30001C421BEB060658EB0202414146EA9E06C8
:10EB400001D5BDE80189B619524141EB0101A3F19C
:10EB50000103BDE801894FEA14454FEA114724EA51
:10EB6000054621EA074C05FB07F406FB07F70CFBFB
:10EB700006F105FB0CFC11EB074144EB17444FEA8F
:10EB8000124711EB0C4144EB1C4422EA074C05FBF5
:10EB900007F206FB07F70CFB06F605FB0CFC16EB71
:10EBA000074642EB174216EB0C4642EB1C456A182F
:10EBB00054F1000148BF7047B619524141EB0101C1
:10EBC000A3F10103704795F0000F37D04FEA1142CF
:10EBD0004FEA144721EA024624EA074C02FB07F1F8
:10EBE00006FB07F70CFB06F402FB0CFC14EB0744D6
:10EBF00041EB17414FEA154714EB0C4441EB1C4124
:10EC000025EA074C02FB07F506FB07F70CFB06F6A7
:10EC100002FB0CFC16EB074645EB174516EB0C46C2
:10EC200045EB1C42121951F1000148BF7047B6195B
:10EC3000524141EB0101A3F1010370474FEA144532
:10EC40004FEA114724EA054621EA074C05FB07F184
:10EC500006FB07F70CFB06F24FF0000605FB0CFC69
:10EC600012EB074241EB174112EB0C4251EB1C41F6
:10EC700048BF7047921841EB0101A3F101037047AF
:10EC800010B503F055FFBDE8104003F033BD00217F
:10EC9000016041608160C160704700002DE9F84F5C
:10ECA00000270121594C3E464FF480703A46BC463D
:10ECB0004FEA010A00F1804303F5C0431D68012DAE
:10ECC00008D1D4F804530D4204D0C3F800C01B6827
:10ECD0000F430093001D4900521C80B2082AE9D35B
:10ECE0004B48DFF830910168012907D1C0F800C016
:10ECF00000680090D9F8006047F00047464D17F0D3
:10ED0000FF0F1CBF4FF00108002417D018EA070FAF
:10ED10000FD0A00000F1804101F5C041D1F81005ED
:10ED2000D1F81015C0F3042055F82420C1F3014197
:10ED30009047641C4FEA4808082CE7D317F0004FAF
:10ED40001ABF00274FF0FF38BDE8F88F4FF00009D9
:10ED50004C462A1992F860104AB221F0C000B2F174
:10ED6000FF3F1CBF0AFA00FC1CEA080F25D005EB88
:10ED700000024FEA911192F9402055F8223013B168
:10ED8000032902D003E0032917D147EA0C078200C8
:10ED900002F1A042D2F800B71CEA060FCBF3014BF8
:10EDA00003D0BBF1020F03D007E0BBF1030F04D186
:10EDB000032913D0002B18BF9847641C082CC8D314
:10EDC000B9F1000F08BFBDE8F88F12480068B042E3
:10EDD0001CBF0646B846B9D1BDE8F88FBBF1020F9B
:10EDE00014BF4FF0020C4FF0030CD2F800B72BF415
:10EDF000403BC2F800B7D2F800B74BEA0C4CC2F85F
:10EE000000C709F1010202F0FF09D3E700600040EA
:10EE10007C6100401005005004360020024A02EBDD
:10EE20008000016470470000F82E0020014902486C
:10EE300003F0E2BB7036002000C0014001490248E7
:10EE400003F0DABB78360020001002400149024886
:10EE500003F0D2BB803600200020024038B50E4CB3
:10EE6000D4F8040148B10020C4F80401D4F8040126
:10EE700000900A484168491C4160D4F840010028CC
:10EE800018BF05F0A9FBD4F84801002808BF38BD19
:10EE9000BDE8384003F01EBC0010014028300020BF
:10EEA0002DE9F0432B4C83B0D4F8040100262A4D01
:10EEB0000127B8B1C4F804618DF80060686801905A
:10EEC00026480068ADF80800E868002808BF85F803
:10EED000276004D06860A88A2881EE6027602968CE
:10EEE00068468847D4F8140100281FBFC4F814618D
:10EEF00085F8276003B0BDE8F0832C69002C19BFAA
:10EF00004FF000484FF48C7903B0BDE8F08300BFA8
:10EF1000B4FA84F028FA00F18C4309EB800000F188
:10EF2000804101F5E0410A6872B10E60A0F58C7075
:10EF3000C1088DF8041027EA90008DF800708DF854
:10EF40000500296868468847002CE1D103B0BDE878
:10EF5000F0830000007000408836002034760040C6
:10EF600070B492480125011D03780A1D08074FF06F
:10EF7000000C062B04BF0C7814F00F0F04D114788A
:10EF800004F0F004302C0CD0062B04BF0C7814F0E5
:10EF90000F0F0AD0062B04BF0C7814F00F0F19D1F5
:10EFA00013E0844E824C746707E0147804F0F00498
:10EFB000302C1CBF402C502CECD14FF08054D4F896
:10EFC00044427D4EC4F342343460147804F0F004BB
:10EFD000302C0CD0062B04BF0C7814F00F0F0CD083
:10EFE000062B04BF0C7814F00F0F1AD114E0734CE9
:10EFF000266826F08076266007E0147804F0F00496
:10F00000302C1CBF402C502CEAD1C0F80CC1C0F8E9
:10F0100010C16B4CC4F800C0147804F0F004302C1C
:10F0200006D0062B04BF0C7814F00F0F0AD104E0B1
:10F03000644B4FF0030119600BE0147804F0F00406
:10F04000302C06D0062B04BF097811F00F0F65D1C4
:10F050000DE05D4B4FF0050119605C490D605C49A6
:10F06000C1F800C003F104034FF03F0119601178AB
:10F0700001F0F001502951D156490968564A1160F2
:10F080005649096802F1040211605549096802F104
:10F09000040211605349096802F1040211605249E7
:10F0A000096802F1040211605049096802F1040282
:10F0B00011604F4909684F4A11604F49096802F1D0
:10F0C000040211604D49096802F1040211604C49C3
:10F0D000096802F1040211604A49096802F1040258
:10F0E00011604949096802F1040211604749096841
:10F0F000474A11604749096802F104021160464914
:10F10000096802F1040211604449096802F104022D
:10F1100011604349096802F10402116041490A681B
:10F1200042F470020A60BFF34F8FBFF36F8F4FF04E
:10F130001022D2F8001211F0004F04BFD2F80412CE
:10F1400011F0004F24D0384B1D6038480168002969
:10F15000FCD04FF01504C2F8004201680029FCD031
:10F16000C2F8044201680029FCD0C3F800C001685D
:10F170000029FCD0BFF34F8F2D4801682D4A01F4C0
:10F18000E06141EA02010160BFF34F8F00BFFDE77C
:10F190002A4A294911602A490D60C0F804C18560D6
:10F1A000D0F804110029FBD070BC7047E00F00F0CC
:10F1B0000DF0ADBA00C007403C050040FCED00E09A
:10F1C00038050040A0050040105600408856004019
:10F1D000185600400404001020C500400804001028
:10F1E0000C04001010040010140400101804001087
:10F1F0001C04001040C5004020040010240400102E
:10F20000280400102C0400103004001034040010F6
:10F2100060C50040380400103C0400104004001099
:10F220004404001088ED00E004E5014000E40140E2
:10F230000CED00E00400FA050090D003243000201B
:10F240001805004070B5534DD5F80403524C10F02A
:10F25000040F4FF000061CBFD5F8080100283CD071
:10F2600094F82400002833D0C5F80861D5F81805B3
:10F27000226BA16AC0B2885494F838300021FF2B69
:10F280000BD0834209D1206D40F400502065B4F8C2
:10F290004C0010F4005F18BF0121501C2063E26A8B
:10F2A000904204D3206D40F48070206500E0A1B14D
:10F2B00094F8540010F0020F04BF0420C5F80803AE
:10F2C00084F82460606B00281CBF6663804704E0FC
:10F2D000A26812B1002160689047D5F8040310F0CD
:10F2E000800F1CBFD5F81C01002828D094F83900E5
:10F2F00000B3D4E91010884208D2C5F81C61E16B54
:10F30000264A095C1160401C606418E094F85400BF
:10F3100010F0010F04BF8020C5F8080384F839609D
:10F32000206D40F004002065A06C00281CBFA6647E
:10F33000804704E0A26812B1012160689047D5F8C7
:10F340002401002808BF70BDC5F82461D5F88004E9
:10F35000C5F88004616BC0B2002908BF70BD226D82
:10F3600010F0020F42F0020222651CBF42F400625C
:10F37000226510F0040F03D0226D42F480622265F2
:10F3800010F0010F03D0206D40F400702065BDE83F
:10F390007040084700200040183700201C2500401E
:10F3A00070B505460C4624B105A12846FDF75EF868
:10F3B00003E005A12846FDF759F8284670BD000076
:10F3C0006D616E75000000006175746F00000000D3
:10F3D00070B505460C46002028602871102C24D0FA
:10F3E00008DC012C0DD0022C10D0042C13D0082CDA
:10F3F0002FD115E0202C1DD0402C20D0802C28D1DE
:10F4000022E018A12846FDF731F827E016A128468A
:10F41000FDF72CF822E015A12846FDF727F81DE09E
:10F4200013A12846FDF722F818E012A12846FDF79F
:10F430001DF813E010A12846FDF718F80EE00FA103
:10F440002846FDF713F809E00DA12846FDF70EF850
:10F4500004E021460CA0FCF7FDFF00BF00BF2846DA
:10F4600070BD00004E6F0000506972004D770000C3
:10F4700044617900536E780048796200566F6C00E1
:10F4800054657374000000004572726F72207661DB
:10F490006C75652025640A0D0000000070B50446F7
:10F4A0000D4600BF94F90000401C20B920220CA199
:10F4B0001BA003F053FA00BF3DB194F900000121F5
:10F4C00081401D4A116000BF08E094F9000001214D
:10F4D0008140194A121D116000BF00BF70BD0000BD
:10F4E0006D6265642F5441524745545F4E52463514
:10F4F000325F444B2F5441524745545F4E4F524464
:10F5000049432F5441524745545F4E5246352F6769
:10F5100070696F5F6F626A6563742E680000000037
:10F520006F626A2D3E70696E20213D202850696E01
:10F530004E616D65294E43000805005070B50146C7
:10F54000002000231F240A4605E012F8016B35183D
:10F55000E8B25D1CEBB2E51AF7D170BD02210C4A8E
:10F56000116000BF0B4909680029FBD00849091D3B
:10F57000086000BF074909680029FBD00021044A40
:10F58000116000BF034909680029FBD070470000E3
:10F5900004E5014000E4014000BF0D4A1278002A52
:10F5A000FBD101220B4B1A6000BF0B4A1268002AE4
:10F5B000FBD0016000BF084A1268002AFBD000227D
:10F5C000044B1A6000BF044A1268002AFBD070473F
:10F5D0003930002004E5014000E4014000200D49DD
:10F5E000086001208107086000BF0A480068002801
:10F5F000FBD002200849086000200649091D086068
:10F6000001208107886000BF0248001D00680028B3
:10F61000FAD07047000100401805004000B58DB0D9
:10F6200018480068401C17490860084600683C21DB
:10F63000B0FBF1F201FB1200029012480068B0FB2F
:10F64000F1F0B0FBF1F201FB120003900D480068ED
:10F650004FF46161B0FBF1F01821B0FBF1F201FB56
:10F6600012000490074800680749B0FBF1F00590CC
:10F670000298009005A0DDE903320599FCF7EAFE47
:10F680000DB000BD8C300020805101002564442065
:10F690002564482025644D202564530A0D00000090
:10F6A00009480068401C08490860084600680321B2
:10F6B000B0FBF1F201FB120010B901200349087000
:10F6C0000120034908707047D82F0020D52F002053
:10F6D000D32F002070B505460C4600202860287105
:10F6E000102C1DD006DC012C0BD0022C0ED0042CCB
:10F6F0002AD110E0202C18D0402C1BD0802C23D1F4
:10F700001DE015A12846FCF7B1FE22E013A1284612
:10F71000FCF7ACFE1DE012A12846FCF7A7FE18E09E
:10F7200010A12846FCF7A2FE13E00FA12846FCF723
:10F730009DFE0EE00DA12846FCF798FE09E00CA105
:10F740002846FCF793FE04E021460AA0FCF782FE5F
:10F7500000BF00BF284670BD5278000054780000FA
:10F760005352780052707400475700004D73740074
:10F77000544244004572726F722076616C75652048
:10F7800025640A0D0000000001200149087070473F
:10F79000D42F002000BF00BF00BF00BF00BFBFF3D9
:10F7A0004F8F00BF00BF00BF0948006800F4E06051
:10F7B00008490843001D0649086000BF00BF00BF9C
:10F7C000BFF34F8F00BF00BF00BF00BF00BFFDE70A
:10F7D0000CED00E00000FA050FB410B50446104926
:10F7E000039808600846006801F078F80D49086041
:10F7F000084600680C4908600C49049808600C49E8
:10F80000059808600B49069808600B49079808603E
:10F810000A4908980860204610BC5DF814FB0000F7
:10F8200004310020083100200C310020103100206C
:10F8300014310020183100201C310020203100201C
:10F84000704700000FB470B504460B9D1049059831
:10F8500008600846006801F041F80E490860084653
:10F8600000680D4908600D49069808600C49079822
:10F8700008600C49089808600B49099808600B4912
:10F880000A9808600A480560204670BC5DF814FBC1
:10F8900024310020283100202C310020303100207C
:10F8A00034310020383100203C310020403100202C
:10F8B000443100200021074A11600121064A1161EC
:10F8C00000BF044909680029FBD00121034A1170D7
:10F8D000704700001011004000100040323000203E
:10F8E0000021014A11707047313000200146014863
:10F8F000704700008837002010B504462046FFF707
:10F90000D9FF0021204600F00FF900BF0C48006825
:10F910000028FBD000200A4908600120094908702E
:10F92000094882780948016809A0FCF793FD204640
:10F93000FFF7C0FF0121204600F0F6F810BD0000DF
:10F940000C110040303000207C37002008150040AA
:10F9500043683D25642C20486F703D25640A0D00E6
:10F9600030B50446002509480068012804D108483C
:10F9700085880120074908702046FFF79BFF012179
:10F98000204600F0D1F8284630BD000000140040A9
:10F99000883700203130002070B505460C460A48F3
:10F9A00094E80E000EC0FFF719FE07480EC828465F
:10F9B00000F078F89FED050A04F078FE0121284652
:10F9C00000F0B2F870BD00007C3700206F12033BDE
:10F9D000F8B505460E46684601F0F0FC1E48816801
:10F9E0001EA0FCF737FD00271E20204908602022BA
:10F9F00031461F48FDF782F81D48018A0183008ABD
:10FA0000401C81B21A484183042200F11801684663
:10FA100001F08CFC014616488183FFF78FFD1449E5
:10FA2000C8770D488778807803280FD000240AE033
:10FA300009498C7008460EC8284600F033F828465D
:10FA4000FFF75AFF641C032CF2DB02E02846FFF7A5
:10FA500053FF01488770F8BD7C37002073656E64E2
:10FA60005266204368203D25640A0D003430002092
:10FA7000A837002010B504460748007840B1074871
:10FA8000006828B10020054908602046FFF768FF9C
:10FA90000348007810BD0000323000200C110040F7
:10FAA000313000201FB504469DF808001A4908604F
:10FAB0009DF8050018B14920091F086022E09DF853
:10FAC000060003280AD146210398B0FBF1F201FB9E
:10FAD0001200401C1049091F086013E01721039809
:10FAE000B0FBF1F201FB12009DF80610172212FB89
:10FAF0000100401C0849091F08609DF8061007A076
:10FB0000FCF7A8FC9DF807000349091D086003994C
:10FB100088B204F039F81FBD0C150040486F703DE5
:10FB200025640A0D0000000001290ED10122144BAA
:10FB30001A70144A144B1A600022144B1A600122E6
:10FB4000134B5A6000221A600CE000220C4B1A7012
:10FB5000104A0D4B1A6000220C4B1A600C4B5A6075
:10FB600001221A6000BF094A1268002AFBD0002255
:10FB7000064B0C331A600122054B9A607047000057
:10FB8000323000208837002004150040001100406A
:10FB900000100040A837002070B5044600200D4931
:10FBA00008700D4908700D4D0D4E00BF05E0002195
:10FBB00006F8011B05F8011B401C2028F7D3012083
:10FBC000084908704FF0AA30206007A0FCF742FCFB
:10FBD000204670BD313000203030002088370020B2
:10FBE000A8370020323000204E65772052660A0D7B
:10FBF0000000000070B504460D4600202070294624
:10FC0000204602F06FFB204670BD70B504460D46DD
:10FC100000BF29462046FFF741FC00BF204670BDCB
:10FC200070B5044600680122002103692046984708
:10FC3000050048BF70BD20680222002103692046EC
:10FC400098470646206800222946036920469847BF
:10FC5000304670BD002070474C3004F09FB910B59D
:10FC60000C464C3004F0B4FA204610BD00EB0110F5
:10FC7000D0F88010002908BF704709687430084721
:10FC800070B504464C3004F05FFA054600F47C5130
:10FC9000A06C0026002818BF002906D004F13C0201
:10FCA00003684FF0010610469847A26B05F0FC016F
:10FCB000002A18BF002904D0126804F12C009047D4
:10FCC00002E0002E08BF70BDBDE8704004F0DABA53
:10FCD00070B5044600680D460168204688472946ED
:10FCE00004F14C0004F036F9C4F8945020684168DF
:10FCF0002046BDE8704008477047704770B504461D
:10FD0000006801682046884704F14C0004F078FA46
:10FD100005462068416820468847284670BD000097
:10FD20002DE9F047904689463B4A84B039491C4644
:10FD30000160D2E9023C00228360C0F80CC0374B5E
:10FD4000036148F207034361C261806100F1080268
:10FD50000262334A4262BFF36F8FBFF34F8F0025B9
:10FD600080F8285080F82950C56205634563856393
:10FD7000C563056445648564C56405654565856539
:10FD8000C565056645668566C5660567022310225A
:10FD90002449743001F03EFBA0F17406AA460462C7
:10FDA00006EB0A1000F174046F4600950195029568
:10FDB0000395BC420DD0E168204600291CBF89682C
:10FDC00088473946039810B1426820469047039807
:10FDD000E0600399684600291CBF896888470AF1DA
:10FDE000010ABAF1020FDBD34246494606F14C0044
:10FDF00004F0ECF806F14C00D6F8941004F0AAF8E0
:10FE00003246094906F14C0004F098F904B0304636
:10FE1000BDE8F0875C500200B84E020001A090E8F7
:10FE2000074802008FEC01006DFC01002DE9F04352
:10FE3000054689B045480027B9462860CDF810909E
:10FE4000CDF81490CDF81890CDF81C90286804AE29
:10FE500007F0FF0801682846884701F083FF0798EC
:10FE600005EB08140028D4F880001BD0002808BF38
:10FE700004F0D8F97434B4420DD0E168204600296A
:10FE80001CBF89688847079818B1426831462046E8
:10FE900090470798E0600122414605F14C0004F0CC
:10FEA0005DF929E0002818BF04F0ECF96E467434BF
:10FEB000CDF80090CDF80490CDF80890CDF80C90D6
:10FEC000B4420DD0E168204600291CBF89688847EC
:10FED0003146039810B14268204690470398E0608D
:10FEE0000399684600291CBF89688847002241465B
:10FEF00005F14C0004F032F901F07EFF28684168FA
:10FF000028468847079804AA10B181681046884798
:10FF10007F1C022F92DB022310220D4905F1740091
:10FF2000FCF706FFA86C05F13C0410B1816820467F
:10FF3000884754F8040C103C10B18168204688476B
:10FF400009B0A4F12C00BDE8F08300005C50020071
:10FF5000F547020008B500F108010090D0F818C07C
:10FF6000604604F0CBF908BD0168896808478269DA
:10FF700000F10801104604F066BA000010B504460E
:10FF8000074820600020A060E0602061606102F00E
:10FF9000D7F80449A06104F072FA204610BD0000B1
:10FFA0007450020069FF010010B504460448206047
:10FFB00004F10801A06904F046FA204610BD0000D3
:10FFC0007450020030B583B005463A208DF8000029
:10FFD000CDF801506846FCF790FC040008D0286872
:10FFE000C1692846884718B120460021FCF7ACFCBF
:10FFF00003B0204630BD000070B5174C05462068A0
:020000040002F8
:10000000002804BF201D2060261DB04204D05B22C2
:100010001249134802F0A2FC00212468114B10225F
:10002000084600BF53F821C0AC4508BF43F8210083
:10003000491C521EF6D10848002C04BF011D016066
:100040000068B04208BF70BD5B22BDE87040034944
:10005000034802F083BC000010300020DC51020095
:10006000C8510200C43500200021FCF76DBC10B55A
:10007000044601F077FE00BF207A012803D104F086
:1000800001F90020207200BF01F0B6FE204610BD2D
:1000900070B52DED028B0546B0EE408A2C46F0EE91
:1000A000488A01F05FFE00BF207A18B904F0BAF860
:1000B0000120207200BFB0EE680A204603F0C6F9A6
:1000C00001F09AFE00BF2846BDEC028B70BD704760
:1000D0007047000010B51C46029BFFF721FE214629
:1000E000983000F065F8054940F8981D7C31C0F85B
:1000F0009C105C39C0F8981010BD000088500200B8
:1001000010B5074940F89C1B7C3140F804195C3954
:10011000016000F085F8BDE810409838FFF786BE12
:100120008850020070472DE9F041054600680F46EF
:100130000C468E18C16C28468847B4420AD02868FD
:10014000826C28469047B0F1FF3F03D004F8010BC2
:10015000B442F4D12868016D28468847E01BBDE809
:10016000F0810020704700207047002070472DE983
:10017000F041054600680F460C468E18C16C2846B3
:100180008847B4420AD0286814F8011B426C2846FC
:100190009047B0F1FF3F18BFB442F4D12868016D19
:1001A00028468847E01BBDE8F08100207047704773
:1001B00010B5104A40F8042B002200F0D5F9041FB6
:1001C0000D4820605C306060002060610BA120461B
:1001D00000F04EF901000846616102D0FFF744FFCC
:1001E00005E0FCF74BF8016805A001F041FE204650
:1001F00010BD00001050020014510200772B0000C7
:1002000053747265616D206F626A206661696C75F6
:1002100072652C206572726E6F3D25640D0A0000B8
:1002200010B50446054820605C3060606069FCF7EA
:1002300095FB201D00F0B8F9001F10BD14510200FD
:1002400070B515461E46044601F08CFD2046FFF7AA
:100250008EFEC4E90856A06904F0D5F8D4E9082355
:1002600082184B412046FFF775FEBDE8704001F053
:10027000C3BD00002DE9F0412DED028B84B0044692
:100280000D46B0EE408A9FED0F0A28EE000A10EEF0
:10029000101A084604F040FD06460F4629466846F7
:1002A00004F09AFA804632463B464146204600F02A
:1002B00052F8684604F09EFA04B0BDEC028BBDE82B
:1002C000F08100000024744930B585B0044601F087
:1002D00049FD2046FFF74BFE606B00281EBF94F8D7
:1002E0003800002803F0CEFF6D460020283400902F
:1002F000019002900390AC420ED0E16820460029A4
:100300001CBF896888473CB12946039810B14268F0
:10031000204690470398E0600399684600291CBF77
:100320008968884701F068FD05B030BD10B5044606
:10033000D4E90801D4E9022312184B412046FFF703
:1003400009FE616B002908BF10BD04F1280009688F
:10035000BDE8104008472DE9F04705468946174695
:10036000984601F0FFFC00BF686B08B1012000E077
:10037000002020B995F8380008B103F053FF05F1CB
:100380002804CA4654450BD0204604F033FA00BF77
:1003900000BF261E04D05146304604F01DFA064622
:1003A00000BF3A4643462846FFF74AFF01F024FDC6
:1003B000BDE8F08710B504462046FFF7DFFD044690
:1003C000204600BF044607482060002104F12800B1
:1003D00004F0E6F9A0F12804012084F83800204652
:1003E00010BD00008051020070B5054684B01F4862
:1003F000286001F0B7FC2846FFF7B9FD686B0028BC
:100400001EBF95F83800002803F03CFF05F12804D2
:1004100000206E460090019002900390B4420ED0EE
:10042000E168204600291CBF896888473CB13146F5
:10043000039810B14268204690470398E060039902
:10044000684600291CBF8968884701F0D5FC686BA5
:1004500005F1280410B181682046884704B0A4F152
:100460002800BDE87040FFF79FBD000080510200EA
:10047000FFF7A8BD10B500F12804406B28B940F281
:100480000E220549054802F069FAE0680168204635
:10049000BDE810400847000035520200305202000B
:1004A00010B50446084820602046FFF70DFF616B39
:1004B00004F1280000291CBF896888472046BDE850
:1004C0001040FFF771BD00008051020070B5054675
:1004D000024804F041F9044600BF70BD48310020D5
:1004E00070B50546024804F037F9044600BF70BDF8
:1004F000483100207047007B7047000070B5064609
:100500000D46154804F028F914480468F4B1A068B1
:10051000C8B12A463146FCF7A6FAA0B9A068FCF794
:1005200083FAA8420FD10C480168002904BF011DBD
:100530000160001D814204D05B220949094802F094
:100540000DFA204670BD6468002CE0D1024804F02A
:1005500003F9002070BD0000583100205431002004
:10056000DC510200C851020070B504460B48002659
:10057000A160C4E900060D462273094804F0ECF8B6
:10058000002D08BF666003D0064801686160046002
:10059000034804F0E1F8204670BD0000C05102009D
:1005A000583100205431002010B504461048206016
:1005B000104804F0D1F8A06878B10F490868A0424B
:1005C00004BF6068086008D04168A14203D00846B3
:1005D0004968A142FBD161684160064804F0BCF85B
:1005E000207B002804BF201FFFF706FD204610BD1A
:1005F000C0510200583100205431002010B504468B
:10060000406818B1FFF777FF012801D0002010BD26
:100610006068002818BF001F10BD10B50446406870
:1006200010B1FFF768FF08B1002010BD6068002816
:1006300018BF001F10BD4068002818BF0120704778
:1006400010B54068002808BF10BDFFF754FF002810
:100650000CBF0120002010BD0068704710B5044693
:1006600000202060606008782F280DD1487858B1AC
:100670004B1C00212360226810782F2806D038B147
:10068000501C491C2060F6E7204610BD501C20601D
:100690001846FFF733FF6060204610BD2DE9F04794
:1006A00082464FF001094FF0805007694069A0F180
:1006B000010807FB08F52846FEF750FF164C0026F8
:1006C00005E002CC28462D1DFEF766FF761C232E82
:1006D000F7D307FB08F5104C00260DE028682168C9
:1006E000884206D031460DA02268FBF7B3FE4FF0DA
:1006F00000092D1D241D761C232EEFD3B9F1000F08
:1007000003D008A0FBF7A6FE02E00AA0FBF7A2FEBA
:100710004846BDE8F0870000C837002025642C2536
:10072000640A0D0057466C617368204F6B210A0DF7
:10073000000000005772697465204661696C210AE7
:100740000D0000002DE9F04782464FF001094FF0FF
:10075000805007694069A0F1010807FB08F4124DB9
:10076000002002E002CC02C5401C2328FAD307FB7C
:1007700008F40D4D00260DE028682168884206D057
:1007800031460AA02268FBF765FE4FF000092D1DD7
:10079000241D761C232EEFD3B9F1000F02D105A042
:1007A000FBF758FEBDE8F087C837002025642C25EC
:1007B000640A0D0052656164204661696C210A0D6E
:1007C0000000000030B58BB00546284600F086F8E2
:1007D0000446002003E0002104F8011B401C8C2883
:1007E000F9D303AC002003E0002104F8011B401CF6
:1007F0002028F9D32D20ADF810000A208DF80C0028
:100800009DF80F0020F00200801C8DF80F009DF86D
:100810000D0020F00100401C8DF80D009DF80E0029
:1008200020F00100401C8DF80E0064208DF81200AD
:1008300000218DF813108DF814100121ADF8181057
:10084000202203A92248FCF79EF90021204880F8C5
:10085000211001201E4981F82000FE211C4880F84B
:1008600022101C481A4988634AF61830C8630020D1
:1008700048640021164881646C46002003E0002192
:1008800004F8011B401C0C28F9D300208DF801004E
:100890008DF8000003208DF8020002208DF803007F
:1008A00004208DF804000020ADF80600BDF810000B
:1008B000029007489DE80E0024300EC09FED060A06
:1008C00003F0F4FE2846FFF7E9FE0BB030BD000050
:1008D000C8370020AA55AA55CDCCCC3D01460148C9
:1008E00070470000C837002070B504462046FFF767
:1008F00029FF2046FFF7F2FF8588294607A0FBF76E
:10090000A9FD0948806B0949884204D02046FFF7B9
:1009100059FF002070BD0120FCE700004769643DDD
:1009200025640A0D00000000C8370020AA55AA550A
:10093000704700000021014A117070473F300020CD
:1009400070B506460C467B2C09D10020234908705F
:100950008870012048700020214908703AE07D2C01
:1009600024D11E484078C8B11C488078442815D14D
:100970001CA0FBF76FFD002504E01B49485D02F059
:100980008BFC6D1C442DF8DB0120144908701449C0
:10099000087000201149887048701BE000200F4942
:1009A0000870887048700E49087013E00B48807812
:1009B000442807DD002009490870887048700849FC
:1009C000087007E0054881788078401C034A9070E1
:1009D000054844540248007870BD00003C300020B7
:1009E000403000200A0D0000743800200146014804
:1009F000704700005438002070B505460A48046866
:100A00002046FFF77BF908B1012000E0002040B14B
:100A100000BF0648FBF71DFFC4B221462846FFF77A
:100A20008FFF0348007870BD443000208C390020CF
:100A300040300020014A116070470000443000201F
:100A400008B5684600F0CAFB1AE00EA0FBF702FDED
:100A5000B6EE000A03F02AFE0021684600F07AFB99
:100A60000121684600F076FBB6EE000A03F01EFE98
:100A70000021684600F090FB0121684600F08CFBE5
:100A8000E3E700004475706C696361746520547815
:100A900020696E20746869732047726F75700A0D43
:100AA0000000000070B505460C461948016828464C
:100AB00000F00CF900B170BD15480168284600F03F
:100AC000B4F810B12846FFF7BBFF12A0FBF7C2FC39
:100AD0000F4800688079A0710D480068C179E17104
:100AE0000B480068017A2172094800688189A18158
:100AF00007480068417A617205480168284600F09D
:100B00008FF810B1A0780749087000BFD3E7000044
:100B1000C030002070726F63526570656174436D00
:100B2000640A0D007130002070B52DED048B044671
:100B30000D4611480168204600F0C8F810B1BDEC20
:100B4000048B70BD0C48006880894FF47A7148436B
:100B50000A49486008490968887903F0F9FF9FED60
:100B6000080B53EC102B03F09BFE03F067FE0349C8
:100B7000886200BFE3E70000C0300020C8380020D2
:100B8000000000000000594030B52DED048B81B00D
:100B900005460C46684600F011FC18A0FBF75AFC0D
:100BA0001A480168284600F091F818B101B0BDEC70
:100BB000048B30BD15480168284600F036F810B1A6
:100BC0002846FFF73DFF402011490870217A0F4861
:100BD00000680172207A03F0BBFF41EC190B9FED16
:100BE0000D0B53EC102B03F05BFE41EC180B03F0E4
:100BF00025FE0A49886200BFD8E7000070726F6363
:100C0000566F6C756D65436D640A0D00C030002031
:100C1000713000200000000000005940C83800205A
:100C20000246487800F00100704702464878C0F359
:100C3000400070477CB506460C4601A800F0BEFB9C
:100C4000684600F0CBFAA57B082D24D006DC062DE3
:100C50002CD2DFE805F01213181D1E1F0E2D22D016
:100C600006DC0A2D18D00B2D17D00D2D1ED115E046
:100C7000642D19D0662D19D117E01CE021463046AD
:100C8000FFF752FF17E021463046FFF70BFF12E057
:100C900011E010E00FE00EE00DE00CE021463046E0
:100CA000FFF772FF07E006E005E004E0294603A035
:100CB000FBF7D0FB00BF00BF7CBD0000436865634D
:100CC0006B20436D642025640A0D000002464878BD
:100CD000C0F3801018B94878C0F3401008B1012063
:100CE00070470020FCE700000FB470B504460B9D70
:100CF00010490598086008460068FFF7EFFD0E49A7
:100D00000860084600680D4908600D4906980860AB
:100D10000C49079808600C49089808600B49099825
:100D200008600B490A9808600A480560204670BCB4
:100D30005DF814FBB8300020BC300020C03000202B
:100D4000C4300020C8300020CC300020D03000203B
:100D5000D4300020D83000200021104A1170DFED7F
:100D6000100A1146C1ED080AF6EE000AC1ED060AA6
:100D7000F6EE000AC1ED070AF6EE000AC1ED090A17
:100D8000D1ED080A70EEA00A70EEC00AC1ED040AA7
:100D900081ED050A81ED020A70470000C838002085
:100DA000000000002DE9F04107460C460A480460A7
:100DB0000A4D4FF4967600F0D5FF3146284602F0F2
:100DC00029FB01F019F800BF9FED050A2846FFF73F
:100DD0005FF93846BDE8F0816C300020BC38002057
:100DE0009A99993E38B505460C46684600F0E6FAF1
:100DF00004480068401C034908602146684600F02A
:100E000031FA38BDB43000200FB470B504460B9DE4
:100E100010490598086008460068FFF75FFD0E4915
:100E20000860084600680D4908600D49069808608A
:100E30000C49079808600C49089808600B49099804
:100E400008600B490A9808600A480560204670BC93
:100E50005DF814FB90300020943000209830002082
:100E60009C300020A0300020A4300020A8300020BA
:100E7000AC300020B030002070B504460D4602A012
:100E8000FBF7E8FA70BD0000436F6E766572742060
:100E900066726F6D2075696E74385F742A20746F86
:100EA0002072664672616D655F742A0A0D0000004B
:100EB00010B5059C10BD000038B505460C466846C7
:100EC00000F07CFA0E480068401C0D49086060780C
:100ED000C0F3400060B10BA0FBF7BCFA21462846E6
:100EE00000F022F821460B480068FEF771FD02E091
:100EF00009A0FBF7AFFA2146684600F0B3F938BD08
:100F0000003100204D7920526F6C652069732054A8
:100F1000780A0D00E83000204D7920526F6C652072
:100F200069732052780A0D0040228A700B220A70E1
:100F300064228A736723CB7332230B7270470000DD
:100F40000FB470B504460B9D10490598086008461B
:100F50000068FFF7C3FC0E490860084600680D49A9
:100F600008600D49069808600C49079808600C490C
:100F7000089808600B49099808600B490A980860AE
:100F80000A480560204670BC5DF814FBDC30002088
:100F9000E0300020E4300020E8300020EC30002079
:100FA000F0300020F4300020F8300020FC30002029
:100FB00070B504460448006800F12405294620461F
:100FC000FEF7EAFC70BD00004C30002070B505460D
:100FD0000C4618A0FBF73EFAA18823A0FBF73AFACB
:100FE000217824A0FBF736FA617825A0FBF732FAC6
:100FF000A17826A0FBF72EFAA17927A0FBF72AFA01
:10100000E17928A0FBF726FA217A29A0FBF722FA3A
:10101000617A2AA0FBF71EFAA17A2BA0FBF71AFA35
:10102000E17A2CA0FBF716FAA1892DA0FBF712FAA2
:1010300070BD00000A0D2D2D2D2D2D2D2D2D2D2DAA
:101040002D2D2D204E6577204672616D65204661FD
:1010500063746F72202D2D2D2D2D2D2D2D2D2D2DC9
:101060002D2D2D0A0D0000004769643D25640A0DF1
:10107000000000005069643D25640A0D0000000076
:10108000527854783D25640A0D00000053656E7354
:101090006F723D25640A0D00486967683D25640A42
:1010A0000D0000004C6F773D25640A0D0000000024
:1010B0004C6576656C3D25640A0D000054797065B9
:1010C0003D25640A0D000000526174653D25640AE7
:1010D0000D0000005374617475733D25640A0D00A2
:1010E0004454696D653D25640A0D000070B50546E0
:1010F0000C462846FEF750FD054609480460006886
:10110000FFF7ECFB074908600846006806490860DD
:10111000084601682846FFF759FF284670BD0000C1
:10112000483000204C30002050300020014601485B
:1011300070470000043900200146014800787047DC
:10114000803000200021014A11707047803000205B
:101150007047000070B505460C4614B1012C10D143
:1011600007E001200849487000210848FEF74DFDBE
:1011700008E001200649487000210648FEF745FDB9
:1011800000E000BF00BF70BD56300020543000208A
:101190005A3000205530002070B505460C4614B179
:1011A000012C10D107E001200849487001210848AE
:1011B000FEF72BFD08E00120064948700121064892
:1011C000FEF723FD00E000BF00BF70BD56300020D9
:1011D000543000205A300020553000207047000065
:1011E0007FB505460749684603F0DAFA0446B0EED3
:1011F000080A21460448FFF73DF8684603F0FAFA6A
:101200007FBD000095F70100183900207FB5054625
:101210000E4609A0FBF71EF91049684603F0C0FA14
:101220000446B0EE080A21460D48FFF723F8684649
:1012300003F0E0FA7FBD00002D2D2D2D2D2D2D2D3D
:101240002D2D2D2D2D2D6C6F6164207365745764C9
:101250007452656C6F61640A0D00000095F701001F
:101260001839002070B52DED028B84B006460C466F
:10127000617802A8FEF72EFA05462278A1882B464F
:1012800018A0FBF7E7F8A17802A8FEF7A1F8054639
:10129000294619A0FBF7DEF8FEF7C0F918480179D6
:1012A00002A8FEF77DF80546294616A0FBF7D2F8FE
:1012B0001348417902A8FEF78BF80546104890EDD7
:1012C000000A10EE101A084603F0AAFC41EC180BB5
:1012D00053EC182B0EA00095FBF7BCF804B0BDEC46
:1012E000028B70BD473A256420503A25642052781D
:1012F00054783A257300000020533A25730A0D00F4
:101300008430002044696D203A25732C20000000B1
:1013100070776D203D2025302E33662C2054797057
:1013200065203D2025730A0D000000002DE9F043E3
:1013300081460B4614460021002748F2050813B9E0
:101340000020BDE8F08316E04FEAE13C4FF6FF7065
:1013500000EA41011878384100F0010001437F1C88
:10136000072F03DD00275B1C601E84B2BCF1000F59
:1013700001D081EA0801002CE6DC00220BE04FEAF4
:10138000E13C4FF6FF7000EA4101BCF1000F01D0D3
:1013900081EA0801521C102AF1DB00254FF40042BB
:1013A000012607E002EA010010B145EA060085B215
:1013B00052107600002AF5D12846C2E77047014650
:1013C000002008700878704700210170704770474E
:1013D00070479838FEF740BC9838FEF740BC70471D
:1013E00003B401984100009850EAC12018BF0420BE
:1013F0004A0D18BF40F0010040F2FF72B2EB515F9E
:1014000008BF40F00200012808BF052002B0704765
:10141000012070472DE9F0411C4617460E0080461A
:1014200007D0054602E02846B0473D442046641EEA
:10143000F9D24046BDE8F0810020FCF758BC00001E
:1014400070B5164C0325164820602046FFF73EF87D
:101450002946201D00F0E2FA2046FFF741F800BFC0
:101460002646104A10493046FFF7D2FF0F4C13258D
:101470000020207200F076FC2946204601F016FF7D
:1014800000F0BAFC00BF2646064A09493046FFF77D
:10149000BFFF0848FFF7A2FE70BD000060300020CB
:1014A000A851020000C00100F5040200BC38002071
:1014B0006F0002006830002010B511210348FEF7CC
:1014C00099FB12210248FEF795FB10BD5430002015
:1014D0005530002070B5114D2C462046FEF74EFDCC
:1014E0000446204600BF04460D482060002104F158
:1014F000280003F055F9A0F12804012084F83800F1
:1015000000BF2546284600BF054606482E46064A27
:10151000064928603046FFF77BFF70BD1839002070
:10152000805102009451020000C00100A104020099
:10153000F8B54FF4165000230822062100901A48EF
:10154000FEF7C8FD0446194A1949FFF761FF19481B
:10155000FFF7EEF91848FFF7FBFD1848FFF737FFD4
:10156000174C16250020207200F0FCFB294620466F
:1015700001F09CFE00F040FC00BF26460B4A1149DA
:101580003046FFF745FF1048FEF714FF0446074AB0
:101590000E49FFF73DFF0E48FEF70CFF0446034AD5
:1015A0000A49FFF735FFF8BD8031002000C0010077
:1015B00001010200D02F0020D12F0020D22F0020C7
:1015C000343200206F00020040320020E9030200A4
:1015D0008032002010B500F009F810BD30380A281C
:1015E00001D20120704700207047000002486A467F
:1015F00020F0070070470000A73A002010B501F066
:1016000098FA10BD0328BCBF0020704710B5002217
:101610000E4901EB800151F80C0C41F80C2C68B11B
:1016200001684969884704005CBF002010BDFAF7D3
:1016300025FE614201604FF0FF3010BDFAF71EFE3B
:10164000092101604FF0FF3010BD0000C4350020BB
:1016500010B5032805DAFAF711FE05210160881F8D
:1016600010BD0D4901EB800050F80C0C60B1016811
:10167000896A8847040058BF10BDFAF7FFFD614230
:1016800001604FF0FF3010BDFAF7F8FD092101604D
:101690004FF0FF3010BD0000C43500200328BCBF50
:1016A0000120704710B50C4901EB800050F80C0C7C
:1016B00058B10168C9698847040058BF10BDFAF7DE
:1016C000DDFD61420160002010BDFAF7D7FD092160
:1016D0000160002010BD0000C43500202DE9F04756
:1016E0000E4684B081467449FBF7D0FA734C20B3A0
:1016F00073494846FBF7CAFA00282ED0714948467C
:10170000FBF7C4FA002838D06F4C2068002804BFCB
:10171000201D2060251DA84204D05B226B496C4827
:1017200001F01CF921686B4F002400BF57F824001A
:1017300098B3641C102CF9D332E0206848B9082211
:101740000621654802F042FC4FF41651624802F04F
:1017500001FC04B00020BDE8F087206848B90822E9
:1017600006215D4802F032FC4FF416515A4802F04F
:10177000F1FB04B00120BDE8F087206848B90822D9
:101780000621554802F022FC4FF41651524802F04F
:10179000E1FB04B00220BDE8F087FFE7102C15D371
:1017A000FAF76CFD1821016047480168002904BF61
:1017B000011D0160A94204D05B224449444801F064
:1017C000CDF804B04FF0FF30BDE8F0874FF0FF38A0
:1017D0003D4847F82480002904BF011D01600068CE
:1017E000A84204D05B223949394801F0B7F84FF0DC
:1017F000000ACDF808A099F800003A2808BFD9F8E7
:10180000010010D049466846FEF728FF6846FEF7FB
:1018100012FF1325D8B36846FEF712FF002868466A
:1018200008D0FEF7FAFE029047F8240004B0E01C4E
:10183000BDE8F087FEF7E2FE48B316F0020F18BFCE
:1018400002252ED016F00C0F18BF45F4007516F0C7
:10185000040F18BF45F4806506466846FEF7FCFE97
:10186000024630682B4602A9D0F808C03046E0474F
:10187000002808BF0298D7D00546FAF7FFFC694256
:10188000016047F824A004B04046BDE8F087FFE7B8
:10189000FAF7F4FC056047F824A004B04046BDE820
:1018A000F08716F0040F18BF0125CBD116F0080FF2
:1018B00014BF09250025C5E79C4D020020300020FB
:1018C000A34D0200AB4D020010300020DC5102009D
:1018D000C8510200C4350020F036002070B515460E
:1018E0000C46032812DA1648006848B90822062177
:1018F000144802F06BFB4FF41651124802F02AFB19
:10190000104802F04BFB207001240FE00E4901EB60
:10191000800050F80C0C58B101688B68214698473C
:10192000040003D5FAF7AAFC61420160281B70BDD0
:10193000FAF7A4FC092101604FF0FF3070BD0000F0
:1019400020300020F0360020C435002010B50022E1
:10195000032806DAFAF792FC1D2101604FF0FF30F0
:1019600010BD0D4B03EB800050F80C0C60B1036808
:101970001B699847040058BF10BDFAF77FFC61420D
:1019800001604FF0FF3010BDFAF778FC09210160CB
:101990004FF0FF3010BD0000C435002070B5154673
:1019A0000E46032818DA1948006848B908220621AB
:1019B000174802F00BFB4FF41651154802F0CAFA13
:1019C0000024002D06D9315D114802F001FC641C91
:1019D000A542F8D82C460FE00E4901EB800050F8E4
:1019E0000C0C58B10168CB6831469847040003D508
:1019F000FAF744FC61420160281B70BDFAF73EFC17
:101A0000092101604FF0FF3070BD00002030002040
:101A1000F0360020C43500207047000070B50C4639
:101A2000054682B020490720FDF7F8F91F492048F4
:101A300001F0B8FB002818BF082805D04FF0390284
:101A40001C491D4800F08AFFA01E0026032898BFED
:101A5000601E07D9A4F11C00032894BFA4F117004D
:101A6000344602D810F0FF0404D13C22114913A0DF
:101A700000F074FF2E70601E68700D48D0E90110F0
:101A8000CDE900108DF806406878694601F060FBEA
:101A9000002804BF02B070BD4522064910A000F026
:101AA0005DFF02B070BD0000A1EE0100191A020036
:101AB0007C4D0200C45202007C52020073616164DA
:101AC00063496E20213D204E52465F5341414443BD
